{
  "contractName": "AlchemixToken",
  "abi": [
    {
      "inputs": [],
      "stateMutability": "nonpayable",
      "type": "constructor"
    },
    {
      "anonymous": false,
      "inputs": [
        {
          "indexed": true,
          "internalType": "address",
          "name": "owner",
          "type": "address"
        },
        {
          "indexed": true,
          "internalType": "address",
          "name": "spender",
          "type": "address"
        },
        {
          "indexed": false,
          "internalType": "uint256",
          "name": "value",
          "type": "uint256"
        }
      ],
      "name": "Approval",
      "type": "event"
    },
    {
      "anonymous": false,
      "inputs": [
        {
          "indexed": true,
          "internalType": "bytes32",
          "name": "role",
          "type": "bytes32"
        },
        {
          "indexed": true,
          "internalType": "bytes32",
          "name": "previousAdminRole",
          "type": "bytes32"
        },
        {
          "indexed": true,
          "internalType": "bytes32",
          "name": "newAdminRole",
          "type": "bytes32"
        }
      ],
      "name": "RoleAdminChanged",
      "type": "event"
    },
    {
      "anonymous": false,
      "inputs": [
        {
          "indexed": true,
          "internalType": "bytes32",
          "name": "role",
          "type": "bytes32"
        },
        {
          "indexed": true,
          "internalType": "address",
          "name": "account",
          "type": "address"
        },
        {
          "indexed": true,
          "internalType": "address",
          "name": "sender",
          "type": "address"
        }
      ],
      "name": "RoleGranted",
      "type": "event"
    },
    {
      "anonymous": false,
      "inputs": [
        {
          "indexed": true,
          "internalType": "bytes32",
          "name": "role",
          "type": "bytes32"
        },
        {
          "indexed": true,
          "internalType": "address",
          "name": "account",
          "type": "address"
        },
        {
          "indexed": true,
          "internalType": "address",
          "name": "sender",
          "type": "address"
        }
      ],
      "name": "RoleRevoked",
      "type": "event"
    },
    {
      "anonymous": false,
      "inputs": [
        {
          "indexed": true,
          "internalType": "address",
          "name": "from",
          "type": "address"
        },
        {
          "indexed": true,
          "internalType": "address",
          "name": "to",
          "type": "address"
        },
        {
          "indexed": false,
          "internalType": "uint256",
          "name": "value",
          "type": "uint256"
        }
      ],
      "name": "Transfer",
      "type": "event"
    },
    {
      "inputs": [],
      "name": "ADMIN_ROLE",
      "outputs": [
        {
          "internalType": "bytes32",
          "name": "",
          "type": "bytes32"
        }
      ],
      "stateMutability": "view",
      "type": "function"
    },
    {
      "inputs": [],
      "name": "DEFAULT_ADMIN_ROLE",
      "outputs": [
        {
          "internalType": "bytes32",
          "name": "",
          "type": "bytes32"
        }
      ],
      "stateMutability": "view",
      "type": "function"
    },
    {
      "inputs": [],
      "name": "MINTER_ROLE",
      "outputs": [
        {
          "internalType": "bytes32",
          "name": "",
          "type": "bytes32"
        }
      ],
      "stateMutability": "view",
      "type": "function"
    },
    {
      "inputs": [
        {
          "internalType": "address",
          "name": "owner",
          "type": "address"
        },
        {
          "internalType": "address",
          "name": "spender",
          "type": "address"
        }
      ],
      "name": "allowance",
      "outputs": [
        {
          "internalType": "uint256",
          "name": "",
          "type": "uint256"
        }
      ],
      "stateMutability": "view",
      "type": "function"
    },
    {
      "inputs": [
        {
          "internalType": "address",
          "name": "spender",
          "type": "address"
        },
        {
          "internalType": "uint256",
          "name": "amount",
          "type": "uint256"
        }
      ],
      "name": "approve",
      "outputs": [
        {
          "internalType": "bool",
          "name": "",
          "type": "bool"
        }
      ],
      "stateMutability": "nonpayable",
      "type": "function"
    },
    {
      "inputs": [
        {
          "internalType": "address",
          "name": "account",
          "type": "address"
        }
      ],
      "name": "balanceOf",
      "outputs": [
        {
          "internalType": "uint256",
          "name": "",
          "type": "uint256"
        }
      ],
      "stateMutability": "view",
      "type": "function"
    },
    {
      "inputs": [],
      "name": "decimals",
      "outputs": [
        {
          "internalType": "uint8",
          "name": "",
          "type": "uint8"
        }
      ],
      "stateMutability": "view",
      "type": "function"
    },
    {
      "inputs": [
        {
          "internalType": "address",
          "name": "spender",
          "type": "address"
        },
        {
          "internalType": "uint256",
          "name": "subtractedValue",
          "type": "uint256"
        }
      ],
      "name": "decreaseAllowance",
      "outputs": [
        {
          "internalType": "bool",
          "name": "",
          "type": "bool"
        }
      ],
      "stateMutability": "nonpayable",
      "type": "function"
    },
    {
      "inputs": [
        {
          "internalType": "bytes32",
          "name": "role",
          "type": "bytes32"
        }
      ],
      "name": "getRoleAdmin",
      "outputs": [
        {
          "internalType": "bytes32",
          "name": "",
          "type": "bytes32"
        }
      ],
      "stateMutability": "view",
      "type": "function"
    },
    {
      "inputs": [
        {
          "internalType": "bytes32",
          "name": "role",
          "type": "bytes32"
        },
        {
          "internalType": "uint256",
          "name": "index",
          "type": "uint256"
        }
      ],
      "name": "getRoleMember",
      "outputs": [
        {
          "internalType": "address",
          "name": "",
          "type": "address"
        }
      ],
      "stateMutability": "view",
      "type": "function"
    },
    {
      "inputs": [
        {
          "internalType": "bytes32",
          "name": "role",
          "type": "bytes32"
        }
      ],
      "name": "getRoleMemberCount",
      "outputs": [
        {
          "internalType": "uint256",
          "name": "",
          "type": "uint256"
        }
      ],
      "stateMutability": "view",
      "type": "function"
    },
    {
      "inputs": [
        {
          "internalType": "bytes32",
          "name": "role",
          "type": "bytes32"
        },
        {
          "internalType": "address",
          "name": "account",
          "type": "address"
        }
      ],
      "name": "grantRole",
      "outputs": [],
      "stateMutability": "nonpayable",
      "type": "function"
    },
    {
      "inputs": [
        {
          "internalType": "bytes32",
          "name": "role",
          "type": "bytes32"
        },
        {
          "internalType": "address",
          "name": "account",
          "type": "address"
        }
      ],
      "name": "hasRole",
      "outputs": [
        {
          "internalType": "bool",
          "name": "",
          "type": "bool"
        }
      ],
      "stateMutability": "view",
      "type": "function"
    },
    {
      "inputs": [
        {
          "internalType": "address",
          "name": "spender",
          "type": "address"
        },
        {
          "internalType": "uint256",
          "name": "addedValue",
          "type": "uint256"
        }
      ],
      "name": "increaseAllowance",
      "outputs": [
        {
          "internalType": "bool",
          "name": "",
          "type": "bool"
        }
      ],
      "stateMutability": "nonpayable",
      "type": "function"
    },
    {
      "inputs": [],
      "name": "name",
      "outputs": [
        {
          "internalType": "string",
          "name": "",
          "type": "string"
        }
      ],
      "stateMutability": "view",
      "type": "function"
    },
    {
      "inputs": [
        {
          "internalType": "bytes32",
          "name": "role",
          "type": "bytes32"
        },
        {
          "internalType": "address",
          "name": "account",
          "type": "address"
        }
      ],
      "name": "renounceRole",
      "outputs": [],
      "stateMutability": "nonpayable",
      "type": "function"
    },
    {
      "inputs": [
        {
          "internalType": "bytes32",
          "name": "role",
          "type": "bytes32"
        },
        {
          "internalType": "address",
          "name": "account",
          "type": "address"
        }
      ],
      "name": "revokeRole",
      "outputs": [],
      "stateMutability": "nonpayable",
      "type": "function"
    },
    {
      "inputs": [],
      "name": "symbol",
      "outputs": [
        {
          "internalType": "string",
          "name": "",
          "type": "string"
        }
      ],
      "stateMutability": "view",
      "type": "function"
    },
    {
      "inputs": [],
      "name": "totalSupply",
      "outputs": [
        {
          "internalType": "uint256",
          "name": "",
          "type": "uint256"
        }
      ],
      "stateMutability": "view",
      "type": "function"
    },
    {
      "inputs": [
        {
          "internalType": "address",
          "name": "recipient",
          "type": "address"
        },
        {
          "internalType": "uint256",
          "name": "amount",
          "type": "uint256"
        }
      ],
      "name": "transfer",
      "outputs": [
        {
          "internalType": "bool",
          "name": "",
          "type": "bool"
        }
      ],
      "stateMutability": "nonpayable",
      "type": "function"
    },
    {
      "inputs": [
        {
          "internalType": "address",
          "name": "sender",
          "type": "address"
        },
        {
          "internalType": "address",
          "name": "recipient",
          "type": "address"
        },
        {
          "internalType": "uint256",
          "name": "amount",
          "type": "uint256"
        }
      ],
      "name": "transferFrom",
      "outputs": [
        {
          "internalType": "bool",
          "name": "",
          "type": "bool"
        }
      ],
      "stateMutability": "nonpayable",
      "type": "function"
    },
    {
      "inputs": [
        {
          "internalType": "address",
          "name": "_recipient",
          "type": "address"
        },
        {
          "internalType": "uint256",
          "name": "_amount",
          "type": "uint256"
        }
      ],
      "name": "mint",
      "outputs": [],
      "stateMutability": "nonpayable",
      "type": "function"
    }
  ],
  "bytecode": "0x60806040523480156200001157600080fd5b506040518060400160405280600881526020017f416c6368656d69780000000000000000000000000000000000000000000000008152506040518060400160405280600481526020017f414c435800000000000000000000000000000000000000000000000000000000815250816004908051906020019062000096929190620002ee565b508051620000ac906005906020840190620002ee565b50506006805460ff1916601217905550620000e060008051602062001a3b8339815191523364010000000062000161810204565b6200010460008051602062001a1b8339815191523364010000000062000161810204565b6200013760008051602062001a1b83398151915260008051602062001a3b8339815191526401000000006200017a810204565b6200015b60008051602062001a3b833981519152806401000000006200017a810204565b6200038a565b620001768282640100000000620001cc810204565b5050565b600082815260208190526040808220600201549051839285917fbd79b86ffe0ab8e8776151514217cd7cacd52c909f66475c3af44e129f0b00ff9190a460009182526020829052604090912060020155565b6000828152602081905260409020620001f49082640100000000620008d96200025182021704565b1562000176576200020d6401000000006200027a810204565b600160a060020a031681600160a060020a0316837f2f8788117e7eff1d82e926ec794901d17c78024a50270940304540a733656f0d60405160405180910390a45050565b60006200027183600160a060020a0384166401000000006200027e810204565b90505b92915050565b3390565b6000620002958383640100000000620002d6810204565b620002cd5750815460018181018455600084815260208082209093018490558454848252828601909352604090209190915562000274565b50600062000274565b60009081526001919091016020526040902054151590565b828054600181600116156101000203166002900490600052602060002090601f016020900481019282601f106200033157805160ff191683800117855562000361565b8280016001018555821562000361579182015b828111156200036157825182559160200191906001019062000344565b506200036f92915062000373565b5090565b5b808211156200036f576000815560010162000374565b611681806200039a6000396000f3fe608060405234801561001057600080fd5b506004361061019f576000357c01000000000000000000000000000000000000000000000000000000009004806375b238fc116100f5578063a457c2d7116100a9578063d539139311610083578063d539139314610317578063d547741f1461031f578063dd62ed3e146103325761019f565b8063a457c2d7146102de578063a9059cbb146102f1578063ca15c873146103045761019f565b806391d14854116100da57806391d14854146102bb57806395d89b41146102ce578063a217fddf146102d65761019f565b806375b238fc146102935780639010d07c1461029b5761019f565b80632f2ff15d116101575780633950935111610131578063395093511461025a57806340c10f191461026d57806370a08231146102805761019f565b80632f2ff15d1461021d578063313ce5671461023257806336568abe146102475761019f565b806318160ddd1161018857806318160ddd146101e257806323b872dd146101f7578063248a9ca31461020a5761019f565b806306fdde03146101a4578063095ea7b3146101c2575b600080fd5b6101ac610345565b6040516101b991906111a7565b60405180910390f35b6101d56101d03660046110e0565b6103f9565b6040516101b99190611193565b6101ea610417565b6040516101b9919061119e565b6101d56102053660046110a0565b61041d565b6101ea61021836600461110a565b6104be565b61023061022b366004611122565b6104d3565b005b61023a61053e565b6040516101b991906115a5565b610230610255366004611122565b610547565b6101d56102683660046110e0565b6105bd565b61023061027b3660046110e0565b610618565b6101ea61028e366004611051565b610682565b6101ea6106aa565b6102ae6102a9366004611151565b6106ce565b6040516101b99190611172565b6101d56102c9366004611122565b6106ed565b6101ac610705565b6101ea610784565b6101d56102ec3660046110e0565b610789565b6101d56102ff3660046110e0565b6107fe565b6101ea61031236600461110a565b610812565b6101ea610829565b61023061032d366004611122565b61084d565b6101ea61034036600461106c565b6108a1565b60048054604080516020601f60027fffffffffffffffffffffffffffffffffffffffffffffffffffffffffffffffff6101006001881615020190951694909404938401819004810282018101909252828152606093909290918301828280156103ef5780601f106103c4576101008083540402835291602001916103ef565b820191906000526020600020905b8154815290600101906020018083116103d257829003601f168201915b5050505050905090565b600061040d6104066108fb565b84846108ff565b5060015b92915050565b60035490565b600061042a848484610a0e565b6104b4846104366108fb565b6104af856040518060600160405280602881526020016115ff6028913973ffffffffffffffffffffffffffffffffffffffff8a166000908152600260205260408120906104816108fb565b73ffffffffffffffffffffffffffffffffffffffff1681526020810191909152604001600020549190610b98565b6108ff565b5060019392505050565b60009081526020819052604090206002015490565b6000828152602081905260409020600201546104f1906102c96108fb565b610530576040517f08c379a0000000000000000000000000000000000000000000000000000000008152600401610527906112d2565b60405180910390fd5b61053a8282610bde565b5050565b60065460ff1690565b61054f6108fb565b73ffffffffffffffffffffffffffffffffffffffff168173ffffffffffffffffffffffffffffffffffffffff16146105b3576040517f08c379a000000000000000000000000000000000000000000000000000000000815260040161052790611511565b61053a8282610c61565b600061040d6105ca6108fb565b846104af85600260006105db6108fb565b73ffffffffffffffffffffffffffffffffffffffff908116825260208083019390935260409182016000908120918c168152925290205490610ce4565b6106427ff0887ba65ee2024ea881d91b74c2450ef19e1557f03bed3ea9f16b037cbe2dc9336106ed565b610678576040517f08c379a000000000000000000000000000000000000000000000000000000000815260040161052790611420565b61053a8282610d23565b73ffffffffffffffffffffffffffffffffffffffff1660009081526001602052604090205490565b7fdf8b4c520ffe197c5343c6f5aec59570151ef9a492f2c624fd45ddde6135ec4281565b60008281526020819052604081206106e69083610e24565b9392505050565b60008281526020819052604081206106e69083610e30565b60058054604080516020601f60027fffffffffffffffffffffffffffffffffffffffffffffffffffffffffffffffff6101006001881615020190951694909404938401819004810282018101909252828152606093909290918301828280156103ef5780601f106103c4576101008083540402835291602001916103ef565b600081565b600061040d6107966108fb565b846104af8560405180606001604052806025815260200161162760259139600260006107c06108fb565b73ffffffffffffffffffffffffffffffffffffffff908116825260208083019390935260409182016000908120918d16815292529020549190610b98565b600061040d61080b6108fb565b8484610a0e565b600081815260208190526040812061041190610e52565b7ff0887ba65ee2024ea881d91b74c2450ef19e1557f03bed3ea9f16b037cbe2dc981565b60008281526020819052604090206002015461086b906102c96108fb565b6105b3576040517f08c379a0000000000000000000000000000000000000000000000000000000008152600401610527906113c3565b73ffffffffffffffffffffffffffffffffffffffff918216600090815260026020908152604080832093909416825291909152205490565b60006106e68373ffffffffffffffffffffffffffffffffffffffff8416610e5d565b3390565b73ffffffffffffffffffffffffffffffffffffffff831661094c576040517f08c379a0000000000000000000000000000000000000000000000000000000008152600401610527906114b4565b73ffffffffffffffffffffffffffffffffffffffff8216610999576040517f08c379a00000000000000000000000000000000000000000000000000000000081526004016105279061132f565b73ffffffffffffffffffffffffffffffffffffffff80841660008181526002602090815260408083209487168084529490915290819020849055517f8c5be1e5ebec7d5bd14f71427d1e84f3dd0314c0f7b2291e5b200ac8c7c3b92590610a0190859061119e565b60405180910390a3505050565b73ffffffffffffffffffffffffffffffffffffffff8316610a5b576040517f08c379a000000000000000000000000000000000000000000000000000000000815260040161052790611457565b73ffffffffffffffffffffffffffffffffffffffff8216610aa8576040517f08c379a000000000000000000000000000000000000000000000000000000000815260040161052790611275565b610ab3838383610ea7565b610afd816040518060600160405280602681526020016115d96026913973ffffffffffffffffffffffffffffffffffffffff86166000908152600160205260409020549190610b98565b73ffffffffffffffffffffffffffffffffffffffff8085166000908152600160205260408082209390935590841681522054610b399082610ce4565b73ffffffffffffffffffffffffffffffffffffffff80841660008181526001602052604090819020939093559151908516907fddf252ad1be2c89b69c2b068fc378daa952ba7f163c4a11628f55a4df523b3ef90610a0190859061119e565b60008184841115610bd6576040517f08c379a000000000000000000000000000000000000000000000000000000000815260040161052791906111a7565b505050900390565b6000828152602081905260409020610bf690826108d9565b1561053a57610c036108fb565b73ffffffffffffffffffffffffffffffffffffffff168173ffffffffffffffffffffffffffffffffffffffff16837f2f8788117e7eff1d82e926ec794901d17c78024a50270940304540a733656f0d60405160405180910390a45050565b6000828152602081905260409020610c799082610eac565b1561053a57610c866108fb565b73ffffffffffffffffffffffffffffffffffffffff168173ffffffffffffffffffffffffffffffffffffffff16837ff6391f5c32d9c69d2a47ea670b442974b53935d1edc7fd64eb21e047a839171b60405160405180910390a45050565b6000828201838110156106e6576040517f08c379a00000000000000000000000000000000000000000000000000000000081526004016105279061138c565b73ffffffffffffffffffffffffffffffffffffffff8216610d70576040517f08c379a00000000000000000000000000000000000000000000000000000000081526004016105279061156e565b610d7c60008383610ea7565b600354610d899082610ce4565b60035573ffffffffffffffffffffffffffffffffffffffff8216600090815260016020526040902054610dbc9082610ce4565b73ffffffffffffffffffffffffffffffffffffffff83166000818152600160205260408082209390935591519091907fddf252ad1be2c89b69c2b068fc378daa952ba7f163c4a11628f55a4df523b3ef90610e1890859061119e565b60405180910390a35050565b60006106e68383610ece565b60006106e68373ffffffffffffffffffffffffffffffffffffffff8416610f2d565b600061041182610f45565b6000610e698383610f2d565b610e9f57508154600181810184556000848152602080822090930184905584548482528286019093526040902091909155610411565b506000610411565b505050565b60006106e68373ffffffffffffffffffffffffffffffffffffffff8416610f49565b81546000908210610f0b576040517f08c379a000000000000000000000000000000000000000000000000000000000815260040161052790611218565b826000018281548110610f1a57fe5b9060005260206000200154905092915050565b60009081526001919091016020526040902054151590565b5490565b600081815260018301602052604081205480156110235783547fffffffffffffffffffffffffffffffffffffffffffffffffffffffffffffffff8083019190810190600090879083908110610f9a57fe5b9060005260206000200154905080876000018481548110610fb757fe5b600091825260208083209091019290925582815260018981019092526040902090840190558654879080610fe757fe5b60019003818190600052602060002001600090559055866001016000878152602001908152602001600020600090556001945050505050610411565b6000915050610411565b803573ffffffffffffffffffffffffffffffffffffffff8116811461041157600080fd5b600060208284031215611062578081fd5b6106e6838361102d565b6000806040838503121561107e578081fd5b611088848461102d565b9150611097846020850161102d565b90509250929050565b6000806000606084860312156110b4578081fd5b83356110bf816115b3565b925060208401356110cf816115b3565b929592945050506040919091013590565b600080604083850312156110f2578182fd5b6110fc848461102d565b946020939093013593505050565b60006020828403121561111b578081fd5b5035919050565b60008060408385031215611134578182fd5b823591506020830135611146816115b3565b809150509250929050565b60008060408385031215611163578182fd5b50508035926020909101359150565b73ffffffffffffffffffffffffffffffffffffffff91909116815260200190565b901515815260200190565b90815260200190565b6000602080835283518082850152825b818110156111d3578581018301518582016040015282016111b7565b818111156111e45783604083870101525b50601f017fffffffffffffffffffffffffffffffffffffffffffffffffffffffffffffffe016929092016040019392505050565b60208082526022908201527f456e756d657261626c655365743a20696e646578206f7574206f6620626f756e60408201527f6473000000000000000000000000000000000000000000000000000000000000606082015260800190565b60208082526023908201527f45524332303a207472616e7366657220746f20746865207a65726f206164647260408201527f6573730000000000000000000000000000000000000000000000000000000000606082015260800190565b6020808252602f908201527f416363657373436f6e74726f6c3a2073656e646572206d75737420626520616e60408201527f2061646d696e20746f206772616e740000000000000000000000000000000000606082015260800190565b60208082526022908201527f45524332303a20617070726f766520746f20746865207a65726f20616464726560408201527f7373000000000000000000000000000000000000000000000000000000000000606082015260800190565b6020808252601b908201527f536166654d6174683a206164646974696f6e206f766572666c6f770000000000604082015260600190565b60208082526030908201527f416363657373436f6e74726f6c3a2073656e646572206d75737420626520616e60408201527f2061646d696e20746f207265766f6b6500000000000000000000000000000000606082015260800190565b6020808252601a908201527f416c6368656d6978546f6b656e3a206f6e6c79206d696e746572000000000000604082015260600190565b60208082526025908201527f45524332303a207472616e736665722066726f6d20746865207a65726f20616460408201527f6472657373000000000000000000000000000000000000000000000000000000606082015260800190565b60208082526024908201527f45524332303a20617070726f76652066726f6d20746865207a65726f2061646460408201527f7265737300000000000000000000000000000000000000000000000000000000606082015260800190565b6020808252602f908201527f416363657373436f6e74726f6c3a2063616e206f6e6c792072656e6f756e636560408201527f20726f6c657320666f722073656c660000000000000000000000000000000000606082015260800190565b6020808252601f908201527f45524332303a206d696e7420746f20746865207a65726f206164647265737300604082015260600190565b60ff91909116815260200190565b73ffffffffffffffffffffffffffffffffffffffff811681146115d557600080fd5b5056fe45524332303a207472616e7366657220616d6f756e7420657863656564732062616c616e636545524332303a207472616e7366657220616d6f756e74206578636565647320616c6c6f77616e636545524332303a2064656372656173656420616c6c6f77616e63652062656c6f77207a65726fa264697066735822122015e07a4af999af1e9f06b093216f199ea6c17e307a9ea8cf9619ac22bd1d851b64736f6c634300060c0033f0887ba65ee2024ea881d91b74c2450ef19e1557f03bed3ea9f16b037cbe2dc9df8b4c520ffe197c5343c6f5aec59570151ef9a492f2c624fd45ddde6135ec42",
  "immutableReferences": {},
  "source": "// SPDX-License-Identifier: GPL-3.0\npragma solidity ^0.6.12;\npragma experimental ABIEncoderV2;\n\nimport {AccessControl} from \"@openzeppelin/contracts/access/AccessControl.sol\";\nimport {ERC20} from \"@openzeppelin/contracts/token/ERC20/ERC20.sol\";\nimport {Ownable} from \"@openzeppelin/contracts/access/Ownable.sol\";\n\nimport {IDetailedERC20} from \"./interfaces/IDetailedERC20.sol\";\n\n/// @title AlchemixToken\n///\n/// @dev This is the contract for the Alchemix governance token.\n///\n/// Initially, the contract deployer is given both the admin and minter role. This allows them to pre-mine tokens,\n/// transfer admin to a timelock contract, and lastly, grant the staking pools the minter role. After this is done,\n/// the deployer must revoke their admin role and minter role.\ncontract AlchemixToken is AccessControl, ERC20(\"Alchemix\", \"ALCX\") {\n\n  /// @dev The identifier of the role which maintains other roles.\n  bytes32 public constant ADMIN_ROLE = keccak256(\"ADMIN\");\n\n  /// @dev The identifier of the role which allows accounts to mint tokens.\n  bytes32 public constant MINTER_ROLE = keccak256(\"MINTER\");\n\n  constructor() public {\n    _setupRole(ADMIN_ROLE, msg.sender);\n    _setupRole(MINTER_ROLE, msg.sender);\n    _setRoleAdmin(MINTER_ROLE, ADMIN_ROLE);\n    _setRoleAdmin(ADMIN_ROLE, ADMIN_ROLE);\n  }\n\n  /// @dev A modifier which checks that the caller has the minter role.\n  modifier onlyMinter() {\n    require(hasRole(MINTER_ROLE, msg.sender), \"AlchemixToken: only minter\");\n    _;\n  }\n\n  /// @dev Mints tokens to a recipient.\n  ///\n  /// This function reverts if the caller does not have the minter role.\n  ///\n  /// @param _recipient the account to mint tokens to.\n  /// @param _amount    the amount of tokens to mint.\n  function mint(address _recipient, uint256 _amount) external onlyMinter {\n    _mint(_recipient, _amount);\n  }\n}",
  "sourcePath": "/Users/shr1ftyy/Personal/Computing/bounties/alcx/alchemix-protocol/contracts/AlchemixToken.sol",
  "compiler": {
    "name": "solc",
    "version": "0.6.12+commit.27d51765.Emscripten.clang"
  },
  "schemaVersion": "3.4.4",
  "updatedAt": "2022-01-11T09:34:07.433Z",
  "devdoc": {
    "details": "This is the contract for the Alchemix governance token. Initially, the contract deployer is given both the admin and minter role. This allows them to pre-mine tokens, transfer admin to a timelock contract, and lastly, grant the staking pools the minter role. After this is done, the deployer must revoke their admin role and minter role.",
    "kind": "dev",
    "methods": {
      "allowance(address,address)": {
        "details": "See {IERC20-allowance}."
      },
      "approve(address,uint256)": {
        "details": "See {IERC20-approve}. Requirements: - `spender` cannot be the zero address."
      },
      "balanceOf(address)": {
        "details": "See {IERC20-balanceOf}."
      },
      "decimals()": {
        "details": "Returns the number of decimals used to get its user representation. For example, if `decimals` equals `2`, a balance of `505` tokens should be displayed to a user as `5,05` (`505 / 10 ** 2`). Tokens usually opt for a value of 18, imitating the relationship between Ether and Wei. This is the value {ERC20} uses, unless {_setupDecimals} is called. NOTE: This information is only used for _display_ purposes: it in no way affects any of the arithmetic of the contract, including {IERC20-balanceOf} and {IERC20-transfer}."
      },
      "decreaseAllowance(address,uint256)": {
        "details": "Atomically decreases the allowance granted to `spender` by the caller. This is an alternative to {approve} that can be used as a mitigation for problems described in {IERC20-approve}. Emits an {Approval} event indicating the updated allowance. Requirements: - `spender` cannot be the zero address. - `spender` must have allowance for the caller of at least `subtractedValue`."
      },
      "getRoleAdmin(bytes32)": {
        "details": "Returns the admin role that controls `role`. See {grantRole} and {revokeRole}. To change a role's admin, use {_setRoleAdmin}."
      },
      "getRoleMember(bytes32,uint256)": {
        "details": "Returns one of the accounts that have `role`. `index` must be a value between 0 and {getRoleMemberCount}, non-inclusive. Role bearers are not sorted in any particular way, and their ordering may change at any point. WARNING: When using {getRoleMember} and {getRoleMemberCount}, make sure you perform all queries on the same block. See the following https://forum.openzeppelin.com/t/iterating-over-elements-on-enumerableset-in-openzeppelin-contracts/2296[forum post] for more information."
      },
      "getRoleMemberCount(bytes32)": {
        "details": "Returns the number of accounts that have `role`. Can be used together with {getRoleMember} to enumerate all bearers of a role."
      },
      "grantRole(bytes32,address)": {
        "details": "Grants `role` to `account`. If `account` had not been already granted `role`, emits a {RoleGranted} event. Requirements: - the caller must have ``role``'s admin role."
      },
      "hasRole(bytes32,address)": {
        "details": "Returns `true` if `account` has been granted `role`."
      },
      "increaseAllowance(address,uint256)": {
        "details": "Atomically increases the allowance granted to `spender` by the caller. This is an alternative to {approve} that can be used as a mitigation for problems described in {IERC20-approve}. Emits an {Approval} event indicating the updated allowance. Requirements: - `spender` cannot be the zero address."
      },
      "mint(address,uint256)": {
        "details": "Mints tokens to a recipient. This function reverts if the caller does not have the minter role.",
        "params": {
          "_amount": "the amount of tokens to mint.",
          "_recipient": "the account to mint tokens to."
        }
      },
      "name()": {
        "details": "Returns the name of the token."
      },
      "renounceRole(bytes32,address)": {
        "details": "Revokes `role` from the calling account. Roles are often managed via {grantRole} and {revokeRole}: this function's purpose is to provide a mechanism for accounts to lose their privileges if they are compromised (such as when a trusted device is misplaced). If the calling account had been granted `role`, emits a {RoleRevoked} event. Requirements: - the caller must be `account`."
      },
      "revokeRole(bytes32,address)": {
        "details": "Revokes `role` from `account`. If `account` had been granted `role`, emits a {RoleRevoked} event. Requirements: - the caller must have ``role``'s admin role."
      },
      "symbol()": {
        "details": "Returns the symbol of the token, usually a shorter version of the name."
      },
      "totalSupply()": {
        "details": "See {IERC20-totalSupply}."
      },
      "transfer(address,uint256)": {
        "details": "See {IERC20-transfer}. Requirements: - `recipient` cannot be the zero address. - the caller must have a balance of at least `amount`."
      },
      "transferFrom(address,address,uint256)": {
        "details": "See {IERC20-transferFrom}. Emits an {Approval} event indicating the updated allowance. This is not required by the EIP. See the note at the beginning of {ERC20}. Requirements: - `sender` and `recipient` cannot be the zero address. - `sender` must have a balance of at least `amount`. - the caller must have allowance for ``sender``'s tokens of at least `amount`."
      }
    },
    "stateVariables": {
      "ADMIN_ROLE": {
        "details": "The identifier of the role which maintains other roles."
      },
      "MINTER_ROLE": {
        "details": "The identifier of the role which allows accounts to mint tokens."
      }
    },
    "title": "AlchemixToken",
    "version": 1
  },
  "userdoc": {
    "kind": "user",
    "methods": {},
    "version": 1
  }
}