{
  "contractName": "AlchemistEth",
  "abi": [
    {
      "inputs": [
        {
          "internalType": "contract IMintableERC20",
          "name": "_token",
          "type": "address"
        },
        {
          "internalType": "contract AlEth",
          "name": "_xtoken",
          "type": "address"
        },
        {
          "internalType": "address",
          "name": "_governance",
          "type": "address"
        },
        {
          "internalType": "address",
          "name": "_sentinel",
          "type": "address"
        }
      ],
      "stateMutability": "nonpayable",
      "type": "constructor"
    },
    {
      "anonymous": false,
      "inputs": [
        {
          "indexed": true,
          "internalType": "contract IVaultAdapter",
          "name": "adapter",
          "type": "address"
        }
      ],
      "name": "ActiveVaultUpdated",
      "type": "event"
    },
    {
      "anonymous": false,
      "inputs": [
        {
          "indexed": false,
          "internalType": "address",
          "name": "user",
          "type": "address"
        },
        {
          "indexed": false,
          "internalType": "uint256",
          "name": "covertedAmount",
          "type": "uint256"
        }
      ],
      "name": "CollateralConverted",
      "type": "event"
    },
    {
      "anonymous": false,
      "inputs": [
        {
          "indexed": false,
          "internalType": "uint256",
          "name": "limit",
          "type": "uint256"
        }
      ],
      "name": "CollateralizationLimitUpdated",
      "type": "event"
    },
    {
      "anonymous": false,
      "inputs": [
        {
          "indexed": false,
          "internalType": "bool",
          "name": "status",
          "type": "bool"
        }
      ],
      "name": "ConversionPauseUpdated",
      "type": "event"
    },
    {
      "anonymous": false,
      "inputs": [
        {
          "indexed": false,
          "internalType": "bool",
          "name": "status",
          "type": "bool"
        }
      ],
      "name": "EmergencyExitUpdated",
      "type": "event"
    },
    {
      "anonymous": false,
      "inputs": [
        {
          "indexed": false,
          "internalType": "uint256",
          "name": "amount",
          "type": "uint256"
        }
      ],
      "name": "FundsFlushed",
      "type": "event"
    },
    {
      "anonymous": false,
      "inputs": [
        {
          "indexed": false,
          "internalType": "uint256",
          "name": "withdrawnAmount",
          "type": "uint256"
        },
        {
          "indexed": false,
          "internalType": "uint256",
          "name": "decreasedValue",
          "type": "uint256"
        }
      ],
      "name": "FundsHarvested",
      "type": "event"
    },
    {
      "anonymous": false,
      "inputs": [
        {
          "indexed": true,
          "internalType": "uint256",
          "name": "vaultId",
          "type": "uint256"
        },
        {
          "indexed": false,
          "internalType": "uint256",
          "name": "withdrawnAmount",
          "type": "uint256"
        },
        {
          "indexed": false,
          "internalType": "uint256",
          "name": "decreasedValue",
          "type": "uint256"
        }
      ],
      "name": "FundsRecalled",
      "type": "event"
    },
    {
      "anonymous": false,
      "inputs": [
        {
          "indexed": false,
          "internalType": "address",
          "name": "governance",
          "type": "address"
        }
      ],
      "name": "GovernanceUpdated",
      "type": "event"
    },
    {
      "anonymous": false,
      "inputs": [
        {
          "indexed": false,
          "internalType": "uint256",
          "name": "fee",
          "type": "uint256"
        }
      ],
      "name": "HarvestFeeUpdated",
      "type": "event"
    },
    {
      "anonymous": false,
      "inputs": [
        {
          "indexed": false,
          "internalType": "address[]",
          "name": "accounts",
          "type": "address[]"
        },
        {
          "indexed": false,
          "internalType": "bool[]",
          "name": "flag",
          "type": "bool[]"
        }
      ],
      "name": "KeepersSet",
      "type": "event"
    },
    {
      "anonymous": false,
      "inputs": [
        {
          "indexed": true,
          "internalType": "address",
          "name": "account",
          "type": "address"
        },
        {
          "indexed": false,
          "internalType": "uint256",
          "name": "mintedAmount",
          "type": "uint256"
        },
        {
          "indexed": false,
          "internalType": "address",
          "name": "syntheticAddress",
          "type": "address"
        }
      ],
      "name": "LoanMinted",
      "type": "event"
    },
    {
      "anonymous": false,
      "inputs": [
        {
          "indexed": false,
          "internalType": "address",
          "name": "pendingGovernance",
          "type": "address"
        }
      ],
      "name": "PendingGovernanceUpdated",
      "type": "event"
    },
    {
      "anonymous": false,
      "inputs": [
        {
          "indexed": false,
          "internalType": "address",
          "name": "treasury",
          "type": "address"
        }
      ],
      "name": "RewardsUpdated",
      "type": "event"
    },
    {
      "anonymous": false,
      "inputs": [
        {
          "indexed": false,
          "internalType": "address",
          "name": "sentinel",
          "type": "address"
        }
      ],
      "name": "SentinelUpdated",
      "type": "event"
    },
    {
      "anonymous": false,
      "inputs": [
        {
          "indexed": true,
          "internalType": "address",
          "name": "account",
          "type": "address"
        },
        {
          "indexed": false,
          "internalType": "uint256",
          "name": "amount",
          "type": "uint256"
        }
      ],
      "name": "TokensDeposited",
      "type": "event"
    },
    {
      "anonymous": false,
      "inputs": [
        {
          "indexed": true,
          "internalType": "address",
          "name": "account",
          "type": "address"
        },
        {
          "indexed": false,
          "internalType": "uint256",
          "name": "requestedAmount",
          "type": "uint256"
        },
        {
          "indexed": false,
          "internalType": "uint256",
          "name": "withdrawnAmount",
          "type": "uint256"
        },
        {
          "indexed": false,
          "internalType": "uint256",
          "name": "decreasedValue",
          "type": "uint256"
        }
      ],
      "name": "TokensLiquidated",
      "type": "event"
    },
    {
      "anonymous": false,
      "inputs": [
        {
          "indexed": true,
          "internalType": "address",
          "name": "account",
          "type": "address"
        },
        {
          "indexed": false,
          "internalType": "uint256",
          "name": "parentAmount",
          "type": "uint256"
        },
        {
          "indexed": false,
          "internalType": "uint256",
          "name": "childAmount",
          "type": "uint256"
        }
      ],
      "name": "TokensRepaid",
      "type": "event"
    },
    {
      "anonymous": false,
      "inputs": [
        {
          "indexed": true,
          "internalType": "address",
          "name": "account",
          "type": "address"
        },
        {
          "indexed": false,
          "internalType": "uint256",
          "name": "requestedAmount",
          "type": "uint256"
        },
        {
          "indexed": false,
          "internalType": "uint256",
          "name": "withdrawnAmount",
          "type": "uint256"
        },
        {
          "indexed": false,
          "internalType": "uint256",
          "name": "decreasedValue",
          "type": "uint256"
        }
      ],
      "name": "TokensWithdrawn",
      "type": "event"
    },
    {
      "anonymous": false,
      "inputs": [
        {
          "indexed": false,
          "internalType": "address",
          "name": "transmuter",
          "type": "address"
        }
      ],
      "name": "TransmuterUpdated",
      "type": "event"
    },
    {
      "inputs": [],
      "name": "MAXIMUM_COLLATERALIZATION_LIMIT",
      "outputs": [
        {
          "internalType": "uint256",
          "name": "",
          "type": "uint256"
        }
      ],
      "stateMutability": "view",
      "type": "function",
      "constant": true
    },
    {
      "inputs": [],
      "name": "MINIMUM_COLLATERALIZATION_LIMIT",
      "outputs": [
        {
          "internalType": "uint256",
          "name": "",
          "type": "uint256"
        }
      ],
      "stateMutability": "view",
      "type": "function",
      "constant": true
    },
    {
      "inputs": [],
      "name": "PERCENT_RESOLUTION",
      "outputs": [
        {
          "internalType": "uint256",
          "name": "",
          "type": "uint256"
        }
      ],
      "stateMutability": "view",
      "type": "function",
      "constant": true
    },
    {
      "inputs": [],
      "name": "ZERO_ADDRESS",
      "outputs": [
        {
          "internalType": "address",
          "name": "",
          "type": "address"
        }
      ],
      "stateMutability": "view",
      "type": "function",
      "constant": true
    },
    {
      "inputs": [
        {
          "internalType": "address",
          "name": "",
          "type": "address"
        }
      ],
      "name": "adapters",
      "outputs": [
        {
          "internalType": "bool",
          "name": "",
          "type": "bool"
        }
      ],
      "stateMutability": "view",
      "type": "function",
      "constant": true
    },
    {
      "inputs": [],
      "name": "emergencyExit",
      "outputs": [
        {
          "internalType": "bool",
          "name": "",
          "type": "bool"
        }
      ],
      "stateMutability": "view",
      "type": "function",
      "constant": true
    },
    {
      "inputs": [],
      "name": "flushActivator",
      "outputs": [
        {
          "internalType": "uint256",
          "name": "",
          "type": "uint256"
        }
      ],
      "stateMutability": "view",
      "type": "function",
      "constant": true
    },
    {
      "inputs": [],
      "name": "governance",
      "outputs": [
        {
          "internalType": "address",
          "name": "",
          "type": "address"
        }
      ],
      "stateMutability": "view",
      "type": "function",
      "constant": true
    },
    {
      "inputs": [],
      "name": "harvestFee",
      "outputs": [
        {
          "internalType": "uint256",
          "name": "",
          "type": "uint256"
        }
      ],
      "stateMutability": "view",
      "type": "function",
      "constant": true
    },
    {
      "inputs": [],
      "name": "initialized",
      "outputs": [
        {
          "internalType": "bool",
          "name": "",
          "type": "bool"
        }
      ],
      "stateMutability": "view",
      "type": "function",
      "constant": true
    },
    {
      "inputs": [
        {
          "internalType": "address",
          "name": "",
          "type": "address"
        }
      ],
      "name": "keepers",
      "outputs": [
        {
          "internalType": "bool",
          "name": "",
          "type": "bool"
        }
      ],
      "stateMutability": "view",
      "type": "function",
      "constant": true
    },
    {
      "inputs": [],
      "name": "pauseConvert",
      "outputs": [
        {
          "internalType": "bool",
          "name": "",
          "type": "bool"
        }
      ],
      "stateMutability": "view",
      "type": "function",
      "constant": true
    },
    {
      "inputs": [],
      "name": "pendingGovernance",
      "outputs": [
        {
          "internalType": "address",
          "name": "",
          "type": "address"
        }
      ],
      "stateMutability": "view",
      "type": "function",
      "constant": true
    },
    {
      "inputs": [],
      "name": "rewards",
      "outputs": [
        {
          "internalType": "address",
          "name": "",
          "type": "address"
        }
      ],
      "stateMutability": "view",
      "type": "function",
      "constant": true
    },
    {
      "inputs": [],
      "name": "sentinel",
      "outputs": [
        {
          "internalType": "address",
          "name": "",
          "type": "address"
        }
      ],
      "stateMutability": "view",
      "type": "function",
      "constant": true
    },
    {
      "inputs": [],
      "name": "token",
      "outputs": [
        {
          "internalType": "contract IMintableERC20",
          "name": "",
          "type": "address"
        }
      ],
      "stateMutability": "view",
      "type": "function",
      "constant": true
    },
    {
      "inputs": [],
      "name": "totalDeposited",
      "outputs": [
        {
          "internalType": "uint256",
          "name": "",
          "type": "uint256"
        }
      ],
      "stateMutability": "view",
      "type": "function",
      "constant": true
    },
    {
      "inputs": [],
      "name": "transmuter",
      "outputs": [
        {
          "internalType": "address",
          "name": "",
          "type": "address"
        }
      ],
      "stateMutability": "view",
      "type": "function",
      "constant": true
    },
    {
      "inputs": [],
      "name": "weth",
      "outputs": [
        {
          "internalType": "address",
          "name": "",
          "type": "address"
        }
      ],
      "stateMutability": "view",
      "type": "function",
      "constant": true
    },
    {
      "inputs": [],
      "name": "xtoken",
      "outputs": [
        {
          "internalType": "contract AlEth",
          "name": "",
          "type": "address"
        }
      ],
      "stateMutability": "view",
      "type": "function",
      "constant": true
    },
    {
      "stateMutability": "payable",
      "type": "receive",
      "payable": true
    },
    {
      "inputs": [
        {
          "internalType": "address",
          "name": "_pendingGovernance",
          "type": "address"
        }
      ],
      "name": "setPendingGovernance",
      "outputs": [],
      "stateMutability": "nonpayable",
      "type": "function"
    },
    {
      "inputs": [],
      "name": "acceptGovernance",
      "outputs": [],
      "stateMutability": "nonpayable",
      "type": "function"
    },
    {
      "inputs": [
        {
          "internalType": "address",
          "name": "_sentinel",
          "type": "address"
        }
      ],
      "name": "setSentinel",
      "outputs": [],
      "stateMutability": "nonpayable",
      "type": "function"
    },
    {
      "inputs": [
        {
          "internalType": "address",
          "name": "_transmuter",
          "type": "address"
        }
      ],
      "name": "setTransmuter",
      "outputs": [],
      "stateMutability": "nonpayable",
      "type": "function"
    },
    {
      "inputs": [
        {
          "internalType": "uint256",
          "name": "_flushActivator",
          "type": "uint256"
        }
      ],
      "name": "setFlushActivator",
      "outputs": [],
      "stateMutability": "nonpayable",
      "type": "function"
    },
    {
      "inputs": [
        {
          "internalType": "address",
          "name": "_rewards",
          "type": "address"
        }
      ],
      "name": "setRewards",
      "outputs": [],
      "stateMutability": "nonpayable",
      "type": "function"
    },
    {
      "inputs": [
        {
          "internalType": "uint256",
          "name": "_harvestFee",
          "type": "uint256"
        }
      ],
      "name": "setHarvestFee",
      "outputs": [],
      "stateMutability": "nonpayable",
      "type": "function"
    },
    {
      "inputs": [
        {
          "internalType": "uint256",
          "name": "_limit",
          "type": "uint256"
        }
      ],
      "name": "setCollateralizationLimit",
      "outputs": [],
      "stateMutability": "nonpayable",
      "type": "function"
    },
    {
      "inputs": [
        {
          "internalType": "bool",
          "name": "_emergencyExit",
          "type": "bool"
        }
      ],
      "name": "setEmergencyExit",
      "outputs": [],
      "stateMutability": "nonpayable",
      "type": "function"
    },
    {
      "inputs": [
        {
          "internalType": "bool",
          "name": "_pauseConvert",
          "type": "bool"
        }
      ],
      "name": "setPauseConvert",
      "outputs": [],
      "stateMutability": "nonpayable",
      "type": "function"
    },
    {
      "inputs": [
        {
          "internalType": "address[]",
          "name": "accounts",
          "type": "address[]"
        },
        {
          "internalType": "bool[]",
          "name": "flags",
          "type": "bool[]"
        }
      ],
      "name": "setKeepers",
      "outputs": [],
      "stateMutability": "nonpayable",
      "type": "function"
    },
    {
      "inputs": [],
      "name": "collateralizationLimit",
      "outputs": [
        {
          "components": [
            {
              "internalType": "uint256",
              "name": "x",
              "type": "uint256"
            }
          ],
          "internalType": "struct FixedPointMath.FixedDecimal",
          "name": "",
          "type": "tuple"
        }
      ],
      "stateMutability": "view",
      "type": "function",
      "constant": true
    },
    {
      "inputs": [
        {
          "internalType": "contract IVaultAdapter",
          "name": "_adapter",
          "type": "address"
        }
      ],
      "name": "initialize",
      "outputs": [],
      "stateMutability": "nonpayable",
      "type": "function"
    },
    {
      "inputs": [
        {
          "internalType": "contract IVaultAdapter",
          "name": "_adapter",
          "type": "address"
        }
      ],
      "name": "migrate",
      "outputs": [],
      "stateMutability": "nonpayable",
      "type": "function"
    },
    {
      "inputs": [
        {
          "internalType": "uint256",
          "name": "_vaultId",
          "type": "uint256"
        }
      ],
      "name": "harvest",
      "outputs": [
        {
          "internalType": "uint256",
          "name": "",
          "type": "uint256"
        },
        {
          "internalType": "uint256",
          "name": "",
          "type": "uint256"
        }
      ],
      "stateMutability": "nonpayable",
      "type": "function"
    },
    {
      "inputs": [
        {
          "internalType": "uint256",
          "name": "_vaultId",
          "type": "uint256"
        },
        {
          "internalType": "uint256",
          "name": "_amount",
          "type": "uint256"
        }
      ],
      "name": "recall",
      "outputs": [
        {
          "internalType": "uint256",
          "name": "",
          "type": "uint256"
        },
        {
          "internalType": "uint256",
          "name": "",
          "type": "uint256"
        }
      ],
      "stateMutability": "nonpayable",
      "type": "function"
    },
    {
      "inputs": [
        {
          "internalType": "uint256",
          "name": "_vaultId",
          "type": "uint256"
        }
      ],
      "name": "recallAll",
      "outputs": [
        {
          "internalType": "uint256",
          "name": "",
          "type": "uint256"
        },
        {
          "internalType": "uint256",
          "name": "",
          "type": "uint256"
        }
      ],
      "stateMutability": "nonpayable",
      "type": "function"
    },
    {
      "inputs": [],
      "name": "flush",
      "outputs": [
        {
          "internalType": "uint256",
          "name": "",
          "type": "uint256"
        }
      ],
      "stateMutability": "nonpayable",
      "type": "function"
    },
    {
      "inputs": [
        {
          "internalType": "uint256",
          "name": "_amount",
          "type": "uint256"
        },
        {
          "internalType": "bool",
          "name": "asEth",
          "type": "bool"
        }
      ],
      "name": "deposit",
      "outputs": [],
      "stateMutability": "payable",
      "type": "function",
      "payable": true
    },
    {
      "inputs": [
        {
          "internalType": "uint256",
          "name": "_amount",
          "type": "uint256"
        },
        {
          "internalType": "bool",
          "name": "asEth",
          "type": "bool"
        }
      ],
      "name": "withdraw",
      "outputs": [
        {
          "internalType": "uint256",
          "name": "",
          "type": "uint256"
        },
        {
          "internalType": "uint256",
          "name": "",
          "type": "uint256"
        }
      ],
      "stateMutability": "nonpayable",
      "type": "function"
    },
    {
      "inputs": [
        {
          "internalType": "uint256",
          "name": "_collateralAmount",
          "type": "uint256"
        },
        {
          "internalType": "uint256",
          "name": "_syntheticAmount",
          "type": "uint256"
        },
        {
          "internalType": "bool",
          "name": "collateralAsEth",
          "type": "bool"
        }
      ],
      "name": "repay",
      "outputs": [],
      "stateMutability": "payable",
      "type": "function",
      "payable": true
    },
    {
      "inputs": [
        {
          "internalType": "uint256",
          "name": "_amount",
          "type": "uint256"
        }
      ],
      "name": "liquidate",
      "outputs": [
        {
          "internalType": "uint256",
          "name": "",
          "type": "uint256"
        },
        {
          "internalType": "uint256",
          "name": "",
          "type": "uint256"
        }
      ],
      "stateMutability": "nonpayable",
      "type": "function"
    },
    {
      "inputs": [
        {
          "internalType": "uint256",
          "name": "_amount",
          "type": "uint256"
        },
        {
          "internalType": "bool",
          "name": "asEth",
          "type": "bool"
        }
      ],
      "name": "convert",
      "outputs": [],
      "stateMutability": "payable",
      "type": "function",
      "payable": true
    },
    {
      "inputs": [],
      "name": "recoverLostFunds",
      "outputs": [],
      "stateMutability": "nonpayable",
      "type": "function"
    },
    {
      "inputs": [
        {
          "internalType": "uint256",
          "name": "_amount",
          "type": "uint256"
        }
      ],
      "name": "mint",
      "outputs": [],
      "stateMutability": "nonpayable",
      "type": "function"
    },
    {
      "inputs": [],
      "name": "vaultCount",
      "outputs": [
        {
          "internalType": "uint256",
          "name": "",
          "type": "uint256"
        }
      ],
      "stateMutability": "view",
      "type": "function",
      "constant": true
    },
    {
      "inputs": [
        {
          "internalType": "uint256",
          "name": "_vaultId",
          "type": "uint256"
        }
      ],
      "name": "getVaultAdapter",
      "outputs": [
        {
          "internalType": "contract IVaultAdapter",
          "name": "",
          "type": "address"
        }
      ],
      "stateMutability": "view",
      "type": "function",
      "constant": true
    },
    {
      "inputs": [
        {
          "internalType": "uint256",
          "name": "_vaultId",
          "type": "uint256"
        }
      ],
      "name": "getVaultTotalDeposited",
      "outputs": [
        {
          "internalType": "uint256",
          "name": "",
          "type": "uint256"
        }
      ],
      "stateMutability": "view",
      "type": "function",
      "constant": true
    },
    {
      "inputs": [
        {
          "internalType": "address",
          "name": "_account",
          "type": "address"
        }
      ],
      "name": "getCdpTotalDeposited",
      "outputs": [
        {
          "internalType": "uint256",
          "name": "",
          "type": "uint256"
        }
      ],
      "stateMutability": "view",
      "type": "function",
      "constant": true
    },
    {
      "inputs": [
        {
          "internalType": "address",
          "name": "_account",
          "type": "address"
        }
      ],
      "name": "getCdpTotalDebt",
      "outputs": [
        {
          "internalType": "uint256",
          "name": "",
          "type": "uint256"
        }
      ],
      "stateMutability": "view",
      "type": "function",
      "constant": true
    },
    {
      "inputs": [
        {
          "internalType": "address",
          "name": "_account",
          "type": "address"
        }
      ],
      "name": "getCdpTotalCredit",
      "outputs": [
        {
          "internalType": "uint256",
          "name": "",
          "type": "uint256"
        }
      ],
      "stateMutability": "view",
      "type": "function",
      "constant": true
    },
    {
      "inputs": [
        {
          "internalType": "address",
          "name": "_account",
          "type": "address"
        }
      ],
      "name": "getCdpLastDeposit",
      "outputs": [
        {
          "internalType": "uint256",
          "name": "",
          "type": "uint256"
        }
      ],
      "stateMutability": "view",
      "type": "function",
      "constant": true
    }
  ],
  "bytecode": "0x60806040523480156200001157600080fd5b506040516200593e3803806200593e833981016040819052620000349162000203565b6001600055600160a060020a03821662000085576040517f08c379a00000000000000000000000000000000000000000000000000000000081526004016200007c906200026a565b60405180910390fd5b600160a060020a038116620000c8576040517f08c379a00000000000000000000000000000000000000000000000000000000081526004016200007c9062000324565b60028054600160a060020a03808716600160a060020a031992831681179093556001805483169093179092556003805486841690831617905560048054858416908316178155600680549385169390921692909217905569021e19e0c9bab2400000600b55600c805462ff00001961ff00199091166101001716620100001790556000906200016f90670de0b6b3a76400009064010000000062002f19620001a082021704565b604080516020808201835290839052600d9290925580519182019052600090819052600e55506200039a9350505050565b600082620001b157506000620001fd565b82820282848281620001bf57fe5b0414620001fa576040517f08c379a00000000000000000000000000000000000000000000000000000000081526004016200007c90620002c7565b90505b92915050565b6000806000806080858703121562000219578384fd5b8451620002268162000381565b6020860151909450620002398162000381565b60408601519093506200024c8162000381565b60608601519092506200025f8162000381565b939692955090935050565b6020808252602c908201527f416c6368656d6973743a20676f7665726e616e6365206164647265737320636160408201527f6e6e6f74206265203078302e0000000000000000000000000000000000000000606082015260800190565b60208082526021908201527f536166654d6174683a206d756c7469706c69636174696f6e206f766572666c6f60408201527f7700000000000000000000000000000000000000000000000000000000000000606082015260800190565b6020808252602a908201527f416c6368656d6973743a2073656e74696e656c20616464726573732063616e6e60408201527f6f74206265203078302e00000000000000000000000000000000000000000000606082015260800190565b600160a060020a03811681146200039757600080fd5b50565b61559480620003aa6000396000f3fe608060405260043610610360576000357c010000000000000000000000000000000000000000000000000000000090048063792b55b6116101cd578063b596291711610109578063f0d787a3116100b2578063fc00e8a01161008c578063fc00e8a0146108ab578063fc0c546a146108cb578063fefdc5d1146108e0578063ff50abdc1461090057610367565b8063f0d787a31461086c578063f39c38a014610881578063f58c251c1461089657610367565b8063ddc63262116100e3578063ddc632621461080c578063e5711ffc1461082c578063ec38a8621461084c57610367565b8063b5962917146107b7578063c4d66de8146107cc578063ce5494bb146107ec57610367565b8063a0712d6811610176578063a7c6a10011610150578063a7c6a10014610742578063aa6e043414610757578063aaf1666014610777578063adb4a9ad1461079757610367565b8063a0712d68146106ed578063a1e401a91461070d578063a59d69861461072d57610367565b80639a5ef369116101a75780639a5ef369146106a55780639a9af221146106b85780639ec5a894146106d857610367565b8063792b55b61461065257806399da775b146106725780639a4083211461069257610367565b8063415f12401161029c57806353ffa18b116102455780636a4f4b051161021f5780636a4f4b05146105f55780636b9f96ea146106155780636fd522981461062a5780637239d2b91461063d57610367565b806353ffa18b146105ab5780635641ec03146105cb5780635aa6e675146105e057610367565b80634aaf7c65116102765780634aaf7c65146105545780634c3a8e0214610576578063538ba4f91461059657610367565b8063415f1240146104ff57806345ee07551461051f57806345f867b31461053f57610367565b8063238efcbc1161030957806338d07436116102e357806338d07436146104875780633bbd64bc146104b55780633fc8cef3146104d5578063411d6fb5146104ea57610367565b8063238efcbc1461043d5780632670fdd81461045257806330d4d1901461047257610367565b8063158ef93e1161033a578063158ef93e146103d95780631718a68f146103fb57806322c37b751461041d57610367565b80630510111e1461036c57806309dac061146103975780630abb6035146103b957610367565b3661036757005b600080fd5b34801561037857600080fd5b50610381610915565b60405161038e9190615459565b60405180910390f35b3480156103a357600080fd5b506103b76103b23660046146de565b610921565b005b3480156103c557600080fd5b506103b76103d43660046146de565b610a43565b3480156103e557600080fd5b506103ee610b51565b60405161038e91906149b3565b34801561040757600080fd5b50610410610b5a565b60405161038e9190614895565b34801561042957600080fd5b506103b76104383660046147b7565b610b76565b34801561044957600080fd5b506103b7610bcc565b34801561045e57600080fd5b5061041061046d3660046147b7565b610c93565b34801561047e57600080fd5b50610381610cbf565b34801561049357600080fd5b506104a76104a23660046147e7565b610ccb565b60405161038e929190615486565b3480156104c157600080fd5b506103ee6104d03660046146de565b610ed0565b3480156104e157600080fd5b50610410610ee5565b3480156104f657600080fd5b506103ee610f01565b34801561050b57600080fd5b506104a761051a3660046147b7565b610f10565b34801561052b57600080fd5b506103b761053a366004614763565b6110b6565b34801561054b57600080fd5b50610381611189565b34801561056057600080fd5b5061056961118f565b60405161038e919061544f565b34801561058257600080fd5b506104a76105913660046147b7565b6111ab565b3480156105a257600080fd5b50610410611259565b3480156105b757600080fd5b506103b76105c63660046147b7565b61125e565b3480156105d757600080fd5b506103ee611373565b3480156105ec57600080fd5b50610410611381565b34801561060157600080fd5b506103b76106103660046146fa565b61139d565b34801561062157600080fd5b506103816114e0565b6103b7610638366004614837565b6115fd565b34801561064957600080fd5b506104106119d0565b34801561065e57600080fd5b506103b761066d3660046147b7565b6119ec565b34801561067e57600080fd5b506103b761068d366004614763565b611aae565b6103b76106a03660046147e7565b611b82565b6103b76106b33660046147e7565b611e62565b3480156106c457600080fd5b506103816106d33660046146de565b612307565b3480156106e457600080fd5b50610410612332565b3480156106f957600080fd5b506103b76107083660046147b7565b61234e565b34801561071957600080fd5b506103816107283660046146de565b612701565b34801561073957600080fd5b506103b7612729565b34801561074e57600080fd5b506103816127c4565b34801561076357600080fd5b506103816107723660046146de565b6127d5565b34801561078357600080fd5b506103816107923660046147b7565b61280c565b3480156107a357600080fd5b506103b76107b23660046146de565b612825565b3480156107c357600080fd5b50610381612933565b3480156107d857600080fd5b506103b76107e73660046146de565b612939565b3480156107f857600080fd5b506103b76108073660046146de565b612a9c565b34801561081857600080fd5b506104a76108273660046147b7565b612b32565b34801561083857600080fd5b506103ee6108473660046146de565b612cdb565b34801561085857600080fd5b506103b76108673660046146de565b612cf0565b34801561087857600080fd5b50610381612dfe565b34801561088d57600080fd5b50610410612e04565b3480156108a257600080fd5b50610410612e20565b3480156108b757600080fd5b506103816108c63660046146de565b612e3c565b3480156108d757600080fd5b50610410612e6c565b3480156108ec57600080fd5b506104a76108fb366004614816565b612e88565b34801561090c57600080fd5b50610381612f13565b673782dace9d90000081565b60045473ffffffffffffffffffffffffffffffffffffffff16331461097b576040517f08c379a000000000000000000000000000000000000000000000000000000000815260040161097290614e50565b60405180910390fd5b73ffffffffffffffffffffffffffffffffffffffff81166109c8576040517f08c379a0000000000000000000000000000000000000000000000000000000008152600401610972906152ca565b600680547fffffffffffffffffffffffff00000000000000000000000000000000000000001673ffffffffffffffffffffffffffffffffffffffff83161790556040517fdc117600f93282860144d2cd2745f8e2e15c3ca2a32b4290c30f7cd1ae7ffcb990610a38908390614895565b60405180910390a150565b60045473ffffffffffffffffffffffffffffffffffffffff163314610a94576040517f08c379a000000000000000000000000000000000000000000000000000000000815260040161097290614e50565b73ffffffffffffffffffffffffffffffffffffffff8116610ae1576040517f08c379a000000000000000000000000000000000000000000000000000000000815260040161097290614a6c565b600580547fffffffffffffffffffffffff00000000000000000000000000000000000000001673ffffffffffffffffffffffffffffffffffffffff83161790556040517fc9e2377236eab4280090ce8f2317332649736d92f00dcf20a8dd6684ec5e783990610a38908390614895565b600c5460ff1681565b60035473ffffffffffffffffffffffffffffffffffffffff1681565b60045473ffffffffffffffffffffffffffffffffffffffff163314610bc7576040517f08c379a000000000000000000000000000000000000000000000000000000000815260040161097290614e50565b600b55565b60055473ffffffffffffffffffffffffffffffffffffffff163314610c1d576040517f08c379a000000000000000000000000000000000000000000000000000000000815260040161097290614fd5565b600554600480547fffffffffffffffffffffffff00000000000000000000000000000000000000001673ffffffffffffffffffffffffffffffffffffffff90921691821790556040517f9d3e522e1e47a2f6009739342b9cc7b252a1888154e843ab55ee1c81745795ab90610a38908390614895565b600080610ca1601184612f76565b5473ffffffffffffffffffffffffffffffffffffffff169392505050565b670de0b6b3a764000081565b60008060026000541415610d0b576040517f08c379a000000000000000000000000000000000000000000000000000000000815260040161097290615327565b6002600055610d1933612f9d565b158015610d2557503332145b610d5b576040517f08c379a000000000000000000000000000000000000000000000000000000000815260040161097290614bf1565b600c5460ff16610d97576040517f08c379a000000000000000000000000000000000000000000000000000000000815260040161097290615236565b336000908152600f6020526040902060038101544311610de3576040517f08c379a0000000000000000000000000000000000000000000000000000000008152600401610972906150a0565b610dee81600d612fa3565b600080610dfc338888612fff565b60408051808201909152601b81527f4578636565647320776974686472617761626c6520616d6f756e74000000000060208201528554929450909250610e4491908390613327565b835560408051606081019091526031808252610e6d91600d91615507602083013985919061336d565b3373ffffffffffffffffffffffffffffffffffffffff167fb3ad69dc1d2c6b1f5f5b0927ffd8ee8f1437a156253c8f6dccc75e6f8e4fd38b888484604051610eb793929190615494565b60405180910390a2600160005590969095509350505050565b60126020526000908152604090205460ff1681565b60025473ffffffffffffffffffffffffffffffffffffffff1681565b600c5462010000900460ff1681565b60008060026000541415610f50576040517f08c379a000000000000000000000000000000000000000000000000000000000815260040161097290615327565b6002600055610f5e33612f9d565b158015610f6a57503332145b610fa0576040517f08c379a000000000000000000000000000000000000000000000000000000000815260040161097290614bf1565b600c5460ff16610fdc576040517f08c379a000000000000000000000000000000000000000000000000000000000815260040161097290615236565b336000908152600f60205260409020610ff681600d612fa3565b806001015484111561100a57806001015493505b60008061101930876000612fff565b91509150611026826133b6565b6040805160208101909152600081528354611042918390613327565b83556040805160208101909152600081526001840154611063918490613327565b600184015560405133907f3ea051727656be6fd11c2260f244f29ff3c70d1fb077bfa73e89d554e9bb95c79061109e90899086908690615494565b60405180910390a26001600055909590945092505050565b60045473ffffffffffffffffffffffffffffffffffffffff163314806110f3575060065473ffffffffffffffffffffffffffffffffffffffff1633145b611129576040517f08c379a00000000000000000000000000000000000000000000000000000000081526004016109729061500c565b600c80547fffffffffffffffffffffffffffffffffffffffffffffffffffffffffffff00ff16610100831515021790556040517ff0064f2efd0da4bc63eecf2e75590fe8a308eaa526a51c334e50eec09a71104990610a389083906149b3565b61271081565b61119761467e565b506040805160208101909152600d54815290565b600080600260005414156111eb576040517f08c379a000000000000000000000000000000000000000000000000000000000815260040161097290615327565b6002600055600c5460ff1661122c576040517f08c379a000000000000000000000000000000000000000000000000000000000815260040161097290615236565b6000611239601185612f76565b905061124984826001015461357a565b6001600055909590945092505050565b600081565b60045473ffffffffffffffffffffffffffffffffffffffff1633146112af576040517f08c379a000000000000000000000000000000000000000000000000000000000815260040161097290614e50565b670de0b6b3a76400008110156112f1576040517f08c379a000000000000000000000000000000000000000000000000000000000815260040161097290614d5f565b673782dace9d900000811115611333576040517f08c379a000000000000000000000000000000000000000000000000000000000815260040161097290614dbc565b60408051602081018252829052600d829055517ff78180bc708b1292177c888900951cd66a39faf48dc7b6d111e93285dbbe55a090610a38908390615459565b600c54610100900460ff1681565b60045473ffffffffffffffffffffffffffffffffffffffff1681565b60045473ffffffffffffffffffffffffffffffffffffffff1633146113ee576040517f08c379a000000000000000000000000000000000000000000000000000000000815260040161097290614e50565b8260005b8181101561149b5783838281811061140657fe5b905060200201602081019061141b9190614763565b6012600088888581811061142b57fe5b905060200201602081019061144091906146de565b73ffffffffffffffffffffffffffffffffffffffff168152602081019190915260400160002080547fffffffffffffffffffffffffffffffffffffffffffffffffffffffffffffff00169115159190911790556001016113f2565b507fd1721b10ac5fe95d2627d512aa0f92c34ada0347c874adf414cf51af5760ff56858585856040516114d1949392919061490d565b60405180910390a15050505050565b60006002600054141561151f576040517f08c379a000000000000000000000000000000000000000000000000000000000815260040161097290615327565b6002600055600c5460ff16611560576040517f08c379a000000000000000000000000000000000000000000000000000000000815260040161097290615236565b3360009081526012602052604090205460ff166115a9576040517f08c379a000000000000000000000000000000000000000000000000000000000815260040161097290614bba565b600c54610100900460ff16156115eb576040517f08c379a0000000000000000000000000000000000000000000000000000000008152600401610972906150b1565b6115f361365f565b9050600160005590565b6002600054141561163a576040517f08c379a000000000000000000000000000000000000000000000000000000000815260040161097290615327565b600260005561164833612f9d565b15801561165457503332145b61168a576040517f08c379a000000000000000000000000000000000000000000000000000000000815260040161097290614bf1565b600c5460ff166116c6576040517f08c379a000000000000000000000000000000000000000000000000000000000815260040161097290615236565b8015806116d957508080156116d9575082155b80156116e457503415155b1561171b576040517f08c379a000000000000000000000000000000000000000000000000000000000815260040161097290614e19565b336000908152600f6020526040902061173581600d612fa3565b831561184c57811561181e5734841461177a576040517f08c379a0000000000000000000000000000000000000000000000000000000008152600401610972906151ff565b600260009054906101000a900473ffffffffffffffffffffffffffffffffffffffff1673ffffffffffffffffffffffffffffffffffffffff1663d0e30db0856040518263ffffffff167c01000000000000000000000000000000000000000000000000000000000281526004016000604051808303818588803b15801561180057600080fd5b505af1158015611814573d6000803e3d6000fd5b5050505050611843565b6001546118439073ffffffffffffffffffffffffffffffffffffffff163330876136b8565b61184c846133b6565b8215611965576003546040517f79cc679000000000000000000000000000000000000000000000000000000000815273ffffffffffffffffffffffffffffffffffffffff909116906379cc6790906118aa90339087906004016148b6565b600060405180830381600087803b1580156118c457600080fd5b505af11580156118d8573d6000803e3d6000fd5b50506003546040517f288aafcb00000000000000000000000000000000000000000000000000000000815273ffffffffffffffffffffffffffffffffffffffff909116925063288aafcb9150611932908690600401615459565b600060405180830381600087803b15801561194c57600080fd5b505af1158015611960573d6000803e3d6000fd5b505050505b60006119718585613777565b600183015490915061198390826137b6565b600183015560405133907fbade234341a40ca3c71df59b3ca02b8bb65b491a098af970953228b4f4a5d38f906119bc9088908890615486565b60405180910390a250506001600055505050565b60075473ffffffffffffffffffffffffffffffffffffffff1681565b60045473ffffffffffffffffffffffffffffffffffffffff163314611a3d576040517f08c379a000000000000000000000000000000000000000000000000000000000815260040161097290614e50565b612710811115611a79576040517f08c379a000000000000000000000000000000000000000000000000000000000815260040161097290614f78565b60098190556040517fc36862a253ff42cc71f4f200d3c62e8e5eaaece01041fc6900aeace64ade72a890610a38908390615459565b60045473ffffffffffffffffffffffffffffffffffffffff16331480611aeb575060065473ffffffffffffffffffffffffffffffffffffffff1633145b611b21576040517f08c379a00000000000000000000000000000000000000000000000000000000081526004016109729061500c565b600c80547fffffffffffffffffffffffffffffffffffffffffffffffffffffffffff00ffff1662010000831515021790556040517fca5bdce9cd3e7e41a11035b530ba304b2e5d57e39872a18c079cb3fb7a48b6c290610a389083906149b3565b60026000541415611bbf576040517f08c379a000000000000000000000000000000000000000000000000000000000815260040161097290615327565b6002600055611bcd33612f9d565b158015611bd957503332145b611c0f576040517f08c379a000000000000000000000000000000000000000000000000000000000815260040161097290614bf1565b600c5460ff16611c4b576040517f08c379a000000000000000000000000000000000000000000000000000000000815260040161097290615236565b600c54610100900460ff1615611c8d576040517f08c379a0000000000000000000000000000000000000000000000000000000008152600401610972906150b1565b336000908152600f60205260409020611ca781600d612fa3565b8115611d8a57348314611ce6576040517f08c379a00000000000000000000000000000000000000000000000000000000081526004016109729061511f565b600260009054906101000a900473ffffffffffffffffffffffffffffffffffffffff1673ffffffffffffffffffffffffffffffffffffffff1663d0e30db0846040518263ffffffff167c01000000000000000000000000000000000000000000000000000000000281526004016000604051808303818588803b158015611d6c57600080fd5b505af1158015611d80573d6000803e3d6000fd5b5050505050611de7565b3415611dc2576040517f08c379a000000000000000000000000000000000000000000000000000000000815260040161097290614c5d565b600154611de79073ffffffffffffffffffffffffffffffffffffffff163330866136b8565b600b548310611dfa57611df861365f565b505b600a54611e079084613777565b600a558054611e169084613777565b815543600382015560405133907f59062170a285eb80e8c6b8ced60428442a51910635005233fc4ce084a475845e90611e50908690615459565b60405180910390a25050600160005550565b60026000541415611e9f576040517f08c379a000000000000000000000000000000000000000000000000000000000815260040161097290615327565b6002600055611ead33612f9d565b158015611eb957503332145b611eef576040517f08c379a000000000000000000000000000000000000000000000000000000000815260040161097290614bf1565b600c5460ff16611f2b576040517f08c379a000000000000000000000000000000000000000000000000000000000815260040161097290615236565b600c5462010000900460ff1615611f6e576040517f08c379a000000000000000000000000000000000000000000000000000000000815260040161097290614ebe565b801561205157348214611fad576040517f08c379a00000000000000000000000000000000000000000000000000000000081526004016109729061511f565b600260009054906101000a900473ffffffffffffffffffffffffffffffffffffffff1673ffffffffffffffffffffffffffffffffffffffff1663d0e30db0836040518263ffffffff167c01000000000000000000000000000000000000000000000000000000000281526004016000604051808303818588803b15801561203357600080fd5b505af1158015612047573d6000803e3d6000fd5b50505050506120ae565b3415612089576040517f08c379a000000000000000000000000000000000000000000000000000000000815260040161097290614c5d565b6001546120ae9073ffffffffffffffffffffffffffffffffffffffff163330856136b8565b6003546040517f40c10f1900000000000000000000000000000000000000000000000000000000815273ffffffffffffffffffffffffffffffffffffffff909116906340c10f199061210690339086906004016148b6565b600060405180830381600087803b15801561212057600080fd5b505af1158015612134573d6000803e3d6000fd5b50505050612141826133b6565b6003546040517f1ac997e000000000000000000000000000000000000000000000000000000000815273ffffffffffffffffffffffffffffffffffffffff90911690631ac997e090612197903090600401614895565b60206040518083038186803b1580156121af57600080fd5b505afa1580156121c3573d6000803e3d6000fd5b505050506040513d601f19601f820116820180604052508101906121e791906147cf565b6003546040517f38e21cce00000000000000000000000000000000000000000000000000000000815273ffffffffffffffffffffffffffffffffffffffff909116906338e21cce9061223d903090600401614895565b60206040518083038186803b15801561225557600080fd5b505afa158015612269573d6000803e3d6000fd5b505050506040513d601f19601f8201168201806040525081019061228d91906147cf565b11156122c5576040517f08c379a000000000000000000000000000000000000000000000000000000000815260040161097290615043565b7fda3499e7f2a8b7272740278bd7e34f34f8643fd2dac543aeb2b2df98a2bedb5f33836040516122f69291906148b6565b60405180910390a150506001600055565b73ffffffffffffffffffffffffffffffffffffffff166000908152600f602052604090206003015490565b60085473ffffffffffffffffffffffffffffffffffffffff1681565b6002600054141561238b576040517f08c379a000000000000000000000000000000000000000000000000000000000815260040161097290615327565b600260005561239933612f9d565b1580156123a557503332145b6123db576040517f08c379a000000000000000000000000000000000000000000000000000000000815260040161097290614bf1565b600c5460ff16612417576040517f08c379a000000000000000000000000000000000000000000000000000000000815260040161097290615236565b336000908152600f6020526040902061243181600d612fa3565b60028101548281101561249557600061244a84836137b6565b600184015490915061245c9082613777565b6001840155600060028401556040805160608101909152602780825261248f91600d91615538602083013985919061336d565b506124a5565b61249f81846137b6565b60028301555b6003546040517f40c10f1900000000000000000000000000000000000000000000000000000000815273ffffffffffffffffffffffffffffffffffffffff909116906340c10f19906124fd90339087906004016148b6565b600060405180830381600087803b15801561251757600080fd5b505af115801561252b573d6000803e3d6000fd5b50506003546040517f1ac997e000000000000000000000000000000000000000000000000000000000815273ffffffffffffffffffffffffffffffffffffffff9091169250631ac997e09150612585903090600401614895565b60206040518083038186803b15801561259d57600080fd5b505afa1580156125b1573d6000803e3d6000fd5b505050506040513d601f19601f820116820180604052508101906125d591906147cf565b6003546040517f38e21cce00000000000000000000000000000000000000000000000000000000815273ffffffffffffffffffffffffffffffffffffffff909116906338e21cce9061262b903090600401614895565b60206040518083038186803b15801561264357600080fd5b505afa158015612657573d6000803e3d6000fd5b505050506040513d601f19601f8201168201806040525081019061267b91906147cf565b11156126b3576040517f08c379a000000000000000000000000000000000000000000000000000000000815260040161097290615043565b60035460405133917f85334969bebc6a94eec30db9687223c52b4a36180ca90c27e42efa05a9202c7491611e5091879173ffffffffffffffffffffffffffffffffffffffff90911690615462565b73ffffffffffffffffffffffffffffffffffffffff166000908152600f602052604090205490565b60045473ffffffffffffffffffffffffffffffffffffffff16331461277a576040517f08c379a000000000000000000000000000000000000000000000000000000000815260040161097290614e50565b60045460405173ffffffffffffffffffffffffffffffffffffffff90911690303180156108fc02916000818181858888f193505050501580156127c1573d6000803e3d6000fd5b50565b60006127d060116137f8565b905090565b73ffffffffffffffffffffffffffffffffffffffff81166000908152600f6020526040812061280581600d6137fc565b9392505050565b60008061281a601184612f76565b600101549392505050565b60045473ffffffffffffffffffffffffffffffffffffffff163314612876576040517f08c379a000000000000000000000000000000000000000000000000000000000815260040161097290614e50565b73ffffffffffffffffffffffffffffffffffffffff81166128c3576040517f08c379a000000000000000000000000000000000000000000000000000000000815260040161097290614a0f565b600780547fffffffffffffffffffffffff00000000000000000000000000000000000000001673ffffffffffffffffffffffffffffffffffffffff83161790556040517fe42bb1780117f5788c6e0042e955291223819875891ddf465b8e4fbb85a933e990610a38908390614895565b60095481565b60045473ffffffffffffffffffffffffffffffffffffffff16331461298a576040517f08c379a000000000000000000000000000000000000000000000000000000000815260040161097290614e50565b600c5460ff16156129c7576040517f08c379a000000000000000000000000000000000000000000000000000000000815260040161097290614c26565b60075473ffffffffffffffffffffffffffffffffffffffff16612a16576040517f08c379a000000000000000000000000000000000000000000000000000000000815260040161097290614ac9565b60085473ffffffffffffffffffffffffffffffffffffffff16612a65576040517f08c379a000000000000000000000000000000000000000000000000000000000815260040161097290614b5d565b612a6e8161383b565b50600c80547fffffffffffffffffffffffffffffffffffffffffffffffffffffffffffffff00166001179055565b600c5460ff16612ad8576040517f08c379a000000000000000000000000000000000000000000000000000000000815260040161097290615236565b60045473ffffffffffffffffffffffffffffffffffffffff163314612b29576040517f08c379a000000000000000000000000000000000000000000000000000000000815260040161097290614e50565b6127c18161383b565b600c54600090819060ff16612b73576040517f08c379a000000000000000000000000000000000000000000000000000000000815260040161097290615236565b3360009081526012602052604090205460ff16612bbc576040517f08c379a000000000000000000000000000000000000000000000000000000000815260040161097290614bba565b6000612bc9601185612f76565b9050600080612bd88330613a89565b90925090508115612c97576000612c06612710612c0060095486612f1990919063ffffffff16565b90613adc565b90506000612c1484836137b6565b9050612c1e61467e565b612c33600a54612c2d84613b28565b90613b6a565b6040805160208101909152600e548152909150612c509082613b9e565b51600e558215612c8457600854600154612c849173ffffffffffffffffffffffffffffffffffffffff918216911685613bce565b8115612c9357612c93826133b6565b5050505b7f11d2034f4471d11a13f0f1798ceaf0c9db2812d450a0681958ce7d4f2fb97f098282604051612cc8929190615486565b60405180910390a1909350915050915091565b60106020526000908152604090205460ff1681565b60045473ffffffffffffffffffffffffffffffffffffffff163314612d41576040517f08c379a000000000000000000000000000000000000000000000000000000000815260040161097290614e50565b73ffffffffffffffffffffffffffffffffffffffff8116612d8e576040517f08c379a0000000000000000000000000000000000000000000000000000000008152600401610972906153f2565b600880547fffffffffffffffffffffffff00000000000000000000000000000000000000001673ffffffffffffffffffffffffffffffffffffffff83161790556040517f05f3326e0527f309d4015dee3bc3f36e650b53fc823bab69c99847814acfafdf90610a38908390614895565b600b5481565b60055473ffffffffffffffffffffffffffffffffffffffff1681565b60065473ffffffffffffffffffffffffffffffffffffffff1681565b73ffffffffffffffffffffffffffffffffffffffff81166000908152600f6020526040812061280581600d613c0e565b60015473ffffffffffffffffffffffffffffffffffffffff1681565b60008060026000541415612ec8576040517f08c379a000000000000000000000000000000000000000000000000000000000815260040161097290615327565b6002600055600c5460ff16612f09576040517f08c379a000000000000000000000000000000000000000000000000000000000815260040161097290615236565b611249848461357a565b600a5481565b600082612f2857506000612f70565b82820282848281612f3557fe5b0414612f6d576040517f08c379a000000000000000000000000000000000000000000000000000000000815260040161097290614f1b565b90505b92915050565b6000826000018281548110612f8757fe5b9060005260206000209060020201905092915050565b3b151590565b6000612faf8383613c55565b90508260010154811115612fdd576001830180546000909155612fd282826137b6565b600285015550612ff2565b6001830154612fec90826137b6565b60018401555b5060010154600490910155565b6001546040517f70a08231000000000000000000000000000000000000000000000000000000008152600091829182916130b591879173ffffffffffffffffffffffffffffffffffffffff16906370a0823190613060903090600401614895565b60206040518083038186803b15801561307857600080fd5b505afa15801561308c573d6000803e3d6000fd5b505050506040513d601f19601f820116820180604052508101906130b091906147cf565b613cce565b905073ffffffffffffffffffffffffffffffffffffffff861630146131cf5783156131ab576002546040517f2e1a7d4d00000000000000000000000000000000000000000000000000000000815273ffffffffffffffffffffffffffffffffffffffff90911690632e1a7d4d90613130908490600401615459565b600060405180830381600087803b15801561314a57600080fd5b505af115801561315e573d6000803e3d6000fd5b505060405173ffffffffffffffffffffffffffffffffffffffff8916925083156108fc02915083906000818181858888f193505050501580156131a5573d6000803e3d6000fd5b506131cf565b6001546131cf9073ffffffffffffffffffffffffffffffffffffffff168783613bce565b808060006131dd88836137b6565b905080156133095760006131f16011613ce4565b905060008089156132dc57613207833086613d0f565b6002546040517f2e1a7d4d00000000000000000000000000000000000000000000000000000000815292945090925073ffffffffffffffffffffffffffffffffffffffff1690632e1a7d4d90613261908590600401615459565b600060405180830381600087803b15801561327b57600080fd5b505af115801561328f573d6000803e3d6000fd5b505060405173ffffffffffffffffffffffffffffffffffffffff8f16925084156108fc02915084906000818181858888f193505050501580156132d6573d6000803e3d6000fd5b506132ed565b6132e7838d86613d0f565b90925090505b6132f78683613777565b95506133038582613777565b94505050505b600a5461331690836137b6565b600a55509097909650945050505050565b60008184841115613365576040517f08c379a000000000000000000000000000000000000000000000000000000000815260040161097291906149be565b505050900390565b6133778383613d45565b81906133b0576040517f08c379a000000000000000000000000000000000000000000000000000000000815260040161097291906149be565b50505050565b6001546007546040517f095ea7b300000000000000000000000000000000000000000000000000000000815273ffffffffffffffffffffffffffffffffffffffff9283169263095ea7b3926134129291169085906004016148b6565b602060405180830381600087803b15801561342c57600080fd5b505af1158015613440573d6000803e3d6000fd5b505050506040513d601f19601f82011682018060405250810190613464919061477f565b506007546040517ffb93210800000000000000000000000000000000000000000000000000000000815273ffffffffffffffffffffffffffffffffffffffff9091169063fb932108906134bd90309085906004016148b6565b600060405180830381600087803b1580156134d757600080fd5b505af11580156134eb573d6000803e3d6000fd5b50506003546040517f288aafcb00000000000000000000000000000000000000000000000000000000815273ffffffffffffffffffffffffffffffffffffffff909116925063288aafcb9150613545908490600401615459565b600060405180830381600087803b15801561355f57600080fd5b505af1158015613573573d6000803e3d6000fd5b5050505050565b600c546000908190610100900460ff16806135ac575060045473ffffffffffffffffffffffffffffffffffffffff1633145b806135c057506135bc6011613d73565b8414155b6135f6576040517f08c379a000000000000000000000000000000000000000000000000000000000815260040161097290615156565b6000613603601186612f76565b9050600080613613833088613d0f565b91509150867fccbd929f935422b28ee209a0db0556280b0a3d9bc4da58f1d3f0ab4f8a4996478383604051613649929190615486565b60405180910390a29093509150505b9250929050565b60008061366c6011613ce4565b9050600061367982613dcc565b90507f860f4701faa0ecdeecd9e9eaae11a8612bbd01c663081f7c0c4e4873df653d69816040516136aa9190615459565b60405180910390a191505090565b6133b0846323b872dd7c0100000000000000000000000000000000000000000000000000000000028585856040516024016136f5939291906148dc565b604080517fffffffffffffffffffffffffffffffffffffffffffffffffffffffffffffffe08184030181529190526020810180517bffffffffffffffffffffffffffffffffffffffffffffffffffffffff167fffffffff0000000000000000000000000000000000000000000000000000000090931692909217909152613e89565b600082820183811015612f6d576040517f08c379a000000000000000000000000000000000000000000000000000000000815260040161097290614b26565b6000828211156137f2576040517f08c379a000000000000000000000000000000000000000000000000000000000815260040161097290614c94565b50900390565b5490565b6000806138098484613c55565b90508061381c5750506001820154612f70565b600184015480821061383357600092505050612f70565b039392505050565b73ffffffffffffffffffffffffffffffffffffffff8116613888576040517f08c379a000000000000000000000000000000000000000000000000000000000815260040161097290615395565b600154604080517ffc0c546a000000000000000000000000000000000000000000000000000000008152905173ffffffffffffffffffffffffffffffffffffffff9283169284169163fc0c546a916004808301926020929190829003018186803b1580156138f557600080fd5b505afa158015613909573d6000803e3d6000fd5b505050506040513d601f19601f8201168201806040525081019061392d919061479b565b73ffffffffffffffffffffffffffffffffffffffff161461397a576040517f08c379a00000000000000000000000000000000000000000000000000000000081526004016109729061535e565b73ffffffffffffffffffffffffffffffffffffffff811660009081526010602052604090205460ff16156139da576040517f08c379a000000000000000000000000000000000000000000000000000000000815260040161097290614e87565b73ffffffffffffffffffffffffffffffffffffffff8116600081815260106020908152604080832080547fffffffffffffffffffffffffffffffffffffffffffffffffffffffffffffff001660011790558051808201909152928352820152613a4590601190613f3f565b60405173ffffffffffffffffffffffffffffffffffffffff8216907f0821015de34e20b0878a40f6f165801417f53b2017016d7321cacee989c8cfa790600090a250565b6000808360010154613a9a85613fa7565b11613aaa57506000905080613658565b6000613ac38560010154613abd87613fa7565b906137b6565b9050613ad0858583614049565b92509250509250929050565b6000808211613b17576040517f08c379a000000000000000000000000000000000000000000000000000000000815260040161097290614d28565b818381613b2057fe5b049392505050565b613b3061467e565b6000821580613b4d575050670de0b6b3a764000082810290810483145b613b5657600080fd5b604080516020810190915290815292915050565b613b7261467e565b81613b7c57600080fd5b604051806020016040528083856000015181613b9457fe5b0490529392505050565b613ba661467e565b82518251810190811015613bb957600080fd5b60408051602081019091529081529392505050565b613c098363a9059cbb7c01000000000000000000000000000000000000000000000000000000000284846040516024016136f59291906148b6565b505050565b600080613c1b8484613c55565b905080613c2e5750506002820154612f70565b6001840154808211613c4557600092505050612f70565b6002850154910301905092915050565b6000613c5f61467e565b50604080516020810190915260018301548152613c7a61467e565b50604080516020810190915260048501548152613c978282614278565b613ca657600092505050612f70565b8454613cc590613cc090613cba85856142c7565b906142e2565b614310565b95945050505050565b6000818310613cdd5781612f6d565b5090919050565b600081613cf081613d73565b81548110613cfa57fe5b90600052602060002090600202019050919050565b6000808080613d1f878787614049565b60018901549193509150613d3390826137b6565b60018801559092509050935093915050565b600080613d6a613d55858561431f565b60408051602081019091528554815290614278565b13159392505050565b600080613d7f836137f8565b905061280560016040518060400160405280601181526020017f5661756c742e4c6973743a20656d707479000000000000000000000000000000815250836133279092919063ffffffff16565b600080613dd883614363565b90506128058173ffffffffffffffffffffffffffffffffffffffff166370a08231306040518263ffffffff167c0100000000000000000000000000000000000000000000000000000000028152600401613e329190614895565b60206040518083038186803b158015613e4a57600080fd5b505afa158015613e5e573d6000803e3d6000fd5b505050506040513d601f19601f82011682018060405250810190613e8291906147cf565b8490614405565b6060613eeb826040518060400160405280602081526020017f5361666545524332303a206c6f772d6c6576656c2063616c6c206661696c65648152508573ffffffffffffffffffffffffffffffffffffffff166144df9092919063ffffffff16565b805190915015613c095780806020019051810190613f09919061477f565b613c09576040517f08c379a00000000000000000000000000000000000000000000000000000000081526004016109729061526d565b8154600180820184556000938452602093849020835160029093020180547fffffffffffffffffffffffff00000000000000000000000000000000000000001673ffffffffffffffffffffffffffffffffffffffff9093169290921782559190920151910155565b8054604080517fd4c3eea0000000000000000000000000000000000000000000000000000000008152905160009273ffffffffffffffffffffffffffffffffffffffff169163d4c3eea0916004808301926020929190829003018186803b15801561401157600080fd5b505afa158015614025573d6000803e3d6000fd5b505050506040513d601f19601f82011682018060405250810190612f7091906147cf565b600080600061405786614363565b905060008173ffffffffffffffffffffffffffffffffffffffff166370a08231876040518263ffffffff167c01000000000000000000000000000000000000000000000000000000000281526004016140b09190614895565b60206040518083038186803b1580156140c857600080fd5b505afa1580156140dc573d6000803e3d6000fd5b505050506040513d601f19601f8201168201806040525081019061410091906147cf565b9050600061410d88613fa7565b88546040517ff3fef3a300000000000000000000000000000000000000000000000000000000815291925073ffffffffffffffffffffffffffffffffffffffff169063f3fef3a390614165908a908a906004016148b6565b600060405180830381600087803b15801561417f57600080fd5b505af1158015614193573d6000803e3d6000fd5b50506040517f70a082310000000000000000000000000000000000000000000000000000000081526000925073ffffffffffffffffffffffffffffffffffffffff861691506370a08231906141ec908b90600401614895565b60206040518083038186803b15801561420457600080fd5b505afa158015614218573d6000803e3d6000fd5b505050506040513d601f19601f8201168201806040525081019061423c91906147cf565b9050600061424a82856137b6565b905060006142578b613fa7565b9050600061426585836137b6565b929c929b50919950505050505050505050565b8051825160009111156142ac57507fffffffffffffffffffffffffffffffffffffffffffffffffffffffffffffffff612f70565b8151835111156142be57506001612f70565b50600092915050565b6142cf61467e565b82518251810390811115613bb957600080fd5b6142ea61467e565b600082158061430757505082518281029083828161430457fe5b04145b613bb957600080fd5b51670de0b6b3a7640000900490565b61432761467e565b600061433384846137fc565b90508061434a576143426144ee565b915050612f70565b61435b81612c2d8660000154613b28565b949350505050565b8054604080517ffc0c546a000000000000000000000000000000000000000000000000000000008152905160009273ffffffffffffffffffffffffffffffffffffffff169163fc0c546a916004808301926020929190829003018186803b1580156143cd57600080fd5b505afa1580156143e1573d6000803e3d6000fd5b505050506040513d601f19601f82011682018060405250810190612f70919061479b565b60008061441184614363565b845490915061443a9073ffffffffffffffffffffffffffffffffffffffff808416911685613bce565b83546040517fb6b55f2500000000000000000000000000000000000000000000000000000000815273ffffffffffffffffffffffffffffffffffffffff9091169063b6b55f259061448f908690600401615459565b600060405180830381600087803b1580156144a957600080fd5b505af11580156144bd573d6000803e3d6000fd5b50505060018501546144d0915084613777565b60018501555081905092915050565b606061435b8484600085614528565b6144f661467e565b5060408051602081019091527fffffffffffffffffffffffffffffffffffffffffffffffffffffffffffffffff815290565b60603031831115614565576040517f08c379a000000000000000000000000000000000000000000000000000000000815260040161097290614ccb565b61456e85612f9d565b6145a4576040517f08c379a0000000000000000000000000000000000000000000000000000000008152600401610972906150e8565b600060608673ffffffffffffffffffffffffffffffffffffffff1685876040516145ce9190614879565b60006040518083038185875af1925050503d806000811461460b576040519150601f19603f3d011682016040523d82523d6000602084013e614610565b606091505b509150915061462082828661462b565b979650505050505050565b6060831561463a575081612805565b82511561464a5782518084602001fd5b816040517f08c379a000000000000000000000000000000000000000000000000000000000815260040161097291906149be565b6040518060200160405280600081525090565b60008083601f8401126146a2578182fd5b50813567ffffffffffffffff8111156146b9578182fd5b602083019150836020808302850101111561365857600080fd5b8035612f70816154f8565b6000602082840312156146ef578081fd5b8135612f6d816154d6565b6000806000806040858703121561470f578283fd5b843567ffffffffffffffff80821115614726578485fd5b61473288838901614691565b9096509450602087013591508082111561474a578384fd5b5061475787828801614691565b95989497509550505050565b600060208284031215614774578081fd5b8135612f6d816154f8565b600060208284031215614790578081fd5b8151612f6d816154f8565b6000602082840312156147ac578081fd5b8151612f6d816154d6565b6000602082840312156147c8578081fd5b5035919050565b6000602082840312156147e0578081fd5b5051919050565b600080604083850312156147f9578182fd5b82359150602083013561480b816154f8565b809150509250929050565b60008060408385031215614828578182fd5b50508035926020909101359150565b60008060006060848603121561484b578283fd5b83359250602084013591506040840135614864816154f8565b809150509250925092565b1515815260200190565b6000825161488b8184602087016154aa565b9190910192915050565b73ffffffffffffffffffffffffffffffffffffffff91909116815260200190565b73ffffffffffffffffffffffffffffffffffffffff929092168252602082015260400190565b73ffffffffffffffffffffffffffffffffffffffff9384168152919092166020820152604081019190915260600190565b6040808252810184905260008560608301825b8781101561495d5760208335614935816154d6565b73ffffffffffffffffffffffffffffffffffffffff1683529283019290910190600101614920565b506020915083810382850152806149748683615459565b9050869150835b868110156149a6578383016149998361499483876146d3565b61486f565b909350915060010161497b565b5098975050505050505050565b901515815260200190565b60006020825282518060208401526149dd8160408501602087016154aa565b601f017fffffffffffffffffffffffffffffffffffffffffffffffffffffffffffffffe0169190910160400192915050565b6020808252602c908201527f416c6368656d6973743a207472616e736d75746572206164647265737320636160408201527f6e6e6f74206265203078302e0000000000000000000000000000000000000000606082015260800190565b6020808252602c908201527f416c6368656d6973743a20676f7665726e616e6365206164647265737320636160408201527f6e6e6f74206265203078302e0000000000000000000000000000000000000000606082015260800190565b60208082526036908201527f416c6368656d6973743a2063616e6e6f7420696e697469616c697a652074726160408201527f6e736d75746572206164647265737320746f2030783000000000000000000000606082015260800190565b6020808252601b908201527f536166654d6174683a206164646974696f6e206f766572666c6f770000000000604082015260600190565b60208082526033908201527f416c6368656d6973743a2063616e6e6f7420696e697469616c697a652072657760408201527f61726473206164647265737320746f2030783000000000000000000000000000606082015260800190565b60208082526018908201527f416c6368656d6973743a206f6e6c79206b6565706572732e0000000000000000604082015260600190565b6020808252818101527f536f72727920776520646f206e6f742061636365707420636f6e747261637421604082015260600190565b6020808252601e908201527f416c6368656d6973743a20616c726561647920696e697469616c697a65640000604082015260600190565b6020808252600e908201527f6d73672e76616c756520213d2030000000000000000000000000000000000000604082015260600190565b6020808252601e908201527f536166654d6174683a207375627472616374696f6e206f766572666c6f770000604082015260600190565b60208082526026908201527f416464726573733a20696e73756666696369656e742062616c616e636520666f60408201527f722063616c6c0000000000000000000000000000000000000000000000000000606082015260800190565b6020808252601a908201527f536166654d6174683a206469766973696f6e206279207a65726f000000000000604082015260600190565b60208082526031908201527f416c6368656d6973743a20636f6c6c61746572616c697a6174696f6e206c696d60408201527f69742062656c6f77206d696e696d756d2e000000000000000000000000000000606082015260800190565b60208082526031908201527f416c6368656d6973743a20636f6c6c61746572616c697a6174696f6e206c696d60408201527f69742061626f7665206d6178696d756d2e000000000000000000000000000000606082015260800190565b6020808252600d908201527f626c61636b686f6c652045544800000000000000000000000000000000000000604082015260600190565b6020808252601b908201527f416c6368656d6973743a206f6e6c7920676f7665726e616e63652e0000000000604082015260600190565b60208082526016908201527f4164617074657220616c726561647920696e2075736500000000000000000000604082015260600190565b60208082526022908201527f416c6368656d6973743a20636f6e76657273696f6e732061726520706175736560408201527f642e000000000000000000000000000000000000000000000000000000000000606082015260800190565b60208082526021908201527f536166654d6174683a206d756c7469706c69636174696f6e206f766572666c6f60408201527f7700000000000000000000000000000000000000000000000000000000000000606082015260800190565b60208082526025908201527f416c6368656d6973743a2068617276657374206665652061626f7665206d617860408201527f696d756d2e000000000000000000000000000000000000000000000000000000606082015260800190565b6020808252601f908201527f73656e646572206973206e6f742070656e64696e67476f7665726e616e636500604082015260600190565b60208082526018908201527f21676f7665726e616e6365202626202173656e74696e656c0000000000000000604082015260600190565b60208082526028908201527f416c4554483a20416c6368656d6973742773206365696c696e6720776173206260408201527f726561636865642e000000000000000000000000000000000000000000000000606082015260800190565b602080825260009082015260400190565b60208082526017908201527f656d657267656e637920706175736520656e61626c6564000000000000000000604082015260600190565b6020808252601d908201527f416464726573733a2063616c6c20746f206e6f6e2d636f6e7472616374000000604082015260600190565b60208082526014908201527f5f616d6f756e7420213d206d73672e76616c7565000000000000000000000000604082015260600190565b60208082526070908201527f416c6368656d6973743a206e6f7420616e20656d657267656e63792c206e6f7460408201527f20676f7665726e616e63652c20616e64207573657220646f6573206e6f74206860608201527f617665207065726d697373696f6e20746f20726563616c6c2066756e6473206660808201527f726f6d20616374697665207661756c740000000000000000000000000000000060a082015260c00190565b6020808252601e908201527f5f636f6c6c61746572616c416d6f756e7420213d206d73672e76616c75650000604082015260600190565b6020808252601b908201527f416c6368656d6973743a206e6f7420696e697469616c697a65642e0000000000604082015260600190565b6020808252602a908201527f5361666545524332303a204552433230206f7065726174696f6e20646964206e60408201527f6f74207375636365656400000000000000000000000000000000000000000000606082015260800190565b6020808252602a908201527f416c6368656d6973743a2073656e74696e656c20616464726573732063616e6e60408201527f6f74206265203078302e00000000000000000000000000000000000000000000606082015260800190565b6020808252601f908201527f5265656e7472616e637947756172643a207265656e7472616e742063616c6c00604082015260600190565b6020808252601a908201527f416c6368656d6973743a20746f6b656e206d69736d617463682e000000000000604082015260600190565b6020808252602e908201527f416c6368656d6973743a20616374697665207661756c7420616464726573732060408201527f63616e6e6f74206265203078302e000000000000000000000000000000000000606082015260800190565b60208082526029908201527f416c6368656d6973743a207265776172647320616464726573732063616e6e6f60408201527f74206265203078302e0000000000000000000000000000000000000000000000606082015260800190565b9051815260200190565b90815260200190565b91825273ffffffffffffffffffffffffffffffffffffffff16602082015260400190565b918252602082015260400190565b9283526020830191909152604082015260600190565b60005b838110156154c55781810151838201526020016154ad565b838111156133b05750506000910152565b73ffffffffffffffffffffffffffffffffffffffff811681146127c157600080fd5b80151581146127c157600080fdfe416374696f6e20626c6f636b65643a20756e6865616c74687920636f6c6c61746572616c697a6174696f6e20726174696f416c6368656d6973743a204c6f616e2d746f2d76616c756520726174696f206272656163686564a26469706673582212207e7ef9c5d806d59fc8d5ba20b0c218d06b6e835ff7e651c56a343e88664cba2964736f6c634300060c0033",
  "immutableReferences": {},
  "source": "// SPDX-License-Identifier: GPL-3.0\npragma solidity ^0.6.12;\npragma experimental ABIEncoderV2;\n\n//import {ERC20} from \"@openzeppelin/contracts/token/ERC20/ERC20.sol\";\nimport {Math} from \"@openzeppelin/contracts/math/Math.sol\";\nimport {ReentrancyGuard} from \"@openzeppelin/contracts/utils/ReentrancyGuard.sol\";\nimport {Address} from \"@openzeppelin/contracts/utils/Address.sol\";\nimport {SafeERC20} from \"@openzeppelin/contracts/token/ERC20/SafeERC20.sol\";\nimport {SafeMath} from \"@openzeppelin/contracts/math/SafeMath.sol\";\n\nimport {CDP} from \"./libraries/alchemist/CDP.sol\";\nimport {FixedPointMath} from \"./libraries/FixedPointMath.sol\";\nimport {ITransmuter} from \"./interfaces/ITransmuter.sol\";\nimport {IMintableERC20} from \"./interfaces/IMintableERC20.sol\";\nimport {IChainlink} from \"./interfaces/IChainlink.sol\";\nimport {IVaultAdapter} from \"./interfaces/IVaultAdapter.sol\";\nimport {Vault} from \"./libraries/alchemist/Vault.sol\";\nimport {IWETH9} from \"./interfaces/IWETH9.sol\";\nimport {AlEth} from \"./AlEth.sol\";\n\n// ERC20,removing ERC20 from the alchemist\n//    ___    __        __                _               ___                              __         _ \n//   / _ |  / / ____  / /  ___   __ _   (_) __ __       / _ \\  ____ ___   ___ ___   ___  / /_  ___  (_)\n//  / __ | / / / __/ / _ \\/ -_) /  ' \\ / /  \\ \\ /      / ___/ / __// -_) (_-</ -_) / _ \\/ __/ (_-< _   \n// /_/ |_|/_/  \\__/ /_//_/\\__/ /_/_/_//_/  /_\\_\\      /_/    /_/   \\__/ /___/\\__/ /_//_/\\__/ /___/(_)  \n//  \n//      ___       __        ______  __    __   _______ .___  ___.  __       _______..___________.\n//     /   \\     |  |      /      ||  |  |  | |   ____||   \\/   | |  |     /       ||           |\n//    /  ^  \\    |  |     |  ,----'|  |__|  | |  |__   |  \\  /  | |  |    |   (----``---|  |----`\n//   /  /_\\  \\   |  |     |  |     |   __   | |   __|  |  |\\/|  | |  |     \\   \\        |  |     \n//  /  _____  \\  |  `----.|  `----.|  |  |  | |  |____ |  |  |  | |  | .----)   |       |  |     \n// /__/     \\__\\ |_______| \\______||__|  |__| |_______||__|  |__| |__| |_______/        |__|     \n                                                                                              \ncontract AlchemistEth is ReentrancyGuard {\n  using CDP for CDP.Data;\n  using FixedPointMath for FixedPointMath.FixedDecimal;\n  using Vault for Vault.Data;\n  using Vault for Vault.List;\n  using SafeERC20 for IMintableERC20;\n  using SafeMath for uint256;\n  using Address for address;\n\n  address public constant ZERO_ADDRESS = address(0);\n\n  /// @dev Resolution for all fixed point numeric parameters which represent percents. The resolution allows for a\n  /// granularity of 0.01% increments.\n  uint256 public constant PERCENT_RESOLUTION = 10000;\n\n  /// @dev The minimum value that the collateralization limit can be set to by the governance. This is a safety rail\n  /// to prevent the collateralization from being set to a value which breaks the system.\n  ///\n  /// This value is equal to 100%.\n  ///\n  /// IMPORTANT: This constant is a raw FixedPointMath.FixedDecimal value and assumes a resolution of 64 bits. If the\n  ///            resolution for the FixedPointMath library changes this constant must change as well.\n  uint256 public constant MINIMUM_COLLATERALIZATION_LIMIT = 1000000000000000000;\n\n  /// @dev The maximum value that the collateralization limit can be set to by the governance. This is a safety rail\n  /// to prevent the collateralization from being set to a value which breaks the system.\n  ///\n  /// This value is equal to 400%.\n  ///\n  /// IMPORTANT: This constant is a raw FixedPointMath.FixedDecimal value and assumes a resolution of 64 bits. If the\n  ///            resolution for the FixedPointMath library changes this constant must change as well.\n  uint256 public constant MAXIMUM_COLLATERALIZATION_LIMIT = 4000000000000000000;\n\n  event GovernanceUpdated(\n    address governance\n  );\n\n  event PendingGovernanceUpdated(\n    address pendingGovernance\n  );\n\n  event SentinelUpdated(\n    address sentinel\n  );\n\n  event TransmuterUpdated(\n    address transmuter\n  );\n\n  event RewardsUpdated(\n    address treasury\n  );\n\n  event HarvestFeeUpdated(\n    uint256 fee\n  );\n\n  event CollateralizationLimitUpdated(\n    uint256 limit\n  );\n\n  event EmergencyExitUpdated(\n    bool status\n  );\n\n  event ConversionPauseUpdated(\n    bool status\n  );\n\n  event ActiveVaultUpdated(\n    IVaultAdapter indexed adapter\n  );\n\n  event FundsHarvested(\n    uint256 withdrawnAmount,\n    uint256 decreasedValue\n  );\n\n  event FundsRecalled(\n    uint256 indexed vaultId,\n    uint256 withdrawnAmount,\n    uint256 decreasedValue\n  );\n\n  event FundsFlushed(\n    uint256 amount\n  );\n\n  event TokensDeposited(\n    address indexed account,\n    uint256 amount\n  );\n\n  event TokensWithdrawn(\n    address indexed account,\n    uint256 requestedAmount,\n    uint256 withdrawnAmount,\n    uint256 decreasedValue\n  );\n\n  event TokensRepaid(\n    address indexed account,\n    uint256 parentAmount,\n    uint256 childAmount\n  );\n\n  event TokensLiquidated(\n    address indexed account,\n    uint256 requestedAmount,\n    uint256 withdrawnAmount,\n    uint256 decreasedValue\n  );\n\n  event LoanMinted(\n    address indexed account,\n    uint256 mintedAmount,\n    address syntheticAddress\n  );\n\n  event CollateralConverted(\n    address user,\n    uint256 covertedAmount\n  );\n\n  event KeepersSet(\n    address[] accounts,\n    bool[] flag\n  );\n\n  /// @dev The token that this contract is using as the parent asset.\n  IMintableERC20 public token;\n\n  /// @dev The address off the WETH contract.\n  address public weth;\n\n   /// @dev The token that this contract is using as the child asset.\n  AlEth public xtoken;\n\n  /// @dev The address of the account which currently has administrative capabilities over this contract.\n  address public governance;\n\n  /// @dev The address of the pending governance.\n  address public pendingGovernance;\n\n  /// @dev The address of the account which can initiate an emergency withdraw of funds in a vault.\n  address public sentinel;\n\n  /// @dev The address of the contract which will transmute synthetic tokens back into native tokens.\n  address public transmuter;\n\n  /// @dev The address of the contract which will receive fees.\n  address public rewards;\n\n  /// @dev The percent of each profitable harvest that will go to the rewards contract.\n  uint256 public harvestFee;\n\n  /// @dev The total amount the native token deposited into the system that is owned by external users.\n  uint256 public totalDeposited;\n\n  /// @dev when movemetns are bigger than this number flush is activated.\n  uint256 public flushActivator;\n\n  /// @dev A flag indicating if the contract has been initialized yet.\n  bool public initialized;\n\n  /// @dev A flag indicating if deposits and flushes should be halted and if all parties should be able to recall\n  /// from the active vault.\n  bool public emergencyExit;\n\n  bool public pauseConvert;\n\n  /// @dev The context shared between the CDPs.\n  CDP.Context private _ctx;\n\n  /// @dev A mapping of all of the user CDPs. If a user wishes to have multiple CDPs they will have to either\n  /// create a new address or set up a proxy contract that interfaces with this contract.\n  mapping(address => CDP.Data) private _cdps;\n\n  /// @dev A mapping of adapter addresses to keep track of vault adapters that have already been added\n  mapping(address => bool) public adapters;\n\n  /// @dev A list of all of the vaults. The last element of the list is the vault that is currently being used for\n  /// deposits and withdraws. Vaults before the last element are considered inactive and are expected to be cleared.\n  Vault.List private _vaults;\n\n  /// @dev A list of addresses that can call flush and harvest\n  mapping(address => bool) public keepers;\n  \n  constructor(\n    IMintableERC20 _token,\n    AlEth _xtoken,\n    address _governance,\n    address _sentinel\n  )\n    public\n  {\n    require(_governance != ZERO_ADDRESS, \"Alchemist: governance address cannot be 0x0.\");\n    require(_sentinel != ZERO_ADDRESS, \"Alchemist: sentinel address cannot be 0x0.\");\n\n    weth = address(_token);\n    token = _token;\n    xtoken = _xtoken;\n    governance = _governance;\n    sentinel = _sentinel;\n    flushActivator = 10000 ether;\n    emergencyExit = true;\n    pauseConvert = true;\n\n    uint256 COLL_LIMIT = MINIMUM_COLLATERALIZATION_LIMIT.mul(4);\n    _ctx.collateralizationLimit = FixedPointMath.FixedDecimal(COLL_LIMIT);\n    _ctx.accumulatedYieldWeight = FixedPointMath.FixedDecimal(0);\n  }\n\n  /// @dev Sets the pending governance.\n  ///\n  /// This function reverts if the new pending governance is the zero address or the caller is not the current\n  /// governance. This is to prevent the contract governance being set to the zero address which would deadlock\n  /// privileged contract functionality.\n  ///\n  /// @param _pendingGovernance the new pending governance.\n  function setPendingGovernance(address _pendingGovernance) external onlyGov {\n    require(_pendingGovernance != ZERO_ADDRESS, \"Alchemist: governance address cannot be 0x0.\");\n\n    pendingGovernance = _pendingGovernance;\n\n    emit PendingGovernanceUpdated(_pendingGovernance);\n  }\n\n  /// @dev Accepts the role as governance.\n  ///\n  /// This function reverts if the caller is not the new pending governance.\n  function acceptGovernance() external  {\n    require(msg.sender == pendingGovernance,\"sender is not pendingGovernance\");\n    address _pendingGovernance = pendingGovernance;\n    governance = _pendingGovernance;\n\n    emit GovernanceUpdated(_pendingGovernance);\n  }\n\n  function setSentinel(address _sentinel) external onlyGov {\n\n    require(_sentinel != ZERO_ADDRESS, \"Alchemist: sentinel address cannot be 0x0.\");\n\n    sentinel = _sentinel;\n\n    emit SentinelUpdated(_sentinel);\n  }\n\n  /// @dev Sets the transmuter.\n  ///\n  /// This function reverts if the new transmuter is the zero address or the caller is not the current governance.\n  ///\n  /// @param _transmuter the new transmuter.\n  function setTransmuter(address _transmuter) external onlyGov {\n\n    // Check that the transmuter address is not the zero address. Setting the transmuter to the zero address would break\n    // transfers to the address because of `safeTransfer` checks.\n    require(_transmuter != ZERO_ADDRESS, \"Alchemist: transmuter address cannot be 0x0.\");\n\n    transmuter = _transmuter;\n\n    emit TransmuterUpdated(_transmuter);\n  }\n  /// @dev Sets the flushActivator.\n  ///\n  /// @param _flushActivator the new flushActivator.\n  function setFlushActivator(uint256 _flushActivator) external onlyGov {\n    flushActivator = _flushActivator;\n\n  }\n\n  /// @dev Sets the rewards contract.\n  ///\n  /// This function reverts if the new rewards contract is the zero address or the caller is not the current governance.\n  ///\n  /// @param _rewards the new rewards contract.\n  function setRewards(address _rewards) external onlyGov {\n\n    // Check that the rewards address is not the zero address. Setting the rewards to the zero address would break\n    // transfers to the address because of `safeTransfer` checks.\n    require(_rewards != ZERO_ADDRESS, \"Alchemist: rewards address cannot be 0x0.\");\n\n    rewards = _rewards;\n\n    emit RewardsUpdated(_rewards);\n  }\n\n  /// @dev Sets the harvest fee.\n  ///\n  /// This function reverts if the caller is not the current governance.\n  ///\n  /// @param _harvestFee the new harvest fee.\n  function setHarvestFee(uint256 _harvestFee) external onlyGov {\n\n    // Check that the harvest fee is within the acceptable range. Setting the harvest fee greater than 100% could\n    // potentially break internal logic when calculating the harvest fee.\n    require(_harvestFee <= PERCENT_RESOLUTION, \"Alchemist: harvest fee above maximum.\");\n\n    harvestFee = _harvestFee;\n\n    emit HarvestFeeUpdated(_harvestFee);\n  }\n\n  /// @dev Sets the collateralization limit.\n  ///\n  /// This function reverts if the caller is not the current governance or if the collateralization limit is outside\n  /// of the accepted bounds.\n  ///\n  /// @param _limit the new collateralization limit.\n  function setCollateralizationLimit(uint256 _limit) external onlyGov {\n\n    require(_limit >= MINIMUM_COLLATERALIZATION_LIMIT, \"Alchemist: collateralization limit below minimum.\");\n    require(_limit <= MAXIMUM_COLLATERALIZATION_LIMIT, \"Alchemist: collateralization limit above maximum.\");\n\n    _ctx.collateralizationLimit = FixedPointMath.FixedDecimal(_limit);\n\n    emit CollateralizationLimitUpdated(_limit);\n  }\n\n  /// @dev Sets if the contract should enter emergency exit mode.\n  ///\n  /// @param _emergencyExit if the contract should enter emergency exit mode.\n  function setEmergencyExit(bool _emergencyExit) external {\n    require(msg.sender == governance || msg.sender == sentinel, \"!governance && !sentinel\");\n\n    emergencyExit = _emergencyExit;\n\n    emit EmergencyExitUpdated(_emergencyExit);\n  }\n\n  /// @dev Sets if the contract should pause conversions.\n  ///\n  /// @param _pauseConvert if the contract should pause conversions.\n  function setPauseConvert(bool _pauseConvert) external {\n    require(msg.sender == governance || msg.sender == sentinel, \"!governance && !sentinel\");\n\n    pauseConvert = _pauseConvert;\n\n    emit ConversionPauseUpdated(_pauseConvert);\n  }\n\n  /// @dev Sets the addresses of the keepers list.\n  ///\n  /// @param accounts the accounts to set.\n  /// @param flags the flags for the accounts.\n  function setKeepers(address[] calldata accounts, bool[] calldata flags) external onlyGov {\n    uint256 numAccounts = accounts.length;\n    for (uint256 i = 0; i < numAccounts; i++) {\n      keepers[accounts[i]] = flags[i];\n    }\n    emit KeepersSet(accounts, flags);\n  }\n\n  /// @dev Gets the collateralization limit.\n  ///\n  /// The collateralization limit is the minimum ratio of collateral to debt that is allowed by the system.\n  ///\n  /// @return the collateralization limit.\n  function collateralizationLimit() external view returns (FixedPointMath.FixedDecimal memory) {\n    return _ctx.collateralizationLimit;\n  }\n\n  /// @dev Initializes the contract.\n  ///\n  /// This function checks that the transmuter and rewards have been set and sets up the active vault.\n  ///\n  /// @param _adapter the vault adapter of the active vault.\n  function initialize(IVaultAdapter _adapter) external onlyGov {\n\n    require(!initialized, \"Alchemist: already initialized\");\n\n    require(transmuter != ZERO_ADDRESS, \"Alchemist: cannot initialize transmuter address to 0x0\");\n    require(rewards != ZERO_ADDRESS, \"Alchemist: cannot initialize rewards address to 0x0\");\n\n    _updateActiveVault(_adapter);\n\n    initialized = true;\n  }\n\n  /// @dev Migrates the system to a new vault.\n  ///\n  /// This function reverts if the vault adapter is the zero address, if the token that the vault adapter accepts\n  /// is not the token that this contract defines as the parent asset, or if the contract has not yet been initialized.\n  ///\n  /// @param _adapter the adapter for the vault the system will migrate to.\n  function migrate(IVaultAdapter _adapter) external expectInitialized onlyGov {\n\n    _updateActiveVault(_adapter);\n  }\n\n  /// @dev Harvests yield from a vault.\n  ///\n  /// @param _vaultId the identifier of the vault to harvest from.\n  ///\n  /// @return the amount of funds that were harvested from the vault.\n  function harvest(uint256 _vaultId) external expectInitialized onlyKeeper returns (uint256, uint256) {\n\n    Vault.Data storage _vault = _vaults.get(_vaultId);\n\n    (uint256 _harvestedAmount, uint256 _decreasedValue) = _vault.harvest(address(this));\n\n    if (_harvestedAmount > 0) {\n      uint256 _feeAmount = _harvestedAmount.mul(harvestFee).div(PERCENT_RESOLUTION);\n      uint256 _distributeAmount = _harvestedAmount.sub(_feeAmount);\n\n      FixedPointMath.FixedDecimal memory _weight = FixedPointMath.fromU256(_distributeAmount).div(totalDeposited);\n      _ctx.accumulatedYieldWeight = _ctx.accumulatedYieldWeight.add(_weight);\n\n      if (_feeAmount > 0) {\n        token.safeTransfer(rewards, _feeAmount);\n      }\n\n      if (_distributeAmount > 0) {\n        _distributeToTransmuter(_distributeAmount);\n      }\n    }\n\n    emit FundsHarvested(_harvestedAmount, _decreasedValue);\n\n    return (_harvestedAmount, _decreasedValue);\n  }\n\n  /// @dev Recalls an amount of deposited funds from a vault to this contract.\n  ///\n  /// @param _vaultId the identifier of the recall funds from.\n  ///\n  /// @return the amount of funds that were recalled from the vault to this contract and the decreased vault value.\n  function recall(uint256 _vaultId, uint256 _amount) external nonReentrant expectInitialized returns (uint256, uint256) {\n\n    return _recallFunds(_vaultId, _amount);\n  }\n\n  /// @dev Recalls all the deposited funds from a vault to this contract.\n  ///\n  /// @param _vaultId the identifier of the recall funds from.\n  ///\n  /// @return the amount of funds that were recalled from the vault to this contract and the decreased vault value.\n  function recallAll(uint256 _vaultId) external nonReentrant expectInitialized returns (uint256, uint256) {\n    Vault.Data storage _vault = _vaults.get(_vaultId);\n    return _recallFunds(_vaultId, _vault.totalDeposited);\n  }\n\n  /// @dev Flushes buffered tokens to the active vault.\n  ///\n  /// This function reverts if an emergency exit is active. This is in place to prevent the potential loss of\n  /// additional funds.\n  ///\n  /// @return the amount of tokens flushed to the active vault.\n  function flush() external nonReentrant expectInitialized onlyKeeper returns (uint256) {\n\n    // Prevent flushing to the active vault when an emergency exit is enabled to prevent potential loss of funds if\n    // the active vault is poisoned for any reason.\n    require(!emergencyExit, \"emergency pause enabled\");\n\n    return flushActiveVault();\n  }\n\n  /// @dev Internal function to flush buffered tokens to the active vault.\n  ///\n  /// This function reverts if an emergency exit is active. This is in place to prevent the potential loss of\n  /// additional funds.\n  ///\n  /// @return the amount of tokens flushed to the active vault.\n  function flushActiveVault() internal returns (uint256) {\n\n    Vault.Data storage _activeVault = _vaults.last();\n    uint256 _depositedAmount = _activeVault.depositAll();\n\n    emit FundsFlushed(_depositedAmount);\n\n    return _depositedAmount;\n  }\n\n  /// @dev Deposits collateral into a CDP.\n  ///\n  /// @param _amount the amount of collateral to deposit.\n  function deposit(uint256 _amount, bool asEth) external payable nonReentrant noContractAllowed expectInitialized {\n    require(!emergencyExit, \"emergency pause enabled\");\n    \n    CDP.Data storage _cdp = _cdps[msg.sender];\n    _cdp.update(_ctx);\n\n    if (asEth) {\n      require(_amount == msg.value, \"_amount != msg.value\");\n      IWETH9(weth).deposit{value: _amount}();\n    } else {  \n      require(msg.value == 0, \"msg.value != 0\");\n      token.safeTransferFrom(msg.sender, address(this), _amount);\n    }\n\n    if(_amount >= flushActivator) {\n      flushActiveVault();\n    }\n    totalDeposited = totalDeposited.add(_amount);\n\n    _cdp.totalDeposited = _cdp.totalDeposited.add(_amount);\n    _cdp.lastDeposit = block.number;\n\n    emit TokensDeposited(msg.sender, _amount);\n  }\n\n  /// @dev Attempts to withdraw part of a CDP's collateral.\n  ///\n  /// This function reverts if a deposit into the CDP was made in the same block. This is to prevent flash loan attacks\n  /// on other internal or external systems.\n  ///\n  /// @param _amount the amount of collateral to withdraw.\n  function withdraw(uint256 _amount, bool asEth) external nonReentrant noContractAllowed expectInitialized returns (uint256, uint256) {\n    CDP.Data storage _cdp = _cdps[msg.sender];\n    require(block.number > _cdp.lastDeposit, \"\");\n\n    _cdp.update(_ctx);\n\n    (uint256 _withdrawnAmount, uint256 _decreasedValue) = _withdrawFundsTo(msg.sender, _amount, asEth);\n\n    _cdp.totalDeposited = _cdp.totalDeposited.sub(_decreasedValue, \"Exceeds withdrawable amount\");\n    _cdp.checkHealth(_ctx, \"Action blocked: unhealthy collateralization ratio\");\n\n    emit TokensWithdrawn(msg.sender, _amount, _withdrawnAmount, _decreasedValue);\n\n    return (_withdrawnAmount, _decreasedValue);\n  }\n\n  /// @dev Repays debt with the native and or synthetic token.\n  ///\n  /// An approval is required to transfer native tokens to the transmuter.\n  function repay(uint256 _collateralAmount, uint256 _syntheticAmount, bool collateralAsEth) external payable nonReentrant noContractAllowed expectInitialized {\n    if ((!collateralAsEth || (collateralAsEth && _collateralAmount == 0)) && msg.value != 0) {\n      revert(\"blackhole ETH\");\n    }\n\n    CDP.Data storage _cdp = _cdps[msg.sender];\n    _cdp.update(_ctx);\n\n    if (_collateralAmount > 0) {\n      if (collateralAsEth) {\n        require(_collateralAmount == msg.value, \"_collateralAmount != msg.value\");\n        IWETH9(weth).deposit{value: _collateralAmount}();\n      } else {\n        token.safeTransferFrom(msg.sender, address(this), _collateralAmount);\n      }\n      _distributeToTransmuter(_collateralAmount);\n    }\n\n    if (_syntheticAmount > 0) {\n      xtoken.burnFrom(msg.sender, _syntheticAmount);\n      //lower debt cause burn\n      xtoken.lowerHasMinted(_syntheticAmount);\n    }\n    uint256 _totalAmount = _collateralAmount.add(_syntheticAmount);\n    _cdp.totalDebt = _cdp.totalDebt.sub(_totalAmount);\n\n    emit TokensRepaid(msg.sender, _collateralAmount, _syntheticAmount);\n  }\n\n  /// @dev Attempts to liquidate part of a CDP's collateral to pay back its debt.\n  ///\n  /// @param _amount the amount of collateral to attempt to liquidate.\n  function liquidate(uint256 _amount) external nonReentrant noContractAllowed expectInitialized returns (uint256, uint256) {\n    CDP.Data storage _cdp = _cdps[msg.sender];\n    _cdp.update(_ctx);\n    \n    // don't attempt to liquidate more than is possible\n    if(_amount > _cdp.totalDebt){\n      _amount = _cdp.totalDebt;\n    }\n    (uint256 _withdrawnAmount, uint256 _decreasedValue) = _withdrawFundsTo(payable(address(this)), _amount, false);\n    //changed to new transmuter compatibillity \n    _distributeToTransmuter(_withdrawnAmount);\n\n    _cdp.totalDeposited = _cdp.totalDeposited.sub(_decreasedValue, \"\");\n    _cdp.totalDebt = _cdp.totalDebt.sub(_withdrawnAmount, \"\");\n    emit TokensLiquidated(msg.sender, _amount, _withdrawnAmount, _decreasedValue);\n\n    return (_withdrawnAmount, _decreasedValue);\n  }\n\n  /// @dev Converts ETH/WETH to alETH\n  ///\n  /// @param _amount the amount of collateral to convert.\n  function convert(uint256 _amount, bool asEth) external payable nonReentrant noContractAllowed expectInitialized {\n    require(!pauseConvert, \"Alchemist: conversions are paused.\");\n    if (asEth) {\n      require(_amount == msg.value, \"_amount != msg.value\");\n      IWETH9(weth).deposit{value: _amount}();\n    } else {  \n      require(msg.value == 0, \"msg.value != 0\");\n      token.safeTransferFrom(msg.sender, address(this), _amount);\n    }\n\n    // TODO test lowerHasMinted\n    xtoken.mint(msg.sender, _amount);\n\n    _distributeToTransmuter(_amount);\n\n    require(xtoken.hasMinted(address(this)) <= xtoken.ceiling(address(this)),\"AlETH: Alchemist's ceiling was breached.\");\n\n    emit CollateralConverted(msg.sender, _amount);\n  }\n\n  /// @dev Recover eth sent directly to the Alchemist\n  ///\n  /// only callable by governance\n  function recoverLostFunds() external onlyGov() {\n    payable(governance).transfer(address(this).balance);\n  }\n\n  /// @dev Mints synthetic tokens by either claiming credit or increasing the debt.\n  ///\n  /// Claiming credit will take priority over increasing the debt.\n  ///\n  /// This function reverts if the debt is increased and the CDP health check fails.\n  ///\n  /// @param _amount the amount of alchemic tokens to borrow.\n  function mint(uint256 _amount) external nonReentrant noContractAllowed expectInitialized {\n\n    CDP.Data storage _cdp = _cdps[msg.sender];\n    _cdp.update(_ctx);\n\n    uint256 _totalCredit = _cdp.totalCredit;\n\n    if (_totalCredit < _amount) {\n      uint256 _remainingAmount = _amount.sub(_totalCredit);\n      _cdp.totalDebt = _cdp.totalDebt.add(_remainingAmount);\n      _cdp.totalCredit = 0;\n\n      _cdp.checkHealth(_ctx, \"Alchemist: Loan-to-value ratio breached\");\n    } else {\n      _cdp.totalCredit = _totalCredit.sub(_amount);\n    }\n\n    xtoken.mint(msg.sender, _amount);\n\n    require(xtoken.hasMinted(address(this)) <= xtoken.ceiling(address(this)),\"AlETH: Alchemist's ceiling was breached.\");\n\n    emit LoanMinted(msg.sender, _amount, address(xtoken));\n  }\n\n  /// @dev Gets the number of vaults in the vault list.\n  ///\n  /// @return the vault count.\n  function vaultCount() external view returns (uint256) {\n    return _vaults.length();\n  }\n\n  /// @dev Get the adapter of a vault.\n  ///\n  /// @param _vaultId the identifier of the vault.\n  ///\n  /// @return the vault adapter.\n  function getVaultAdapter(uint256 _vaultId) external view returns (IVaultAdapter) {\n    Vault.Data storage _vault = _vaults.get(_vaultId);\n    return _vault.adapter;\n  }\n\n  /// @dev Get the total amount of the parent asset that has been deposited into a vault.\n  ///\n  /// @param _vaultId the identifier of the vault.\n  ///\n  /// @return the total amount of deposited tokens.\n  function getVaultTotalDeposited(uint256 _vaultId) external view returns (uint256) {\n    Vault.Data storage _vault = _vaults.get(_vaultId);\n    return _vault.totalDeposited;\n  }\n\n  /// @dev Get the total amount of collateral deposited into a CDP.\n  ///\n  /// @param _account the user account of the CDP to query.\n  ///\n  /// @return the deposited amount of tokens.\n  function getCdpTotalDeposited(address _account) external view returns (uint256) {\n    CDP.Data storage _cdp = _cdps[_account];\n    return _cdp.totalDeposited;\n  }\n\n  /// @dev Get the total amount of alchemic tokens borrowed from a CDP.\n  ///\n  /// @param _account the user account of the CDP to query.\n  ///\n  /// @return the borrowed amount of tokens.\n  function getCdpTotalDebt(address _account) external view returns (uint256) {\n    CDP.Data storage _cdp = _cdps[_account];\n    return _cdp.getUpdatedTotalDebt(_ctx);\n  }\n\n  /// @dev Get the total amount of credit that a CDP has.\n  ///\n  /// @param _account the user account of the CDP to query.\n  ///\n  /// @return the amount of credit.\n  function getCdpTotalCredit(address _account) external view returns (uint256) {\n    CDP.Data storage _cdp = _cdps[_account];\n    return _cdp.getUpdatedTotalCredit(_ctx);\n  }\n\n  /// @dev Gets the last recorded block of when a user made a deposit into their CDP.\n  ///\n  /// @param _account the user account of the CDP to query.\n  ///\n  /// @return the block number of the last deposit.\n  function getCdpLastDeposit(address _account) external view returns (uint256) {\n    CDP.Data storage _cdp = _cdps[_account];\n    return _cdp.lastDeposit;\n  }\n  /// @dev sends tokens to the transmuter\n  ///\n  /// benefit of great nation of transmuter\n  function _distributeToTransmuter(uint256 amount) internal {\n        token.approve(transmuter,amount);\n        ITransmuter(transmuter).distribute(address(this),amount);\n        // lower debt cause of 'burn'\n        xtoken.lowerHasMinted(amount);\n  } \n\n  /// @dev Checks that caller is not a eoa.\n  ///\n  /// This is used to prevent contracts from interacting.\n  modifier noContractAllowed() {\n          require(!address(msg.sender).isContract() && msg.sender == tx.origin, \"Sorry we do not accept contract!\");\n      _;\n  }\n  /// @dev Checks that the contract is in an initialized state.\n  ///\n  /// This is used over a modifier to reduce the size of the contract\n  modifier expectInitialized() {\n    require(initialized, \"Alchemist: not initialized.\");\n    _;\n  }\n\n  /// @dev Checks that the current message sender or caller is a specific address.\n  ///\n  /// @param _expectedCaller the expected caller.\n  function _expectCaller(address _expectedCaller) internal {\n    require(msg.sender == _expectedCaller, \"\");\n  }\n\n  /// @dev Checks that the current message sender or caller is the governance address.\n  ///\n  ///\n  modifier onlyGov() {\n    require(msg.sender == governance, \"Alchemist: only governance.\");\n    _;\n  }\n\n  /// @dev Checks that the current message sender or caller is the governance address.\n  ///\n  ///\n  modifier onlyKeeper() {\n    require(keepers[msg.sender], \"Alchemist: only keepers.\");\n    _;\n  }\n\n  /// @dev Updates the active vault.\n  ///\n  /// This function reverts if the vault adapter is the zero address, if the token that the vault adapter accepts\n  /// is not the token that this contract defines as the parent asset, or if the contract has not yet been initialized.\n  ///\n  /// @param _adapter the adapter for the new active vault.\n  function _updateActiveVault(IVaultAdapter _adapter) internal {\n    require(_adapter != IVaultAdapter(ZERO_ADDRESS), \"Alchemist: active vault address cannot be 0x0.\");\n    require(_adapter.token() == token, \"Alchemist: token mismatch.\");\n    require(!adapters[address(_adapter)], \"Adapter already in use\");\n    adapters[address(_adapter)] = true;\n    _vaults.push(Vault.Data({\n      adapter: _adapter,\n      totalDeposited: 0\n    }));\n\n    emit ActiveVaultUpdated(_adapter);\n  }\n\n  /// @dev Recalls an amount of funds from a vault to this contract.\n  ///\n  /// @param _vaultId the identifier of the recall funds from.\n  /// @param _amount  the amount of funds to recall from the vault.\n  ///\n  /// @return the amount of funds that were recalled from the vault to this contract and the decreased vault value.\n  function _recallFunds(uint256 _vaultId, uint256 _amount) internal returns (uint256, uint256) {\n    require(emergencyExit || msg.sender == governance || _vaultId != _vaults.lastIndex(), \"Alchemist: not an emergency, not governance, and user does not have permission to recall funds from active vault\");\n\n    Vault.Data storage _vault = _vaults.get(_vaultId);\n    (uint256 _withdrawnAmount, uint256 _decreasedValue) = _vault.withdraw(address(this), _amount);\n\n    emit FundsRecalled(_vaultId, _withdrawnAmount, _decreasedValue);\n\n    return (_withdrawnAmount, _decreasedValue);\n  }\n\n  /// @dev Attempts to withdraw funds from the active vault to the recipient.\n  ///\n  /// Funds will be first withdrawn from this contracts balance and then from the active vault. This function\n  /// is different from `recallFunds` in that it reduces the total amount of deposited tokens by the decreased\n  /// value of the vault.\n  ///\n  /// @param _recipient the account to withdraw the funds to.\n  /// @param _amount    the amount of funds to withdraw.\n  function _withdrawFundsTo(address payable _recipient, uint256 _amount, bool asEth) internal returns (uint256, uint256) {\n    // Pull the funds from the buffer.\n    uint256 _bufferedAmount = Math.min(_amount, token.balanceOf(address(this)));\n\n    if (_recipient != address(this)) {\n      if (asEth) {\n        IWETH9(weth).withdraw(_bufferedAmount);\n        _recipient.transfer(_bufferedAmount);\n      } else {\n        token.safeTransfer(_recipient, _bufferedAmount);\n      }\n    }\n\n    uint256 _totalWithdrawn = _bufferedAmount;\n    uint256 _totalDecreasedValue = _bufferedAmount;\n\n    uint256 _remainingAmount = _amount.sub(_bufferedAmount);\n\n    // Pull the remaining funds from the active vault.\n    if (_remainingAmount > 0) {\n      Vault.Data storage _activeVault = _vaults.last();\n      uint256 _withdrawnAmount = 0;\n      uint256 _decreasedValue = 0;\n\n      if (asEth) {\n        (_withdrawnAmount, _decreasedValue) = _activeVault.withdraw(\n          payable(address(this)),\n          _remainingAmount\n        );\n        IWETH9(weth).withdraw(_withdrawnAmount);\n        _recipient.transfer(_withdrawnAmount);\n      } else {\n        (_withdrawnAmount, _decreasedValue) = _activeVault.withdraw(\n          _recipient,\n          _remainingAmount\n        );\n      }\n\n      _totalWithdrawn = _totalWithdrawn.add(_withdrawnAmount);\n      _totalDecreasedValue = _totalDecreasedValue.add(_decreasedValue);\n    }\n\n    totalDeposited = totalDeposited.sub(_totalDecreasedValue);\n\n    return (_totalWithdrawn, _totalDecreasedValue);\n  }\n\n  receive() external payable {}\n}",
  "sourcePath": "/Users/shr1ftyy/Personal/Computing/bounties/alcx/alchemix-protocol/contracts/AlchemistEth.sol",
  "compiler": {
    "name": "solc",
    "version": "0.6.12+commit.27d51765.Emscripten.clang"
  },
  "schemaVersion": "3.4.4",
  "updatedAt": "2022-01-12T10:52:43.277Z",
  "networkType": "ethereum",
  "devdoc": {
    "kind": "dev",
    "methods": {
      "acceptGovernance()": {
        "details": "Accepts the role as governance. This function reverts if the caller is not the new pending governance."
      },
      "collateralizationLimit()": {
        "details": "Gets the collateralization limit. The collateralization limit is the minimum ratio of collateral to debt that is allowed by the system.",
        "returns": {
          "_0": "the collateralization limit."
        }
      },
      "convert(uint256,bool)": {
        "details": "Converts ETH/WETH to alETH",
        "params": {
          "_amount": "the amount of collateral to convert."
        }
      },
      "deposit(uint256,bool)": {
        "details": "Deposits collateral into a CDP.",
        "params": {
          "_amount": "the amount of collateral to deposit."
        }
      },
      "flush()": {
        "details": "Flushes buffered tokens to the active vault. This function reverts if an emergency exit is active. This is in place to prevent the potential loss of additional funds.",
        "returns": {
          "_0": "the amount of tokens flushed to the active vault."
        }
      },
      "getCdpLastDeposit(address)": {
        "details": "Gets the last recorded block of when a user made a deposit into their CDP.",
        "params": {
          "_account": "the user account of the CDP to query."
        },
        "returns": {
          "_0": "the block number of the last deposit."
        }
      },
      "getCdpTotalCredit(address)": {
        "details": "Get the total amount of credit that a CDP has.",
        "params": {
          "_account": "the user account of the CDP to query."
        },
        "returns": {
          "_0": "the amount of credit."
        }
      },
      "getCdpTotalDebt(address)": {
        "details": "Get the total amount of alchemic tokens borrowed from a CDP.",
        "params": {
          "_account": "the user account of the CDP to query."
        },
        "returns": {
          "_0": "the borrowed amount of tokens."
        }
      },
      "getCdpTotalDeposited(address)": {
        "details": "Get the total amount of collateral deposited into a CDP.",
        "params": {
          "_account": "the user account of the CDP to query."
        },
        "returns": {
          "_0": "the deposited amount of tokens."
        }
      },
      "getVaultAdapter(uint256)": {
        "details": "Get the adapter of a vault.",
        "params": {
          "_vaultId": "the identifier of the vault."
        },
        "returns": {
          "_0": "the vault adapter."
        }
      },
      "getVaultTotalDeposited(uint256)": {
        "details": "Get the total amount of the parent asset that has been deposited into a vault.",
        "params": {
          "_vaultId": "the identifier of the vault."
        },
        "returns": {
          "_0": "the total amount of deposited tokens."
        }
      },
      "harvest(uint256)": {
        "details": "Harvests yield from a vault.",
        "params": {
          "_vaultId": "the identifier of the vault to harvest from."
        },
        "returns": {
          "_0": "the amount of funds that were harvested from the vault."
        }
      },
      "initialize(address)": {
        "details": "Initializes the contract. This function checks that the transmuter and rewards have been set and sets up the active vault.",
        "params": {
          "_adapter": "the vault adapter of the active vault."
        }
      },
      "liquidate(uint256)": {
        "details": "Attempts to liquidate part of a CDP's collateral to pay back its debt.",
        "params": {
          "_amount": "the amount of collateral to attempt to liquidate."
        }
      },
      "migrate(address)": {
        "details": "Migrates the system to a new vault. This function reverts if the vault adapter is the zero address, if the token that the vault adapter accepts is not the token that this contract defines as the parent asset, or if the contract has not yet been initialized.",
        "params": {
          "_adapter": "the adapter for the vault the system will migrate to."
        }
      },
      "mint(uint256)": {
        "details": "Mints synthetic tokens by either claiming credit or increasing the debt. Claiming credit will take priority over increasing the debt. This function reverts if the debt is increased and the CDP health check fails.",
        "params": {
          "_amount": "the amount of alchemic tokens to borrow."
        }
      },
      "recall(uint256,uint256)": {
        "details": "Recalls an amount of deposited funds from a vault to this contract.",
        "params": {
          "_vaultId": "the identifier of the recall funds from."
        },
        "returns": {
          "_0": "the amount of funds that were recalled from the vault to this contract and the decreased vault value."
        }
      },
      "recallAll(uint256)": {
        "details": "Recalls all the deposited funds from a vault to this contract.",
        "params": {
          "_vaultId": "the identifier of the recall funds from."
        },
        "returns": {
          "_0": "the amount of funds that were recalled from the vault to this contract and the decreased vault value."
        }
      },
      "recoverLostFunds()": {
        "details": "Recover eth sent directly to the Alchemist only callable by governance"
      },
      "repay(uint256,uint256,bool)": {
        "details": "Repays debt with the native and or synthetic token. An approval is required to transfer native tokens to the transmuter."
      },
      "setCollateralizationLimit(uint256)": {
        "details": "Sets the collateralization limit. This function reverts if the caller is not the current governance or if the collateralization limit is outside of the accepted bounds.",
        "params": {
          "_limit": "the new collateralization limit."
        }
      },
      "setEmergencyExit(bool)": {
        "details": "Sets if the contract should enter emergency exit mode.",
        "params": {
          "_emergencyExit": "if the contract should enter emergency exit mode."
        }
      },
      "setFlushActivator(uint256)": {
        "details": "Sets the flushActivator.",
        "params": {
          "_flushActivator": "the new flushActivator."
        }
      },
      "setHarvestFee(uint256)": {
        "details": "Sets the harvest fee. This function reverts if the caller is not the current governance.",
        "params": {
          "_harvestFee": "the new harvest fee."
        }
      },
      "setKeepers(address[],bool[])": {
        "details": "Sets the addresses of the keepers list.",
        "params": {
          "accounts": "the accounts to set.",
          "flags": "the flags for the accounts."
        }
      },
      "setPauseConvert(bool)": {
        "details": "Sets if the contract should pause conversions.",
        "params": {
          "_pauseConvert": "if the contract should pause conversions."
        }
      },
      "setPendingGovernance(address)": {
        "details": "Sets the pending governance. This function reverts if the new pending governance is the zero address or the caller is not the current governance. This is to prevent the contract governance being set to the zero address which would deadlock privileged contract functionality.",
        "params": {
          "_pendingGovernance": "the new pending governance."
        }
      },
      "setRewards(address)": {
        "details": "Sets the rewards contract. This function reverts if the new rewards contract is the zero address or the caller is not the current governance.",
        "params": {
          "_rewards": "the new rewards contract."
        }
      },
      "setTransmuter(address)": {
        "details": "Sets the transmuter. This function reverts if the new transmuter is the zero address or the caller is not the current governance.",
        "params": {
          "_transmuter": "the new transmuter."
        }
      },
      "vaultCount()": {
        "details": "Gets the number of vaults in the vault list.",
        "returns": {
          "_0": "the vault count."
        }
      },
      "withdraw(uint256,bool)": {
        "details": "Attempts to withdraw part of a CDP's collateral. This function reverts if a deposit into the CDP was made in the same block. This is to prevent flash loan attacks on other internal or external systems.",
        "params": {
          "_amount": "the amount of collateral to withdraw."
        }
      }
    },
    "stateVariables": {
      "MAXIMUM_COLLATERALIZATION_LIMIT": {
        "details": "The maximum value that the collateralization limit can be set to by the governance. This is a safety rail to prevent the collateralization from being set to a value which breaks the system. This value is equal to 400%. IMPORTANT: This constant is a raw FixedPointMath.FixedDecimal value and assumes a resolution of 64 bits. If the            resolution for the FixedPointMath library changes this constant must change as well."
      },
      "MINIMUM_COLLATERALIZATION_LIMIT": {
        "details": "The minimum value that the collateralization limit can be set to by the governance. This is a safety rail to prevent the collateralization from being set to a value which breaks the system. This value is equal to 100%. IMPORTANT: This constant is a raw FixedPointMath.FixedDecimal value and assumes a resolution of 64 bits. If the            resolution for the FixedPointMath library changes this constant must change as well."
      },
      "PERCENT_RESOLUTION": {
        "details": "Resolution for all fixed point numeric parameters which represent percents. The resolution allows for a granularity of 0.01% increments."
      },
      "_cdps": {
        "details": "A mapping of all of the user CDPs. If a user wishes to have multiple CDPs they will have to either create a new address or set up a proxy contract that interfaces with this contract."
      },
      "_ctx": {
        "details": "The context shared between the CDPs."
      },
      "_vaults": {
        "details": "A list of all of the vaults. The last element of the list is the vault that is currently being used for deposits and withdraws. Vaults before the last element are considered inactive and are expected to be cleared."
      },
      "adapters": {
        "details": "A mapping of adapter addresses to keep track of vault adapters that have already been added"
      },
      "emergencyExit": {
        "details": "A flag indicating if deposits and flushes should be halted and if all parties should be able to recall from the active vault."
      },
      "flushActivator": {
        "details": "when movemetns are bigger than this number flush is activated."
      },
      "governance": {
        "details": "The address of the account which currently has administrative capabilities over this contract."
      },
      "harvestFee": {
        "details": "The percent of each profitable harvest that will go to the rewards contract."
      },
      "initialized": {
        "details": "A flag indicating if the contract has been initialized yet."
      },
      "keepers": {
        "details": "A list of addresses that can call flush and harvest"
      },
      "pendingGovernance": {
        "details": "The address of the pending governance."
      },
      "rewards": {
        "details": "The address of the contract which will receive fees."
      },
      "sentinel": {
        "details": "The address of the account which can initiate an emergency withdraw of funds in a vault."
      },
      "token": {
        "details": "The token that this contract is using as the parent asset."
      },
      "totalDeposited": {
        "details": "The total amount the native token deposited into the system that is owned by external users."
      },
      "transmuter": {
        "details": "The address of the contract which will transmute synthetic tokens back into native tokens."
      },
      "weth": {
        "details": "The address off the WETH contract."
      },
      "xtoken": {
        "details": "The token that this contract is using as the child asset."
      }
    },
    "version": 1
  },
  "userdoc": {
    "kind": "user",
    "methods": {},
    "version": 1
  }
}