{
  "contractName": "AlEth",
  "abi": [
    {
      "inputs": [],
      "stateMutability": "nonpayable",
      "type": "constructor"
    },
    {
      "anonymous": false,
      "inputs": [
        {
          "indexed": false,
          "internalType": "address",
          "name": "alchemistAddress",
          "type": "address"
        },
        {
          "indexed": false,
          "internalType": "bool",
          "name": "isPaused",
          "type": "bool"
        }
      ],
      "name": "AlchemistPaused",
      "type": "event"
    },
    {
      "anonymous": false,
      "inputs": [
        {
          "indexed": true,
          "internalType": "address",
          "name": "owner",
          "type": "address"
        },
        {
          "indexed": true,
          "internalType": "address",
          "name": "spender",
          "type": "address"
        },
        {
          "indexed": false,
          "internalType": "uint256",
          "name": "value",
          "type": "uint256"
        }
      ],
      "name": "Approval",
      "type": "event"
    },
    {
      "anonymous": false,
      "inputs": [
        {
          "indexed": true,
          "internalType": "bytes32",
          "name": "role",
          "type": "bytes32"
        },
        {
          "indexed": true,
          "internalType": "bytes32",
          "name": "previousAdminRole",
          "type": "bytes32"
        },
        {
          "indexed": true,
          "internalType": "bytes32",
          "name": "newAdminRole",
          "type": "bytes32"
        }
      ],
      "name": "RoleAdminChanged",
      "type": "event"
    },
    {
      "anonymous": false,
      "inputs": [
        {
          "indexed": true,
          "internalType": "bytes32",
          "name": "role",
          "type": "bytes32"
        },
        {
          "indexed": true,
          "internalType": "address",
          "name": "account",
          "type": "address"
        },
        {
          "indexed": true,
          "internalType": "address",
          "name": "sender",
          "type": "address"
        }
      ],
      "name": "RoleGranted",
      "type": "event"
    },
    {
      "anonymous": false,
      "inputs": [
        {
          "indexed": true,
          "internalType": "bytes32",
          "name": "role",
          "type": "bytes32"
        },
        {
          "indexed": true,
          "internalType": "address",
          "name": "account",
          "type": "address"
        },
        {
          "indexed": true,
          "internalType": "address",
          "name": "sender",
          "type": "address"
        }
      ],
      "name": "RoleRevoked",
      "type": "event"
    },
    {
      "anonymous": false,
      "inputs": [
        {
          "indexed": true,
          "internalType": "address",
          "name": "from",
          "type": "address"
        },
        {
          "indexed": true,
          "internalType": "address",
          "name": "to",
          "type": "address"
        },
        {
          "indexed": false,
          "internalType": "uint256",
          "name": "value",
          "type": "uint256"
        }
      ],
      "name": "Transfer",
      "type": "event"
    },
    {
      "inputs": [],
      "name": "ADMIN_ROLE",
      "outputs": [
        {
          "internalType": "bytes32",
          "name": "",
          "type": "bytes32"
        }
      ],
      "stateMutability": "view",
      "type": "function",
      "constant": true
    },
    {
      "inputs": [],
      "name": "DEFAULT_ADMIN_ROLE",
      "outputs": [
        {
          "internalType": "bytes32",
          "name": "",
          "type": "bytes32"
        }
      ],
      "stateMutability": "view",
      "type": "function",
      "constant": true
    },
    {
      "inputs": [],
      "name": "SENTINEL_ROLE",
      "outputs": [
        {
          "internalType": "bytes32",
          "name": "",
          "type": "bytes32"
        }
      ],
      "stateMutability": "view",
      "type": "function",
      "constant": true
    },
    {
      "inputs": [
        {
          "internalType": "address",
          "name": "owner",
          "type": "address"
        },
        {
          "internalType": "address",
          "name": "spender",
          "type": "address"
        }
      ],
      "name": "allowance",
      "outputs": [
        {
          "internalType": "uint256",
          "name": "",
          "type": "uint256"
        }
      ],
      "stateMutability": "view",
      "type": "function",
      "constant": true
    },
    {
      "inputs": [
        {
          "internalType": "address",
          "name": "spender",
          "type": "address"
        },
        {
          "internalType": "uint256",
          "name": "amount",
          "type": "uint256"
        }
      ],
      "name": "approve",
      "outputs": [
        {
          "internalType": "bool",
          "name": "",
          "type": "bool"
        }
      ],
      "stateMutability": "nonpayable",
      "type": "function"
    },
    {
      "inputs": [
        {
          "internalType": "address",
          "name": "account",
          "type": "address"
        }
      ],
      "name": "balanceOf",
      "outputs": [
        {
          "internalType": "uint256",
          "name": "",
          "type": "uint256"
        }
      ],
      "stateMutability": "view",
      "type": "function",
      "constant": true
    },
    {
      "inputs": [
        {
          "internalType": "address",
          "name": "",
          "type": "address"
        }
      ],
      "name": "ceiling",
      "outputs": [
        {
          "internalType": "uint256",
          "name": "",
          "type": "uint256"
        }
      ],
      "stateMutability": "view",
      "type": "function",
      "constant": true
    },
    {
      "inputs": [],
      "name": "decimals",
      "outputs": [
        {
          "internalType": "uint8",
          "name": "",
          "type": "uint8"
        }
      ],
      "stateMutability": "view",
      "type": "function",
      "constant": true
    },
    {
      "inputs": [
        {
          "internalType": "address",
          "name": "spender",
          "type": "address"
        },
        {
          "internalType": "uint256",
          "name": "subtractedValue",
          "type": "uint256"
        }
      ],
      "name": "decreaseAllowance",
      "outputs": [
        {
          "internalType": "bool",
          "name": "",
          "type": "bool"
        }
      ],
      "stateMutability": "nonpayable",
      "type": "function"
    },
    {
      "inputs": [
        {
          "internalType": "bytes32",
          "name": "role",
          "type": "bytes32"
        }
      ],
      "name": "getRoleAdmin",
      "outputs": [
        {
          "internalType": "bytes32",
          "name": "",
          "type": "bytes32"
        }
      ],
      "stateMutability": "view",
      "type": "function",
      "constant": true
    },
    {
      "inputs": [
        {
          "internalType": "bytes32",
          "name": "role",
          "type": "bytes32"
        },
        {
          "internalType": "uint256",
          "name": "index",
          "type": "uint256"
        }
      ],
      "name": "getRoleMember",
      "outputs": [
        {
          "internalType": "address",
          "name": "",
          "type": "address"
        }
      ],
      "stateMutability": "view",
      "type": "function",
      "constant": true
    },
    {
      "inputs": [
        {
          "internalType": "bytes32",
          "name": "role",
          "type": "bytes32"
        }
      ],
      "name": "getRoleMemberCount",
      "outputs": [
        {
          "internalType": "uint256",
          "name": "",
          "type": "uint256"
        }
      ],
      "stateMutability": "view",
      "type": "function",
      "constant": true
    },
    {
      "inputs": [
        {
          "internalType": "bytes32",
          "name": "role",
          "type": "bytes32"
        },
        {
          "internalType": "address",
          "name": "account",
          "type": "address"
        }
      ],
      "name": "grantRole",
      "outputs": [],
      "stateMutability": "nonpayable",
      "type": "function"
    },
    {
      "inputs": [
        {
          "internalType": "address",
          "name": "",
          "type": "address"
        }
      ],
      "name": "hasMinted",
      "outputs": [
        {
          "internalType": "uint256",
          "name": "",
          "type": "uint256"
        }
      ],
      "stateMutability": "view",
      "type": "function",
      "constant": true
    },
    {
      "inputs": [
        {
          "internalType": "bytes32",
          "name": "role",
          "type": "bytes32"
        },
        {
          "internalType": "address",
          "name": "account",
          "type": "address"
        }
      ],
      "name": "hasRole",
      "outputs": [
        {
          "internalType": "bool",
          "name": "",
          "type": "bool"
        }
      ],
      "stateMutability": "view",
      "type": "function",
      "constant": true
    },
    {
      "inputs": [
        {
          "internalType": "address",
          "name": "spender",
          "type": "address"
        },
        {
          "internalType": "uint256",
          "name": "addedValue",
          "type": "uint256"
        }
      ],
      "name": "increaseAllowance",
      "outputs": [
        {
          "internalType": "bool",
          "name": "",
          "type": "bool"
        }
      ],
      "stateMutability": "nonpayable",
      "type": "function"
    },
    {
      "inputs": [],
      "name": "name",
      "outputs": [
        {
          "internalType": "string",
          "name": "",
          "type": "string"
        }
      ],
      "stateMutability": "view",
      "type": "function",
      "constant": true
    },
    {
      "inputs": [
        {
          "internalType": "address",
          "name": "",
          "type": "address"
        }
      ],
      "name": "paused",
      "outputs": [
        {
          "internalType": "bool",
          "name": "",
          "type": "bool"
        }
      ],
      "stateMutability": "view",
      "type": "function",
      "constant": true
    },
    {
      "inputs": [
        {
          "internalType": "bytes32",
          "name": "role",
          "type": "bytes32"
        },
        {
          "internalType": "address",
          "name": "account",
          "type": "address"
        }
      ],
      "name": "renounceRole",
      "outputs": [],
      "stateMutability": "nonpayable",
      "type": "function"
    },
    {
      "inputs": [
        {
          "internalType": "bytes32",
          "name": "role",
          "type": "bytes32"
        },
        {
          "internalType": "address",
          "name": "account",
          "type": "address"
        }
      ],
      "name": "revokeRole",
      "outputs": [],
      "stateMutability": "nonpayable",
      "type": "function"
    },
    {
      "inputs": [],
      "name": "symbol",
      "outputs": [
        {
          "internalType": "string",
          "name": "",
          "type": "string"
        }
      ],
      "stateMutability": "view",
      "type": "function",
      "constant": true
    },
    {
      "inputs": [],
      "name": "totalSupply",
      "outputs": [
        {
          "internalType": "uint256",
          "name": "",
          "type": "uint256"
        }
      ],
      "stateMutability": "view",
      "type": "function",
      "constant": true
    },
    {
      "inputs": [
        {
          "internalType": "address",
          "name": "recipient",
          "type": "address"
        },
        {
          "internalType": "uint256",
          "name": "amount",
          "type": "uint256"
        }
      ],
      "name": "transfer",
      "outputs": [
        {
          "internalType": "bool",
          "name": "",
          "type": "bool"
        }
      ],
      "stateMutability": "nonpayable",
      "type": "function"
    },
    {
      "inputs": [
        {
          "internalType": "address",
          "name": "sender",
          "type": "address"
        },
        {
          "internalType": "address",
          "name": "recipient",
          "type": "address"
        },
        {
          "internalType": "uint256",
          "name": "amount",
          "type": "uint256"
        }
      ],
      "name": "transferFrom",
      "outputs": [
        {
          "internalType": "bool",
          "name": "",
          "type": "bool"
        }
      ],
      "stateMutability": "nonpayable",
      "type": "function"
    },
    {
      "inputs": [
        {
          "internalType": "address",
          "name": "",
          "type": "address"
        }
      ],
      "name": "whiteList",
      "outputs": [
        {
          "internalType": "bool",
          "name": "",
          "type": "bool"
        }
      ],
      "stateMutability": "view",
      "type": "function",
      "constant": true
    },
    {
      "inputs": [
        {
          "internalType": "address",
          "name": "_recipient",
          "type": "address"
        },
        {
          "internalType": "uint256",
          "name": "_amount",
          "type": "uint256"
        }
      ],
      "name": "mint",
      "outputs": [],
      "stateMutability": "nonpayable",
      "type": "function"
    },
    {
      "inputs": [
        {
          "internalType": "address",
          "name": "_toWhitelist",
          "type": "address"
        },
        {
          "internalType": "bool",
          "name": "_state",
          "type": "bool"
        }
      ],
      "name": "setWhitelist",
      "outputs": [],
      "stateMutability": "nonpayable",
      "type": "function"
    },
    {
      "inputs": [
        {
          "internalType": "address",
          "name": "_newSentinel",
          "type": "address"
        }
      ],
      "name": "setSentinel",
      "outputs": [],
      "stateMutability": "nonpayable",
      "type": "function"
    },
    {
      "inputs": [
        {
          "internalType": "address",
          "name": "_toPause",
          "type": "address"
        },
        {
          "internalType": "bool",
          "name": "_state",
          "type": "bool"
        }
      ],
      "name": "pauseAlchemist",
      "outputs": [],
      "stateMutability": "nonpayable",
      "type": "function"
    },
    {
      "inputs": [
        {
          "internalType": "address",
          "name": "_toSetCeiling",
          "type": "address"
        },
        {
          "internalType": "uint256",
          "name": "_ceiling",
          "type": "uint256"
        }
      ],
      "name": "setCeiling",
      "outputs": [],
      "stateMutability": "nonpayable",
      "type": "function"
    },
    {
      "inputs": [
        {
          "internalType": "uint256",
          "name": "amount",
          "type": "uint256"
        }
      ],
      "name": "burn",
      "outputs": [],
      "stateMutability": "nonpayable",
      "type": "function"
    },
    {
      "inputs": [
        {
          "internalType": "address",
          "name": "account",
          "type": "address"
        },
        {
          "internalType": "uint256",
          "name": "amount",
          "type": "uint256"
        }
      ],
      "name": "burnFrom",
      "outputs": [],
      "stateMutability": "nonpayable",
      "type": "function"
    },
    {
      "inputs": [
        {
          "internalType": "uint256",
          "name": "amount",
          "type": "uint256"
        }
      ],
      "name": "lowerHasMinted",
      "outputs": [],
      "stateMutability": "nonpayable",
      "type": "function"
    }
  ],
  "bytecode": "0x60806040523480156200001157600080fd5b50604080518082018252600c81527f416c6368656d697820455448000000000000000000000000000000000000000060208083019182528351808501909452600584527f616c4554480000000000000000000000000000000000000000000000000000009084015281519192916200008c91600491620002e4565b508051620000a2906005906020840190620002e4565b50506006805460ff1916601217905550620000d6600080516020620023578339815191523364010000000062000157810204565b620000fa600080516020620023778339815191523364010000000062000157810204565b6200012d600080516020620023778339815191526000805160206200235783398151915264010000000062000170810204565b62000151600080516020620023578339815191528064010000000062000170810204565b62000380565b6200016c8282640100000000620001c2810204565b5050565b600082815260208190526040808220600201549051839285917fbd79b86ffe0ab8e8776151514217cd7cacd52c909f66475c3af44e129f0b00ff9190a460009182526020829052604090912060020155565b6000828152602081905260409020620001ea908264010000000062000e9e6200024782021704565b156200016c576200020364010000000062000270810204565b600160a060020a031681600160a060020a0316837f2f8788117e7eff1d82e926ec794901d17c78024a50270940304540a733656f0d60405160405180910390a45050565b60006200026783600160a060020a03841664010000000062000274810204565b90505b92915050565b3390565b60006200028b8383640100000000620002cc810204565b620002c3575081546001818101845560008481526020808220909301849055845484825282860190935260409020919091556200026a565b5060006200026a565b60009081526001919091016020526040902054151590565b828054600181600116156101000203166002900490600052602060002090601f016020900481019282601f106200032757805160ff191683800117855562000357565b8280016001018555821562000357579182015b82811115620003575782518255916020019190600101906200033a565b506200036592915062000369565b5090565b5b808211156200036557600081556001016200036a565b611fc780620003906000396000f3fe608060405234801561001057600080fd5b5060043610610228576000357c01000000000000000000000000000000000000000000000000000000009004806340c10f19116101475780639010d07c116100da578063a457c2d7116100a9578063ca15c8731161008e578063ca15c87314610466578063d547741f14610479578063dd62ed3e1461048c57610228565b8063a457c2d714610440578063a9059cbb1461045357610228565b80639010d07c146103fd57806391d148541461041d57806395d89b4114610430578063a217fddf1461043857610228565b80636c00c7f0116101165780636c00c7f0146103bc57806370a08231146103cf57806375b238fc146103e257806379cc6790146103ea57610228565b806340c10f191461037057806342966c681461038357806353d6fd59146103965780635ab96f7a146103a957610228565b8063288aafcb116101bf57806336568abe1161018e57806336568abe14610324578063372c12b11461033757806338e21cce1461034a578063395093511461035d57610228565b8063288aafcb146102d65780632e48152c146102e95780632f2ff15d146102fc578063313ce5671461030f57610228565b806318160ddd116101fb57806318160ddd146102955780631ac997e01461029d57806323b872dd146102b0578063248a9ca3146102c357610228565b806306fdde031461022d578063095ea7b31461024b57806309dac0611461026b57806313430d9214610280575b600080fd5b61023561049f565b6040516102429190611925565b60405180910390f35b61025e610259366004611841565b610553565b6040516102429190611911565b61027e610279366004611777565b610571565b005b610288610607565b604051610242919061191c565b61028861062b565b6102886102ab366004611777565b610631565b61025e6102be3660046117c6565b610643565b6102886102d136600461186b565b6106e4565b61027e6102e436600461186b565b6106f9565b61025e6102f7366004611777565b61079a565b61027e61030a366004611883565b6107af565b610317610811565b6040516102429190611ea8565b61027e610332366004611883565b61081a565b61025e610345366004611777565b610890565b610288610358366004611777565b6108a5565b61025e61036b366004611841565b6108b7565b61027e61037e366004611841565b610912565b61027e61039136600461186b565b6109d9565b61027e6103a4366004611806565b6109ea565b61027e6103b7366004611806565b610aa0565b61027e6103ca366004611841565b610b8d565b6102886103dd366004611777565b610c16565b610288610c3e565b61027e6103f8366004611841565b610c62565b61041061040b3660046118a7565b610cb7565b60405161024291906118c8565b61025e61042b366004611883565b610cd6565b610235610cee565b610288610d6d565b61025e61044e366004611841565b610d72565b61025e610461366004611841565b610de7565b61028861047436600461186b565b610dfb565b61027e610487366004611883565b610e12565b61028861049a366004611792565b610e66565b60048054604080516020601f60027fffffffffffffffffffffffffffffffffffffffffffffffffffffffffffffffff6101006001881615020190951694909404938401819004810282018101909252828152606093909290918301828280156105495780601f1061051e57610100808354040283529160200191610549565b820191906000526020600020905b81548152906001019060200180831161052c57829003601f168201915b5050505050905090565b6000610567610560610ec0565b8484610ec4565b5060015b92915050565b61059b7fdf8b4c520ffe197c5343c6f5aec59570151ef9a492f2c624fd45ddde6135ec4233610cd6565b6105da576040517f08c379a00000000000000000000000000000000000000000000000000000000081526004016105d190611bfb565b60405180910390fd5b6106047fd3eedd6d69d410e954f4c622838ecc3acae9fdcd83cad412075c85b09277065682610803565b50565b7fd3eedd6d69d410e954f4c622838ecc3acae9fdcd83cad412075c85b09277065681565b60035490565b60096020526000908152604090205481565b6000610650848484610fd3565b6106da8461065c610ec0565b6106d585604051806060016040528060288152602001611f216028913973ffffffffffffffffffffffffffffffffffffffff8a166000908152600260205260408120906106a7610ec0565b73ffffffffffffffffffffffffffffffffffffffff168152602081019190915260400160002054919061115d565b610ec4565b5060019392505050565b60009081526020819052604090206002015490565b3360009081526007602052604090205460ff16610742576040517f08c379a00000000000000000000000000000000000000000000000000000000081526004016105d190611aad565b336000908152600a6020526040902054811061076d57336000908152600a6020526040812055610604565b336000908152600a602052604090205461078790826111a3565b336000908152600a602052604090205550565b60086020526000908152604090205460ff1681565b6000828152602081905260409020600201546107cd9061042b610ec0565b610803576040517f08c379a00000000000000000000000000000000000000000000000000000000081526004016105d190611a50565b61080d82826111e5565b5050565b60065460ff1690565b610822610ec0565b73ffffffffffffffffffffffffffffffffffffffff168173ffffffffffffffffffffffffffffffffffffffff1614610886576040517f08c379a00000000000000000000000000000000000000000000000000000000081526004016105d190611ddd565b61080d8282611268565b60076020526000908152604090205460ff1681565b600a6020526000908152604090205481565b60006105676108c4610ec0565b846106d585600260006108d5610ec0565b73ffffffffffffffffffffffffffffffffffffffff908116825260208083019390935260409182016000908120918c1681529252902054906112eb565b3360009081526007602052604090205460ff1661095b576040517f08c379a00000000000000000000000000000000000000000000000000000000081526004016105d190611aad565b3360009081526008602052604090205460ff16156109a5576040517f08c379a00000000000000000000000000000000000000000000000000000000081526004016105d190611b9e565b336000908152600a60205260409020546109bf90826112eb565b336000908152600a602052604090205561080d828261132a565b6106046109e4610ec0565b8261142b565b610a147fdf8b4c520ffe197c5343c6f5aec59570151ef9a492f2c624fd45ddde6135ec4233610cd6565b610a4a576040517f08c379a00000000000000000000000000000000000000000000000000000000081526004016105d190611bfb565b73ffffffffffffffffffffffffffffffffffffffff91909116600090815260076020526040902080547fffffffffffffffffffffffffffffffffffffffffffffffffffffffffffffff0016911515919091179055565b610aca7fd3eedd6d69d410e954f4c622838ecc3acae9fdcd83cad412075c85b09277065633610cd6565b610b00576040517f08c379a00000000000000000000000000000000000000000000000000000000081526004016105d190611e71565b73ffffffffffffffffffffffffffffffffffffffff82166000908152600860205260409081902080547fffffffffffffffffffffffffffffffffffffffffffffffffffffffffffffff0016831515179055517fe3badfe0be4cf35cf5ea2564250c5b5031a67d4c25c8ab4174b84018abb3de6890610b8190849084906118e9565b60405180910390a15050565b610bb77fdf8b4c520ffe197c5343c6f5aec59570151ef9a492f2c624fd45ddde6135ec4233610cd6565b610bed576040517f08c379a00000000000000000000000000000000000000000000000000000000081526004016105d190611bfb565b73ffffffffffffffffffffffffffffffffffffffff909116600090815260096020526040902055565b73ffffffffffffffffffffffffffffffffffffffff1660009081526001602052604090205490565b7fdf8b4c520ffe197c5343c6f5aec59570151ef9a492f2c624fd45ddde6135ec4281565b6000610c9482604051806060016040528060248152602001611f4960249139610c8d8661049a610ec0565b919061115d565b9050610ca883610ca2610ec0565b83610ec4565b610cb2838361142b565b505050565b6000828152602081905260408120610ccf908361154f565b9392505050565b6000828152602081905260408120610ccf908361155b565b60058054604080516020601f60027fffffffffffffffffffffffffffffffffffffffffffffffffffffffffffffffff6101006001881615020190951694909404938401819004810282018101909252828152606093909290918301828280156105495780601f1061051e57610100808354040283529160200191610549565b600081565b6000610567610d7f610ec0565b846106d585604051806060016040528060258152602001611f6d6025913960026000610da9610ec0565b73ffffffffffffffffffffffffffffffffffffffff908116825260208083019390935260409182016000908120918d1681529252902054919061115d565b6000610567610df4610ec0565b8484610fd3565b600081815260208190526040812061056b9061157d565b600082815260208190526040902060020154610e309061042b610ec0565b610886576040517f08c379a00000000000000000000000000000000000000000000000000000000081526004016105d190611c69565b73ffffffffffffffffffffffffffffffffffffffff918216600090815260026020908152604080832093909416825291909152205490565b6000610ccf8373ffffffffffffffffffffffffffffffffffffffff8416611588565b3390565b73ffffffffffffffffffffffffffffffffffffffff8316610f11576040517f08c379a00000000000000000000000000000000000000000000000000000000081526004016105d190611d80565b73ffffffffffffffffffffffffffffffffffffffff8216610f5e576040517f08c379a00000000000000000000000000000000000000000000000000000000081526004016105d190611b0a565b73ffffffffffffffffffffffffffffffffffffffff80841660008181526002602090815260408083209487168084529490915290819020849055517f8c5be1e5ebec7d5bd14f71427d1e84f3dd0314c0f7b2291e5b200ac8c7c3b92590610fc690859061191c565b60405180910390a3505050565b73ffffffffffffffffffffffffffffffffffffffff8316611020576040517f08c379a00000000000000000000000000000000000000000000000000000000081526004016105d190611d23565b73ffffffffffffffffffffffffffffffffffffffff821661106d576040517f08c379a00000000000000000000000000000000000000000000000000000000081526004016105d1906119f3565b611078838383610cb2565b6110c281604051806060016040528060268152602001611efb6026913973ffffffffffffffffffffffffffffffffffffffff8616600090815260016020526040902054919061115d565b73ffffffffffffffffffffffffffffffffffffffff80851660009081526001602052604080822093909355908416815220546110fe90826112eb565b73ffffffffffffffffffffffffffffffffffffffff80841660008181526001602052604090819020939093559151908516907fddf252ad1be2c89b69c2b068fc378daa952ba7f163c4a11628f55a4df523b3ef90610fc690859061191c565b6000818484111561119b576040517f08c379a00000000000000000000000000000000000000000000000000000000081526004016105d19190611925565b505050900390565b6000828211156111df576040517f08c379a00000000000000000000000000000000000000000000000000000000081526004016105d190611c32565b50900390565b60008281526020819052604090206111fd9082610e9e565b1561080d5761120a610ec0565b73ffffffffffffffffffffffffffffffffffffffff168173ffffffffffffffffffffffffffffffffffffffff16837f2f8788117e7eff1d82e926ec794901d17c78024a50270940304540a733656f0d60405160405180910390a45050565b600082815260208190526040902061128090826115d2565b1561080d5761128d610ec0565b73ffffffffffffffffffffffffffffffffffffffff168173ffffffffffffffffffffffffffffffffffffffff16837ff6391f5c32d9c69d2a47ea670b442974b53935d1edc7fd64eb21e047a839171b60405160405180910390a45050565b600082820183811015610ccf576040517f08c379a00000000000000000000000000000000000000000000000000000000081526004016105d190611b67565b73ffffffffffffffffffffffffffffffffffffffff8216611377576040517f08c379a00000000000000000000000000000000000000000000000000000000081526004016105d190611e3a565b61138360008383610cb2565b60035461139090826112eb565b60035573ffffffffffffffffffffffffffffffffffffffff82166000908152600160205260409020546113c390826112eb565b73ffffffffffffffffffffffffffffffffffffffff83166000818152600160205260408082209390935591519091907fddf252ad1be2c89b69c2b068fc378daa952ba7f163c4a11628f55a4df523b3ef9061141f90859061191c565b60405180910390a35050565b73ffffffffffffffffffffffffffffffffffffffff8216611478576040517f08c379a00000000000000000000000000000000000000000000000000000000081526004016105d190611cc6565b61148482600083610cb2565b6114ce81604051806060016040528060228152602001611ed96022913973ffffffffffffffffffffffffffffffffffffffff8516600090815260016020526040902054919061115d565b73ffffffffffffffffffffffffffffffffffffffff831660009081526001602052604090205560035461150190826111a3565b60035560405160009073ffffffffffffffffffffffffffffffffffffffff8416907fddf252ad1be2c89b69c2b068fc378daa952ba7f163c4a11628f55a4df523b3ef9061141f90859061191c565b6000610ccf83836115f4565b6000610ccf8373ffffffffffffffffffffffffffffffffffffffff8416611653565b600061056b8261166b565b60006115948383611653565b6115ca5750815460018181018455600084815260208082209093018490558454848252828601909352604090209190915561056b565b50600061056b565b6000610ccf8373ffffffffffffffffffffffffffffffffffffffff841661166f565b81546000908210611631576040517f08c379a00000000000000000000000000000000000000000000000000000000081526004016105d190611996565b82600001828154811061164057fe5b9060005260206000200154905092915050565b60009081526001919091016020526040902054151590565b5490565b600081815260018301602052604081205480156117495783547fffffffffffffffffffffffffffffffffffffffffffffffffffffffffffffffff80830191908101906000908790839081106116c057fe5b90600052602060002001549050808760000184815481106116dd57fe5b60009182526020808320909101929092558281526001898101909252604090209084019055865487908061170d57fe5b6001900381819060005260206000200160009055905586600101600087815260200190815260200160002060009055600194505050505061056b565b600091505061056b565b803573ffffffffffffffffffffffffffffffffffffffff8116811461056b57600080fd5b600060208284031215611788578081fd5b610ccf8383611753565b600080604083850312156117a4578081fd5b6117ae8484611753565b91506117bd8460208501611753565b90509250929050565b6000806000606084860312156117da578081fd5b83356117e581611eb6565b925060208401356117f581611eb6565b929592945050506040919091013590565b60008060408385031215611818578182fd5b6118228484611753565b915060208301358015158114611836578182fd5b809150509250929050565b60008060408385031215611853578182fd5b61185d8484611753565b946020939093013593505050565b60006020828403121561187c578081fd5b5035919050565b60008060408385031215611895578182fd5b82359150602083013561183681611eb6565b600080604083850312156118b9578182fd5b50508035926020909101359150565b73ffffffffffffffffffffffffffffffffffffffff91909116815260200190565b73ffffffffffffffffffffffffffffffffffffffff9290921682521515602082015260400190565b901515815260200190565b90815260200190565b6000602080835283518082850152825b8181101561195157858101830151858201604001528201611935565b818111156119625783604083870101525b50601f017fffffffffffffffffffffffffffffffffffffffffffffffffffffffffffffffe016929092016040019392505050565b60208082526022908201527f456e756d657261626c655365743a20696e646578206f7574206f6620626f756e60408201527f6473000000000000000000000000000000000000000000000000000000000000606082015260800190565b60208082526023908201527f45524332303a207472616e7366657220746f20746865207a65726f206164647260408201527f6573730000000000000000000000000000000000000000000000000000000000606082015260800190565b6020808252602f908201527f416363657373436f6e74726f6c3a2073656e646572206d75737420626520616e60408201527f2061646d696e20746f206772616e740000000000000000000000000000000000606082015260800190565b60208082526023908201527f416c4554483a20416c6368656d697374206973206e6f742077686974656c697360408201527f7465640000000000000000000000000000000000000000000000000000000000606082015260800190565b60208082526022908201527f45524332303a20617070726f766520746f20746865207a65726f20616464726560408201527f7373000000000000000000000000000000000000000000000000000000000000606082015260800190565b6020808252601b908201527f536166654d6174683a206164646974696f6e206f766572666c6f770000000000604082015260600190565b60208082526025908201527f416c4554483a20416c6368656d6973742069732063757272656e746c7920706160408201527f757365642e000000000000000000000000000000000000000000000000000000606082015260800190565b6020808252600a908201527f6f6e6c792061646d696e00000000000000000000000000000000000000000000604082015260600190565b6020808252601e908201527f536166654d6174683a207375627472616374696f6e206f766572666c6f770000604082015260600190565b60208082526030908201527f416363657373436f6e74726f6c3a2073656e646572206d75737420626520616e60408201527f2061646d696e20746f207265766f6b6500000000000000000000000000000000606082015260800190565b60208082526021908201527f45524332303a206275726e2066726f6d20746865207a65726f2061646472657360408201527f7300000000000000000000000000000000000000000000000000000000000000606082015260800190565b60208082526025908201527f45524332303a207472616e736665722066726f6d20746865207a65726f20616460408201527f6472657373000000000000000000000000000000000000000000000000000000606082015260800190565b60208082526024908201527f45524332303a20617070726f76652066726f6d20746865207a65726f2061646460408201527f7265737300000000000000000000000000000000000000000000000000000000606082015260800190565b6020808252602f908201527f416363657373436f6e74726f6c3a2063616e206f6e6c792072656e6f756e636560408201527f20726f6c657320666f722073656c660000000000000000000000000000000000606082015260800190565b6020808252601f908201527f45524332303a206d696e7420746f20746865207a65726f206164647265737300604082015260600190565b6020808252600d908201527f6f6e6c792073656e74696e656c00000000000000000000000000000000000000604082015260600190565b60ff91909116815260200190565b73ffffffffffffffffffffffffffffffffffffffff8116811461060457600080fdfe45524332303a206275726e20616d6f756e7420657863656564732062616c616e636545524332303a207472616e7366657220616d6f756e7420657863656564732062616c616e636545524332303a207472616e7366657220616d6f756e74206578636565647320616c6c6f77616e636545524332303a206275726e20616d6f756e74206578636565647320616c6c6f77616e636545524332303a2064656372656173656420616c6c6f77616e63652062656c6f77207a65726fa2646970667358221220350e02a49b0692a8fd8320f9b061e59e16e5e5608d863f9eae0ef552abfe073e64736f6c634300060c0033df8b4c520ffe197c5343c6f5aec59570151ef9a492f2c624fd45ddde6135ec42d3eedd6d69d410e954f4c622838ecc3acae9fdcd83cad412075c85b092770656",
  "immutableReferences": {},
  "source": "// SPDX-License-Identifier: GPL-3.0\npragma solidity ^0.6.12;\npragma experimental ABIEncoderV2;\n\nimport {AccessControl} from \"@openzeppelin/contracts/access/AccessControl.sol\";\nimport {ERC20} from \"@openzeppelin/contracts/token/ERC20/ERC20.sol\";\nimport {SafeERC20} from \"@openzeppelin/contracts/token/ERC20/SafeERC20.sol\";\nimport {Ownable} from \"@openzeppelin/contracts/access/Ownable.sol\";\nimport {IDetailedERC20} from \"./interfaces/IDetailedERC20.sol\";\n\n/// @title AlToken\n///\n/// @dev This is the contract for the Alchemix utillity token usd.\n///\n/// Initially, the contract deployer is given both the admin and minter role. This allows them to pre-mine tokens,\n/// transfer admin to a timelock contract, and lastly, grant the staking pools the minter role. After this is done,\n/// the deployer must revoke their admin role and minter role.\ncontract AlEth is AccessControl, ERC20(\"Alchemix ETH\", \"alETH\") {\n  using SafeERC20 for ERC20;\n\n  /// @dev The identifier of the role which maintains other roles.\n  bytes32 public constant ADMIN_ROLE = keccak256(\"ADMIN\");\n\n  /// @dev The identifier of the role which allows accounts to mint tokens.\n  bytes32 public constant SENTINEL_ROLE = keccak256(\"SENTINEL\");\n  \n  /// @dev addresses whitelisted for minting new tokens\n  mapping (address => bool) public whiteList;\n\n  /// @dev addresses paused for minting new tokens\n  mapping (address => bool) public paused;\n\n  /// @dev ceiling per address for minting new tokens\n  mapping (address => uint256) public ceiling;\n\n  /// @dev already minted amount per address to track the ceiling\n  mapping (address => uint256) public hasMinted;\n\n  event AlchemistPaused(address alchemistAddress, bool isPaused);\n  \n  constructor() public {\n    _setupRole(ADMIN_ROLE, msg.sender);\n    _setupRole(SENTINEL_ROLE, msg.sender);\n    _setRoleAdmin(SENTINEL_ROLE,ADMIN_ROLE);\n    _setRoleAdmin(ADMIN_ROLE,ADMIN_ROLE);\n  }\n\n  /// @dev A modifier which checks if whitelisted for minting.\n  modifier onlyWhitelisted() {\n    require(whiteList[msg.sender], \"AlETH: Alchemist is not whitelisted\");\n    _;\n  }\n\n  /// @dev Mints tokens to a recipient.\n  ///\n  /// This function reverts if the caller does not have the minter role.\n  ///\n  /// @param _recipient the account to mint tokens to.\n  /// @param _amount    the amount of tokens to mint.\n  function mint(address _recipient, uint256 _amount) external onlyWhitelisted {\n    require(!paused[msg.sender], \"AlETH: Alchemist is currently paused.\");\n    hasMinted[msg.sender] = hasMinted[msg.sender].add(_amount);\n    _mint(_recipient, _amount);\n  }\n  /// This function reverts if the caller does not have the admin role.\n  ///\n  /// @param _toWhitelist the account to mint tokens to.\n  /// @param _state the whitelist state.\n\n  function setWhitelist(address _toWhitelist, bool _state) external onlyAdmin {\n    whiteList[_toWhitelist] = _state;\n  }\n  /// This function reverts if the caller does not have the admin role.\n  ///\n  /// @param _newSentinel the account to set as sentinel.\n\n  function setSentinel(address _newSentinel) external onlyAdmin {\n    _setupRole(SENTINEL_ROLE, _newSentinel);\n  }\n\n  /// This function reverts if the caller does not have the sentinel role.\n  function pauseAlchemist(address _toPause, bool _state) external onlySentinel {\n    paused[_toPause] = _state;\n    AlchemistPaused(_toPause, _state);\n  }\n  /// This function reverts if the caller does not have the admin role.\n  ///\n  /// @param _toSetCeiling the account set the ceiling off.\n  /// @param _ceiling the max amount of tokens the account is allowed to mint.\n  function setCeiling(address _toSetCeiling, uint256 _ceiling) external onlyAdmin {\n    ceiling[_toSetCeiling] = _ceiling;\n  }\n  /// @dev A modifier which checks that the caller has the admin role.\n  modifier onlyAdmin() {\n    require(hasRole(ADMIN_ROLE, msg.sender), \"only admin\");\n    _;\n  }\n  /// @dev A modifier which checks that the caller has the sentinel role.\n  modifier onlySentinel() {\n    require(hasRole(SENTINEL_ROLE, msg.sender), \"only sentinel\");\n    _;\n  }\n\n  /**\n    * @dev Destroys `amount` tokens from the caller.\n    *\n    * See {ERC20-_burn}.\n    */\n  function burn(uint256 amount) public virtual {\n    _burn(_msgSender(), amount);\n  }\n\n  /**\n    * @dev Destroys `amount` tokens from `account`, deducting from the caller's\n    * allowance.\n    *\n    * See {ERC20-_burn} and {ERC20-allowance}.\n    *\n    * Requirements:\n    *\n    * - the caller must have allowance for ``accounts``'s tokens of at least\n    * `amount`.\n    */\n  function burnFrom(address account, uint256 amount) public virtual {\n    uint256 decreasedAllowance = allowance(account, _msgSender()).sub(amount, \"ERC20: burn amount exceeds allowance\");\n\n    _approve(account, _msgSender(), decreasedAllowance);\n    _burn(account, amount);\n  }\n\n  /**\n    * @dev lowers hasminted from the caller's allocation\n    *\n    */\n  function lowerHasMinted(uint256 amount) public onlyWhitelisted {\n    if (amount >= hasMinted[msg.sender]) {\n      hasMinted[msg.sender] = 0;\n    } else {\n      hasMinted[msg.sender] = hasMinted[msg.sender].sub(amount);\n    }\n  }\n}",
  "sourcePath": "/Users/shr1ftyy/Personal/Computing/bounties/alcx/alchemix-protocol/contracts/AlEth.sol",
  "compiler": {
    "name": "solc",
    "version": "0.6.12+commit.27d51765.Emscripten.clang"
  },
  "schemaVersion": "3.4.4",
  "updatedAt": "2022-01-11T15:05:28.344Z",
  "networkType": "ethereum",
  "devdoc": {
    "details": "This is the contract for the Alchemix utillity token usd. Initially, the contract deployer is given both the admin and minter role. This allows them to pre-mine tokens, transfer admin to a timelock contract, and lastly, grant the staking pools the minter role. After this is done, the deployer must revoke their admin role and minter role.",
    "kind": "dev",
    "methods": {
      "allowance(address,address)": {
        "details": "See {IERC20-allowance}."
      },
      "approve(address,uint256)": {
        "details": "See {IERC20-approve}. Requirements: - `spender` cannot be the zero address."
      },
      "balanceOf(address)": {
        "details": "See {IERC20-balanceOf}."
      },
      "burn(uint256)": {
        "details": "Destroys `amount` tokens from the caller. See {ERC20-_burn}."
      },
      "burnFrom(address,uint256)": {
        "details": "Destroys `amount` tokens from `account`, deducting from the caller's allowance. See {ERC20-_burn} and {ERC20-allowance}. Requirements: - the caller must have allowance for ``accounts``'s tokens of at least `amount`."
      },
      "decimals()": {
        "details": "Returns the number of decimals used to get its user representation. For example, if `decimals` equals `2`, a balance of `505` tokens should be displayed to a user as `5,05` (`505 / 10 ** 2`). Tokens usually opt for a value of 18, imitating the relationship between Ether and Wei. This is the value {ERC20} uses, unless {_setupDecimals} is called. NOTE: This information is only used for _display_ purposes: it in no way affects any of the arithmetic of the contract, including {IERC20-balanceOf} and {IERC20-transfer}."
      },
      "decreaseAllowance(address,uint256)": {
        "details": "Atomically decreases the allowance granted to `spender` by the caller. This is an alternative to {approve} that can be used as a mitigation for problems described in {IERC20-approve}. Emits an {Approval} event indicating the updated allowance. Requirements: - `spender` cannot be the zero address. - `spender` must have allowance for the caller of at least `subtractedValue`."
      },
      "getRoleAdmin(bytes32)": {
        "details": "Returns the admin role that controls `role`. See {grantRole} and {revokeRole}. To change a role's admin, use {_setRoleAdmin}."
      },
      "getRoleMember(bytes32,uint256)": {
        "details": "Returns one of the accounts that have `role`. `index` must be a value between 0 and {getRoleMemberCount}, non-inclusive. Role bearers are not sorted in any particular way, and their ordering may change at any point. WARNING: When using {getRoleMember} and {getRoleMemberCount}, make sure you perform all queries on the same block. See the following https://forum.openzeppelin.com/t/iterating-over-elements-on-enumerableset-in-openzeppelin-contracts/2296[forum post] for more information."
      },
      "getRoleMemberCount(bytes32)": {
        "details": "Returns the number of accounts that have `role`. Can be used together with {getRoleMember} to enumerate all bearers of a role."
      },
      "grantRole(bytes32,address)": {
        "details": "Grants `role` to `account`. If `account` had not been already granted `role`, emits a {RoleGranted} event. Requirements: - the caller must have ``role``'s admin role."
      },
      "hasRole(bytes32,address)": {
        "details": "Returns `true` if `account` has been granted `role`."
      },
      "increaseAllowance(address,uint256)": {
        "details": "Atomically increases the allowance granted to `spender` by the caller. This is an alternative to {approve} that can be used as a mitigation for problems described in {IERC20-approve}. Emits an {Approval} event indicating the updated allowance. Requirements: - `spender` cannot be the zero address."
      },
      "lowerHasMinted(uint256)": {
        "details": "lowers hasminted from the caller's allocation"
      },
      "mint(address,uint256)": {
        "details": "Mints tokens to a recipient. This function reverts if the caller does not have the minter role.",
        "params": {
          "_amount": "the amount of tokens to mint.",
          "_recipient": "the account to mint tokens to."
        }
      },
      "name()": {
        "details": "Returns the name of the token."
      },
      "renounceRole(bytes32,address)": {
        "details": "Revokes `role` from the calling account. Roles are often managed via {grantRole} and {revokeRole}: this function's purpose is to provide a mechanism for accounts to lose their privileges if they are compromised (such as when a trusted device is misplaced). If the calling account had been granted `role`, emits a {RoleRevoked} event. Requirements: - the caller must be `account`."
      },
      "revokeRole(bytes32,address)": {
        "details": "Revokes `role` from `account`. If `account` had been granted `role`, emits a {RoleRevoked} event. Requirements: - the caller must have ``role``'s admin role."
      },
      "setCeiling(address,uint256)": {
        "params": {
          "_ceiling": "the max amount of tokens the account is allowed to mint.",
          "_toSetCeiling": "the account set the ceiling off."
        }
      },
      "setSentinel(address)": {
        "params": {
          "_newSentinel": "the account to set as sentinel."
        }
      },
      "setWhitelist(address,bool)": {
        "params": {
          "_state": "the whitelist state.",
          "_toWhitelist": "the account to mint tokens to."
        }
      },
      "symbol()": {
        "details": "Returns the symbol of the token, usually a shorter version of the name."
      },
      "totalSupply()": {
        "details": "See {IERC20-totalSupply}."
      },
      "transfer(address,uint256)": {
        "details": "See {IERC20-transfer}. Requirements: - `recipient` cannot be the zero address. - the caller must have a balance of at least `amount`."
      },
      "transferFrom(address,address,uint256)": {
        "details": "See {IERC20-transferFrom}. Emits an {Approval} event indicating the updated allowance. This is not required by the EIP. See the note at the beginning of {ERC20}. Requirements: - `sender` and `recipient` cannot be the zero address. - `sender` must have a balance of at least `amount`. - the caller must have allowance for ``sender``'s tokens of at least `amount`."
      }
    },
    "stateVariables": {
      "ADMIN_ROLE": {
        "details": "The identifier of the role which maintains other roles."
      },
      "SENTINEL_ROLE": {
        "details": "The identifier of the role which allows accounts to mint tokens."
      },
      "ceiling": {
        "details": "ceiling per address for minting new tokens"
      },
      "hasMinted": {
        "details": "already minted amount per address to track the ceiling"
      },
      "paused": {
        "details": "addresses paused for minting new tokens"
      },
      "whiteList": {
        "details": "addresses whitelisted for minting new tokens"
      }
    },
    "title": "AlToken",
    "version": 1
  },
  "userdoc": {
    "kind": "user",
    "methods": {
      "pauseAlchemist(address,bool)": {
        "notice": "This function reverts if the caller does not have the sentinel role."
      },
      "setCeiling(address,uint256)": {
        "notice": "This function reverts if the caller does not have the admin role."
      },
      "setSentinel(address)": {
        "notice": "This function reverts if the caller does not have the admin role."
      },
      "setWhitelist(address,bool)": {
        "notice": "This function reverts if the caller does not have the admin role."
      }
    },
    "version": 1
  }
}