{
  "contractName": "AlToken",
  "abi": [
    {
      "inputs": [],
      "stateMutability": "nonpayable",
      "type": "constructor"
    },
    {
      "anonymous": false,
      "inputs": [
        {
          "indexed": true,
          "internalType": "address",
          "name": "owner",
          "type": "address"
        },
        {
          "indexed": true,
          "internalType": "address",
          "name": "spender",
          "type": "address"
        },
        {
          "indexed": false,
          "internalType": "uint256",
          "name": "value",
          "type": "uint256"
        }
      ],
      "name": "Approval",
      "type": "event"
    },
    {
      "anonymous": false,
      "inputs": [
        {
          "indexed": false,
          "internalType": "address",
          "name": "alchemistAddress",
          "type": "address"
        },
        {
          "indexed": false,
          "internalType": "bool",
          "name": "isPaused",
          "type": "bool"
        }
      ],
      "name": "Paused",
      "type": "event"
    },
    {
      "anonymous": false,
      "inputs": [
        {
          "indexed": true,
          "internalType": "bytes32",
          "name": "role",
          "type": "bytes32"
        },
        {
          "indexed": true,
          "internalType": "bytes32",
          "name": "previousAdminRole",
          "type": "bytes32"
        },
        {
          "indexed": true,
          "internalType": "bytes32",
          "name": "newAdminRole",
          "type": "bytes32"
        }
      ],
      "name": "RoleAdminChanged",
      "type": "event"
    },
    {
      "anonymous": false,
      "inputs": [
        {
          "indexed": true,
          "internalType": "bytes32",
          "name": "role",
          "type": "bytes32"
        },
        {
          "indexed": true,
          "internalType": "address",
          "name": "account",
          "type": "address"
        },
        {
          "indexed": true,
          "internalType": "address",
          "name": "sender",
          "type": "address"
        }
      ],
      "name": "RoleGranted",
      "type": "event"
    },
    {
      "anonymous": false,
      "inputs": [
        {
          "indexed": true,
          "internalType": "bytes32",
          "name": "role",
          "type": "bytes32"
        },
        {
          "indexed": true,
          "internalType": "address",
          "name": "account",
          "type": "address"
        },
        {
          "indexed": true,
          "internalType": "address",
          "name": "sender",
          "type": "address"
        }
      ],
      "name": "RoleRevoked",
      "type": "event"
    },
    {
      "anonymous": false,
      "inputs": [
        {
          "indexed": true,
          "internalType": "address",
          "name": "from",
          "type": "address"
        },
        {
          "indexed": true,
          "internalType": "address",
          "name": "to",
          "type": "address"
        },
        {
          "indexed": false,
          "internalType": "uint256",
          "name": "value",
          "type": "uint256"
        }
      ],
      "name": "Transfer",
      "type": "event"
    },
    {
      "inputs": [],
      "name": "ADMIN_ROLE",
      "outputs": [
        {
          "internalType": "bytes32",
          "name": "",
          "type": "bytes32"
        }
      ],
      "stateMutability": "view",
      "type": "function",
      "constant": true
    },
    {
      "inputs": [],
      "name": "DEFAULT_ADMIN_ROLE",
      "outputs": [
        {
          "internalType": "bytes32",
          "name": "",
          "type": "bytes32"
        }
      ],
      "stateMutability": "view",
      "type": "function",
      "constant": true
    },
    {
      "inputs": [],
      "name": "SENTINEL_ROLE",
      "outputs": [
        {
          "internalType": "bytes32",
          "name": "",
          "type": "bytes32"
        }
      ],
      "stateMutability": "view",
      "type": "function",
      "constant": true
    },
    {
      "inputs": [
        {
          "internalType": "address",
          "name": "owner",
          "type": "address"
        },
        {
          "internalType": "address",
          "name": "spender",
          "type": "address"
        }
      ],
      "name": "allowance",
      "outputs": [
        {
          "internalType": "uint256",
          "name": "",
          "type": "uint256"
        }
      ],
      "stateMutability": "view",
      "type": "function",
      "constant": true
    },
    {
      "inputs": [
        {
          "internalType": "address",
          "name": "spender",
          "type": "address"
        },
        {
          "internalType": "uint256",
          "name": "amount",
          "type": "uint256"
        }
      ],
      "name": "approve",
      "outputs": [
        {
          "internalType": "bool",
          "name": "",
          "type": "bool"
        }
      ],
      "stateMutability": "nonpayable",
      "type": "function"
    },
    {
      "inputs": [
        {
          "internalType": "address",
          "name": "account",
          "type": "address"
        }
      ],
      "name": "balanceOf",
      "outputs": [
        {
          "internalType": "uint256",
          "name": "",
          "type": "uint256"
        }
      ],
      "stateMutability": "view",
      "type": "function",
      "constant": true
    },
    {
      "inputs": [
        {
          "internalType": "address",
          "name": "",
          "type": "address"
        }
      ],
      "name": "blacklist",
      "outputs": [
        {
          "internalType": "bool",
          "name": "",
          "type": "bool"
        }
      ],
      "stateMutability": "view",
      "type": "function",
      "constant": true
    },
    {
      "inputs": [
        {
          "internalType": "address",
          "name": "",
          "type": "address"
        }
      ],
      "name": "ceiling",
      "outputs": [
        {
          "internalType": "uint256",
          "name": "",
          "type": "uint256"
        }
      ],
      "stateMutability": "view",
      "type": "function",
      "constant": true
    },
    {
      "inputs": [],
      "name": "decimals",
      "outputs": [
        {
          "internalType": "uint8",
          "name": "",
          "type": "uint8"
        }
      ],
      "stateMutability": "view",
      "type": "function",
      "constant": true
    },
    {
      "inputs": [
        {
          "internalType": "address",
          "name": "spender",
          "type": "address"
        },
        {
          "internalType": "uint256",
          "name": "subtractedValue",
          "type": "uint256"
        }
      ],
      "name": "decreaseAllowance",
      "outputs": [
        {
          "internalType": "bool",
          "name": "",
          "type": "bool"
        }
      ],
      "stateMutability": "nonpayable",
      "type": "function"
    },
    {
      "inputs": [
        {
          "internalType": "bytes32",
          "name": "role",
          "type": "bytes32"
        }
      ],
      "name": "getRoleAdmin",
      "outputs": [
        {
          "internalType": "bytes32",
          "name": "",
          "type": "bytes32"
        }
      ],
      "stateMutability": "view",
      "type": "function",
      "constant": true
    },
    {
      "inputs": [
        {
          "internalType": "bytes32",
          "name": "role",
          "type": "bytes32"
        },
        {
          "internalType": "uint256",
          "name": "index",
          "type": "uint256"
        }
      ],
      "name": "getRoleMember",
      "outputs": [
        {
          "internalType": "address",
          "name": "",
          "type": "address"
        }
      ],
      "stateMutability": "view",
      "type": "function",
      "constant": true
    },
    {
      "inputs": [
        {
          "internalType": "bytes32",
          "name": "role",
          "type": "bytes32"
        }
      ],
      "name": "getRoleMemberCount",
      "outputs": [
        {
          "internalType": "uint256",
          "name": "",
          "type": "uint256"
        }
      ],
      "stateMutability": "view",
      "type": "function",
      "constant": true
    },
    {
      "inputs": [
        {
          "internalType": "bytes32",
          "name": "role",
          "type": "bytes32"
        },
        {
          "internalType": "address",
          "name": "account",
          "type": "address"
        }
      ],
      "name": "grantRole",
      "outputs": [],
      "stateMutability": "nonpayable",
      "type": "function"
    },
    {
      "inputs": [
        {
          "internalType": "address",
          "name": "",
          "type": "address"
        }
      ],
      "name": "hasMinted",
      "outputs": [
        {
          "internalType": "uint256",
          "name": "",
          "type": "uint256"
        }
      ],
      "stateMutability": "view",
      "type": "function",
      "constant": true
    },
    {
      "inputs": [
        {
          "internalType": "bytes32",
          "name": "role",
          "type": "bytes32"
        },
        {
          "internalType": "address",
          "name": "account",
          "type": "address"
        }
      ],
      "name": "hasRole",
      "outputs": [
        {
          "internalType": "bool",
          "name": "",
          "type": "bool"
        }
      ],
      "stateMutability": "view",
      "type": "function",
      "constant": true
    },
    {
      "inputs": [
        {
          "internalType": "address",
          "name": "spender",
          "type": "address"
        },
        {
          "internalType": "uint256",
          "name": "addedValue",
          "type": "uint256"
        }
      ],
      "name": "increaseAllowance",
      "outputs": [
        {
          "internalType": "bool",
          "name": "",
          "type": "bool"
        }
      ],
      "stateMutability": "nonpayable",
      "type": "function"
    },
    {
      "inputs": [],
      "name": "name",
      "outputs": [
        {
          "internalType": "string",
          "name": "",
          "type": "string"
        }
      ],
      "stateMutability": "view",
      "type": "function",
      "constant": true
    },
    {
      "inputs": [
        {
          "internalType": "address",
          "name": "",
          "type": "address"
        }
      ],
      "name": "paused",
      "outputs": [
        {
          "internalType": "bool",
          "name": "",
          "type": "bool"
        }
      ],
      "stateMutability": "view",
      "type": "function",
      "constant": true
    },
    {
      "inputs": [
        {
          "internalType": "bytes32",
          "name": "role",
          "type": "bytes32"
        },
        {
          "internalType": "address",
          "name": "account",
          "type": "address"
        }
      ],
      "name": "renounceRole",
      "outputs": [],
      "stateMutability": "nonpayable",
      "type": "function"
    },
    {
      "inputs": [
        {
          "internalType": "bytes32",
          "name": "role",
          "type": "bytes32"
        },
        {
          "internalType": "address",
          "name": "account",
          "type": "address"
        }
      ],
      "name": "revokeRole",
      "outputs": [],
      "stateMutability": "nonpayable",
      "type": "function"
    },
    {
      "inputs": [],
      "name": "symbol",
      "outputs": [
        {
          "internalType": "string",
          "name": "",
          "type": "string"
        }
      ],
      "stateMutability": "view",
      "type": "function",
      "constant": true
    },
    {
      "inputs": [],
      "name": "totalSupply",
      "outputs": [
        {
          "internalType": "uint256",
          "name": "",
          "type": "uint256"
        }
      ],
      "stateMutability": "view",
      "type": "function",
      "constant": true
    },
    {
      "inputs": [
        {
          "internalType": "address",
          "name": "recipient",
          "type": "address"
        },
        {
          "internalType": "uint256",
          "name": "amount",
          "type": "uint256"
        }
      ],
      "name": "transfer",
      "outputs": [
        {
          "internalType": "bool",
          "name": "",
          "type": "bool"
        }
      ],
      "stateMutability": "nonpayable",
      "type": "function"
    },
    {
      "inputs": [
        {
          "internalType": "address",
          "name": "sender",
          "type": "address"
        },
        {
          "internalType": "address",
          "name": "recipient",
          "type": "address"
        },
        {
          "internalType": "uint256",
          "name": "amount",
          "type": "uint256"
        }
      ],
      "name": "transferFrom",
      "outputs": [
        {
          "internalType": "bool",
          "name": "",
          "type": "bool"
        }
      ],
      "stateMutability": "nonpayable",
      "type": "function"
    },
    {
      "inputs": [
        {
          "internalType": "address",
          "name": "",
          "type": "address"
        }
      ],
      "name": "whiteList",
      "outputs": [
        {
          "internalType": "bool",
          "name": "",
          "type": "bool"
        }
      ],
      "stateMutability": "view",
      "type": "function",
      "constant": true
    },
    {
      "inputs": [
        {
          "internalType": "address",
          "name": "_recipient",
          "type": "address"
        },
        {
          "internalType": "uint256",
          "name": "_amount",
          "type": "uint256"
        }
      ],
      "name": "mint",
      "outputs": [],
      "stateMutability": "nonpayable",
      "type": "function"
    },
    {
      "inputs": [
        {
          "internalType": "address",
          "name": "_toWhitelist",
          "type": "address"
        },
        {
          "internalType": "bool",
          "name": "_state",
          "type": "bool"
        }
      ],
      "name": "setWhitelist",
      "outputs": [],
      "stateMutability": "nonpayable",
      "type": "function"
    },
    {
      "inputs": [
        {
          "internalType": "address",
          "name": "_newSentinel",
          "type": "address"
        }
      ],
      "name": "setSentinel",
      "outputs": [],
      "stateMutability": "nonpayable",
      "type": "function"
    },
    {
      "inputs": [
        {
          "internalType": "address",
          "name": "_toBlacklist",
          "type": "address"
        }
      ],
      "name": "setBlacklist",
      "outputs": [],
      "stateMutability": "nonpayable",
      "type": "function"
    },
    {
      "inputs": [
        {
          "internalType": "address",
          "name": "_toPause",
          "type": "address"
        },
        {
          "internalType": "bool",
          "name": "_state",
          "type": "bool"
        }
      ],
      "name": "pauseAlchemist",
      "outputs": [],
      "stateMutability": "nonpayable",
      "type": "function"
    },
    {
      "inputs": [
        {
          "internalType": "address",
          "name": "_toSetCeiling",
          "type": "address"
        },
        {
          "internalType": "uint256",
          "name": "_ceiling",
          "type": "uint256"
        }
      ],
      "name": "setCeiling",
      "outputs": [],
      "stateMutability": "nonpayable",
      "type": "function"
    },
    {
      "inputs": [
        {
          "internalType": "uint256",
          "name": "amount",
          "type": "uint256"
        }
      ],
      "name": "burn",
      "outputs": [],
      "stateMutability": "nonpayable",
      "type": "function"
    },
    {
      "inputs": [
        {
          "internalType": "address",
          "name": "account",
          "type": "address"
        },
        {
          "internalType": "uint256",
          "name": "amount",
          "type": "uint256"
        }
      ],
      "name": "burnFrom",
      "outputs": [],
      "stateMutability": "nonpayable",
      "type": "function"
    },
    {
      "inputs": [
        {
          "internalType": "uint256",
          "name": "amount",
          "type": "uint256"
        }
      ],
      "name": "lowerHasMinted",
      "outputs": [],
      "stateMutability": "nonpayable",
      "type": "function"
    }
  ],
  "bytecode": "0x60806040523480156200001157600080fd5b50604080518082018252600c81527f416c6368656d697820555344000000000000000000000000000000000000000060208083019182528351808501909452600584527f616c5553440000000000000000000000000000000000000000000000000000009084015281519192916200008c91600491620002e4565b508051620000a2906005906020840190620002e4565b50506006805460ff1916601217905550620000d6600080516020620025678339815191523364010000000062000157810204565b620000fa600080516020620025878339815191523364010000000062000157810204565b6200012d600080516020620025878339815191526000805160206200256783398151915264010000000062000170810204565b62000151600080516020620025678339815191528064010000000062000170810204565b62000380565b6200016c8282640100000000620001c2810204565b5050565b600082815260208190526040808220600201549051839285917fbd79b86ffe0ab8e8776151514217cd7cacd52c909f66475c3af44e129f0b00ff9190a460009182526020829052604090912060020155565b6000828152602081905260409020620001ea9082640100000000620010446200024782021704565b156200016c576200020364010000000062000270810204565b600160a060020a031681600160a060020a0316837f2f8788117e7eff1d82e926ec794901d17c78024a50270940304540a733656f0d60405160405180910390a45050565b60006200026783600160a060020a03841664010000000062000274810204565b90505b92915050565b3390565b60006200028b8383640100000000620002cc810204565b620002c3575081546001818101845560008481526020808220909301849055845484825282860190935260409020919091556200026a565b5060006200026a565b60009081526001919091016020526040902054151590565b828054600181600116156101000203166002900490600052602060002090601f016020900481019282601f106200032757805160ff191683800117855562000357565b8280016001018555821562000357579182015b82811115620003575782518255916020019190600101906200033a565b506200036592915062000369565b5090565b5b808211156200036557600081556001016200036a565b6121d780620003906000396000f3fe608060405234801561001057600080fd5b506004361061025e576000357c01000000000000000000000000000000000000000000000000000000009004806342966c681161016257806391d14854116100da578063a9059cbb116100a9578063d547741f1161008e578063d547741f146104c2578063dd62ed3e146104d5578063f9f92be4146104e85761025e565b8063a9059cbb1461049c578063ca15c873146104af5761025e565b806391d148541461046657806395d89b4114610479578063a217fddf14610481578063a457c2d7146104895761025e565b80636c00c7f01161013157806375b238fc1161011657806375b238fc1461042b57806379cc6790146104335780639010d07c146104465761025e565b80636c00c7f01461040557806370a08231146104185761025e565b806342966c68146103b95780634e054a67146103cc57806353d6fd59146103df5780635ab96f7a146103f25761025e565b8063288aafcb116101f557806336568abe116101c457806338e21cce116101a957806338e21cce14610380578063395093511461039357806340c10f19146103a65761025e565b806336568abe1461035a578063372c12b11461036d5761025e565b8063288aafcb1461030c5780632e48152c1461031f5780632f2ff15d14610332578063313ce567146103455761025e565b806318160ddd1161023157806318160ddd146102cb5780631ac997e0146102d357806323b872dd146102e6578063248a9ca3146102f95761025e565b806306fdde0314610263578063095ea7b31461028157806309dac061146102a157806313430d92146102b6575b600080fd5b61026b6104fb565b6040516102789190611acb565b60405180910390f35b61029461028f3660046119e7565b6105af565b6040516102789190611ab7565b6102b46102af36600461191d565b6105cd565b005b6102be610663565b6040516102789190611ac2565b6102be610687565b6102be6102e136600461191d565b61068d565b6102946102f436600461196c565b61069f565b6102be610307366004611a11565b610740565b6102b461031a366004611a11565b610755565b61029461032d36600461191d565b6107cb565b6102b4610340366004611a29565b6107e0565b61034d610842565b60405161027891906120b8565b6102b4610368366004611a29565b61084b565b61029461037b36600461191d565b6108c1565b6102be61038e36600461191d565b6108d6565b6102946103a13660046119e7565b6108e8565b6102b46103b43660046119e7565b610943565b6102b46103c7366004611a11565b610ac0565b6102b46103da36600461191d565b610ad1565b6102b46103ed3660046119ac565b610b80565b6102b46104003660046119ac565b610c36565b6102b46104133660046119e7565b610d23565b6102be61042636600461191d565b610dac565b6102be610dd4565b6102b46104413660046119e7565b610df8565b610459610454366004611a4d565b610e48565b6040516102789190611a6e565b610294610474366004611a29565b610e67565b61026b610e7f565b6102be610efe565b6102946104973660046119e7565b610f03565b6102946104aa3660046119e7565b610f78565b6102be6104bd366004611a11565b610f8c565b6102b46104d0366004611a29565b610fa3565b6102be6104e3366004611938565b610ff7565b6102946104f636600461191d565b61102f565b60048054604080516020601f60027fffffffffffffffffffffffffffffffffffffffffffffffffffffffffffffffff6101006001881615020190951694909404938401819004810282018101909252828152606093909290918301828280156105a55780601f1061057a576101008083540402835291602001916105a5565b820191906000526020600020905b81548152906001019060200180831161058857829003601f168201915b5050505050905090565b60006105c36105bc611066565b848461106a565b5060015b92915050565b6105f77fdf8b4c520ffe197c5343c6f5aec59570151ef9a492f2c624fd45ddde6135ec4233610e67565b610636576040517f08c379a000000000000000000000000000000000000000000000000000000000815260040161062d90611ce7565b60405180910390fd5b6106607fd3eedd6d69d410e954f4c622838ecc3acae9fdcd83cad412075c85b09277065682610834565b50565b7fd3eedd6d69d410e954f4c622838ecc3acae9fdcd83cad412075c85b09277065681565b60035490565b600a6020526000908152604090205481565b60006106ac848484611179565b610736846106b8611066565b610731856040518060600160405280602881526020016121316028913973ffffffffffffffffffffffffffffffffffffffff8a16600090815260026020526040812090610703611066565b73ffffffffffffffffffffffffffffffffffffffff1681526020810191909152604001600020549190611303565b61106a565b5060019392505050565b60009081526020819052604090206002015490565b3360009081526007602052604090205460ff1661079e576040517f08c379a000000000000000000000000000000000000000000000000000000000815260040161062d90611f26565b336000908152600b60205260409020546107b89082611349565b336000908152600b602052604090205550565b60096020526000908152604090205460ff1681565b6000828152602081905260409020600201546107fe90610474611066565b610834576040517f08c379a000000000000000000000000000000000000000000000000000000000815260040161062d90611bf6565b61083e828261138b565b5050565b60065460ff1690565b610853611066565b73ffffffffffffffffffffffffffffffffffffffff168173ffffffffffffffffffffffffffffffffffffffff16146108b7576040517f08c379a000000000000000000000000000000000000000000000000000000000815260040161062d90611fed565b61083e828261140e565b60076020526000908152604090205460ff1681565b600b6020526000908152604090205481565b60006105c36108f5611066565b846107318560026000610906611066565b73ffffffffffffffffffffffffffffffffffffffff908116825260208083019390935260409182016000908120918c168152925290205490611491565b3360009081526007602052604090205460ff1661098c576040517f08c379a000000000000000000000000000000000000000000000000000000000815260040161062d90611f26565b3360009081526008602052604090205460ff16156109d6576040517f08c379a000000000000000000000000000000000000000000000000000000000815260040161062d90611fb8565b336000908152600b60205260408120546109f1908390611491565b336000908152600a6020526040902054909150811115610a3d576040517f08c379a000000000000000000000000000000000000000000000000000000000815260040161062d90611e6c565b3360009081526009602052604090205460ff1615610a87576040517f08c379a000000000000000000000000000000000000000000000000000000000815260040161062d90611f83565b336000908152600b6020526040902054610aa19083611491565b336000908152600b6020526040902055610abb83836114d0565b505050565b610660610acb611066565b826115d1565b610afb7fd3eedd6d69d410e954f4c622838ecc3acae9fdcd83cad412075c85b09277065633610e67565b610b31576040517f08c379a000000000000000000000000000000000000000000000000000000000815260040161062d90612081565b73ffffffffffffffffffffffffffffffffffffffff16600090815260086020526040902080547fffffffffffffffffffffffffffffffffffffffffffffffffffffffffffffff00166001179055565b610baa7fdf8b4c520ffe197c5343c6f5aec59570151ef9a492f2c624fd45ddde6135ec4233610e67565b610be0576040517f08c379a000000000000000000000000000000000000000000000000000000000815260040161062d90611ce7565b73ffffffffffffffffffffffffffffffffffffffff91909116600090815260076020526040902080547fffffffffffffffffffffffffffffffffffffffffffffffffffffffffffffff0016911515919091179055565b610c607fd3eedd6d69d410e954f4c622838ecc3acae9fdcd83cad412075c85b09277065633610e67565b610c96576040517f08c379a000000000000000000000000000000000000000000000000000000000815260040161062d90612081565b73ffffffffffffffffffffffffffffffffffffffff82166000908152600960205260409081902080547fffffffffffffffffffffffffffffffffffffffffffffffffffffffffffffff0016831515179055517fe8699cf681560fd07de85543bd994263f4557bdc5179dd702f256d15fd083e1d90610d179084908490611a8f565b60405180910390a15050565b610d4d7fdf8b4c520ffe197c5343c6f5aec59570151ef9a492f2c624fd45ddde6135ec4233610e67565b610d83576040517f08c379a000000000000000000000000000000000000000000000000000000000815260040161062d90611ce7565b73ffffffffffffffffffffffffffffffffffffffff9091166000908152600a6020526040902055565b73ffffffffffffffffffffffffffffffffffffffff1660009081526001602052604090205490565b7fdf8b4c520ffe197c5343c6f5aec59570151ef9a492f2c624fd45ddde6135ec4281565b6000610e2a8260405180606001604052806024815260200161215960249139610e23866104e3611066565b9190611303565b9050610e3e83610e38611066565b8361106a565b610abb83836115d1565b6000828152602081905260408120610e6090836116f5565b9392505050565b6000828152602081905260408120610e609083611701565b60058054604080516020601f60027fffffffffffffffffffffffffffffffffffffffffffffffffffffffffffffffff6101006001881615020190951694909404938401819004810282018101909252828152606093909290918301828280156105a55780601f1061057a576101008083540402835291602001916105a5565b600081565b60006105c3610f10611066565b846107318560405180606001604052806025815260200161217d6025913960026000610f3a611066565b73ffffffffffffffffffffffffffffffffffffffff908116825260208083019390935260409182016000908120918d16815292529020549190611303565b60006105c3610f85611066565b8484611179565b60008181526020819052604081206105c790611723565b600082815260208190526040902060020154610fc190610474611066565b6108b7576040517f08c379a000000000000000000000000000000000000000000000000000000000815260040161062d90611d55565b73ffffffffffffffffffffffffffffffffffffffff918216600090815260026020908152604080832093909416825291909152205490565b60086020526000908152604090205460ff1681565b6000610e608373ffffffffffffffffffffffffffffffffffffffff841661172e565b3390565b73ffffffffffffffffffffffffffffffffffffffff83166110b7576040517f08c379a000000000000000000000000000000000000000000000000000000000815260040161062d90611ec9565b73ffffffffffffffffffffffffffffffffffffffff8216611104576040517f08c379a000000000000000000000000000000000000000000000000000000000815260040161062d90611c53565b73ffffffffffffffffffffffffffffffffffffffff80841660008181526002602090815260408083209487168084529490915290819020849055517f8c5be1e5ebec7d5bd14f71427d1e84f3dd0314c0f7b2291e5b200ac8c7c3b9259061116c908590611ac2565b60405180910390a3505050565b73ffffffffffffffffffffffffffffffffffffffff83166111c6576040517f08c379a000000000000000000000000000000000000000000000000000000000815260040161062d90611e0f565b73ffffffffffffffffffffffffffffffffffffffff8216611213576040517f08c379a000000000000000000000000000000000000000000000000000000000815260040161062d90611b99565b61121e838383610abb565b6112688160405180606001604052806026815260200161210b6026913973ffffffffffffffffffffffffffffffffffffffff86166000908152600160205260409020549190611303565b73ffffffffffffffffffffffffffffffffffffffff80851660009081526001602052604080822093909355908416815220546112a49082611491565b73ffffffffffffffffffffffffffffffffffffffff80841660008181526001602052604090819020939093559151908516907fddf252ad1be2c89b69c2b068fc378daa952ba7f163c4a11628f55a4df523b3ef9061116c908590611ac2565b60008184841115611341576040517f08c379a000000000000000000000000000000000000000000000000000000000815260040161062d9190611acb565b505050900390565b600082821115611385576040517f08c379a000000000000000000000000000000000000000000000000000000000815260040161062d90611d1e565b50900390565b60008281526020819052604090206113a39082611044565b1561083e576113b0611066565b73ffffffffffffffffffffffffffffffffffffffff168173ffffffffffffffffffffffffffffffffffffffff16837f2f8788117e7eff1d82e926ec794901d17c78024a50270940304540a733656f0d60405160405180910390a45050565b60008281526020819052604090206114269082611778565b1561083e57611433611066565b73ffffffffffffffffffffffffffffffffffffffff168173ffffffffffffffffffffffffffffffffffffffff16837ff6391f5c32d9c69d2a47ea670b442974b53935d1edc7fd64eb21e047a839171b60405160405180910390a45050565b600082820183811015610e60576040517f08c379a000000000000000000000000000000000000000000000000000000000815260040161062d90611cb0565b73ffffffffffffffffffffffffffffffffffffffff821661151d576040517f08c379a000000000000000000000000000000000000000000000000000000000815260040161062d9061204a565b61152960008383610abb565b6003546115369082611491565b60035573ffffffffffffffffffffffffffffffffffffffff82166000908152600160205260409020546115699082611491565b73ffffffffffffffffffffffffffffffffffffffff83166000818152600160205260408082209390935591519091907fddf252ad1be2c89b69c2b068fc378daa952ba7f163c4a11628f55a4df523b3ef906115c5908590611ac2565b60405180910390a35050565b73ffffffffffffffffffffffffffffffffffffffff821661161e576040517f08c379a000000000000000000000000000000000000000000000000000000000815260040161062d90611db2565b61162a82600083610abb565b611674816040518060600160405280602281526020016120e96022913973ffffffffffffffffffffffffffffffffffffffff85166000908152600160205260409020549190611303565b73ffffffffffffffffffffffffffffffffffffffff83166000908152600160205260409020556003546116a79082611349565b60035560405160009073ffffffffffffffffffffffffffffffffffffffff8416907fddf252ad1be2c89b69c2b068fc378daa952ba7f163c4a11628f55a4df523b3ef906115c5908590611ac2565b6000610e60838361179a565b6000610e608373ffffffffffffffffffffffffffffffffffffffff84166117f9565b60006105c782611811565b600061173a83836117f9565b611770575081546001818101845560008481526020808220909301849055845484825282860190935260409020919091556105c7565b5060006105c7565b6000610e608373ffffffffffffffffffffffffffffffffffffffff8416611815565b815460009082106117d7576040517f08c379a000000000000000000000000000000000000000000000000000000000815260040161062d90611b3c565b8260000182815481106117e657fe5b9060005260206000200154905092915050565b60009081526001919091016020526040902054151590565b5490565b600081815260018301602052604081205480156118ef5783547fffffffffffffffffffffffffffffffffffffffffffffffffffffffffffffffff808301919081019060009087908390811061186657fe5b906000526020600020015490508087600001848154811061188357fe5b6000918252602080832090910192909255828152600189810190925260409020908401905586548790806118b357fe5b600190038181906000526020600020016000905590558660010160008781526020019081526020016000206000905560019450505050506105c7565b60009150506105c7565b803573ffffffffffffffffffffffffffffffffffffffff811681146105c757600080fd5b60006020828403121561192e578081fd5b610e6083836118f9565b6000806040838503121561194a578081fd5b61195484846118f9565b915061196384602085016118f9565b90509250929050565b600080600060608486031215611980578081fd5b833561198b816120c6565b9250602084013561199b816120c6565b929592945050506040919091013590565b600080604083850312156119be578182fd5b6119c884846118f9565b9150602083013580151581146119dc578182fd5b809150509250929050565b600080604083850312156119f9578182fd5b611a0384846118f9565b946020939093013593505050565b600060208284031215611a22578081fd5b5035919050565b60008060408385031215611a3b578182fd5b8235915060208301356119dc816120c6565b60008060408385031215611a5f578182fd5b50508035926020909101359150565b73ffffffffffffffffffffffffffffffffffffffff91909116815260200190565b73ffffffffffffffffffffffffffffffffffffffff9290921682521515602082015260400190565b901515815260200190565b90815260200190565b6000602080835283518082850152825b81811015611af757858101830151858201604001528201611adb565b81811115611b085783604083870101525b50601f017fffffffffffffffffffffffffffffffffffffffffffffffffffffffffffffffe016929092016040019392505050565b60208082526022908201527f456e756d657261626c655365743a20696e646578206f7574206f6620626f756e60408201527f6473000000000000000000000000000000000000000000000000000000000000606082015260800190565b60208082526023908201527f45524332303a207472616e7366657220746f20746865207a65726f206164647260408201527f6573730000000000000000000000000000000000000000000000000000000000606082015260800190565b6020808252602f908201527f416363657373436f6e74726f6c3a2073656e646572206d75737420626520616e60408201527f2061646d696e20746f206772616e740000000000000000000000000000000000606082015260800190565b60208082526022908201527f45524332303a20617070726f766520746f20746865207a65726f20616464726560408201527f7373000000000000000000000000000000000000000000000000000000000000606082015260800190565b6020808252601b908201527f536166654d6174683a206164646974696f6e206f766572666c6f770000000000604082015260600190565b6020808252600a908201527f6f6e6c792061646d696e00000000000000000000000000000000000000000000604082015260600190565b6020808252601e908201527f536166654d6174683a207375627472616374696f6e206f766572666c6f770000604082015260600190565b60208082526030908201527f416363657373436f6e74726f6c3a2073656e646572206d75737420626520616e60408201527f2061646d696e20746f207265766f6b6500000000000000000000000000000000606082015260800190565b60208082526021908201527f45524332303a206275726e2066726f6d20746865207a65726f2061646472657360408201527f7300000000000000000000000000000000000000000000000000000000000000606082015260800190565b60208082526025908201527f45524332303a207472616e736665722066726f6d20746865207a65726f20616460408201527f6472657373000000000000000000000000000000000000000000000000000000606082015260800190565b60208082526028908201527f416c5553443a20416c6368656d6973742773206365696c696e6720776173206260408201527f726561636865642e000000000000000000000000000000000000000000000000606082015260800190565b60208082526024908201527f45524332303a20617070726f76652066726f6d20746865207a65726f2061646460408201527f7265737300000000000000000000000000000000000000000000000000000000606082015260800190565b60208082526023908201527f416c5553443a20416c6368656d697374206973206e6f742077686974656c697360408201527f7465640000000000000000000000000000000000000000000000000000000000606082015260800190565b6020808252818101527f416c5553443a20757365722069732063757272656e746c79207061757365642e604082015260600190565b6020808252818101527f416c5553443a20416c6368656d69737420697320626c61636b6c69737465642e604082015260600190565b6020808252602f908201527f416363657373436f6e74726f6c3a2063616e206f6e6c792072656e6f756e636560408201527f20726f6c657320666f722073656c660000000000000000000000000000000000606082015260800190565b6020808252601f908201527f45524332303a206d696e7420746f20746865207a65726f206164647265737300604082015260600190565b6020808252600d908201527f6f6e6c792073656e74696e656c00000000000000000000000000000000000000604082015260600190565b60ff91909116815260200190565b73ffffffffffffffffffffffffffffffffffffffff8116811461066057600080fdfe45524332303a206275726e20616d6f756e7420657863656564732062616c616e636545524332303a207472616e7366657220616d6f756e7420657863656564732062616c616e636545524332303a207472616e7366657220616d6f756e74206578636565647320616c6c6f77616e636545524332303a206275726e20616d6f756e74206578636565647320616c6c6f77616e636545524332303a2064656372656173656420616c6c6f77616e63652062656c6f77207a65726fa26469706673582212200c7a7d97fa0278756617b10c114bf8db2f1b5f9ef92f5b8fcd76e61633b17d1564736f6c634300060c0033df8b4c520ffe197c5343c6f5aec59570151ef9a492f2c624fd45ddde6135ec42d3eedd6d69d410e954f4c622838ecc3acae9fdcd83cad412075c85b092770656",
  "immutableReferences": {},
  "source": "// SPDX-License-Identifier: GPL-3.0\npragma solidity ^0.6.12;\npragma experimental ABIEncoderV2;\n\nimport {AccessControl} from \"@openzeppelin/contracts/access/AccessControl.sol\";\nimport {ERC20} from \"@openzeppelin/contracts/token/ERC20/ERC20.sol\";\nimport {SafeERC20} from \"@openzeppelin/contracts/token/ERC20/SafeERC20.sol\";\nimport {Ownable} from \"@openzeppelin/contracts/access/Ownable.sol\";\n\nimport {IDetailedERC20} from \"./interfaces/IDetailedERC20.sol\";\n\n/// @title AlToken\n///\n/// @dev This is the contract for the Alchemix utillity token usd.\n///\n/// Initially, the contract deployer is given both the admin and minter role. This allows them to pre-mine tokens,\n/// transfer admin to a timelock contract, and lastly, grant the staking pools the minter role. After this is done,\n/// the deployer must revoke their admin role and minter role.\ncontract AlToken is AccessControl, ERC20(\"Alchemix USD\", \"alUSD\") {\n  using SafeERC20 for ERC20;\n\n  /// @dev The identifier of the role which maintains other roles.\n  bytes32 public constant ADMIN_ROLE = keccak256(\"ADMIN\");\n\n  /// @dev The identifier of the role which allows accounts to mint tokens.\n  bytes32 public constant SENTINEL_ROLE = keccak256(\"SENTINEL\");\n  \n  /// @dev addresses whitelisted for minting new tokens\n  mapping (address => bool) public whiteList;\n  \n  /// @dev addresses blacklisted for minting new tokens\n  mapping (address => bool) public blacklist;\n\n  /// @dev addresses paused for minting new tokens\n  mapping (address => bool) public paused;\n\n  /// @dev ceiling per address for minting new tokens\n  mapping (address => uint256) public ceiling;\n\n  /// @dev already minted amount per address to track the ceiling\n  mapping (address => uint256) public hasMinted;\n\n  event Paused(address alchemistAddress, bool isPaused);\n  \n  constructor() public {\n    _setupRole(ADMIN_ROLE, msg.sender);\n    _setupRole(SENTINEL_ROLE, msg.sender);\n    _setRoleAdmin(SENTINEL_ROLE,ADMIN_ROLE);\n    _setRoleAdmin(ADMIN_ROLE,ADMIN_ROLE);\n  }\n\n  /// @dev A modifier which checks if whitelisted for minting.\n  modifier onlyWhitelisted() {\n    require(whiteList[msg.sender], \"AlUSD: Alchemist is not whitelisted\");\n    _;\n  }\n\n  /// @dev Mints tokens to a recipient.\n  ///\n  /// This function reverts if the caller does not have the minter role.\n  ///\n  /// @param _recipient the account to mint tokens to.\n  /// @param _amount    the amount of tokens to mint.\n  function mint(address _recipient, uint256 _amount) external onlyWhitelisted {\n    require(!blacklist[msg.sender], \"AlUSD: Alchemist is blacklisted.\");\n    uint256 _total = _amount.add(hasMinted[msg.sender]);\n    require(_total <= ceiling[msg.sender],\"AlUSD: Alchemist's ceiling was breached.\");\n    require(!paused[msg.sender], \"AlUSD: user is currently paused.\");\n    hasMinted[msg.sender] = hasMinted[msg.sender].add(_amount);\n    _mint(_recipient, _amount);\n  }\n  /// This function reverts if the caller does not have the admin role.\n  ///\n  /// @param _toWhitelist the account to mint tokens to.\n  /// @param _state the whitelist state.\n\n  function setWhitelist(address _toWhitelist, bool _state) external onlyAdmin {\n    whiteList[_toWhitelist] = _state;\n  }\n  /// This function reverts if the caller does not have the admin role.\n  ///\n  /// @param _newSentinel the account to set as sentinel.\n\n  function setSentinel(address _newSentinel) external onlyAdmin {\n    _setupRole(SENTINEL_ROLE, _newSentinel);\n  }\n  /// This function reverts if the caller does not have the admin role.\n  ///\n  /// @param _toBlacklist the account to mint tokens to.\n  function setBlacklist(address _toBlacklist) external onlySentinel {\n    blacklist[_toBlacklist] = true;\n  }\n  /// This function reverts if the caller does not have the admin role.\n  function pauseAlchemist(address _toPause, bool _state) external onlySentinel {\n    paused[_toPause] = _state;\n    Paused(_toPause, _state);\n  }\n  /// This function reverts if the caller does not have the admin role.\n  ///\n  /// @param _toSetCeiling the account set the ceiling off.\n  /// @param _ceiling the max amount of tokens the account is allowed to mint.\n  function setCeiling(address _toSetCeiling, uint256 _ceiling) external onlyAdmin {\n    ceiling[_toSetCeiling] = _ceiling;\n  }\n   /// @dev A modifier which checks that the caller has the admin role.\n  modifier onlyAdmin() {\n    require(hasRole(ADMIN_ROLE, msg.sender), \"only admin\");\n    _;\n  }\n  /// @dev A modifier which checks that the caller has the sentinel role.\n  modifier onlySentinel() {\n    require(hasRole(SENTINEL_ROLE, msg.sender), \"only sentinel\");\n    _;\n  }\n  /**\n     * @dev Destroys `amount` tokens from the caller.\n     *\n     * See {ERC20-_burn}.\n     */\n    function burn(uint256 amount) public virtual {\n        _burn(_msgSender(), amount);\n    }\n\n    /**\n     * @dev Destroys `amount` tokens from `account`, deducting from the caller's\n     * allowance.\n     *\n     * See {ERC20-_burn} and {ERC20-allowance}.\n     *\n     * Requirements:\n     *\n     * - the caller must have allowance for ``accounts``'s tokens of at least\n     * `amount`.\n     */\n    function burnFrom(address account, uint256 amount) public virtual {\n        uint256 decreasedAllowance = allowance(account, _msgSender()).sub(amount, \"ERC20: burn amount exceeds allowance\");\n\n        _approve(account, _msgSender(), decreasedAllowance);\n        _burn(account, amount);\n    }\n    /**\n     * @dev lowers hasminted from the caller's allocation\n     *\n     */\n    function lowerHasMinted( uint256 amount) public onlyWhitelisted {\n        hasMinted[msg.sender] = hasMinted[msg.sender].sub(amount);\n    }\n}",
  "sourcePath": "/Users/shr1ftyy/Personal/Computing/bounties/alcx/alchemix-protocol/contracts/AlToken.sol",
  "compiler": {
    "name": "solc",
    "version": "0.6.12+commit.27d51765.Emscripten.clang"
  },
  "schemaVersion": "3.4.4",
  "updatedAt": "2022-01-11T13:48:11.368Z",
  "networkType": "ethereum",
  "devdoc": {
    "details": "This is the contract for the Alchemix utillity token usd. Initially, the contract deployer is given both the admin and minter role. This allows them to pre-mine tokens, transfer admin to a timelock contract, and lastly, grant the staking pools the minter role. After this is done, the deployer must revoke their admin role and minter role.",
    "kind": "dev",
    "methods": {
      "allowance(address,address)": {
        "details": "See {IERC20-allowance}."
      },
      "approve(address,uint256)": {
        "details": "See {IERC20-approve}. Requirements: - `spender` cannot be the zero address."
      },
      "balanceOf(address)": {
        "details": "See {IERC20-balanceOf}."
      },
      "burn(uint256)": {
        "details": "Destroys `amount` tokens from the caller. See {ERC20-_burn}."
      },
      "burnFrom(address,uint256)": {
        "details": "Destroys `amount` tokens from `account`, deducting from the caller's allowance. See {ERC20-_burn} and {ERC20-allowance}. Requirements: - the caller must have allowance for ``accounts``'s tokens of at least `amount`."
      },
      "decimals()": {
        "details": "Returns the number of decimals used to get its user representation. For example, if `decimals` equals `2`, a balance of `505` tokens should be displayed to a user as `5,05` (`505 / 10 ** 2`). Tokens usually opt for a value of 18, imitating the relationship between Ether and Wei. This is the value {ERC20} uses, unless {_setupDecimals} is called. NOTE: This information is only used for _display_ purposes: it in no way affects any of the arithmetic of the contract, including {IERC20-balanceOf} and {IERC20-transfer}."
      },
      "decreaseAllowance(address,uint256)": {
        "details": "Atomically decreases the allowance granted to `spender` by the caller. This is an alternative to {approve} that can be used as a mitigation for problems described in {IERC20-approve}. Emits an {Approval} event indicating the updated allowance. Requirements: - `spender` cannot be the zero address. - `spender` must have allowance for the caller of at least `subtractedValue`."
      },
      "getRoleAdmin(bytes32)": {
        "details": "Returns the admin role that controls `role`. See {grantRole} and {revokeRole}. To change a role's admin, use {_setRoleAdmin}."
      },
      "getRoleMember(bytes32,uint256)": {
        "details": "Returns one of the accounts that have `role`. `index` must be a value between 0 and {getRoleMemberCount}, non-inclusive. Role bearers are not sorted in any particular way, and their ordering may change at any point. WARNING: When using {getRoleMember} and {getRoleMemberCount}, make sure you perform all queries on the same block. See the following https://forum.openzeppelin.com/t/iterating-over-elements-on-enumerableset-in-openzeppelin-contracts/2296[forum post] for more information."
      },
      "getRoleMemberCount(bytes32)": {
        "details": "Returns the number of accounts that have `role`. Can be used together with {getRoleMember} to enumerate all bearers of a role."
      },
      "grantRole(bytes32,address)": {
        "details": "Grants `role` to `account`. If `account` had not been already granted `role`, emits a {RoleGranted} event. Requirements: - the caller must have ``role``'s admin role."
      },
      "hasRole(bytes32,address)": {
        "details": "Returns `true` if `account` has been granted `role`."
      },
      "increaseAllowance(address,uint256)": {
        "details": "Atomically increases the allowance granted to `spender` by the caller. This is an alternative to {approve} that can be used as a mitigation for problems described in {IERC20-approve}. Emits an {Approval} event indicating the updated allowance. Requirements: - `spender` cannot be the zero address."
      },
      "lowerHasMinted(uint256)": {
        "details": "lowers hasminted from the caller's allocation"
      },
      "mint(address,uint256)": {
        "details": "Mints tokens to a recipient. This function reverts if the caller does not have the minter role.",
        "params": {
          "_amount": "the amount of tokens to mint.",
          "_recipient": "the account to mint tokens to."
        }
      },
      "name()": {
        "details": "Returns the name of the token."
      },
      "renounceRole(bytes32,address)": {
        "details": "Revokes `role` from the calling account. Roles are often managed via {grantRole} and {revokeRole}: this function's purpose is to provide a mechanism for accounts to lose their privileges if they are compromised (such as when a trusted device is misplaced). If the calling account had been granted `role`, emits a {RoleRevoked} event. Requirements: - the caller must be `account`."
      },
      "revokeRole(bytes32,address)": {
        "details": "Revokes `role` from `account`. If `account` had been granted `role`, emits a {RoleRevoked} event. Requirements: - the caller must have ``role``'s admin role."
      },
      "setBlacklist(address)": {
        "params": {
          "_toBlacklist": "the account to mint tokens to."
        }
      },
      "setCeiling(address,uint256)": {
        "params": {
          "_ceiling": "the max amount of tokens the account is allowed to mint.",
          "_toSetCeiling": "the account set the ceiling off."
        }
      },
      "setSentinel(address)": {
        "params": {
          "_newSentinel": "the account to set as sentinel."
        }
      },
      "setWhitelist(address,bool)": {
        "params": {
          "_state": "the whitelist state.",
          "_toWhitelist": "the account to mint tokens to."
        }
      },
      "symbol()": {
        "details": "Returns the symbol of the token, usually a shorter version of the name."
      },
      "totalSupply()": {
        "details": "See {IERC20-totalSupply}."
      },
      "transfer(address,uint256)": {
        "details": "See {IERC20-transfer}. Requirements: - `recipient` cannot be the zero address. - the caller must have a balance of at least `amount`."
      },
      "transferFrom(address,address,uint256)": {
        "details": "See {IERC20-transferFrom}. Emits an {Approval} event indicating the updated allowance. This is not required by the EIP. See the note at the beginning of {ERC20}. Requirements: - `sender` and `recipient` cannot be the zero address. - `sender` must have a balance of at least `amount`. - the caller must have allowance for ``sender``'s tokens of at least `amount`."
      }
    },
    "stateVariables": {
      "ADMIN_ROLE": {
        "details": "The identifier of the role which maintains other roles."
      },
      "SENTINEL_ROLE": {
        "details": "The identifier of the role which allows accounts to mint tokens."
      },
      "blacklist": {
        "details": "addresses blacklisted for minting new tokens"
      },
      "ceiling": {
        "details": "ceiling per address for minting new tokens"
      },
      "hasMinted": {
        "details": "already minted amount per address to track the ceiling"
      },
      "paused": {
        "details": "addresses paused for minting new tokens"
      },
      "whiteList": {
        "details": "addresses whitelisted for minting new tokens"
      }
    },
    "title": "AlToken",
    "version": 1
  },
  "userdoc": {
    "kind": "user",
    "methods": {
      "pauseAlchemist(address,bool)": {
        "notice": "This function reverts if the caller does not have the admin role."
      },
      "setBlacklist(address)": {
        "notice": "This function reverts if the caller does not have the admin role."
      },
      "setCeiling(address,uint256)": {
        "notice": "This function reverts if the caller does not have the admin role."
      },
      "setSentinel(address)": {
        "notice": "This function reverts if the caller does not have the admin role."
      },
      "setWhitelist(address,bool)": {
        "notice": "This function reverts if the caller does not have the admin role."
      }
    },
    "version": 1
  }
}