{
  "contractName": "FixedPointMath",
  "abi": [
    {
      "inputs": [],
      "name": "DECIMALS",
      "outputs": [
        {
          "internalType": "uint256",
          "name": "",
          "type": "uint256"
        }
      ],
      "stateMutability": "view",
      "type": "function"
    },
    {
      "inputs": [],
      "name": "SCALAR",
      "outputs": [
        {
          "internalType": "uint256",
          "name": "",
          "type": "uint256"
        }
      ],
      "stateMutability": "view",
      "type": "function"
    }
  ],
  "bytecode": "0x60c3610025600b82828239805160001a60731461001857fe5b30600052607381538281f3fe73000000000000000000000000000000000000000030146080604052600436106059577c010000000000000000000000000000000000000000000000000000000060003504632e0f26258114605e5780636bf301a4146076575b600080fd5b6064607c565b60408051918252519081900360200190f35b60646081565b601281565b670de0b6b3a76400008156fea2646970667358221220887654f916fcc5b9112b038e55d2dc11a096b2b1d2eed3020d7925b02a943f2a64736f6c634300060c0033",
  "immutableReferences": {},
  "source": "//SPDX-License-Identifier: Unlicense\npragma solidity ^0.6.12;\n\nlibrary FixedPointMath {\n  uint256 public constant DECIMALS = 18;\n  uint256 public constant SCALAR = 10**DECIMALS;\n\n  struct FixedDecimal {\n    uint256 x;\n  }\n\n  function fromU256(uint256 value) internal pure returns (FixedDecimal memory) {\n    uint256 x;\n    require(value == 0 || (x = value * SCALAR) / SCALAR == value);\n    return FixedDecimal(x);\n  }\n\n  function maximumValue() internal pure returns (FixedDecimal memory) {\n    return FixedDecimal(uint256(-1));\n  }\n\n  function add(FixedDecimal memory self, FixedDecimal memory value) internal pure returns (FixedDecimal memory) {\n    uint256 x;\n    require((x = self.x + value.x) >= self.x);\n    return FixedDecimal(x);\n  }\n\n  function add(FixedDecimal memory self, uint256 value) internal pure returns (FixedDecimal memory) {\n    return add(self, fromU256(value));\n  }\n\n  function sub(FixedDecimal memory self, FixedDecimal memory value) internal pure returns (FixedDecimal memory) {\n    uint256 x;\n    require((x = self.x - value.x) <= self.x);\n    return FixedDecimal(x);\n  }\n\n  function sub(FixedDecimal memory self, uint256 value) internal pure returns (FixedDecimal memory) {\n    return sub(self, fromU256(value));\n  }\n\n  function mul(FixedDecimal memory self, uint256 value) internal pure returns (FixedDecimal memory) {\n    uint256 x;\n    require(value == 0 || (x = self.x * value) / value == self.x);\n    return FixedDecimal(x);\n  }\n\n  function div(FixedDecimal memory self, uint256 value) internal pure returns (FixedDecimal memory) {\n    require(value != 0);\n    return FixedDecimal(self.x / value);\n  }\n\n  function cmp(FixedDecimal memory self, FixedDecimal memory value) internal pure returns (int256) {\n    if (self.x < value.x) {\n      return -1;\n    }\n\n    if (self.x > value.x) {\n      return 1;\n    }\n\n    return 0;\n  }\n\n  function decode(FixedDecimal memory self) internal pure returns (uint256) {\n    return self.x / SCALAR;\n  }\n}",
  "sourcePath": "/Users/shr1ftyy/Personal/Computing/bounties/alcx/alchemix-protocol/contracts/libraries/FixedPointMath.sol",
  "compiler": {
    "name": "solc",
    "version": "0.6.12+commit.27d51765.Emscripten.clang"
  },
  "schemaVersion": "3.4.4",
  "updatedAt": "2022-01-12T10:48:15.749Z",
  "devdoc": {
    "kind": "dev",
    "methods": {},
    "version": 1
  },
  "userdoc": {
    "kind": "user",
    "methods": {},
    "version": 1
  }
}