{
  "contractName": "StakingPools",
  "abi": [
    {
      "inputs": [
        {
          "internalType": "contract IMintableERC20",
          "name": "_reward",
          "type": "address"
        },
        {
          "internalType": "address",
          "name": "_governance",
          "type": "address"
        }
      ],
      "stateMutability": "nonpayable",
      "type": "constructor"
    },
    {
      "anonymous": false,
      "inputs": [
        {
          "indexed": false,
          "internalType": "address",
          "name": "governance",
          "type": "address"
        }
      ],
      "name": "GovernanceUpdated",
      "type": "event"
    },
    {
      "anonymous": false,
      "inputs": [
        {
          "indexed": false,
          "internalType": "address",
          "name": "pendingGovernance",
          "type": "address"
        }
      ],
      "name": "PendingGovernanceUpdated",
      "type": "event"
    },
    {
      "anonymous": false,
      "inputs": [
        {
          "indexed": true,
          "internalType": "uint256",
          "name": "poolId",
          "type": "uint256"
        },
        {
          "indexed": true,
          "internalType": "contract IERC20",
          "name": "token",
          "type": "address"
        }
      ],
      "name": "PoolCreated",
      "type": "event"
    },
    {
      "anonymous": false,
      "inputs": [
        {
          "indexed": true,
          "internalType": "uint256",
          "name": "poolId",
          "type": "uint256"
        },
        {
          "indexed": false,
          "internalType": "uint256",
          "name": "rewardWeight",
          "type": "uint256"
        }
      ],
      "name": "PoolRewardWeightUpdated",
      "type": "event"
    },
    {
      "anonymous": false,
      "inputs": [
        {
          "indexed": false,
          "internalType": "uint256",
          "name": "rewardRate",
          "type": "uint256"
        }
      ],
      "name": "RewardRateUpdated",
      "type": "event"
    },
    {
      "anonymous": false,
      "inputs": [
        {
          "indexed": true,
          "internalType": "address",
          "name": "user",
          "type": "address"
        },
        {
          "indexed": true,
          "internalType": "uint256",
          "name": "poolId",
          "type": "uint256"
        },
        {
          "indexed": false,
          "internalType": "uint256",
          "name": "amount",
          "type": "uint256"
        }
      ],
      "name": "TokensClaimed",
      "type": "event"
    },
    {
      "anonymous": false,
      "inputs": [
        {
          "indexed": true,
          "internalType": "address",
          "name": "user",
          "type": "address"
        },
        {
          "indexed": true,
          "internalType": "uint256",
          "name": "poolId",
          "type": "uint256"
        },
        {
          "indexed": false,
          "internalType": "uint256",
          "name": "amount",
          "type": "uint256"
        }
      ],
      "name": "TokensDeposited",
      "type": "event"
    },
    {
      "anonymous": false,
      "inputs": [
        {
          "indexed": true,
          "internalType": "address",
          "name": "user",
          "type": "address"
        },
        {
          "indexed": true,
          "internalType": "uint256",
          "name": "poolId",
          "type": "uint256"
        },
        {
          "indexed": false,
          "internalType": "uint256",
          "name": "amount",
          "type": "uint256"
        }
      ],
      "name": "TokensWithdrawn",
      "type": "event"
    },
    {
      "inputs": [],
      "name": "governance",
      "outputs": [
        {
          "internalType": "address",
          "name": "",
          "type": "address"
        }
      ],
      "stateMutability": "view",
      "type": "function"
    },
    {
      "inputs": [],
      "name": "pendingGovernance",
      "outputs": [
        {
          "internalType": "address",
          "name": "",
          "type": "address"
        }
      ],
      "stateMutability": "view",
      "type": "function"
    },
    {
      "inputs": [],
      "name": "reward",
      "outputs": [
        {
          "internalType": "contract IMintableERC20",
          "name": "",
          "type": "address"
        }
      ],
      "stateMutability": "view",
      "type": "function"
    },
    {
      "inputs": [
        {
          "internalType": "contract IERC20",
          "name": "",
          "type": "address"
        }
      ],
      "name": "tokenPoolIds",
      "outputs": [
        {
          "internalType": "uint256",
          "name": "",
          "type": "uint256"
        }
      ],
      "stateMutability": "view",
      "type": "function"
    },
    {
      "inputs": [
        {
          "internalType": "address",
          "name": "_pendingGovernance",
          "type": "address"
        }
      ],
      "name": "setPendingGovernance",
      "outputs": [],
      "stateMutability": "nonpayable",
      "type": "function"
    },
    {
      "inputs": [],
      "name": "acceptGovernance",
      "outputs": [],
      "stateMutability": "nonpayable",
      "type": "function"
    },
    {
      "inputs": [
        {
          "internalType": "uint256",
          "name": "_rewardRate",
          "type": "uint256"
        }
      ],
      "name": "setRewardRate",
      "outputs": [],
      "stateMutability": "nonpayable",
      "type": "function"
    },
    {
      "inputs": [
        {
          "internalType": "contract IERC20",
          "name": "_token",
          "type": "address"
        }
      ],
      "name": "createPool",
      "outputs": [
        {
          "internalType": "uint256",
          "name": "",
          "type": "uint256"
        }
      ],
      "stateMutability": "nonpayable",
      "type": "function"
    },
    {
      "inputs": [
        {
          "internalType": "uint256[]",
          "name": "_rewardWeights",
          "type": "uint256[]"
        }
      ],
      "name": "setRewardWeights",
      "outputs": [],
      "stateMutability": "nonpayable",
      "type": "function"
    },
    {
      "inputs": [
        {
          "internalType": "uint256",
          "name": "_poolId",
          "type": "uint256"
        },
        {
          "internalType": "uint256",
          "name": "_depositAmount",
          "type": "uint256"
        }
      ],
      "name": "deposit",
      "outputs": [],
      "stateMutability": "nonpayable",
      "type": "function"
    },
    {
      "inputs": [
        {
          "internalType": "uint256",
          "name": "_poolId",
          "type": "uint256"
        },
        {
          "internalType": "uint256",
          "name": "_withdrawAmount",
          "type": "uint256"
        }
      ],
      "name": "withdraw",
      "outputs": [],
      "stateMutability": "nonpayable",
      "type": "function"
    },
    {
      "inputs": [
        {
          "internalType": "uint256",
          "name": "_poolId",
          "type": "uint256"
        }
      ],
      "name": "claim",
      "outputs": [],
      "stateMutability": "nonpayable",
      "type": "function"
    },
    {
      "inputs": [
        {
          "internalType": "uint256",
          "name": "_poolId",
          "type": "uint256"
        }
      ],
      "name": "exit",
      "outputs": [],
      "stateMutability": "nonpayable",
      "type": "function"
    },
    {
      "inputs": [],
      "name": "rewardRate",
      "outputs": [
        {
          "internalType": "uint256",
          "name": "",
          "type": "uint256"
        }
      ],
      "stateMutability": "view",
      "type": "function"
    },
    {
      "inputs": [],
      "name": "totalRewardWeight",
      "outputs": [
        {
          "internalType": "uint256",
          "name": "",
          "type": "uint256"
        }
      ],
      "stateMutability": "view",
      "type": "function"
    },
    {
      "inputs": [],
      "name": "poolCount",
      "outputs": [
        {
          "internalType": "uint256",
          "name": "",
          "type": "uint256"
        }
      ],
      "stateMutability": "view",
      "type": "function"
    },
    {
      "inputs": [
        {
          "internalType": "uint256",
          "name": "_poolId",
          "type": "uint256"
        }
      ],
      "name": "getPoolToken",
      "outputs": [
        {
          "internalType": "contract IERC20",
          "name": "",
          "type": "address"
        }
      ],
      "stateMutability": "view",
      "type": "function"
    },
    {
      "inputs": [
        {
          "internalType": "uint256",
          "name": "_poolId",
          "type": "uint256"
        }
      ],
      "name": "getPoolTotalDeposited",
      "outputs": [
        {
          "internalType": "uint256",
          "name": "",
          "type": "uint256"
        }
      ],
      "stateMutability": "view",
      "type": "function"
    },
    {
      "inputs": [
        {
          "internalType": "uint256",
          "name": "_poolId",
          "type": "uint256"
        }
      ],
      "name": "getPoolRewardWeight",
      "outputs": [
        {
          "internalType": "uint256",
          "name": "",
          "type": "uint256"
        }
      ],
      "stateMutability": "view",
      "type": "function"
    },
    {
      "inputs": [
        {
          "internalType": "uint256",
          "name": "_poolId",
          "type": "uint256"
        }
      ],
      "name": "getPoolRewardRate",
      "outputs": [
        {
          "internalType": "uint256",
          "name": "",
          "type": "uint256"
        }
      ],
      "stateMutability": "view",
      "type": "function"
    },
    {
      "inputs": [
        {
          "internalType": "address",
          "name": "_account",
          "type": "address"
        },
        {
          "internalType": "uint256",
          "name": "_poolId",
          "type": "uint256"
        }
      ],
      "name": "getStakeTotalDeposited",
      "outputs": [
        {
          "internalType": "uint256",
          "name": "",
          "type": "uint256"
        }
      ],
      "stateMutability": "view",
      "type": "function"
    },
    {
      "inputs": [
        {
          "internalType": "address",
          "name": "_account",
          "type": "address"
        },
        {
          "internalType": "uint256",
          "name": "_poolId",
          "type": "uint256"
        }
      ],
      "name": "getStakeTotalUnclaimed",
      "outputs": [
        {
          "internalType": "uint256",
          "name": "",
          "type": "uint256"
        }
      ],
      "stateMutability": "view",
      "type": "function"
    }
  ],
  "bytecode": "0x60806040523480156200001157600080fd5b5060405162001f3838038062001f388339810160408190526200003491620000b7565b6001600055600160a060020a03811662000085576040517f08c379a00000000000000000000000000000000000000000000000000000000081526004016200007c90620000f5565b60405180910390fd5b60018054600160a060020a03938416600160a060020a031991821617909155600280549290931691161790556200016b565b60008060408385031215620000ca578182fd5b8251620000d78162000152565b6020840151909250620000ea8162000152565b809150509250929050565b6020808252602e908201527f5374616b696e67506f6f6c733a20676f7665726e616e6365206164647265737360408201527f2063616e6e6f7420626520307830000000000000000000000000000000000000606082015260800190565b600160a060020a03811681146200016857600080fd5b50565b611dbd806200017b6000396000f3fe608060405234801561001057600080fd5b506004361061019f576000357c0100000000000000000000000000000000000000000000000000000000900480637f8661a1116100f5578063acfc5b6d116100a9578063eda7c59911610083578063eda7c599146102fb578063f39c38a01461030e578063f525cb68146103165761019f565b8063acfc5b6d146102cd578063d64b84b5146102e0578063e2bbb158146102e85761019f565b8063895a9e09116100da578063895a9e09146102945780639049f9d2146102a75780639e447fc6146102ba5761019f565b80637f8661a11461026e5780637fd115d7146102815761019f565b806339664a31116101575780635ac2f301116101315780635ac2f301146102405780636e5105c2146102535780637b0a47ee146102665761019f565b806339664a3114610205578063441a3e70146102255780635aa6e675146102385761019f565b8063228cb73311610188578063228cb733146101cc578063238efcbc146101ea578063379607f5146101f25761019f565b80630361ca5a146101a45780630abb6035146101b9575b600080fd5b6101b76101b23660046117ae565b61031e565b005b6101b76101c7366004611767565b6104b7565b6101d46105d0565b6040516101e19190611892565b60405180910390f35b6101b76105ec565b6101b761020036600461183d565b6106b3565b610218610213366004611767565b610748565b6040516101e19190611d30565b6101b7610233366004611855565b61075a565b6101d46107fa565b61021861024e36600461183d565b610816565b61021861026136600461183d565b61082f565b610218610848565b6101b761027c36600461183d565b61084e565b61021861028f366004611783565b6108e7565b6102186102a236600461183d565b610938565b6102186102b5366004611767565b61095a565b6101b76102c836600461183d565b610ad2565b6102186102db366004611783565b610b60565b610218610b95565b6101b76102f6366004611855565b610b9b565b6101d461030936600461183d565b610c27565b6101d4610c53565b610218610c6f565b60025473ffffffffffffffffffffffffffffffffffffffff163314610378576040517f08c379a000000000000000000000000000000000000000000000000000000000815260040161036f90611aba565b60405180910390fd5b6103826007610c80565b81146103ba576040517f08c379a000000000000000000000000000000000000000000000000000000000815260040161036f90611c9c565b6103c2610c84565b60065460005b6103d26007610c80565b8110156104af5760006103e6600783610cbe565b60028101549091508585848181106103fa57fe5b9050602002013581141561040f5750506104a7565b61043e86868581811061041e57fe5b905060200201356104388387610ce590919063ffffffff16565b90610d27565b935085858481811061044c57fe5b6020029190910135600284015550827f4ca01fb9384991e6b301fe0ac5263aa1e34e2ea1a96dc91393e5bf3e3c34c66487878381811061048857fe5b9050602002013560405161049c9190611d30565b60405180910390a250505b6001016103c8565b506006555050565b60025473ffffffffffffffffffffffffffffffffffffffff163314610508576040517f08c379a000000000000000000000000000000000000000000000000000000000815260040161036f90611aba565b73ffffffffffffffffffffffffffffffffffffffff8116610555576040517f08c379a000000000000000000000000000000000000000000000000000000000815260040161036f9061195b565b600380547fffffffffffffffffffffffff00000000000000000000000000000000000000001673ffffffffffffffffffffffffffffffffffffffff83161790556040517fc9e2377236eab4280090ce8f2317332649736d92f00dcf20a8dd6684ec5e7839906105c5908390611892565b60405180910390a150565b60015473ffffffffffffffffffffffffffffffffffffffff1681565b60035473ffffffffffffffffffffffffffffffffffffffff16331461063d576040517f08c379a000000000000000000000000000000000000000000000000000000000815260040161036f90611b85565b600354600280547fffffffffffffffffffffffff00000000000000000000000000000000000000001673ffffffffffffffffffffffffffffffffffffffff90921691821790556040517f9d3e522e1e47a2f6009739342b9cc7b252a1888154e843ab55ee1c81745795ab906105c5908390611892565b600260005414156106f0576040517f08c379a000000000000000000000000000000000000000000000000000000000815260040161036f90611cf9565b60026000908155610702600783610cbe565b905061070f816005610d66565b336000908152600860209081526040808320858452909152902061073581836005610d80565b61073e83610da8565b5050600160005550565b60046020526000908152604090205481565b60026000541415610797576040517f08c379a000000000000000000000000000000000000000000000000000000000815260040161036f90611cf9565b600260009081556107a9600784610cbe565b90506107b6816005610d66565b33600090815260086020908152604080832086845290915290206107dc81836005610d80565b6107e584610da8565b6107ef8484610ea9565b505060016000555050565b60025473ffffffffffffffffffffffffffffffffffffffff1681565b600080610824600784610cbe565b600201549392505050565b60008061083d600784610cbe565b600101549392505050565b60055490565b6002600054141561088b576040517f08c379a000000000000000000000000000000000000000000000000000000000815260040161036f90611cf9565b6002600090815561089d600783610cbe565b90506108aa816005610d66565b33600090815260086020908152604080832085845290915290206108d081836005610d80565b6108d983610da8565b61073e838260000154610ea9565b73ffffffffffffffffffffffffffffffffffffffff82166000908152600860209081526040808320848452909152812061092e610925600785610cbe565b82906005610f6e565b9150505b92915050565b600080610946600784610cbe565b9050610953816005610ff9565b9392505050565b60025460009073ffffffffffffffffffffffffffffffffffffffff1633146109ae576040517f08c379a000000000000000000000000000000000000000000000000000000000815260040161036f90611aba565b73ffffffffffffffffffffffffffffffffffffffff821660009081526004602052604090205415610a0b576040517f08c379a000000000000000000000000000000000000000000000000000000000815260040161036f90611be2565b6000610a176007610c80565b9050610a7a6040518060a001604052808573ffffffffffffffffffffffffffffffffffffffff168152602001600081526020016000815260200160405180602001604052806000815250815260200143815250600761102490919063ffffffff16565b73ffffffffffffffffffffffffffffffffffffffff83166000818152600460205260408082206001850190555183917f65fc0eb45954044fb55e1b01344d5d72fbfdf88e732d955f73bb7fb2bcc131e991a392915050565b60025473ffffffffffffffffffffffffffffffffffffffff163314610b23576040517f08c379a000000000000000000000000000000000000000000000000000000000815260040161036f90611aba565b610b2b610c84565b60058190556040517f41d466ebd06fb97e7786086ac8b69b7eb7da798592036251291d34e9791cde01906105c5908390611d30565b73ffffffffffffffffffffffffffffffffffffffff919091166000908152600860209081526040808320938352929052205490565b60065490565b60026000541415610bd8576040517f08c379a000000000000000000000000000000000000000000000000000000000815260040161036f90611cf9565b60026000908155610bea600784610cbe565b9050610bf7816005610d66565b3360009081526008602090815260408083208684529091529020610c1d81836005610d80565b6107ef84846110ae565b600080610c35600784610cbe565b5473ffffffffffffffffffffffffffffffffffffffff169392505050565b60035473ffffffffffffffffffffffffffffffffffffffff1681565b6000610c7b6007610c80565b905090565b5490565b60005b610c916007610c80565b811015610cbb576000610ca5600783610cbe565b9050610cb2816005610d66565b50600101610c87565b50565b6000826000018281548110610ccf57fe5b9060005260206000209060050201905092915050565b600082821115610d21576040517f08c379a000000000000000000000000000000000000000000000000000000000815260040161036f906119ef565b50900390565b600082820183811015610953576040517f08c379a000000000000000000000000000000000000000000000000000000000815260040161036f906119b8565b610d708282611166565b5160038301555043600490910155565b610d8b838383610f6e565b6001840155610d9a8282611166565b516002909301929092555050565b336000818152600860209081526040808320858452909152808220600180820180549490555491517f40c10f19000000000000000000000000000000000000000000000000000000008152909373ffffffffffffffffffffffffffffffffffffffff909216916340c10f1991610e23919085906004016118b3565b600060405180830381600087803b158015610e3d57600080fd5b505af1158015610e51573d6000803e3d6000fd5b50505050823373ffffffffffffffffffffffffffffffffffffffff167f9923b4306c6c030f2bdfbf156517d5983b87e15b96176da122cd4f2effa4ba7b83604051610e9c9190611d30565b60405180910390a3505050565b6000610eb6600784610cbe565b3360009081526008602090815260408083208784529091529020600182015491925090610ee39084610ce5565b60018301558054610ef49084610ce5565b81558154610f199073ffffffffffffffffffffffffffffffffffffffff163385611244565b833373ffffffffffffffffffffffffffffffffffffffff167fffe903c0abe6b2dbb2f3474ef43d7a3c1fca49e5a774453423ca8e1952aabffa85604051610f609190611d30565b60405180910390a350505050565b6000610f78611754565b610f828484611166565b9050610f8c611754565b50604080516020810190915260028601548152610fa98282611306565b610fba575050506001830154610953565b8554600090610fdc90610fd790610fd18686611355565b90611385565b6113b3565b6001880154909150610fee9082610d27565b979650505050505050565b6000610953826001015461101e856002015485600001546113c290919063ffffffff16565b90611416565b8154600180820184556000938452602093849020835160059093020180547fffffffffffffffffffffffff00000000000000000000000000000000000000001673ffffffffffffffffffffffffffffffffffffffff909316929092178255928201519281019290925560408101516002830155606081015151600383015560800151600490910155565b60006110bb600784610cbe565b33600090815260086020908152604080832087845290915290206001820154919250906110e89084610d27565b600183015580546110f99084610d27565b8155815461111f9073ffffffffffffffffffffffffffffffffffffffff16333086611462565b833373ffffffffffffffffffffffffffffffffffffffff167ffdfdcf596161b0e81e3161597d46888dcc88bd83b22dcfb341c76377ca3bbc9e85604051610f609190611d30565b61116e611754565b600183015461118f5750604080516020810190915260038301548152610932565b60006111a8846004015443610ce590919063ffffffff16565b9050806111c8575050604080516020810190915260038301548152610932565b60006111d48585610ff9565b905060006111e282846113c2565b90508061120657505060408051602081019091526003850154815291506109329050565b61120e611754565b611225876001015461121f846114a5565b906114e7565b604080516020810190915260038901548152909150610fee908261151b565b6113018363a9059cbb7c010000000000000000000000000000000000000000000000000000000002848460405160240161127f9291906118b3565b604080517fffffffffffffffffffffffffffffffffffffffffffffffffffffffffffffffe08184030181529190526020810180517bffffffffffffffffffffffffffffffffffffffffffffffffffffffff167fffffffff0000000000000000000000000000000000000000000000000000000090931692909217909152611536565b505050565b80518251600091111561133a57507fffffffffffffffffffffffffffffffffffffffffffffffffffffffffffffffff610932565b81518351111561134c57506001610932565b50600092915050565b61135d611754565b8251825181039081111561137057600080fd5b60408051602081019091529081529392505050565b61138d611754565b60008215806113aa5750508251828102908382816113a757fe5b04145b61137057600080fd5b51670de0b6b3a7640000900490565b6000826113d157506000610932565b828202828482816113de57fe5b0414610953576040517f08c379a000000000000000000000000000000000000000000000000000000000815260040161036f90611af1565b6000808211611451576040517f08c379a000000000000000000000000000000000000000000000000000000000815260040161036f90611a83565b81838161145a57fe5b049392505050565b61149f846323b872dd7c01000000000000000000000000000000000000000000000000000000000285858560405160240161127f939291906118d9565b50505050565b6114ad611754565b60008215806114ca575050670de0b6b3a764000082810290810483145b6114d357600080fd5b604080516020810190915290815292915050565b6114ef611754565b816114f957600080fd5b60405180602001604052808385600001518161151157fe5b0490529392505050565b611523611754565b8251825181019081101561137057600080fd5b6060611598826040518060400160405280602081526020017f5361666545524332303a206c6f772d6c6576656c2063616c6c206661696c65648152508573ffffffffffffffffffffffffffffffffffffffff166115ec9092919063ffffffff16565b80519091501561130157808060200190518101906115b6919061181d565b611301576040517f08c379a000000000000000000000000000000000000000000000000000000000815260040161036f90611c3f565b60606115fb8484600085611603565b949350505050565b60603031831115611640576040517f08c379a000000000000000000000000000000000000000000000000000000000815260040161036f90611a26565b611649856116fb565b61167f576040517f08c379a000000000000000000000000000000000000000000000000000000000815260040161036f90611b4e565b600060608673ffffffffffffffffffffffffffffffffffffffff1685876040516116a99190611876565b60006040518083038185875af1925050503d80600081146116e6576040519150601f19603f3d011682016040523d82523d6000602084013e6116eb565b606091505b5091509150610fee828286611701565b3b151590565b60608315611710575081610953565b8251156117205782518084602001fd5b816040517f08c379a000000000000000000000000000000000000000000000000000000000815260040161036f919061190a565b6040518060200160405280600081525090565b600060208284031215611778578081fd5b813561095381611d65565b60008060408385031215611795578081fd5b82356117a081611d65565b946020939093013593505050565b600080602083850312156117c0578182fd5b823567ffffffffffffffff808211156117d7578384fd5b818501915085601f8301126117ea578384fd5b8135818111156117f8578485fd5b866020808302850101111561180b578485fd5b60209290920196919550909350505050565b60006020828403121561182e578081fd5b81518015158114610953578182fd5b60006020828403121561184e578081fd5b5035919050565b60008060408385031215611867578182fd5b50508035926020909101359150565b60008251611888818460208701611d39565b9190910192915050565b73ffffffffffffffffffffffffffffffffffffffff91909116815260200190565b73ffffffffffffffffffffffffffffffffffffffff929092168252602082015260400190565b73ffffffffffffffffffffffffffffffffffffffff9384168152919092166020820152604081019190915260600190565b6000602082528251806020840152611929816040850160208701611d39565b601f017fffffffffffffffffffffffffffffffffffffffffffffffffffffffffffffffe0169190910160400192915050565b60208082526036908201527f5374616b696e67506f6f6c733a2070656e64696e6720676f7665726e616e636560408201527f20616464726573732063616e6e6f742062652030783000000000000000000000606082015260800190565b6020808252601b908201527f536166654d6174683a206164646974696f6e206f766572666c6f770000000000604082015260600190565b6020808252601e908201527f536166654d6174683a207375627472616374696f6e206f766572666c6f770000604082015260600190565b60208082526026908201527f416464726573733a20696e73756666696369656e742062616c616e636520666f60408201527f722063616c6c0000000000000000000000000000000000000000000000000000606082015260800190565b6020808252601a908201527f536166654d6174683a206469766973696f6e206279207a65726f000000000000604082015260600190565b6020808252601d908201527f5374616b696e67506f6f6c733a206f6e6c7920676f7665726e616e6365000000604082015260600190565b60208082526021908201527f536166654d6174683a206d756c7469706c69636174696f6e206f766572666c6f60408201527f7700000000000000000000000000000000000000000000000000000000000000606082015260800190565b6020808252601d908201527f416464726573733a2063616c6c20746f206e6f6e2d636f6e7472616374000000604082015260600190565b60208082526025908201527f5374616b696e67506f6f6c733a206f6e6c792070656e64696e6720676f76657260408201527f6e616e6365000000000000000000000000000000000000000000000000000000606082015260800190565b60208082526026908201527f5374616b696e67506f6f6c733a20746f6b656e20616c7265616479206861732060408201527f6120706f6f6c0000000000000000000000000000000000000000000000000000606082015260800190565b6020808252602a908201527f5361666545524332303a204552433230206f7065726174696f6e20646964206e60408201527f6f74207375636365656400000000000000000000000000000000000000000000606082015260800190565b60208082526025908201527f5374616b696e67506f6f6c733a2077656967687473206c656e677468206d697360408201527f6d61746368000000000000000000000000000000000000000000000000000000606082015260800190565b6020808252601f908201527f5265656e7472616e637947756172643a207265656e7472616e742063616c6c00604082015260600190565b90815260200190565b60005b83811015611d54578181015183820152602001611d3c565b8381111561149f5750506000910152565b73ffffffffffffffffffffffffffffffffffffffff81168114610cbb57600080fdfea2646970667358221220d76aee81a41b4dde9d2b838a935de11dd7eb5796b9a755eb5b3c2dddb3f862a864736f6c634300060c0033",
  "immutableReferences": {},
  "source": "// SPDX-License-Identifier: GPL-3.0\npragma solidity ^0.6.12;\npragma experimental ABIEncoderV2;\n\n//import \"hardhat/console.sol\";\n\nimport {IERC20} from \"@openzeppelin/contracts/token/ERC20/IERC20.sol\";\nimport {Ownable} from \"@openzeppelin/contracts/access/Ownable.sol\";\nimport {ReentrancyGuard} from \"@openzeppelin/contracts/utils/ReentrancyGuard.sol\";\nimport {SafeMath} from \"@openzeppelin/contracts/math/SafeMath.sol\";\nimport {SafeERC20} from \"@openzeppelin/contracts/token/ERC20/SafeERC20.sol\";\n\nimport {FixedPointMath} from \"./libraries/FixedPointMath.sol\";\nimport {IMintableERC20} from \"./interfaces/IMintableERC20.sol\";\nimport {Pool} from \"./libraries/pools/Pool.sol\";\nimport {Stake} from \"./libraries/pools/Stake.sol\";\nimport {StakingPools} from \"./StakingPools.sol\";\n\nimport \"hardhat/console.sol\";\n\n/// @title StakingPools\n//    ___    __        __                _               ___                              __         _ \n//   / _ |  / / ____  / /  ___   __ _   (_) __ __       / _ \\  ____ ___   ___ ___   ___  / /_  ___  (_)\n//  / __ | / / / __/ / _ \\/ -_) /  ' \\ / /  \\ \\ /      / ___/ / __// -_) (_-</ -_) / _ \\/ __/ (_-< _   \n// /_/ |_|/_/  \\__/ /_//_/\\__/ /_/_/_//_/  /_\\_\\      /_/    /_/   \\__/ /___/\\__/ /_//_/\\__/ /___/(_)  \n//  \n//      _______..___________.     ___       __  ___  __  .__   __.   _______    .______     ______     ______    __           _______.\n//     /       ||           |    /   \\     |  |/  / |  | |  \\ |  |  /  _____|   |   _  \\   /  __  \\   /  __  \\  |  |         /       |\n//    |   (----``---|  |----`   /  ^  \\    |  '  /  |  | |   \\|  | |  |  __     |  |_)  | |  |  |  | |  |  |  | |  |        |   (----`\n//     \\   \\        |  |       /  /_\\  \\   |    <   |  | |  . `  | |  | |_ |    |   ___/  |  |  |  | |  |  |  | |  |         \\   \\    \n// .----)   |       |  |      /  _____  \\  |  .  \\  |  | |  |\\   | |  |__| |    |  |      |  `--'  | |  `--'  | |  `----..----)   |   \n// |_______/        |__|     /__/     \\__\\ |__|\\__\\ |__| |__| \\__|  \\______|    | _|       \\______/   \\______/  |_______||_______/                                                                                                                                \n///\n/// @dev A contract which allows users to stake to farm tokens.\n///\n/// This contract was inspired by Chef Nomi's 'MasterChef' contract which can be found in this\n/// repository: https://github.com/sushiswap/sushiswap.\ncontract StakingPools is ReentrancyGuard {\n  using FixedPointMath for FixedPointMath.FixedDecimal;\n  using Pool for Pool.Data;\n  using Pool for Pool.List;\n  using SafeERC20 for IERC20;\n  using SafeMath for uint256;\n  using Stake for Stake.Data;\n\n  event PendingGovernanceUpdated(\n    address pendingGovernance\n  );\n\n  event GovernanceUpdated(\n    address governance\n  );\n\n  event RewardRateUpdated(\n    uint256 rewardRate\n  );\n\n  event PoolRewardWeightUpdated(\n    uint256 indexed poolId,\n    uint256 rewardWeight\n  );\n\n  event PoolCreated(\n    uint256 indexed poolId,\n    IERC20 indexed token\n  );\n\n  event TokensDeposited(\n    address indexed user,\n    uint256 indexed poolId,\n    uint256 amount\n  );\n\n  event TokensWithdrawn(\n    address indexed user,\n    uint256 indexed poolId,\n    uint256 amount\n  );\n\n  event TokensClaimed(\n    address indexed user,\n    uint256 indexed poolId,\n    uint256 amount\n  );\n\n  /// @dev The token which will be minted as a reward for staking.\n  IMintableERC20 public reward;\n\n  /// @dev The address of the account which currently has administrative capabilities over this contract.\n  address public governance;\n\n  address public pendingGovernance;\n\n  /// @dev Tokens are mapped to their pool identifier plus one. Tokens that do not have an associated pool\n  /// will return an identifier of zero.\n  mapping(IERC20 => uint256) public tokenPoolIds;\n\n  /// @dev The context shared between the pools.\n  Pool.Context private _ctx;\n\n  /// @dev A list of all of the pools.\n  Pool.List private _pools;\n\n  /// @dev A mapping of all of the user stakes mapped first by pool and then by address.\n  mapping(address => mapping(uint256 => Stake.Data)) private _stakes;\n\n  constructor(\n    IMintableERC20 _reward,\n    address _governance\n  ) public {\n    require(_governance != address(0), \"StakingPools: governance address cannot be 0x0\");\n\n    reward = _reward;\n    governance = _governance;\n  }\n\n  /// @dev A modifier which reverts when the caller is not the governance.\n  modifier onlyGovernance() {\n    require(msg.sender == governance, \"StakingPools: only governance\");\n    _;\n  }\n\n  /// @dev Sets the governance.\n  ///\n  /// This function can only called by the current governance.\n  ///\n  /// @param _pendingGovernance the new pending governance.\n  function setPendingGovernance(address _pendingGovernance) external onlyGovernance {\n    require(_pendingGovernance != address(0), \"StakingPools: pending governance address cannot be 0x0\");\n    pendingGovernance = _pendingGovernance;\n\n    emit PendingGovernanceUpdated(_pendingGovernance);\n  }\n\n  function acceptGovernance() external {\n    require(msg.sender == pendingGovernance, \"StakingPools: only pending governance\");\n\n    address _pendingGovernance = pendingGovernance;\n    governance = _pendingGovernance;\n\n    emit GovernanceUpdated(_pendingGovernance);\n  }\n\n  /// @dev Sets the distribution reward rate.\n  ///\n  /// This will update all of the pools.\n  ///\n  /// @param _rewardRate The number of tokens to distribute per second.\n  function setRewardRate(uint256 _rewardRate) external onlyGovernance {\n    _updatePools();\n\n    _ctx.rewardRate = _rewardRate;\n\n    emit RewardRateUpdated(_rewardRate);\n  }\n\n  /// @dev Creates a new pool.\n  ///\n  /// The created pool will need to have its reward weight initialized before it begins generating rewards.\n  ///\n  /// @param _token The token the pool will accept for staking.\n  ///\n  /// @return the identifier for the newly created pool.\n  function createPool(IERC20 _token) external onlyGovernance returns (uint256) {\n    require(tokenPoolIds[_token] == 0, \"StakingPools: token already has a pool\");\n\n    uint256 _poolId = _pools.length();\n\n    _pools.push(Pool.Data({\n      token: _token,\n      totalDeposited: 0,\n      rewardWeight: 0,\n      accumulatedRewardWeight: FixedPointMath.FixedDecimal(0),\n      lastUpdatedBlock: block.number\n    }));\n\n    tokenPoolIds[_token] = _poolId + 1;\n\n    emit PoolCreated(_poolId, _token);\n\n    return _poolId;\n  }\n\n  /// @dev Sets the reward weights of all of the pools.\n  ///\n  /// @param _rewardWeights The reward weights of all of the pools.\n  function setRewardWeights(uint256[] calldata _rewardWeights) external onlyGovernance {\n    require(_rewardWeights.length == _pools.length(), \"StakingPools: weights length mismatch\");\n\n    _updatePools();\n\n    uint256 _totalRewardWeight = _ctx.totalRewardWeight;\n    for (uint256 _poolId = 0; _poolId < _pools.length(); _poolId++) {\n      Pool.Data storage _pool = _pools.get(_poolId);\n\n      uint256 _currentRewardWeight = _pool.rewardWeight;\n      if (_currentRewardWeight == _rewardWeights[_poolId]) {\n        continue;\n      }\n\n      // FIXME\n      _totalRewardWeight = _totalRewardWeight.sub(_currentRewardWeight).add(_rewardWeights[_poolId]);\n      _pool.rewardWeight = _rewardWeights[_poolId];\n\n      emit PoolRewardWeightUpdated(_poolId, _rewardWeights[_poolId]);\n    }\n\n    _ctx.totalRewardWeight = _totalRewardWeight;\n  }\n\n  /// @dev Stakes tokens into a pool.\n  ///\n  /// @param _poolId        the pool to deposit tokens into.\n  /// @param _depositAmount the amount of tokens to deposit.\n  function deposit(uint256 _poolId, uint256 _depositAmount) external nonReentrant {\n    Pool.Data storage _pool = _pools.get(_poolId);\n    _pool.update(_ctx);\n\n    Stake.Data storage _stake = _stakes[msg.sender][_poolId];\n    _stake.update(_pool, _ctx);\n\n    _deposit(_poolId, _depositAmount);\n  }\n\n  /// @dev Withdraws staked tokens from a pool.\n  ///\n  /// @param _poolId          The pool to withdraw staked tokens from.\n  /// @param _withdrawAmount  The number of tokens to withdraw.\n  function withdraw(uint256 _poolId, uint256 _withdrawAmount) external nonReentrant {\n    Pool.Data storage _pool = _pools.get(_poolId);\n    _pool.update(_ctx);\n\n    Stake.Data storage _stake = _stakes[msg.sender][_poolId];\n    _stake.update(_pool, _ctx);\n    \n    _claim(_poolId);\n    _withdraw(_poolId, _withdrawAmount);\n  }\n\n  /// @dev Claims all rewarded tokens from a pool.\n  ///\n  /// @param _poolId The pool to claim rewards from.\n  ///\n  /// @notice use this function to claim the tokens from a corresponding pool by ID.\n  function claim(uint256 _poolId) external nonReentrant {\n    Pool.Data storage _pool = _pools.get(_poolId);\n    _pool.update(_ctx);\n\n    Stake.Data storage _stake = _stakes[msg.sender][_poolId];\n    _stake.update(_pool, _ctx);\n\n    _claim(_poolId);\n  }\n\n  /// @dev Claims all rewards from a pool and then withdraws all staked tokens.\n  ///\n  /// @param _poolId the pool to exit from.\n  function exit(uint256 _poolId) external nonReentrant {\n    Pool.Data storage _pool = _pools.get(_poolId);\n    _pool.update(_ctx);\n\n    Stake.Data storage _stake = _stakes[msg.sender][_poolId];\n    _stake.update(_pool, _ctx);\n\n    _claim(_poolId);\n    _withdraw(_poolId, _stake.totalDeposited);\n  }\n\n  /// @dev Gets the rate at which tokens are minted to stakers for all pools.\n  ///\n  /// @return the reward rate.\n  function rewardRate() external view returns (uint256) {\n    return _ctx.rewardRate;\n  }\n\n  /// @dev Gets the total reward weight between all the pools.\n  ///\n  /// @return the total reward weight.\n  function totalRewardWeight() external view returns (uint256) {\n    return _ctx.totalRewardWeight;\n  }\n\n  /// @dev Gets the number of pools that exist.\n  ///\n  /// @return the pool count.\n  function poolCount() external view returns (uint256) {\n    return _pools.length();\n  }\n\n  /// @dev Gets the token a pool accepts.\n  ///\n  /// @param _poolId the identifier of the pool.\n  ///\n  /// @return the token.\n  function getPoolToken(uint256 _poolId) external view returns (IERC20) {\n    Pool.Data storage _pool = _pools.get(_poolId);\n    return _pool.token;\n  }\n\n  /// @dev Gets the total amount of funds staked in a pool.\n  ///\n  /// @param _poolId the identifier of the pool.\n  ///\n  /// @return the total amount of staked or deposited tokens.\n  function getPoolTotalDeposited(uint256 _poolId) external view returns (uint256) {\n    Pool.Data storage _pool = _pools.get(_poolId);\n    return _pool.totalDeposited;\n  }\n\n  /// @dev Gets the reward weight of a pool which determines how much of the total rewards it receives per block.\n  ///\n  /// @param _poolId the identifier of the pool.\n  ///\n  /// @return the pool reward weight.\n  function getPoolRewardWeight(uint256 _poolId) external view returns (uint256) {\n    Pool.Data storage _pool = _pools.get(_poolId);\n    return _pool.rewardWeight;\n  }\n\n  /// @dev Gets the amount of tokens per block being distributed to stakers for a pool.\n  ///\n  /// @param _poolId the identifier of the pool.\n  ///\n  /// @return the pool reward rate.\n  function getPoolRewardRate(uint256 _poolId) external view returns (uint256) {\n    Pool.Data storage _pool = _pools.get(_poolId);\n    return _pool.getRewardRate(_ctx);\n  }\n\n  /// @dev Gets the number of tokens a user has staked into a pool.\n  ///\n  /// @param _account The account to query.\n  /// @param _poolId  the identifier of the pool.\n  ///\n  /// @return the amount of deposited tokens.\n  function getStakeTotalDeposited(address _account, uint256 _poolId) external view returns (uint256) {\n    Stake.Data storage _stake = _stakes[_account][_poolId];\n    return _stake.totalDeposited;\n  }\n\n  /// @dev Gets the number of unclaimed reward tokens a user can claim from a pool.\n  ///\n  /// @param _account The account to get the unclaimed balance of.\n  /// @param _poolId  The pool to check for unclaimed rewards.\n  ///\n  /// @return the amount of unclaimed reward tokens a user has in a pool.\n  function getStakeTotalUnclaimed(address _account, uint256 _poolId) external view returns (uint256) {\n    Stake.Data storage _stake = _stakes[_account][_poolId];\n    return _stake.getUpdatedTotalUnclaimed(_pools.get(_poolId), _ctx);\n  }\n\n  /// @dev Updates all of the pools.\n  function _updatePools() internal {\n    for (uint256 _poolId = 0; _poolId < _pools.length(); _poolId++) {\n      Pool.Data storage _pool = _pools.get(_poolId);\n      _pool.update(_ctx);\n    }\n  }\n\n  /// @dev Stakes tokens into a pool.\n  ///\n  /// The pool and stake MUST be updated before calling this function.\n  ///\n  /// @param _poolId        the pool to deposit tokens into.\n  /// @param _depositAmount the amount of tokens to deposit.\n  function _deposit(uint256 _poolId, uint256 _depositAmount) internal {\n    Pool.Data storage _pool = _pools.get(_poolId);\n    Stake.Data storage _stake = _stakes[msg.sender][_poolId];\n\n    _pool.totalDeposited = _pool.totalDeposited.add(_depositAmount);\n    _stake.totalDeposited = _stake.totalDeposited.add(_depositAmount);\n\n    _pool.token.safeTransferFrom(msg.sender, address(this), _depositAmount);\n\n    emit TokensDeposited(msg.sender, _poolId, _depositAmount);\n  }\n\n  /// @dev Withdraws staked tokens from a pool.\n  ///\n  /// The pool and stake MUST be updated before calling this function.\n  ///\n  /// @param _poolId          The pool to withdraw staked tokens from.\n  /// @param _withdrawAmount  The number of tokens to withdraw.\n  function _withdraw(uint256 _poolId, uint256 _withdrawAmount) internal {\n    Pool.Data storage _pool = _pools.get(_poolId);\n    Stake.Data storage _stake = _stakes[msg.sender][_poolId];\n\n    _pool.totalDeposited = _pool.totalDeposited.sub(_withdrawAmount);\n    _stake.totalDeposited = _stake.totalDeposited.sub(_withdrawAmount);\n\n    _pool.token.safeTransfer(msg.sender, _withdrawAmount);\n\n    emit TokensWithdrawn(msg.sender, _poolId, _withdrawAmount);\n  }\n\n  /// @dev Claims all rewarded tokens from a pool.\n  ///\n  /// The pool and stake MUST be updated before calling this function.\n  ///\n  /// @param _poolId The pool to claim rewards from.\n  ///\n  /// @notice use this function to claim the tokens from a corresponding pool by ID.\n  function _claim(uint256 _poolId) internal {\n    Stake.Data storage _stake = _stakes[msg.sender][_poolId];\n\n    uint256 _claimAmount = _stake.totalUnclaimed;\n    _stake.totalUnclaimed = 0;\n\n    reward.mint(msg.sender, _claimAmount);\n\n    emit TokensClaimed(msg.sender, _poolId, _claimAmount);\n  }\n}\n",
  "sourcePath": "/Users/shr1ftyy/Personal/Computing/bounties/alcx/alchemix-protocol/contracts/StakingPools.sol",
  "compiler": {
    "name": "solc",
    "version": "0.6.12+commit.27d51765.Emscripten.clang"
  },
  "schemaVersion": "3.4.4",
  "updatedAt": "2022-01-11T09:34:07.442Z",
  "devdoc": {
    "details": "A contract which allows users to stake to farm tokens. This contract was inspired by Chef Nomi's 'MasterChef' contract which can be found in this repository: https://github.com/sushiswap/sushiswap.",
    "kind": "dev",
    "methods": {
      "claim(uint256)": {
        "details": "Claims all rewarded tokens from a pool.",
        "params": {
          "_poolId": "The pool to claim rewards from."
        }
      },
      "createPool(address)": {
        "details": "Creates a new pool. The created pool will need to have its reward weight initialized before it begins generating rewards.",
        "params": {
          "_token": "The token the pool will accept for staking."
        },
        "returns": {
          "_0": "the identifier for the newly created pool."
        }
      },
      "deposit(uint256,uint256)": {
        "details": "Stakes tokens into a pool.",
        "params": {
          "_depositAmount": "the amount of tokens to deposit.",
          "_poolId": "the pool to deposit tokens into."
        }
      },
      "exit(uint256)": {
        "details": "Claims all rewards from a pool and then withdraws all staked tokens.",
        "params": {
          "_poolId": "the pool to exit from."
        }
      },
      "getPoolRewardRate(uint256)": {
        "details": "Gets the amount of tokens per block being distributed to stakers for a pool.",
        "params": {
          "_poolId": "the identifier of the pool."
        },
        "returns": {
          "_0": "the pool reward rate."
        }
      },
      "getPoolRewardWeight(uint256)": {
        "details": "Gets the reward weight of a pool which determines how much of the total rewards it receives per block.",
        "params": {
          "_poolId": "the identifier of the pool."
        },
        "returns": {
          "_0": "the pool reward weight."
        }
      },
      "getPoolToken(uint256)": {
        "details": "Gets the token a pool accepts.",
        "params": {
          "_poolId": "the identifier of the pool."
        },
        "returns": {
          "_0": "the token."
        }
      },
      "getPoolTotalDeposited(uint256)": {
        "details": "Gets the total amount of funds staked in a pool.",
        "params": {
          "_poolId": "the identifier of the pool."
        },
        "returns": {
          "_0": "the total amount of staked or deposited tokens."
        }
      },
      "getStakeTotalDeposited(address,uint256)": {
        "details": "Gets the number of tokens a user has staked into a pool.",
        "params": {
          "_account": "The account to query.",
          "_poolId": "the identifier of the pool."
        },
        "returns": {
          "_0": "the amount of deposited tokens."
        }
      },
      "getStakeTotalUnclaimed(address,uint256)": {
        "details": "Gets the number of unclaimed reward tokens a user can claim from a pool.",
        "params": {
          "_account": "The account to get the unclaimed balance of.",
          "_poolId": "The pool to check for unclaimed rewards."
        },
        "returns": {
          "_0": "the amount of unclaimed reward tokens a user has in a pool."
        }
      },
      "poolCount()": {
        "details": "Gets the number of pools that exist.",
        "returns": {
          "_0": "the pool count."
        }
      },
      "rewardRate()": {
        "details": "Gets the rate at which tokens are minted to stakers for all pools.",
        "returns": {
          "_0": "the reward rate."
        }
      },
      "setPendingGovernance(address)": {
        "details": "Sets the governance. This function can only called by the current governance.",
        "params": {
          "_pendingGovernance": "the new pending governance."
        }
      },
      "setRewardRate(uint256)": {
        "details": "Sets the distribution reward rate. This will update all of the pools.",
        "params": {
          "_rewardRate": "The number of tokens to distribute per second."
        }
      },
      "setRewardWeights(uint256[])": {
        "details": "Sets the reward weights of all of the pools.",
        "params": {
          "_rewardWeights": "The reward weights of all of the pools."
        }
      },
      "totalRewardWeight()": {
        "details": "Gets the total reward weight between all the pools.",
        "returns": {
          "_0": "the total reward weight."
        }
      },
      "withdraw(uint256,uint256)": {
        "details": "Withdraws staked tokens from a pool.",
        "params": {
          "_poolId": "The pool to withdraw staked tokens from.",
          "_withdrawAmount": "The number of tokens to withdraw."
        }
      }
    },
    "stateVariables": {
      "_ctx": {
        "details": "The context shared between the pools."
      },
      "_pools": {
        "details": "A list of all of the pools."
      },
      "_stakes": {
        "details": "A mapping of all of the user stakes mapped first by pool and then by address."
      },
      "governance": {
        "details": "The address of the account which currently has administrative capabilities over this contract."
      },
      "reward": {
        "details": "The token which will be minted as a reward for staking."
      },
      "tokenPoolIds": {
        "details": "Tokens are mapped to their pool identifier plus one. Tokens that do not have an associated pool will return an identifier of zero."
      }
    },
    "version": 1
  },
  "userdoc": {
    "kind": "user",
    "methods": {
      "claim(uint256)": {
        "notice": "use this function to claim the tokens from a corresponding pool by ID."
      }
    },
    "version": 1
  }
}