{
  "contractName": "Transmuter",
  "abi": [
    {
      "inputs": [
        {
          "internalType": "address",
          "name": "_AlToken",
          "type": "address"
        },
        {
          "internalType": "address",
          "name": "_Token",
          "type": "address"
        },
        {
          "internalType": "address",
          "name": "_governance",
          "type": "address"
        }
      ],
      "stateMutability": "nonpayable",
      "type": "constructor"
    },
    {
      "anonymous": false,
      "inputs": [
        {
          "indexed": false,
          "internalType": "address",
          "name": "governance",
          "type": "address"
        }
      ],
      "name": "GovernanceUpdated",
      "type": "event"
    },
    {
      "anonymous": false,
      "inputs": [
        {
          "indexed": false,
          "internalType": "address",
          "name": "pendingGovernance",
          "type": "address"
        }
      ],
      "name": "PendingGovernanceUpdated",
      "type": "event"
    },
    {
      "anonymous": false,
      "inputs": [
        {
          "indexed": false,
          "internalType": "uint256",
          "name": "newTransmutationPeriod",
          "type": "uint256"
        }
      ],
      "name": "TransmuterPeriodUpdated",
      "type": "event"
    },
    {
      "inputs": [],
      "name": "AlToken",
      "outputs": [
        {
          "internalType": "address",
          "name": "",
          "type": "address"
        }
      ],
      "stateMutability": "view",
      "type": "function",
      "constant": true
    },
    {
      "inputs": [],
      "name": "TRANSMUTATION_PERIOD",
      "outputs": [
        {
          "internalType": "uint256",
          "name": "",
          "type": "uint256"
        }
      ],
      "stateMutability": "view",
      "type": "function",
      "constant": true
    },
    {
      "inputs": [],
      "name": "Token",
      "outputs": [
        {
          "internalType": "address",
          "name": "",
          "type": "address"
        }
      ],
      "stateMutability": "view",
      "type": "function",
      "constant": true
    },
    {
      "inputs": [],
      "name": "ZERO_ADDRESS",
      "outputs": [
        {
          "internalType": "address",
          "name": "",
          "type": "address"
        }
      ],
      "stateMutability": "view",
      "type": "function",
      "constant": true
    },
    {
      "inputs": [],
      "name": "buffer",
      "outputs": [
        {
          "internalType": "uint256",
          "name": "",
          "type": "uint256"
        }
      ],
      "stateMutability": "view",
      "type": "function",
      "constant": true
    },
    {
      "inputs": [
        {
          "internalType": "address",
          "name": "",
          "type": "address"
        }
      ],
      "name": "depositedAlTokens",
      "outputs": [
        {
          "internalType": "uint256",
          "name": "",
          "type": "uint256"
        }
      ],
      "stateMutability": "view",
      "type": "function",
      "constant": true
    },
    {
      "inputs": [],
      "name": "governance",
      "outputs": [
        {
          "internalType": "address",
          "name": "",
          "type": "address"
        }
      ],
      "stateMutability": "view",
      "type": "function",
      "constant": true
    },
    {
      "inputs": [],
      "name": "lastDepositBlock",
      "outputs": [
        {
          "internalType": "uint256",
          "name": "",
          "type": "uint256"
        }
      ],
      "stateMutability": "view",
      "type": "function",
      "constant": true
    },
    {
      "inputs": [
        {
          "internalType": "address",
          "name": "",
          "type": "address"
        }
      ],
      "name": "lastDividendPoints",
      "outputs": [
        {
          "internalType": "uint256",
          "name": "",
          "type": "uint256"
        }
      ],
      "stateMutability": "view",
      "type": "function",
      "constant": true
    },
    {
      "inputs": [],
      "name": "nextUser",
      "outputs": [
        {
          "internalType": "uint256",
          "name": "",
          "type": "uint256"
        }
      ],
      "stateMutability": "view",
      "type": "function",
      "constant": true
    },
    {
      "inputs": [],
      "name": "pendingGovernance",
      "outputs": [
        {
          "internalType": "address",
          "name": "",
          "type": "address"
        }
      ],
      "stateMutability": "view",
      "type": "function",
      "constant": true
    },
    {
      "inputs": [],
      "name": "pointMultiplier",
      "outputs": [
        {
          "internalType": "uint256",
          "name": "",
          "type": "uint256"
        }
      ],
      "stateMutability": "view",
      "type": "function",
      "constant": true
    },
    {
      "inputs": [
        {
          "internalType": "address",
          "name": "",
          "type": "address"
        }
      ],
      "name": "realisedTokens",
      "outputs": [
        {
          "internalType": "uint256",
          "name": "",
          "type": "uint256"
        }
      ],
      "stateMutability": "view",
      "type": "function",
      "constant": true
    },
    {
      "inputs": [
        {
          "internalType": "address",
          "name": "",
          "type": "address"
        }
      ],
      "name": "tokensInBucket",
      "outputs": [
        {
          "internalType": "uint256",
          "name": "",
          "type": "uint256"
        }
      ],
      "stateMutability": "view",
      "type": "function",
      "constant": true
    },
    {
      "inputs": [],
      "name": "totalDividendPoints",
      "outputs": [
        {
          "internalType": "uint256",
          "name": "",
          "type": "uint256"
        }
      ],
      "stateMutability": "view",
      "type": "function",
      "constant": true
    },
    {
      "inputs": [],
      "name": "totalSupplyAltokens",
      "outputs": [
        {
          "internalType": "uint256",
          "name": "",
          "type": "uint256"
        }
      ],
      "stateMutability": "view",
      "type": "function",
      "constant": true
    },
    {
      "inputs": [],
      "name": "unclaimedDividends",
      "outputs": [
        {
          "internalType": "uint256",
          "name": "",
          "type": "uint256"
        }
      ],
      "stateMutability": "view",
      "type": "function",
      "constant": true
    },
    {
      "inputs": [
        {
          "internalType": "address",
          "name": "",
          "type": "address"
        }
      ],
      "name": "userIsKnown",
      "outputs": [
        {
          "internalType": "bool",
          "name": "",
          "type": "bool"
        }
      ],
      "stateMutability": "view",
      "type": "function",
      "constant": true
    },
    {
      "inputs": [
        {
          "internalType": "uint256",
          "name": "",
          "type": "uint256"
        }
      ],
      "name": "userList",
      "outputs": [
        {
          "internalType": "address",
          "name": "",
          "type": "address"
        }
      ],
      "stateMutability": "view",
      "type": "function",
      "constant": true
    },
    {
      "inputs": [
        {
          "internalType": "address",
          "name": "",
          "type": "address"
        }
      ],
      "name": "whiteList",
      "outputs": [
        {
          "internalType": "bool",
          "name": "",
          "type": "bool"
        }
      ],
      "stateMutability": "view",
      "type": "function",
      "constant": true
    },
    {
      "inputs": [
        {
          "internalType": "address",
          "name": "account",
          "type": "address"
        }
      ],
      "name": "dividendsOwing",
      "outputs": [
        {
          "internalType": "uint256",
          "name": "",
          "type": "uint256"
        }
      ],
      "stateMutability": "view",
      "type": "function",
      "constant": true
    },
    {
      "inputs": [
        {
          "internalType": "uint256",
          "name": "newTransmutationPeriod",
          "type": "uint256"
        }
      ],
      "name": "setTransmutationPeriod",
      "outputs": [],
      "stateMutability": "nonpayable",
      "type": "function"
    },
    {
      "inputs": [],
      "name": "claim",
      "outputs": [],
      "stateMutability": "nonpayable",
      "type": "function"
    },
    {
      "inputs": [
        {
          "internalType": "uint256",
          "name": "amount",
          "type": "uint256"
        }
      ],
      "name": "unstake",
      "outputs": [],
      "stateMutability": "nonpayable",
      "type": "function"
    },
    {
      "inputs": [
        {
          "internalType": "uint256",
          "name": "amount",
          "type": "uint256"
        }
      ],
      "name": "stake",
      "outputs": [],
      "stateMutability": "nonpayable",
      "type": "function"
    },
    {
      "inputs": [],
      "name": "transmute",
      "outputs": [],
      "stateMutability": "nonpayable",
      "type": "function"
    },
    {
      "inputs": [
        {
          "internalType": "address",
          "name": "toTransmute",
          "type": "address"
        }
      ],
      "name": "forceTransmute",
      "outputs": [],
      "stateMutability": "nonpayable",
      "type": "function"
    },
    {
      "inputs": [],
      "name": "exit",
      "outputs": [],
      "stateMutability": "nonpayable",
      "type": "function"
    },
    {
      "inputs": [],
      "name": "transmuteAndClaim",
      "outputs": [],
      "stateMutability": "nonpayable",
      "type": "function"
    },
    {
      "inputs": [],
      "name": "transmuteClaimAndWithdraw",
      "outputs": [],
      "stateMutability": "nonpayable",
      "type": "function"
    },
    {
      "inputs": [
        {
          "internalType": "address",
          "name": "origin",
          "type": "address"
        },
        {
          "internalType": "uint256",
          "name": "amount",
          "type": "uint256"
        }
      ],
      "name": "distribute",
      "outputs": [],
      "stateMutability": "nonpayable",
      "type": "function"
    },
    {
      "inputs": [
        {
          "internalType": "address",
          "name": "user",
          "type": "address"
        }
      ],
      "name": "userInfo",
      "outputs": [
        {
          "internalType": "uint256",
          "name": "depositedAl",
          "type": "uint256"
        },
        {
          "internalType": "uint256",
          "name": "pendingdivs",
          "type": "uint256"
        },
        {
          "internalType": "uint256",
          "name": "inbucket",
          "type": "uint256"
        },
        {
          "internalType": "uint256",
          "name": "realised",
          "type": "uint256"
        }
      ],
      "stateMutability": "view",
      "type": "function",
      "constant": true
    },
    {
      "inputs": [
        {
          "internalType": "uint256",
          "name": "from",
          "type": "uint256"
        },
        {
          "internalType": "uint256",
          "name": "to",
          "type": "uint256"
        }
      ],
      "name": "getMultipleUserInfo",
      "outputs": [
        {
          "internalType": "address[]",
          "name": "theUserList",
          "type": "address[]"
        },
        {
          "internalType": "uint256[]",
          "name": "theUserData",
          "type": "uint256[]"
        }
      ],
      "stateMutability": "view",
      "type": "function",
      "constant": true
    },
    {
      "inputs": [],
      "name": "bufferInfo",
      "outputs": [
        {
          "internalType": "uint256",
          "name": "_toDistribute",
          "type": "uint256"
        },
        {
          "internalType": "uint256",
          "name": "_deltaBlocks",
          "type": "uint256"
        },
        {
          "internalType": "uint256",
          "name": "_buffer",
          "type": "uint256"
        }
      ],
      "stateMutability": "view",
      "type": "function",
      "constant": true
    },
    {
      "inputs": [
        {
          "internalType": "address",
          "name": "_pendingGovernance",
          "type": "address"
        }
      ],
      "name": "setPendingGovernance",
      "outputs": [],
      "stateMutability": "nonpayable",
      "type": "function"
    },
    {
      "inputs": [],
      "name": "acceptGovernance",
      "outputs": [],
      "stateMutability": "nonpayable",
      "type": "function"
    },
    {
      "inputs": [
        {
          "internalType": "address",
          "name": "_toWhitelist",
          "type": "address"
        },
        {
          "internalType": "bool",
          "name": "_state",
          "type": "bool"
        }
      ],
      "name": "setWhitelist",
      "outputs": [],
      "stateMutability": "nonpayable",
      "type": "function"
    }
  ],
  "bytecode": "0x6080604052678ac7230489e80000600d553480156200001d57600080fd5b5060405162002713380380620027138339810160408190526200004091620000d2565b600160a060020a0381166200008c576040517f08c379a0000000000000000000000000000000000000000000000000000000008152600401620000839062000125565b60405180910390fd5b60118054600160a060020a0319908116600160a060020a039384161790915560018054821694831694909417909355600280549093169116179055603260005562000175565b600080600060608486031215620000e7578283fd5b8351620000f4816200015c565b602085015190935062000107816200015c565b60408501519092506200011a816200015c565b809150509250925092565b60208082526011908201527f5472616e736d757465723a203020676f76000000000000000000000000000000604082015260600190565b600160a060020a03811681146200017257600080fd5b50565b61258e80620001856000396000f3fe608060405234801561001057600080fd5b5060043610610294576000357c010000000000000000000000000000000000000000000000000000000090048063658b98a91161017d578063bc0bc215116100f5578063edaafe20116100a9578063f39c38a01161008e578063f39c38a0146104ad578063f93f394c146104b5578063fb932108146104c857610294565b8063edaafe201461049d578063f1f79200146104a557610294565b8063c2412676116100da578063c241267614610485578063e044205e1461048d578063e9fad8ee1461049557610294565b8063bc0bc2151461046a578063bff170b91461047257610294565b80639f4216e81161014c578063a196cf2e11610131578063a196cf2e1461043c578063a694fc3a14610444578063b870d5981461045757610294565b80639f4216e814610416578063a02fbe2d1461042957610294565b8063658b98a9146103d557806379070a12146103dd578063806985f7146103f05780638391e45c1461040357610294565b80632e17de78116102105780634e71d92d116101df578063538ba4f9116101c4578063538ba4f9146103a557806353d6fd59146103ba5780635aa6e675146103cd57610294565b80634e71d92d1461038a578063527100071461039257610294565b80632e17de7814610347578063372c12b11461035a5780633cb802b91461037a5780634bf04bd11461038257610294565b80631959a00211610267578063238efcbc1161024c578063238efcbc1461032f5780632a03cf68146103375780632a3d7c811461033f57610294565b80631959a002146103045780632113342d1461032757610294565b806301f50c861461029957806303036290146102b757806305d2301d146102d85780630abb6035146102ef575b600080fd5b6102a16104db565b6040516102ae91906124e4565b60405180910390f35b6102ca6102c5366004611f89565b6104e1565b6040516102ae929190612060565b6102e061073c565b6040516102ae939291906124ed565b6103026102fd366004611ed9565b610776565b005b610317610312366004611ed9565b610898565b6040516102ae9493929190612503565b6102a16109b1565b6103026109b7565b610302610a7e565b6102a1610a90565b610302610355366004611f71565b610a96565b61036d610368366004611ed9565b610c16565b6040516102ae91906120ee565b6102a1610c2b565b6102a1610c31565b610302610c37565b6102a16103a0366004611ed9565b610c90565b6103ad610ca2565b6040516102ae9190611fe8565b6103026103c8366004611ef4565b610ca7565b6103ad610d4e565b6102a1610d6a565b61036d6103eb366004611ed9565b610d70565b6102a16103fe366004611ed9565b610d85565b6102a1610411366004611ed9565b610d97565b6103ad610424366004611f71565b610e0d565b610302610437366004611f71565b610e35565b6102a1610ebb565b610302610452366004611f71565b610ec1565b6102a1610465366004611ed9565b611107565b6103ad611119565b610302610480366004611ed9565b611135565b6103ad611530565b61030261154c565b610302611578565b6102a1611580565b610302611586565b6103ad6118d0565b6102a16104c3366004611ed9565b6118ec565b6103026104d6366004611f2b565b6118fe565b60005481565b60608083808403828167ffffffffffffffff8111801561050057600080fd5b5060405190808252806020026020018201604052801561052a578160200160208202803683370190505b50905060608260020267ffffffffffffffff8111801561054957600080fd5b50604051908082528060200260200182016040528015610573578160200160208202803683370190505b5090506000806105a66000546105a0610597600c54436119fe90919063ffffffff16565b600b5490611a45565b90611a99565b90506000546105c0600c54436119fe90919063ffffffff16565b11156105cb5750600b545b60005b8581101561072b57600087815260086020526040902054855173ffffffffffffffffffffffffffffffffffffffff9091169086908390811061060c57fe5b73ffffffffffffffffffffffffffffffffffffffff928316602091820292909201810191909152600089815260088252604080822054909316815260039091522054845185908590811061065c57fe5b602090810291909101810191909152600a5460008981526008835260408082205473ffffffffffffffffffffffffffffffffffffffff168252600390935291909120546106fe916106b2916105a0908690611a45565b60008981526008602081815260408084205473ffffffffffffffffffffffffffffffffffffffff168085526004835290842054938d90529190526106f891908290610d97565b90611ae5565b84846001018151811061070d57fe5b602090810291909101015260019687019660029390930192016105ce565b509299919850909650505050505050565b6000806000610756600c54436119fe90919063ffffffff16565b600b54600054919350915061076f906105a08385611a45565b9250909192565b60115473ffffffffffffffffffffffffffffffffffffffff1633146107d0576040517f08c379a00000000000000000000000000000000000000000000000000000000081526004016107c79061214a565b60405180910390fd5b73ffffffffffffffffffffffffffffffffffffffff811661081d576040517f08c379a00000000000000000000000000000000000000000000000000000000081526004016107c790612328565b601280547fffffffffffffffffffffffff00000000000000000000000000000000000000001673ffffffffffffffffffffffffffffffffffffffff83161790556040517fc9e2377236eab4280090ce8f2317332649736d92f00dcf20a8dd6684ec5e78399061088d908390611fe8565b60405180910390a150565b73ffffffffffffffffffffffffffffffffffffffff81166000908152600360205260408120548154600c5483928392839283916108de916105a0906105979043906119fe565b90506000546108f8600c54436119fe90919063ffffffff16565b11156109035750600b545b600a5473ffffffffffffffffffffffffffffffffffffffff8816600090815260036020526040812054909161093d916105a0908590611a45565b9050600061097961094d8a610d97565b73ffffffffffffffffffffffffffffffffffffffff8b1660009081526004602052604090205490611ae5565b73ffffffffffffffffffffffffffffffffffffffff999099166000908152600560205260409020549399919897509295509350505050565b600e5481565b60125473ffffffffffffffffffffffffffffffffffffffff163314610a08576040517f08c379a00000000000000000000000000000000000000000000000000000000081526004016107c7906122f1565b601254601180547fffffffffffffffffffffffff00000000000000000000000000000000000000001673ffffffffffffffffffffffffffffffffffffffff90921691821790556040517f9d3e522e1e47a2f6009739342b9cc7b252a1888154e843ab55ee1c81745795ab9061088d908390611fe8565b610a86611586565b610a8e610c37565b565b600c5481565b336000610aa282610d97565b90508015610b1157600f54610ab790826119fe565b600f5573ffffffffffffffffffffffffffffffffffffffff8216600090815260046020526040902054610aea9082611ae5565b73ffffffffffffffffffffffffffffffffffffffff83166000908152600460205260409020555b600e5473ffffffffffffffffffffffffffffffffffffffff831660009081526006602090815260408083209390935533808352600390915291902054841115610b86576040517f08c379a00000000000000000000000000000000000000000000000000000000081526004016107c7906123bc565b73ffffffffffffffffffffffffffffffffffffffff8116600090815260036020526040902054610bb690856119fe565b73ffffffffffffffffffffffffffffffffffffffff8216600090815260036020526040902055600a54610be990856119fe565b600a55600154610c109073ffffffffffffffffffffffffffffffffffffffff168286611b24565b50505050565b60106020526000908152604090205460ff1681565b600f5481565b600a5481565b33600081815260056020526040902054610c5057600080fd5b73ffffffffffffffffffffffffffffffffffffffff808216600090815260056020526040812080549190556002549091610c8c91168383611b24565b5050565b60056020526000908152604090205481565b600081565b60115473ffffffffffffffffffffffffffffffffffffffff163314610cf8576040517f08c379a00000000000000000000000000000000000000000000000000000000081526004016107c79061214a565b73ffffffffffffffffffffffffffffffffffffffff91909116600090815260106020526040902080547fffffffffffffffffffffffffffffffffffffffffffffffffffffffffffffff0016911515919091179055565b60115473ffffffffffffffffffffffffffffffffffffffff1681565b600d5481565b60076020526000908152604090205460ff1681565b60066020526000908152604090205481565b73ffffffffffffffffffffffffffffffffffffffff8116600090815260066020526040812054600e548291610dcc91906119fe565b600d5473ffffffffffffffffffffffffffffffffffffffff8516600090815260036020526040902054919250610e06916105a09084611a45565b9392505050565b60086020526000908152604090205473ffffffffffffffffffffffffffffffffffffffff1681565b60115473ffffffffffffffffffffffffffffffffffffffff163314610e86576040517f08c379a00000000000000000000000000000000000000000000000000000000081526004016107c79061214a565b60008190556040517fc2965d898897107f6f1d0e43c043ca07b7a51d487acfac1decec2ec8405364409061088d9083906124e4565b60095481565b600c54600b5443906000908015610f36576000610ede84866119fe565b90506000548110610ef157819250610f18565b600054610efe8383611a45565b1115610f1857600054610f15906105a08484611a45565b92505b8215610f3457610f2882846119fe565b600b55610f3483611be6565b505b600c839055336000610f4782610d97565b90508015610fb657600f54610f5c90826119fe565b600f5573ffffffffffffffffffffffffffffffffffffffff8216600090815260046020526040902054610f8f9082611ae5565b73ffffffffffffffffffffffffffffffffffffffff83166000908152600460205260409020555b600e5473ffffffffffffffffffffffffffffffffffffffff831660009081526006602090815260408083209390935533825260079052205460ff166110705760098054600090815260086020908152604080832080547fffffffffffffffffffffffff0000000000000000000000000000000000000000163390811790915583526007909152902080547fffffffffffffffffffffffffffffffffffffffffffffffffffffffffffffff0016600190811790915581540190555b60015433906110979073ffffffffffffffffffffffffffffffffffffffff1682308b611c4f565b600a546110a49089611ae5565b600a5573ffffffffffffffffffffffffffffffffffffffff81166000908152600360205260409020546110d79089611ae5565b73ffffffffffffffffffffffffffffffffffffffff90911660009081526003602052604090205550505050505050565b60046020526000908152604090205481565b60015473ffffffffffffffffffffffffffffffffffffffff1681565b600c54600b54439060009080156111aa57600061115284866119fe565b905060005481106111655781925061118c565b6000546111728383611a45565b111561118c57600054611189906105a08484611a45565b92505b82156111a85761119c82846119fe565b600b556111a883611be6565b505b600c8390553360006111bb82610d97565b9050801561122a57600f546111d090826119fe565b600f5573ffffffffffffffffffffffffffffffffffffffff82166000908152600460205260409020546112039082611ae5565b73ffffffffffffffffffffffffffffffffffffffff83166000908152600460205260409020555b600e5473ffffffffffffffffffffffffffffffffffffffff8316600090815260066020526040812091909155879061126182610d97565b905080156112d057600f5461127690826119fe565b600f5573ffffffffffffffffffffffffffffffffffffffff82166000908152600460205260409020546112a99082611ae5565b73ffffffffffffffffffffffffffffffffffffffff83166000908152600460205260409020555b600e5473ffffffffffffffffffffffffffffffffffffffff808416600090815260066020908152604080832094909455918c1681526004825282812054600390925291909120543391908111611352576040517f08c379a00000000000000000000000000000000000000000000000000000000081526004016107c7906122ba565b73ffffffffffffffffffffffffffffffffffffffff8b16600090815260046020908152604080832083905560039091528120546113909083906119fe565b73ffffffffffffffffffffffffffffffffffffffff808e16600090815260036020526040808220805492905560015490517f42966c680000000000000000000000000000000000000000000000000000000081529195509293509116906342966c68906114019085906004016124e4565b600060405180830381600087803b15801561141b57600080fd5b505af115801561142f573d6000803e3d6000fd5b5050600a5461144192509050836119fe565b600a5573ffffffffffffffffffffffffffffffffffffffff83166000908152600460205260409020546114749082611ae5565b73ffffffffffffffffffffffffffffffffffffffff808516600090815260046020908152604080832094909455918f168152600590915220546114b79083611ae5565b73ffffffffffffffffffffffffffffffffffffffff8d166000908152600560205260409020819055156115225773ffffffffffffffffffffffffffffffffffffffff808d1660009081526005602052604081208054919055600254909161152091168e83611b24565b505b505050505050505050505050565b60025473ffffffffffffffffffffffffffffffffffffffff1681565b611554611586565b61155c610c37565b3360009081526003602052604090205461157581610a96565b50565b61155c611586565b600b5481565b600c54600b54439060009080156115fb5760006115a384866119fe565b905060005481106115b6578192506115dd565b6000546115c38383611a45565b11156115dd576000546115da906105a08484611a45565b92505b82156115f9576115ed82846119fe565b600b556115f983611be6565b505b600c83905533600061160c82610d97565b9050801561167b57600f5461162190826119fe565b600f5573ffffffffffffffffffffffffffffffffffffffff82166000908152600460205260409020546116549082611ae5565b73ffffffffffffffffffffffffffffffffffffffff83166000908152600460205260409020555b600e5473ffffffffffffffffffffffffffffffffffffffff83166000908152600660209081526040808320939093553380835260049091529181205490816116ef576040517f08c379a00000000000000000000000000000000000000000000000000000000081526004016107c7906121ef565b73ffffffffffffffffffffffffffffffffffffffff8316600090815260046020908152604080832083905560039091529020548211156117855773ffffffffffffffffffffffffffffffffffffffff831660009081526003602052604090205461175a9083906119fe565b73ffffffffffffffffffffffffffffffffffffffff8416600090815260036020526040902054925090505b73ffffffffffffffffffffffffffffffffffffffff83166000908152600360205260409020546117b590836119fe565b73ffffffffffffffffffffffffffffffffffffffff808516600090815260036020526040908190209290925560015491517f42966c680000000000000000000000000000000000000000000000000000000081529116906342966c68906118209085906004016124e4565b600060405180830381600087803b15801561183a57600080fd5b505af115801561184e573d6000803e3d6000fd5b5050600a5461186092509050836119fe565b600a5561186c81611be6565b73ffffffffffffffffffffffffffffffffffffffff831660009081526005602052604090205461189c9083611ae5565b73ffffffffffffffffffffffffffffffffffffffff9093166000908152600560205260409020929092555050505050505050565b60125473ffffffffffffffffffffffffffffffffffffffff1681565b60036020526000908152604090205481565b3360009081526010602052604090205460ff16611947576040517f08c379a00000000000000000000000000000000000000000000000000000000081526004016107c790612419565b600c54600b54439060009080156119bc57600061196484866119fe565b905060005481106119775781925061199e565b6000546119848383611a45565b111561199e5760005461199b906105a08484611a45565b92505b82156119ba576119ae82846119fe565b600b556119ba83611be6565b505b600c8390556002546119e69073ffffffffffffffffffffffffffffffffffffffff16873088611c4f565b600b546119f39086611ae5565b600b55505050505050565b600082821115611a3a576040517f08c379a00000000000000000000000000000000000000000000000000000000081526004016107c7906121b8565b508082035b92915050565b600082611a5457506000611a3f565b82820282848281611a6157fe5b0414610e06576040517f08c379a00000000000000000000000000000000000000000000000000000000081526004016107c79061235f565b6000808211611ad4576040517f08c379a00000000000000000000000000000000000000000000000000000000081526004016107c790612283565b818381611add57fe5b049392505050565b600082820183811015610e06576040517f08c379a00000000000000000000000000000000000000000000000000000000081526004016107c790612181565b611be18363a9059cbb7c0100000000000000000000000000000000000000000000000000000000028484604051602401611b5f92919061203a565b604080517fffffffffffffffffffffffffffffffffffffffffffffffffffffffffffffffe08184030181529190526020810180517bffffffffffffffffffffffffffffffffffffffffffffffffffffffff167fffffffff0000000000000000000000000000000000000000000000000000000090931692909217909152611c8c565b505050565b6000600a54118015611bf85750600081115b15611c3c57611c24611c1b600a546105a0600d5485611a4590919063ffffffff16565b600e5490611ae5565b600e55600f54611c349082611ae5565b600f55611575565b600b54611c499082611ae5565b600b5550565b610c10846323b872dd7c010000000000000000000000000000000000000000000000000000000002858585604051602401611b5f93929190612009565b6060611cee826040518060400160405280602081526020017f5361666545524332303a206c6f772d6c6576656c2063616c6c206661696c65648152508573ffffffffffffffffffffffffffffffffffffffff16611d429092919063ffffffff16565b805190915015611be15780806020019051810190611d0c9190611f55565b611be1576040517f08c379a00000000000000000000000000000000000000000000000000000000081526004016107c790612487565b6060611d518484600085611d59565b949350505050565b60603031831115611d96576040517f08c379a00000000000000000000000000000000000000000000000000000000081526004016107c790612226565b611d9f85611e5c565b611dd5576040517f08c379a00000000000000000000000000000000000000000000000000000000081526004016107c790612450565b600060608673ffffffffffffffffffffffffffffffffffffffff168587604051611dff9190611fcc565b60006040518083038185875af1925050503d8060008114611e3c576040519150601f19603f3d011682016040523d82523d6000602084013e611e41565b606091505b5091509150611e51828286611e62565b979650505050505050565b3b151590565b60608315611e71575081610e06565b825115611e815782518084602001fd5b816040517f08c379a00000000000000000000000000000000000000000000000000000000081526004016107c791906120f9565b803573ffffffffffffffffffffffffffffffffffffffff81168114611a3f57600080fd5b600060208284031215611eea578081fd5b610e068383611eb5565b60008060408385031215611f06578081fd5b611f108484611eb5565b91506020830135611f208161254a565b809150509250929050565b60008060408385031215611f3d578182fd5b611f478484611eb5565b946020939093013593505050565b600060208284031215611f66578081fd5b8151610e068161254a565b600060208284031215611f82578081fd5b5035919050565b60008060408385031215611f9b578182fd5b50508035926020909101359150565b815260200190565b73ffffffffffffffffffffffffffffffffffffffff169052565b60008251611fde81846020870161251e565b9190910192915050565b73ffffffffffffffffffffffffffffffffffffffff91909116815260200190565b73ffffffffffffffffffffffffffffffffffffffff9384168152919092166020820152604081019190915260600190565b73ffffffffffffffffffffffffffffffffffffffff929092168252602082015260400190565b604080825283519082018190526000906020906060840190828701845b828110156120a057612090848351611fb2565b928401929084019060010161207d565b505050838103828501528085516120b781846124e4565b91508387019250845b818110156120e1576120d3838551611faa565b9385019392506001016120c0565b5090979650505050505050565b901515815260200190565b600060208252825180602084015261211881604085016020870161251e565b601f017fffffffffffffffffffffffffffffffffffffffffffffffffffffffffffffffe0169190910160400192915050565b60208082526017908201527f5472616e736d757465723a2021676f7665726e616e6365000000000000000000604082015260600190565b6020808252601b908201527f536166654d6174683a206164646974696f6e206f766572666c6f770000000000604082015260600190565b6020808252601e908201527f536166654d6174683a207375627472616374696f6e206f766572666c6f770000604082015260600190565b6020808252601e908201527f6e65656420746f20686176652070656e64696e6720696e206275636b65740000604082015260600190565b60208082526026908201527f416464726573733a20696e73756666696369656e742062616c616e636520666f60408201527f722063616c6c0000000000000000000000000000000000000000000000000000606082015260800190565b6020808252601a908201527f536166654d6174683a206469766973696f6e206279207a65726f000000000000604082015260600190565b60208082526015908201527f5472616e736d757465723a20216f766572666c6f770000000000000000000000604082015260600190565b60208082526012908201527f2170656e64696e67476f7665726e616e63650000000000000000000000000000604082015260600190565b60208082526011908201527f5472616e736d757465723a203020676f76000000000000000000000000000000604082015260600190565b60208082526021908201527f536166654d6174683a206d756c7469706c69636174696f6e206f766572666c6f60408201527f7700000000000000000000000000000000000000000000000000000000000000606082015260800190565b60208082526033908201527f5472616e736d757465723a20756e7374616b6520616d6f756e7420657863656560408201527f6473206465706f736974656420616d6f756e7400000000000000000000000000606082015260800190565b60208082526018908201527f5472616e736d757465723a202177686974656c69737465640000000000000000604082015260600190565b6020808252601d908201527f416464726573733a2063616c6c20746f206e6f6e2d636f6e7472616374000000604082015260600190565b6020808252602a908201527f5361666545524332303a204552433230206f7065726174696f6e20646964206e60408201527f6f74207375636365656400000000000000000000000000000000000000000000606082015260800190565b90815260200190565b9283526020830191909152604082015260600190565b93845260208401929092526040830152606082015260800190565b60005b83811015612539578181015183820152602001612521565b83811115610c105750506000910152565b801515811461157557600080fdfea2646970667358221220855f5273a92452091be36fb063f8fb887d4a6921540c126a676069ab802c8ca864736f6c634300060c0033",
  "immutableReferences": {},
  "source": "pragma solidity 0.6.12;\npragma experimental ABIEncoderV2;\n\nimport \"@openzeppelin/contracts/GSN/Context.sol\";\nimport \"@openzeppelin/contracts/token/ERC20/SafeERC20.sol\";\nimport \"@openzeppelin/contracts/math/SafeMath.sol\";\nimport \"@openzeppelin/contracts/utils/Address.sol\";\nimport \"./interfaces/IERC20Burnable.sol\";\n\nimport \"hardhat/console.sol\";\n\n//    ___    __        __                _               ___                              __         _ \n//   / _ |  / / ____  / /  ___   __ _   (_) __ __       / _ \\  ____ ___   ___ ___   ___  / /_  ___  (_)\n//  / __ | / / / __/ / _ \\/ -_) /  ' \\ / /  \\ \\ /      / ___/ / __// -_) (_-</ -_) / _ \\/ __/ (_-< _\n// /_/ |_|/_/  \\__/ /_//_/\\__/ /_/_/_//_/  /_\\_\\      /_/    /_/   \\__/ /___/\\__/ /_//_/\\__/ /___/(_)\n//\n// .___________..______           ___      .__   __.      _______..___  ___.  __    __  .___________. _______ .______\n// |           ||   _  \\         /   \\     |  \\ |  |     /       ||   \\/   | |  |  |  | |           ||   ____||   _  \\\n// `---|  |----`|  |_)  |       /  ^  \\    |   \\|  |    |   (----`|  \\  /  | |  |  |  | `---|  |----`|  |__   |  |_)  |\n//     |  |     |      /       /  /_\\  \\   |  . `  |     \\   \\    |  |\\/|  | |  |  |  |     |  |     |   __|  |      /\n//     |  |     |  |\\  \\----. /  _____  \\  |  |\\   | .----)   |   |  |  |  | |  `--'  |     |  |     |  |____ |  |\\  \\----.\n//     |__|     | _| `._____|/__/     \\__\\ |__| \\__| |_______/    |__|  |__|  \\______/      |__|     |_______|| _| `._____|\n/**\n * @dev Implementation of the {IERC20Burnable} interface.\n *\n * This implementation is agnostic to the way tokens are created. This means\n * that a supply mechanism has to be added in a derived contract using {_mint}.\n * For a generic mechanism see {ERC20PresetMinterPauser}.\n *\n * TIP: For a detailed writeup see our guide\n * https://forum.zeppelin.solutions/t/how-to-implement-erc20-supply-mechanisms/226[How\n * to implement supply mechanisms].\n *\n * We have followed general OpenZeppelin guidelines: functions revert instead\n * of returning `false` on failure. This behavior is nonetheless conventional\n * and does not conflict with the expectations of ERC20 applications.\n *\n * Additionally, an {Approval} event is emitted on calls to {transferFrom}.\n * This allows applications to reconstruct the allowance for all accounts just\n * by listening to said events. Other implementations of the EIP may not emit\n * these events, as it isn't required by the specification.\n *\n * Finally, the non-standard {decreaseAllowance} and {increaseAllowance}\n * functions have been added to mitigate the well-known issues around setting\n * allowances. See {IERC20Burnable-approve}.\n */\ncontract Transmuter is Context {\n    using SafeMath for uint256;\n    using SafeERC20 for IERC20Burnable;\n    using Address for address;\n\n    address public constant ZERO_ADDRESS = address(0);\n    uint256 public TRANSMUTATION_PERIOD;\n\n    address public AlToken;\n    address public Token;\n\n    mapping(address => uint256) public depositedAlTokens;\n    mapping(address => uint256) public tokensInBucket;\n    mapping(address => uint256) public realisedTokens;\n    mapping(address => uint256) public lastDividendPoints;\n\n    mapping(address => bool) public userIsKnown;\n    mapping(uint256 => address) public userList;\n    uint256 public nextUser;\n\n    uint256 public totalSupplyAltokens;\n    uint256 public buffer;\n    uint256 public lastDepositBlock;\n\n    ///@dev values needed to calculate the distribution of base asset in proportion for alTokens staked\n    uint256 public pointMultiplier = 10e18;\n\n    uint256 public totalDividendPoints;\n    uint256 public unclaimedDividends;\n\n    /// @dev alchemist addresses whitelisted\n    mapping (address => bool) public whiteList;\n\n    /// @dev The address of the account which currently has administrative capabilities over this contract.\n    address public governance;\n\n    /// @dev The address of the pending governance.\n    address public pendingGovernance;\n\n    event GovernanceUpdated(\n        address governance\n    );\n\n    event PendingGovernanceUpdated(\n        address pendingGovernance\n    );\n\n    event TransmuterPeriodUpdated(\n        uint256 newTransmutationPeriod\n    );\n\n    constructor(address _AlToken, address _Token, address _governance) public {\n        require(_governance != ZERO_ADDRESS, \"Transmuter: 0 gov\");\n        governance = _governance;\n        AlToken = _AlToken;\n        Token = _Token;\n        TRANSMUTATION_PERIOD = 50;\n    }\n\n    ///@return displays the user's share of the pooled alTokens.\n    function dividendsOwing(address account) public view returns (uint256) {\n        uint256 newDividendPoints = totalDividendPoints.sub(lastDividendPoints[account]);\n        return depositedAlTokens[account].mul(newDividendPoints).div(pointMultiplier);\n    }\n\n    ///@dev modifier to fill the bucket and keep bookkeeping correct incase of increase/decrease in shares\n    modifier updateAccount(address account) {\n        uint256 owing = dividendsOwing(account);\n        if (owing > 0) {\n            unclaimedDividends = unclaimedDividends.sub(owing);\n            tokensInBucket[account] = tokensInBucket[account].add(owing);\n        }\n        lastDividendPoints[account] = totalDividendPoints;\n        _;\n    }\n    ///@dev modifier add users to userlist. Users are indexed in order to keep track of when a bond has been filled\n    modifier checkIfNewUser() {\n        if (!userIsKnown[msg.sender]) {\n            userList[nextUser] = msg.sender;\n            userIsKnown[msg.sender] = true;\n            nextUser++;\n        }\n        _;\n    }\n\n    ///@dev run the phased distribution of the buffered funds\n    modifier runPhasedDistribution() {\n        uint256 _lastDepositBlock = lastDepositBlock;\n        uint256 _currentBlock = block.number;\n        uint256 _toDistribute = 0;\n        uint256 _buffer = buffer;\n\n        // check if there is something in bufffer\n        if (_buffer > 0) {\n            // NOTE: if last deposit was updated in the same block as the current call\n            // then the below logic gates will fail\n\n            //calculate diffrence in time\n            uint256 deltaTime = _currentBlock.sub(_lastDepositBlock);\n\n            // distribute all if bigger than timeframe\n            if(deltaTime >= TRANSMUTATION_PERIOD) {\n                _toDistribute = _buffer;\n            } else {\n\n                //needs to be bigger than 0 cuzz solidity no decimals\n                if(_buffer.mul(deltaTime) > TRANSMUTATION_PERIOD)\n                {\n                    _toDistribute = _buffer.mul(deltaTime).div(TRANSMUTATION_PERIOD);\n                }\n            }\n\n            // factually allocate if any needs distribution\n            if(_toDistribute > 0){\n\n                // remove from buffer\n                buffer = _buffer.sub(_toDistribute);\n\n                // increase the allocation\n                increaseAllocations(_toDistribute);\n            }\n        }\n\n        // current timeframe is now the last\n        lastDepositBlock = _currentBlock;\n        _;\n    }\n\n    /// @dev A modifier which checks if whitelisted for minting.\n    modifier onlyWhitelisted() {\n        require(whiteList[msg.sender], \"Transmuter: !whitelisted\");\n        _;\n    }\n\n    /// @dev Checks that the current message sender or caller is the governance address.\n    ///\n    ///\n    modifier onlyGov() {\n        require(msg.sender == governance, \"Transmuter: !governance\");\n        _;\n    }\n\n    ///@dev set the TRANSMUTATION_PERIOD variable\n    ///\n    /// sets the length (in blocks) of one full distribution phase\n    function setTransmutationPeriod(uint256 newTransmutationPeriod) public onlyGov() {\n        TRANSMUTATION_PERIOD = newTransmutationPeriod;\n        emit TransmuterPeriodUpdated(TRANSMUTATION_PERIOD);\n    }\n\n    ///@dev claims the base token after it has been transmuted\n    ///\n    ///This function reverts if there is no realisedToken balance\n    function claim() public {\n        address sender = msg.sender;\n        require(realisedTokens[sender] > 0);\n        uint256 value = realisedTokens[sender];\n        realisedTokens[sender] = 0;\n        IERC20Burnable(Token).safeTransfer(sender, value);\n    }\n\n    ///@dev Withdraws staked alTokens from the transmuter\n    ///\n    /// This function reverts if you try to draw more tokens than you deposited\n    ///\n    ///@param amount the amount of alTokens to unstake\n    function unstake(uint256 amount) public updateAccount(msg.sender) {\n        // by calling this function before transmuting you forfeit your gained allocation\n        address sender = msg.sender;\n        require(depositedAlTokens[sender] >= amount,\"Transmuter: unstake amount exceeds deposited amount\");\n        depositedAlTokens[sender] = depositedAlTokens[sender].sub(amount);\n        totalSupplyAltokens = totalSupplyAltokens.sub(amount);\n        IERC20Burnable(AlToken).safeTransfer(sender, amount);\n    }\n    ///@dev Deposits alTokens into the transmuter \n    ///\n    ///@param amount the amount of alTokens to stake\n    function stake(uint256 amount)\n        public\n        runPhasedDistribution()\n        updateAccount(msg.sender)\n        checkIfNewUser()\n    {\n        // requires approval of AlToken first\n        address sender = msg.sender;\n        //require tokens transferred in;\n        IERC20Burnable(AlToken).safeTransferFrom(sender, address(this), amount);\n        totalSupplyAltokens = totalSupplyAltokens.add(amount);\n        depositedAlTokens[sender] = depositedAlTokens[sender].add(amount);\n    }\n    /// @dev Converts the staked alTokens to the base tokens in amount of the sum of pendingdivs and tokensInBucket\n    ///\n    /// once the alToken has been converted, it is burned, and the base token becomes realisedTokens which can be recieved using claim()    \n    ///\n    /// reverts if there are no pendingdivs or tokensInBucket\n    function transmute() public runPhasedDistribution() updateAccount(msg.sender) {\n        address sender = msg.sender;\n        uint256 pendingz = tokensInBucket[sender];\n        uint256 diff;\n\n        require(pendingz > 0, \"need to have pending in bucket\");\n\n        tokensInBucket[sender] = 0;\n\n        // check bucket overflow\n        if (pendingz > depositedAlTokens[sender]) {\n            diff = pendingz.sub(depositedAlTokens[sender]);\n\n            // remove overflow\n            pendingz = depositedAlTokens[sender];\n        }\n\n        // decrease altokens\n        depositedAlTokens[sender] = depositedAlTokens[sender].sub(pendingz);\n\n        // BURN ALTOKENS\n        IERC20Burnable(AlToken).burn(pendingz);\n\n        // adjust total\n        totalSupplyAltokens = totalSupplyAltokens.sub(pendingz);\n\n        // reallocate overflow\n        increaseAllocations(diff);\n\n        // add payout\n        realisedTokens[sender] = realisedTokens[sender].add(pendingz);\n    }\n\n    /// @dev Executes transmute() on another account that has had more base tokens allocated to it than alTokens staked.\n    ///\n    /// The caller of this function will have the surlus base tokens credited to their tokensInBucket balance, rewarding them for performing this action\n    ///\n    /// This function reverts if the address to transmute is not over-filled.\n    ///\n    /// @param toTransmute address of the account you will force transmute.\n    function forceTransmute(address toTransmute)\n        public\n        runPhasedDistribution()\n        updateAccount(msg.sender)\n        updateAccount(toTransmute)\n    {\n        //load into memory\n        address sender = msg.sender;\n        uint256 pendingz = tokensInBucket[toTransmute];\n        // check restrictions\n        require(\n            pendingz > depositedAlTokens[toTransmute],\n            \"Transmuter: !overflow\"\n        );\n\n        // empty bucket\n        tokensInBucket[toTransmute] = 0;\n\n        // calculaate diffrence\n        uint256 diff = pendingz.sub(depositedAlTokens[toTransmute]);\n\n        // remove overflow\n        pendingz = depositedAlTokens[toTransmute];\n\n        // decrease altokens\n        depositedAlTokens[toTransmute] = 0;\n\n        // BURN ALTOKENS\n        IERC20Burnable(AlToken).burn(pendingz);\n\n        // adjust total\n        totalSupplyAltokens = totalSupplyAltokens.sub(pendingz);\n\n        // reallocate overflow\n        tokensInBucket[sender] = tokensInBucket[sender].add(diff);\n\n        // add payout\n        realisedTokens[toTransmute] = realisedTokens[toTransmute].add(pendingz);\n\n        // force payout of realised tokens of the toTransmute address\n        if (realisedTokens[toTransmute] > 0) {\n            uint256 value = realisedTokens[toTransmute];\n            realisedTokens[toTransmute] = 0;\n            IERC20Burnable(Token).safeTransfer(toTransmute, value);\n        }\n    }\n\n    /// @dev Transmutes and unstakes all alTokens\n    ///\n    /// This function combines the transmute and unstake functions for ease of use\n    function exit() public {\n        transmute();\n        uint256 toWithdraw = depositedAlTokens[msg.sender];\n        unstake(toWithdraw);\n    }\n\n    /// @dev Transmutes and claims all converted base tokens.\n    ///\n    /// This function combines the transmute and claim functions while leaving your remaining alTokens staked.\n    function transmuteAndClaim() public {\n        transmute();\n        claim();\n    }\n\n    /// @dev Transmutes, claims base tokens, and withdraws alTokens.\n    ///\n    /// This function helps users to exit the transmuter contract completely after converting their alTokens to the base pair.\n    function transmuteClaimAndWithdraw() public {\n        transmute();\n        claim();\n        uint256 toWithdraw = depositedAlTokens[msg.sender];\n        unstake(toWithdraw);\n    }\n\n    /// @dev Distributes the base token proportionally to all alToken stakers.\n    ///\n    /// This function is meant to be called by the Alchemist contract for when it is sending yield to the transmuter. \n    /// Anyone can call this and add funds, idk why they would do that though...\n    ///\n    /// @param origin the account that is sending the tokens to be distributed.\n    /// @param amount the amount of base tokens to be distributed to the transmuter.\n    function distribute(address origin, uint256 amount) public onlyWhitelisted() runPhasedDistribution() {\n        IERC20Burnable(Token).safeTransferFrom(origin, address(this), amount);\n        buffer = buffer.add(amount);\n    }\n\n    /// @dev Allocates the incoming yield proportionally to all alToken stakers.\n    ///\n    /// @param amount the amount of base tokens to be distributed in the transmuter.\n    function increaseAllocations(uint256 amount) internal {\n        if(totalSupplyAltokens > 0 && amount > 0) {\n            totalDividendPoints = totalDividendPoints.add(\n                amount.mul(pointMultiplier).div(totalSupplyAltokens)\n            );\n            unclaimedDividends = unclaimedDividends.add(amount);\n        } else {\n            buffer = buffer.add(amount);\n        }\n    }\n\n    /// @dev Gets the status of a user's staking position.\n    ///\n    /// The total amount allocated to a user is the sum of pendingdivs and inbucket.\n    ///\n    /// @param user the address of the user you wish to query.\n    ///\n    /// returns user status\n    \n    function userInfo(address user)\n        public\n        view\n        returns (\n            uint256 depositedAl,\n            uint256 pendingdivs,\n            uint256 inbucket,\n            uint256 realised\n        )\n    {\n        uint256 _depositedAl = depositedAlTokens[user];\n        uint256 _toDistribute = buffer.mul(block.number.sub(lastDepositBlock)).div(TRANSMUTATION_PERIOD);\n        if(block.number.sub(lastDepositBlock) > TRANSMUTATION_PERIOD){\n            _toDistribute = buffer;\n        }\n        uint256 _pendingdivs = _toDistribute.mul(depositedAlTokens[user]).div(totalSupplyAltokens);\n        uint256 _inbucket = tokensInBucket[user].add(dividendsOwing(user));\n        uint256 _realised = realisedTokens[user];\n        return (_depositedAl, _pendingdivs, _inbucket, _realised);\n    }\n\n    /// @dev Gets the status of multiple users in one call\n    ///\n    /// This function is used to query the contract to check for\n    /// accounts that have overfilled positions in order to check \n    /// who can be force transmuted.\n    ///\n    /// @param from the first index of the userList\n    /// @param to the last index of the userList\n    ///\n    /// returns the userList with their staking status in paginated form. \n    function getMultipleUserInfo(uint256 from, uint256 to)\n        public\n        view\n        returns (address[] memory theUserList, uint256[] memory theUserData)\n    {\n        uint256 i = from;\n        uint256 delta = to - from;\n        address[] memory _theUserList = new address[](delta); //user\n        uint256[] memory _theUserData = new uint256[](delta * 2); //deposited-bucket\n        uint256 y = 0;\n        uint256 _toDistribute = buffer.mul(block.number.sub(lastDepositBlock)).div(TRANSMUTATION_PERIOD);\n        if(block.number.sub(lastDepositBlock) > TRANSMUTATION_PERIOD){\n            _toDistribute = buffer;\n        }\n        for (uint256 x = 0; x < delta; x += 1) {\n            _theUserList[x] = userList[i];\n            _theUserData[y] = depositedAlTokens[userList[i]];\n            _theUserData[y + 1] = dividendsOwing(userList[i]).add(tokensInBucket[userList[i]]).add(_toDistribute.mul(depositedAlTokens[userList[i]]).div(totalSupplyAltokens));\n            y += 2;\n            i += 1;\n        }\n        return (_theUserList, _theUserData);\n    }\n\n    /// @dev Gets info on the buffer\n    ///\n    /// This function is used to query the contract to get the\n    /// latest state of the buffer\n    ///\n    /// @return _toDistribute the amount ready to be distributed\n    /// @return _deltaBlocks the amount of time since the last phased distribution\n    /// @return _buffer the amount in the buffer \n    function bufferInfo() public view returns (uint256 _toDistribute, uint256 _deltaBlocks, uint256 _buffer){\n        _deltaBlocks = block.number.sub(lastDepositBlock);\n        _buffer = buffer; \n        _toDistribute = _buffer.mul(_deltaBlocks).div(TRANSMUTATION_PERIOD);\n    }\n\n    /// @dev Sets the pending governance.\n    ///\n    /// This function reverts if the new pending governance is the zero address or the caller is not the current\n    /// governance. This is to prevent the contract governance being set to the zero address which would deadlock\n    /// privileged contract functionality.\n    ///\n    /// @param _pendingGovernance the new pending governance.\n    function setPendingGovernance(address _pendingGovernance) external onlyGov {\n        require(_pendingGovernance != ZERO_ADDRESS, \"Transmuter: 0 gov\");\n\n        pendingGovernance = _pendingGovernance;\n\n        emit PendingGovernanceUpdated(_pendingGovernance);\n    }\n\n    /// @dev Accepts the role as governance.\n    ///\n    /// This function reverts if the caller is not the new pending governance.\n    function acceptGovernance() external  {\n        require(msg.sender == pendingGovernance,\"!pendingGovernance\");\n        address _pendingGovernance = pendingGovernance;\n        governance = _pendingGovernance;\n\n        emit GovernanceUpdated(_pendingGovernance);\n    }\n\n    /// This function reverts if the caller is not governance\n    ///\n    /// @param _toWhitelist the account to mint tokens to.\n    /// @param _state the whitelist state.\n\n    function setWhitelist(address _toWhitelist, bool _state) external onlyGov {\n        whiteList[_toWhitelist] = _state;\n    }\n}\n",
  "sourcePath": "/Users/shr1ftyy/Personal/Computing/bounties/alcx/alchemix-protocol/contracts/Transmuter.sol",
  "compiler": {
    "name": "solc",
    "version": "0.6.12+commit.27d51765.Emscripten.clang"
  },
  "schemaVersion": "3.4.4",
  "updatedAt": "2022-01-11T15:05:28.390Z",
  "networkType": "ethereum",
  "devdoc": {
    "details": "Implementation of the {IERC20Burnable} interface. This implementation is agnostic to the way tokens are created. This means that a supply mechanism has to be added in a derived contract using {_mint}. For a generic mechanism see {ERC20PresetMinterPauser}. TIP: For a detailed writeup see our guide https://forum.zeppelin.solutions/t/how-to-implement-erc20-supply-mechanisms/226[How to implement supply mechanisms]. We have followed general OpenZeppelin guidelines: functions revert instead of returning `false` on failure. This behavior is nonetheless conventional and does not conflict with the expectations of ERC20 applications. Additionally, an {Approval} event is emitted on calls to {transferFrom}. This allows applications to reconstruct the allowance for all accounts just by listening to said events. Other implementations of the EIP may not emit these events, as it isn't required by the specification. Finally, the non-standard {decreaseAllowance} and {increaseAllowance} functions have been added to mitigate the well-known issues around setting allowances. See {IERC20Burnable-approve}.",
    "kind": "dev",
    "methods": {
      "acceptGovernance()": {
        "details": "Accepts the role as governance. This function reverts if the caller is not the new pending governance."
      },
      "bufferInfo()": {
        "details": "Gets info on the buffer This function is used to query the contract to get the latest state of the buffer",
        "returns": {
          "_buffer": "the amount in the buffer ",
          "_deltaBlocks": "the amount of time since the last phased distribution",
          "_toDistribute": "the amount ready to be distributed"
        }
      },
      "claim()": {
        "details": "claims the base token after it has been transmuted This function reverts if there is no realisedToken balance"
      },
      "distribute(address,uint256)": {
        "details": "Distributes the base token proportionally to all alToken stakers. This function is meant to be called by the Alchemist contract for when it is sending yield to the transmuter.  Anyone can call this and add funds, idk why they would do that though...",
        "params": {
          "amount": "the amount of base tokens to be distributed to the transmuter.",
          "origin": "the account that is sending the tokens to be distributed."
        }
      },
      "dividendsOwing(address)": {
        "returns": {
          "_0": "displays the user's share of the pooled alTokens."
        }
      },
      "exit()": {
        "details": "Transmutes and unstakes all alTokens This function combines the transmute and unstake functions for ease of use"
      },
      "forceTransmute(address)": {
        "details": "Executes transmute() on another account that has had more base tokens allocated to it than alTokens staked. The caller of this function will have the surlus base tokens credited to their tokensInBucket balance, rewarding them for performing this action This function reverts if the address to transmute is not over-filled.",
        "params": {
          "toTransmute": "address of the account you will force transmute."
        }
      },
      "getMultipleUserInfo(uint256,uint256)": {
        "details": "Gets the status of multiple users in one call This function is used to query the contract to check for accounts that have overfilled positions in order to check  who can be force transmuted.",
        "params": {
          "from": "the first index of the userList",
          "to": "the last index of the userList returns the userList with their staking status in paginated form. "
        }
      },
      "setPendingGovernance(address)": {
        "details": "Sets the pending governance. This function reverts if the new pending governance is the zero address or the caller is not the current governance. This is to prevent the contract governance being set to the zero address which would deadlock privileged contract functionality.",
        "params": {
          "_pendingGovernance": "the new pending governance."
        }
      },
      "setTransmutationPeriod(uint256)": {
        "details": "set the TRANSMUTATION_PERIOD variable sets the length (in blocks) of one full distribution phase"
      },
      "setWhitelist(address,bool)": {
        "params": {
          "_state": "the whitelist state.",
          "_toWhitelist": "the account to mint tokens to."
        }
      },
      "stake(uint256)": {
        "details": "Deposits alTokens into the transmuter ",
        "params": {
          "amount": "the amount of alTokens to stake"
        }
      },
      "transmute()": {
        "details": "Converts the staked alTokens to the base tokens in amount of the sum of pendingdivs and tokensInBucket once the alToken has been converted, it is burned, and the base token becomes realisedTokens which can be recieved using claim()     reverts if there are no pendingdivs or tokensInBucket"
      },
      "transmuteAndClaim()": {
        "details": "Transmutes and claims all converted base tokens. This function combines the transmute and claim functions while leaving your remaining alTokens staked."
      },
      "transmuteClaimAndWithdraw()": {
        "details": "Transmutes, claims base tokens, and withdraws alTokens. This function helps users to exit the transmuter contract completely after converting their alTokens to the base pair."
      },
      "unstake(uint256)": {
        "details": "Withdraws staked alTokens from the transmuter This function reverts if you try to draw more tokens than you deposited",
        "params": {
          "amount": "the amount of alTokens to unstake"
        }
      },
      "userInfo(address)": {
        "details": "Gets the status of a user's staking position. The total amount allocated to a user is the sum of pendingdivs and inbucket.",
        "params": {
          "user": "the address of the user you wish to query. returns user status"
        }
      }
    },
    "stateVariables": {
      "governance": {
        "details": "The address of the account which currently has administrative capabilities over this contract."
      },
      "pendingGovernance": {
        "details": "The address of the pending governance."
      },
      "pointMultiplier": {
        "details": "values needed to calculate the distribution of base asset in proportion for alTokens staked"
      },
      "whiteList": {
        "details": "alchemist addresses whitelisted"
      }
    },
    "version": 1
  },
  "userdoc": {
    "kind": "user",
    "methods": {
      "setWhitelist(address,bool)": {
        "notice": "This function reverts if the caller is not governance"
      }
    },
    "version": 1
  }
}