{
  "contractName": "TransmuterB",
  "abi": [
    {
      "inputs": [
        {
          "internalType": "address",
          "name": "_alToken",
          "type": "address"
        },
        {
          "internalType": "address",
          "name": "_token",
          "type": "address"
        },
        {
          "internalType": "address",
          "name": "_governance",
          "type": "address"
        }
      ],
      "stateMutability": "nonpayable",
      "type": "constructor"
    },
    {
      "anonymous": false,
      "inputs": [
        {
          "indexed": true,
          "internalType": "contract YearnVaultAdapterWithIndirection",
          "name": "adapter",
          "type": "address"
        }
      ],
      "name": "ActiveVaultUpdated",
      "type": "event"
    },
    {
      "anonymous": false,
      "inputs": [
        {
          "indexed": false,
          "internalType": "address",
          "name": "staker",
          "type": "address"
        },
        {
          "indexed": false,
          "internalType": "uint256",
          "name": "amountStaked",
          "type": "uint256"
        }
      ],
      "name": "AlUsdStaked",
      "type": "event"
    },
    {
      "anonymous": false,
      "inputs": [
        {
          "indexed": false,
          "internalType": "address",
          "name": "staker",
          "type": "address"
        },
        {
          "indexed": false,
          "internalType": "uint256",
          "name": "amountUnstaked",
          "type": "uint256"
        }
      ],
      "name": "AlUsdUnstaked",
      "type": "event"
    },
    {
      "anonymous": false,
      "inputs": [
        {
          "indexed": false,
          "internalType": "address",
          "name": "origin",
          "type": "address"
        },
        {
          "indexed": false,
          "internalType": "uint256",
          "name": "amount",
          "type": "uint256"
        }
      ],
      "name": "Distribution",
      "type": "event"
    },
    {
      "anonymous": false,
      "inputs": [
        {
          "indexed": false,
          "internalType": "address",
          "name": "transmutedBy",
          "type": "address"
        },
        {
          "indexed": false,
          "internalType": "address",
          "name": "transmutedTo",
          "type": "address"
        },
        {
          "indexed": false,
          "internalType": "uint256",
          "name": "amountTransmuted",
          "type": "uint256"
        }
      ],
      "name": "ForcedTransmutation",
      "type": "event"
    },
    {
      "anonymous": false,
      "inputs": [
        {
          "indexed": false,
          "internalType": "uint256",
          "name": "withdrawnAmount",
          "type": "uint256"
        },
        {
          "indexed": false,
          "internalType": "uint256",
          "name": "decreasedValue",
          "type": "uint256"
        }
      ],
      "name": "FundsHarvested",
      "type": "event"
    },
    {
      "anonymous": false,
      "inputs": [
        {
          "indexed": true,
          "internalType": "uint256",
          "name": "vaultId",
          "type": "uint256"
        },
        {
          "indexed": false,
          "internalType": "uint256",
          "name": "withdrawnAmount",
          "type": "uint256"
        },
        {
          "indexed": false,
          "internalType": "uint256",
          "name": "decreasedValue",
          "type": "uint256"
        }
      ],
      "name": "FundsRecalled",
      "type": "event"
    },
    {
      "anonymous": false,
      "inputs": [
        {
          "indexed": false,
          "internalType": "address",
          "name": "governance",
          "type": "address"
        }
      ],
      "name": "GovernanceUpdated",
      "type": "event"
    },
    {
      "anonymous": false,
      "inputs": [
        {
          "indexed": false,
          "internalType": "address[]",
          "name": "keepers",
          "type": "address[]"
        },
        {
          "indexed": false,
          "internalType": "bool[]",
          "name": "states",
          "type": "bool[]"
        }
      ],
      "name": "KeepersSet",
      "type": "event"
    },
    {
      "anonymous": false,
      "inputs": [
        {
          "indexed": false,
          "internalType": "address",
          "name": "migrateTo",
          "type": "address"
        },
        {
          "indexed": false,
          "internalType": "uint256",
          "name": "fundsMigrated",
          "type": "uint256"
        }
      ],
      "name": "MigrationComplete",
      "type": "event"
    },
    {
      "anonymous": false,
      "inputs": [
        {
          "indexed": false,
          "internalType": "uint256",
          "name": "minUserActionDelay",
          "type": "uint256"
        }
      ],
      "name": "MinUserActionDelayUpdated",
      "type": "event"
    },
    {
      "anonymous": false,
      "inputs": [
        {
          "indexed": false,
          "internalType": "bool",
          "name": "status",
          "type": "bool"
        }
      ],
      "name": "PauseUpdated",
      "type": "event"
    },
    {
      "anonymous": false,
      "inputs": [
        {
          "indexed": false,
          "internalType": "address",
          "name": "pendingGovernance",
          "type": "address"
        }
      ],
      "name": "PendingGovernanceUpdated",
      "type": "event"
    },
    {
      "anonymous": false,
      "inputs": [
        {
          "indexed": false,
          "internalType": "uint256",
          "name": "plantableMargin",
          "type": "uint256"
        }
      ],
      "name": "PlantableMarginUpdated",
      "type": "event"
    },
    {
      "anonymous": false,
      "inputs": [
        {
          "indexed": false,
          "internalType": "uint256",
          "name": "plantableThreshold",
          "type": "uint256"
        }
      ],
      "name": "PlantableThresholdUpdated",
      "type": "event"
    },
    {
      "anonymous": false,
      "inputs": [
        {
          "indexed": false,
          "internalType": "address",
          "name": "treasury",
          "type": "address"
        }
      ],
      "name": "RewardsUpdated",
      "type": "event"
    },
    {
      "anonymous": false,
      "inputs": [
        {
          "indexed": false,
          "internalType": "address",
          "name": "sentinel",
          "type": "address"
        }
      ],
      "name": "SentinelUpdated",
      "type": "event"
    },
    {
      "anonymous": false,
      "inputs": [
        {
          "indexed": false,
          "internalType": "address",
          "name": "claimant",
          "type": "address"
        },
        {
          "indexed": false,
          "internalType": "address",
          "name": "token",
          "type": "address"
        },
        {
          "indexed": false,
          "internalType": "uint256",
          "name": "amountClaimed",
          "type": "uint256"
        }
      ],
      "name": "TokenClaimed",
      "type": "event"
    },
    {
      "anonymous": false,
      "inputs": [
        {
          "indexed": false,
          "internalType": "address",
          "name": "transmutedTo",
          "type": "address"
        },
        {
          "indexed": false,
          "internalType": "uint256",
          "name": "amountTransmuted",
          "type": "uint256"
        }
      ],
      "name": "Transmutation",
      "type": "event"
    },
    {
      "anonymous": false,
      "inputs": [
        {
          "indexed": false,
          "internalType": "uint256",
          "name": "newTransmutationPeriod",
          "type": "uint256"
        }
      ],
      "name": "TransmuterPeriodUpdated",
      "type": "event"
    },
    {
      "anonymous": false,
      "inputs": [
        {
          "indexed": false,
          "internalType": "address",
          "name": "whitelisted",
          "type": "address"
        },
        {
          "indexed": false,
          "internalType": "bool",
          "name": "state",
          "type": "bool"
        }
      ],
      "name": "WhitelistSet",
      "type": "event"
    },
    {
      "inputs": [],
      "name": "ZERO_ADDRESS",
      "outputs": [
        {
          "internalType": "address",
          "name": "",
          "type": "address"
        }
      ],
      "stateMutability": "view",
      "type": "function",
      "constant": true
    },
    {
      "inputs": [
        {
          "internalType": "contract YearnVaultAdapterWithIndirection",
          "name": "",
          "type": "address"
        }
      ],
      "name": "adapters",
      "outputs": [
        {
          "internalType": "bool",
          "name": "",
          "type": "bool"
        }
      ],
      "stateMutability": "view",
      "type": "function",
      "constant": true
    },
    {
      "inputs": [],
      "name": "alToken",
      "outputs": [
        {
          "internalType": "address",
          "name": "",
          "type": "address"
        }
      ],
      "stateMutability": "view",
      "type": "function",
      "constant": true
    },
    {
      "inputs": [],
      "name": "buffer",
      "outputs": [
        {
          "internalType": "uint256",
          "name": "",
          "type": "uint256"
        }
      ],
      "stateMutability": "view",
      "type": "function",
      "constant": true
    },
    {
      "inputs": [
        {
          "internalType": "address",
          "name": "",
          "type": "address"
        }
      ],
      "name": "depositedAlTokens",
      "outputs": [
        {
          "internalType": "uint256",
          "name": "",
          "type": "uint256"
        }
      ],
      "stateMutability": "view",
      "type": "function",
      "constant": true
    },
    {
      "inputs": [],
      "name": "governance",
      "outputs": [
        {
          "internalType": "address",
          "name": "",
          "type": "address"
        }
      ],
      "stateMutability": "view",
      "type": "function",
      "constant": true
    },
    {
      "inputs": [],
      "name": "initialized",
      "outputs": [
        {
          "internalType": "bool",
          "name": "",
          "type": "bool"
        }
      ],
      "stateMutability": "view",
      "type": "function",
      "constant": true
    },
    {
      "inputs": [
        {
          "internalType": "address",
          "name": "",
          "type": "address"
        }
      ],
      "name": "keepers",
      "outputs": [
        {
          "internalType": "bool",
          "name": "",
          "type": "bool"
        }
      ],
      "stateMutability": "view",
      "type": "function",
      "constant": true
    },
    {
      "inputs": [],
      "name": "lastDepositBlock",
      "outputs": [
        {
          "internalType": "uint256",
          "name": "",
          "type": "uint256"
        }
      ],
      "stateMutability": "view",
      "type": "function",
      "constant": true
    },
    {
      "inputs": [
        {
          "internalType": "address",
          "name": "",
          "type": "address"
        }
      ],
      "name": "lastDividendPoints",
      "outputs": [
        {
          "internalType": "uint256",
          "name": "",
          "type": "uint256"
        }
      ],
      "stateMutability": "view",
      "type": "function",
      "constant": true
    },
    {
      "inputs": [
        {
          "internalType": "address",
          "name": "",
          "type": "address"
        }
      ],
      "name": "lastUserAction",
      "outputs": [
        {
          "internalType": "uint256",
          "name": "",
          "type": "uint256"
        }
      ],
      "stateMutability": "view",
      "type": "function",
      "constant": true
    },
    {
      "inputs": [],
      "name": "minUserActionDelay",
      "outputs": [
        {
          "internalType": "uint256",
          "name": "",
          "type": "uint256"
        }
      ],
      "stateMutability": "view",
      "type": "function",
      "constant": true
    },
    {
      "inputs": [],
      "name": "nextUser",
      "outputs": [
        {
          "internalType": "uint256",
          "name": "",
          "type": "uint256"
        }
      ],
      "stateMutability": "view",
      "type": "function",
      "constant": true
    },
    {
      "inputs": [],
      "name": "pause",
      "outputs": [
        {
          "internalType": "bool",
          "name": "",
          "type": "bool"
        }
      ],
      "stateMutability": "view",
      "type": "function",
      "constant": true
    },
    {
      "inputs": [],
      "name": "pendingGovernance",
      "outputs": [
        {
          "internalType": "address",
          "name": "",
          "type": "address"
        }
      ],
      "stateMutability": "view",
      "type": "function",
      "constant": true
    },
    {
      "inputs": [],
      "name": "plantableMargin",
      "outputs": [
        {
          "internalType": "uint256",
          "name": "",
          "type": "uint256"
        }
      ],
      "stateMutability": "view",
      "type": "function",
      "constant": true
    },
    {
      "inputs": [],
      "name": "plantableThreshold",
      "outputs": [
        {
          "internalType": "uint256",
          "name": "",
          "type": "uint256"
        }
      ],
      "stateMutability": "view",
      "type": "function",
      "constant": true
    },
    {
      "inputs": [],
      "name": "pointMultiplier",
      "outputs": [
        {
          "internalType": "uint256",
          "name": "",
          "type": "uint256"
        }
      ],
      "stateMutability": "view",
      "type": "function",
      "constant": true
    },
    {
      "inputs": [
        {
          "internalType": "address",
          "name": "",
          "type": "address"
        }
      ],
      "name": "realisedTokens",
      "outputs": [
        {
          "internalType": "uint256",
          "name": "",
          "type": "uint256"
        }
      ],
      "stateMutability": "view",
      "type": "function",
      "constant": true
    },
    {
      "inputs": [],
      "name": "rewards",
      "outputs": [
        {
          "internalType": "address",
          "name": "",
          "type": "address"
        }
      ],
      "stateMutability": "view",
      "type": "function",
      "constant": true
    },
    {
      "inputs": [],
      "name": "sentinel",
      "outputs": [
        {
          "internalType": "address",
          "name": "",
          "type": "address"
        }
      ],
      "stateMutability": "view",
      "type": "function",
      "constant": true
    },
    {
      "inputs": [],
      "name": "token",
      "outputs": [
        {
          "internalType": "address",
          "name": "",
          "type": "address"
        }
      ],
      "stateMutability": "view",
      "type": "function",
      "constant": true
    },
    {
      "inputs": [
        {
          "internalType": "address",
          "name": "",
          "type": "address"
        }
      ],
      "name": "tokensInBucket",
      "outputs": [
        {
          "internalType": "uint256",
          "name": "",
          "type": "uint256"
        }
      ],
      "stateMutability": "view",
      "type": "function",
      "constant": true
    },
    {
      "inputs": [],
      "name": "totalDividendPoints",
      "outputs": [
        {
          "internalType": "uint256",
          "name": "",
          "type": "uint256"
        }
      ],
      "stateMutability": "view",
      "type": "function",
      "constant": true
    },
    {
      "inputs": [],
      "name": "totalSupplyAltokens",
      "outputs": [
        {
          "internalType": "uint256",
          "name": "",
          "type": "uint256"
        }
      ],
      "stateMutability": "view",
      "type": "function",
      "constant": true
    },
    {
      "inputs": [],
      "name": "transmutationPeriod",
      "outputs": [
        {
          "internalType": "uint256",
          "name": "",
          "type": "uint256"
        }
      ],
      "stateMutability": "view",
      "type": "function",
      "constant": true
    },
    {
      "inputs": [],
      "name": "unclaimedDividends",
      "outputs": [
        {
          "internalType": "uint256",
          "name": "",
          "type": "uint256"
        }
      ],
      "stateMutability": "view",
      "type": "function",
      "constant": true
    },
    {
      "inputs": [
        {
          "internalType": "address",
          "name": "",
          "type": "address"
        }
      ],
      "name": "userIsKnown",
      "outputs": [
        {
          "internalType": "bool",
          "name": "",
          "type": "bool"
        }
      ],
      "stateMutability": "view",
      "type": "function",
      "constant": true
    },
    {
      "inputs": [
        {
          "internalType": "uint256",
          "name": "",
          "type": "uint256"
        }
      ],
      "name": "userList",
      "outputs": [
        {
          "internalType": "address",
          "name": "",
          "type": "address"
        }
      ],
      "stateMutability": "view",
      "type": "function",
      "constant": true
    },
    {
      "inputs": [
        {
          "internalType": "address",
          "name": "",
          "type": "address"
        }
      ],
      "name": "whiteList",
      "outputs": [
        {
          "internalType": "bool",
          "name": "",
          "type": "bool"
        }
      ],
      "stateMutability": "view",
      "type": "function",
      "constant": true
    },
    {
      "inputs": [
        {
          "internalType": "address",
          "name": "account",
          "type": "address"
        }
      ],
      "name": "dividendsOwing",
      "outputs": [
        {
          "internalType": "uint256",
          "name": "",
          "type": "uint256"
        }
      ],
      "stateMutability": "view",
      "type": "function",
      "constant": true
    },
    {
      "inputs": [
        {
          "internalType": "uint256",
          "name": "newTransmutationPeriod",
          "type": "uint256"
        }
      ],
      "name": "setTransmutationPeriod",
      "outputs": [],
      "stateMutability": "nonpayable",
      "type": "function"
    },
    {
      "inputs": [],
      "name": "claim",
      "outputs": [],
      "stateMutability": "nonpayable",
      "type": "function"
    },
    {
      "inputs": [
        {
          "internalType": "uint256",
          "name": "amount",
          "type": "uint256"
        }
      ],
      "name": "unstake",
      "outputs": [],
      "stateMutability": "nonpayable",
      "type": "function"
    },
    {
      "inputs": [
        {
          "internalType": "uint256",
          "name": "amount",
          "type": "uint256"
        }
      ],
      "name": "stake",
      "outputs": [],
      "stateMutability": "nonpayable",
      "type": "function"
    },
    {
      "inputs": [],
      "name": "transmute",
      "outputs": [],
      "stateMutability": "nonpayable",
      "type": "function"
    },
    {
      "inputs": [
        {
          "internalType": "address",
          "name": "toTransmute",
          "type": "address"
        }
      ],
      "name": "forceTransmute",
      "outputs": [],
      "stateMutability": "nonpayable",
      "type": "function"
    },
    {
      "inputs": [],
      "name": "exit",
      "outputs": [],
      "stateMutability": "nonpayable",
      "type": "function"
    },
    {
      "inputs": [],
      "name": "transmuteAndClaim",
      "outputs": [],
      "stateMutability": "nonpayable",
      "type": "function"
    },
    {
      "inputs": [],
      "name": "transmuteClaimAndWithdraw",
      "outputs": [],
      "stateMutability": "nonpayable",
      "type": "function"
    },
    {
      "inputs": [
        {
          "internalType": "address",
          "name": "origin",
          "type": "address"
        },
        {
          "internalType": "uint256",
          "name": "amount",
          "type": "uint256"
        }
      ],
      "name": "distribute",
      "outputs": [],
      "stateMutability": "nonpayable",
      "type": "function"
    },
    {
      "inputs": [
        {
          "internalType": "address",
          "name": "user",
          "type": "address"
        }
      ],
      "name": "userInfo",
      "outputs": [
        {
          "internalType": "uint256",
          "name": "depositedAl",
          "type": "uint256"
        },
        {
          "internalType": "uint256",
          "name": "pendingdivs",
          "type": "uint256"
        },
        {
          "internalType": "uint256",
          "name": "inbucket",
          "type": "uint256"
        },
        {
          "internalType": "uint256",
          "name": "realised",
          "type": "uint256"
        }
      ],
      "stateMutability": "view",
      "type": "function",
      "constant": true
    },
    {
      "inputs": [
        {
          "internalType": "uint256",
          "name": "from",
          "type": "uint256"
        },
        {
          "internalType": "uint256",
          "name": "to",
          "type": "uint256"
        }
      ],
      "name": "getMultipleUserInfo",
      "outputs": [
        {
          "internalType": "address[]",
          "name": "theUserList",
          "type": "address[]"
        },
        {
          "internalType": "uint256[]",
          "name": "theUserData",
          "type": "uint256[]"
        }
      ],
      "stateMutability": "view",
      "type": "function",
      "constant": true
    },
    {
      "inputs": [],
      "name": "bufferInfo",
      "outputs": [
        {
          "internalType": "uint256",
          "name": "_toDistribute",
          "type": "uint256"
        },
        {
          "internalType": "uint256",
          "name": "_deltaBlocks",
          "type": "uint256"
        },
        {
          "internalType": "uint256",
          "name": "_buffer",
          "type": "uint256"
        }
      ],
      "stateMutability": "view",
      "type": "function",
      "constant": true
    },
    {
      "inputs": [
        {
          "internalType": "address",
          "name": "_pendingGovernance",
          "type": "address"
        }
      ],
      "name": "setPendingGovernance",
      "outputs": [],
      "stateMutability": "nonpayable",
      "type": "function"
    },
    {
      "inputs": [],
      "name": "acceptGovernance",
      "outputs": [],
      "stateMutability": "nonpayable",
      "type": "function"
    },
    {
      "inputs": [
        {
          "internalType": "address",
          "name": "_toWhitelist",
          "type": "address"
        },
        {
          "internalType": "bool",
          "name": "_state",
          "type": "bool"
        }
      ],
      "name": "setWhitelist",
      "outputs": [],
      "stateMutability": "nonpayable",
      "type": "function"
    },
    {
      "inputs": [
        {
          "internalType": "address[]",
          "name": "_keepers",
          "type": "address[]"
        },
        {
          "internalType": "bool[]",
          "name": "_states",
          "type": "bool[]"
        }
      ],
      "name": "setKeepers",
      "outputs": [],
      "stateMutability": "nonpayable",
      "type": "function"
    },
    {
      "inputs": [
        {
          "internalType": "contract YearnVaultAdapterWithIndirection",
          "name": "_adapter",
          "type": "address"
        }
      ],
      "name": "initialize",
      "outputs": [],
      "stateMutability": "nonpayable",
      "type": "function"
    },
    {
      "inputs": [
        {
          "internalType": "contract YearnVaultAdapterWithIndirection",
          "name": "_adapter",
          "type": "address"
        }
      ],
      "name": "migrate",
      "outputs": [],
      "stateMutability": "nonpayable",
      "type": "function"
    },
    {
      "inputs": [],
      "name": "vaultCount",
      "outputs": [
        {
          "internalType": "uint256",
          "name": "",
          "type": "uint256"
        }
      ],
      "stateMutability": "view",
      "type": "function",
      "constant": true
    },
    {
      "inputs": [
        {
          "internalType": "uint256",
          "name": "_vaultId",
          "type": "uint256"
        }
      ],
      "name": "getVaultAdapter",
      "outputs": [
        {
          "internalType": "address",
          "name": "",
          "type": "address"
        }
      ],
      "stateMutability": "view",
      "type": "function",
      "constant": true
    },
    {
      "inputs": [
        {
          "internalType": "uint256",
          "name": "_vaultId",
          "type": "uint256"
        }
      ],
      "name": "getVaultTotalDeposited",
      "outputs": [
        {
          "internalType": "uint256",
          "name": "",
          "type": "uint256"
        }
      ],
      "stateMutability": "view",
      "type": "function",
      "constant": true
    },
    {
      "inputs": [
        {
          "internalType": "uint256",
          "name": "_vaultId",
          "type": "uint256"
        }
      ],
      "name": "recallAllFundsFromVault",
      "outputs": [],
      "stateMutability": "nonpayable",
      "type": "function"
    },
    {
      "inputs": [
        {
          "internalType": "uint256",
          "name": "_vaultId",
          "type": "uint256"
        },
        {
          "internalType": "uint256",
          "name": "_amount",
          "type": "uint256"
        }
      ],
      "name": "recallFundsFromVault",
      "outputs": [],
      "stateMutability": "nonpayable",
      "type": "function"
    },
    {
      "inputs": [
        {
          "internalType": "address",
          "name": "_sentinel",
          "type": "address"
        }
      ],
      "name": "setSentinel",
      "outputs": [],
      "stateMutability": "nonpayable",
      "type": "function"
    },
    {
      "inputs": [
        {
          "internalType": "uint256",
          "name": "_plantableThreshold",
          "type": "uint256"
        }
      ],
      "name": "setPlantableThreshold",
      "outputs": [],
      "stateMutability": "nonpayable",
      "type": "function"
    },
    {
      "inputs": [
        {
          "internalType": "uint256",
          "name": "_plantableMargin",
          "type": "uint256"
        }
      ],
      "name": "setPlantableMargin",
      "outputs": [],
      "stateMutability": "nonpayable",
      "type": "function"
    },
    {
      "inputs": [
        {
          "internalType": "uint256",
          "name": "_minUserActionDelay",
          "type": "uint256"
        }
      ],
      "name": "setMinUserActionDelay",
      "outputs": [],
      "stateMutability": "nonpayable",
      "type": "function"
    },
    {
      "inputs": [
        {
          "internalType": "bool",
          "name": "_pause",
          "type": "bool"
        }
      ],
      "name": "setPause",
      "outputs": [],
      "stateMutability": "nonpayable",
      "type": "function"
    },
    {
      "inputs": [
        {
          "internalType": "uint256",
          "name": "_vaultId",
          "type": "uint256"
        }
      ],
      "name": "harvest",
      "outputs": [
        {
          "internalType": "uint256",
          "name": "",
          "type": "uint256"
        },
        {
          "internalType": "uint256",
          "name": "",
          "type": "uint256"
        }
      ],
      "stateMutability": "nonpayable",
      "type": "function"
    },
    {
      "inputs": [
        {
          "internalType": "address",
          "name": "_rewards",
          "type": "address"
        }
      ],
      "name": "setRewards",
      "outputs": [],
      "stateMutability": "nonpayable",
      "type": "function"
    },
    {
      "inputs": [
        {
          "internalType": "address",
          "name": "migrateTo",
          "type": "address"
        }
      ],
      "name": "migrateFunds",
      "outputs": [],
      "stateMutability": "nonpayable",
      "type": "function"
    }
  ],
  "bytecode": "0x6080604052678ac7230489e80000600d556a0422ca8b0a00a42500000060125560056013553480156200003157600080fd5b50604051620056ab380380620056ab833981810160405260608110156200005757600080fd5b5080516020820151604090920151909190600160a060020a038116620000de57604080517f08c379a000000000000000000000000000000000000000000000000000000000815260206004820152601160248201527f5472616e736d757465723a203020676f76000000000000000000000000000000604482015290519081900360640190fd5b60148054600160a060020a03928316600160a060020a03199182161790915560018054948316948216949094178455600280549390921692169190911790556207a120600055601c556016805460a060020a60ff0219167401000000000000000000000000000000000000000017905561554d806200015e6000396000f3fe608060405234801561001057600080fd5b50600436106103e2576000357c01000000000000000000000000000000000000000000000000000000009004806381ac45fb1161021c578063c4d66de811610137578063ec38a862116100ca578063f58c251c11610099578063f58c251c14610c02578063f93f394c14610c0a578063fb93210814610c3d578063fc0c546a14610c76576103e2565b8063ec38a86214610bb7578063edaafe2014610bea578063f1f7920014610bf2578063f39c38a014610bfa576103e2565b8063ddc6326211610106578063ddc6326214610b3e578063e044205e14610b74578063e5711ffc14610b7c578063e9fad8ee14610baf576103e2565b8063c4d66de814610ab3578063ce5494bb14610ae6578063d2c2949214610b19578063d42c11e114610b36576103e2565b8063a694fc3a116101af578063b870d5981161017e578063b870d598146109fb578063bedb86fb14610a2e578063bf51929f14610a4d578063bff170b914610a80576103e2565b8063a694fc3a14610986578063a704e8ad146109a3578063a7c6a100146109d6578063aaf16660146109de576103e2565b80639ec5a894116101eb5780639ec5a8941461093c5780639f4216e814610944578063a02fbe2d14610961578063a196cf2e1461097e576103e2565b806381ac45fb146108dc5780638391e45c146108e45780638456cb591461091757806394ff11991461091f576103e2565b80632e17de781161030c57806353d6fd591161029f5780636a4f4b051161026e5780636a4f4b051461079157806370460eb11461085357806379070a1214610876578063806985f7146108a9576103e2565b806353d6fd591461073e5780635aa6e67514610779578063658b98a9146107815780636790fab314610789576103e2565b80634bf04bd1116102db5780634bf04bd1146106f35780634e71d92d146106fb5780635271000714610703578063538ba4f914610736576103e2565b80632e17de7814610668578063372c12b1146106855780633bbd64bc146106b85780633cb802b9146106eb576103e2565b80631959a00211610384578063238efcbc11610353578063238efcbc1461060a5780632670fdd8146106125780632a03cf68146106585780632a3d7c8114610660576103e2565b80631959a002146105875780631acce030146105e05780631aeb1986146105fa5780632113342d14610602576103e2565b806309dac061116103c057806309dac061146104e85780630abb60351461051b5780631486bf6e1461054e578063158ef93e1461056b576103e2565b806303036290146103e757806305d2301d146104a35780630668911e146104c9575b600080fd5b61040a600480360360408110156103fd57600080fd5b5080359060200135610c7e565b604051808060200180602001838103835285818151815260200191508051906020019060200280838360005b8381101561044e578181015183820152602001610436565b50505050905001838103825284818151815260200191508051906020019060200280838360005b8381101561048d578181015183820152602001610475565b5050505090500194505050505060405180910390f35b6104ab610edb565b60408051938452602084019290925282820152519081900360600190f35b6104e6600480360360208110156104df57600080fd5b5035610f15565b005b6104e6600480360360208110156104fe57600080fd5b503573ffffffffffffffffffffffffffffffffffffffff16610fd6565b6104e66004803603602081101561053157600080fd5b503573ffffffffffffffffffffffffffffffffffffffff16611141565b6104e66004803603602081101561056457600080fd5b50356112c2565b610573611383565b604080519115158252519081900360200190f35b6105ba6004803603602081101561059d57600080fd5b503573ffffffffffffffffffffffffffffffffffffffff1661138c565b604080519485526020850193909352838301919091526060830152519081900360800190f35b6105e86114a5565b60408051918252519081900360200190f35b6105e86114ab565b6105e86114b1565b6104e66114b7565b61062f6004803603602081101561062857600080fd5b50356115b9565b6040805173ffffffffffffffffffffffffffffffffffffffff9092168252519081900360200190f35b6104e66115e5565b6105e8611677565b6104e66004803603602081101561067e57600080fd5b503561167d565b6105736004803603602081101561069b57600080fd5b503573ffffffffffffffffffffffffffffffffffffffff166118ed565b610573600480360360208110156106ce57600080fd5b503573ffffffffffffffffffffffffffffffffffffffff16611902565b6105e8611917565b6105e861191d565b6104e6611923565b6105e86004803603602081101561071957600080fd5b503573ffffffffffffffffffffffffffffffffffffffff16611a71565b61062f611a83565b6104e66004803603604081101561075457600080fd5b5073ffffffffffffffffffffffffffffffffffffffff81351690602001351515611a88565b61062f611b9d565b6105e8611bb9565b61062f611bbf565b6104e6600480360360408110156107a757600080fd5b8101906020810181356401000000008111156107c257600080fd5b8201836020820111156107d457600080fd5b803590602001918460208302840111640100000000831117156107f657600080fd5b91939092909160208101903564010000000081111561081457600080fd5b82018360208201111561082657600080fd5b8035906020019184602083028401116401000000008311171561084857600080fd5b509092509050611bdb565b6104e66004803603604081101561086957600080fd5b5080359060200135611dcd565b6105736004803603602081101561088c57600080fd5b503573ffffffffffffffffffffffffffffffffffffffff16611e92565b6105e8600480360360208110156108bf57600080fd5b503573ffffffffffffffffffffffffffffffffffffffff16611ea7565b6105e8611eb9565b6105e8600480360360208110156108fa57600080fd5b503573ffffffffffffffffffffffffffffffffffffffff16611ebf565b610573611f35565b6104e66004803603602081101561093557600080fd5b5035611f56565b61062f612017565b61062f6004803603602081101561095a57600080fd5b5035612033565b6104e66004803603602081101561097757600080fd5b503561205b565b6105e861211c565b6104e66004803603602081101561099c57600080fd5b5035612122565b6105e8600480360360208110156109b957600080fd5b503573ffffffffffffffffffffffffffffffffffffffff1661254e565b6105e8612560565b6105e8600480360360208110156109f457600080fd5b5035612571565b6105e860048036036020811015610a1157600080fd5b503573ffffffffffffffffffffffffffffffffffffffff1661258a565b6104e660048036036020811015610a4457600080fd5b5035151561259c565b6104e660048036036020811015610a6357600080fd5b503573ffffffffffffffffffffffffffffffffffffffff166126c3565b6104e660048036036020811015610a9657600080fd5b503573ffffffffffffffffffffffffffffffffffffffff16612a96565b6104e660048036036020811015610ac957600080fd5b503573ffffffffffffffffffffffffffffffffffffffff166130dd565b6104e660048036036020811015610afc57600080fd5b503573ffffffffffffffffffffffffffffffffffffffff1661327a565b6104e660048036036020811015610b2f57600080fd5b503561330c565b6105e86133cc565b610b5b60048036036020811015610b5457600080fd5b50356133d2565b6040805192835260208301919091528051918290030190f35b6104e66134d5565b61057360048036036020811015610b9257600080fd5b503573ffffffffffffffffffffffffffffffffffffffff1661357e565b6104e6613593565b6104e660048036036020811015610bcd57600080fd5b503573ffffffffffffffffffffffffffffffffffffffff1661361b565b6105e8613786565b6104e661378c565b61062f613c60565b61062f613c7c565b6105e860048036036020811015610c2057600080fd5b503573ffffffffffffffffffffffffffffffffffffffff16613c98565b6104e660048036036040811015610c5357600080fd5b5073ffffffffffffffffffffffffffffffffffffffff8135169060200135613caa565b61062f613ec2565b60608083808403828167ffffffffffffffff81118015610c9d57600080fd5b50604051908082528060200260200182016040528015610cc7578160200160208202803683370190505b50905060608260020267ffffffffffffffff81118015610ce657600080fd5b50604051908082528060200260200182016040528015610d10578160200160208202803683370190505b509050600080610d43600054610d3d610d34600c5443613ede90919063ffffffff16565b600b5490613f5a565b90613fcd565b9050600054610d5d600c5443613ede90919063ffffffff16565b1115610d685750600b545b60005b85811015610ec857600087815260086020526040902054855173ffffffffffffffffffffffffffffffffffffffff90911690869083908110610da957fe5b73ffffffffffffffffffffffffffffffffffffffff9283166020918202929092018101919091526000898152600882526040808220549093168152600390915220548451859085908110610df957fe5b602090810291909101810191909152600a5460008981526008835260408082205473ffffffffffffffffffffffffffffffffffffffff16825260039093529190912054610e9b91610e4f91610d3d908690613f5a565b60008981526008602081815260408084205473ffffffffffffffffffffffffffffffffffffffff168085526004835290842054938d9052919052610e9591908290611ebf565b9061404e565b848460010181518110610eaa57fe5b60209081029190910101526001968701966002939093019201610d6b565b50929650909450505050505b9250929050565b6000806000610ef5600c5443613ede90919063ffffffff16565b600b546000549193509150610f0e90610d3d8385613f5a565b9250909192565b60145473ffffffffffffffffffffffffffffffffffffffff163314610f9b57604080517f08c379a000000000000000000000000000000000000000000000000000000000815260206004820152601760248201527f5472616e736d757465723a2021676f7665726e616e6365000000000000000000604482015290519081900360640190fd5b60128190556040805182815290517fe77487d7758cc0f4820329f0d13f96448757377d4bf03ca31ce49cc9e151486f9181900360200190a150565b60145473ffffffffffffffffffffffffffffffffffffffff16331461105c57604080517f08c379a000000000000000000000000000000000000000000000000000000000815260206004820152601760248201527f5472616e736d757465723a2021676f7665726e616e6365000000000000000000604482015290519081900360640190fd5b73ffffffffffffffffffffffffffffffffffffffff81166110c8576040517f08c379a000000000000000000000000000000000000000000000000000000000815260040180806020018281038252602b8152602001806154ed602b913960400191505060405180910390fd5b6016805473ffffffffffffffffffffffffffffffffffffffff83167fffffffffffffffffffffffff0000000000000000000000000000000000000000909116811790915560408051918252517fdc117600f93282860144d2cd2745f8e2e15c3ca2a32b4290c30f7cd1ae7ffcb99181900360200190a150565b60145473ffffffffffffffffffffffffffffffffffffffff1633146111c757604080517f08c379a000000000000000000000000000000000000000000000000000000000815260206004820152601760248201527f5472616e736d757465723a2021676f7665726e616e6365000000000000000000604482015290519081900360640190fd5b73ffffffffffffffffffffffffffffffffffffffff811661124957604080517f08c379a000000000000000000000000000000000000000000000000000000000815260206004820152601160248201527f5472616e736d757465723a203020676f76000000000000000000000000000000604482015290519081900360640190fd5b6015805473ffffffffffffffffffffffffffffffffffffffff83167fffffffffffffffffffffffff0000000000000000000000000000000000000000909116811790915560408051918252517fc9e2377236eab4280090ce8f2317332649736d92f00dcf20a8dd6684ec5e78399181900360200190a150565b60145473ffffffffffffffffffffffffffffffffffffffff16331461134857604080517f08c379a000000000000000000000000000000000000000000000000000000000815260206004820152601760248201527f5472616e736d757465723a2021676f7665726e616e6365000000000000000000604482015290519081900360640190fd5b601c8190556040805182815290517f3bff5293be89c925015798c1dfc042b8a1108bad4eb02ba603aea7ed96ac0cfd9181900360200190a150565b601a5460ff1681565b73ffffffffffffffffffffffffffffffffffffffff81166000908152600360205260408120548154600c5483928392839283916113d291610d3d90610d34904390613ede565b90506000546113ec600c5443613ede90919063ffffffff16565b11156113f75750600b545b600a5473ffffffffffffffffffffffffffffffffffffffff8816600090815260036020526040812054909161143191610d3d908590613f5a565b9050600061146d6114418a611ebf565b73ffffffffffffffffffffffffffffffffffffffff8b166000908152600460205260409020549061404e565b73ffffffffffffffffffffffffffffffffffffffff999099166000908152600560205260409020549399919897509295509350505050565b60135481565b60125481565b600e5481565b60155473ffffffffffffffffffffffffffffffffffffffff16331461153d57604080517f08c379a000000000000000000000000000000000000000000000000000000000815260206004820152601260248201527f2170656e64696e67476f7665726e616e63650000000000000000000000000000604482015290519081900360640190fd5b601554601480547fffffffffffffffffffffffff00000000000000000000000000000000000000001673ffffffffffffffffffffffffffffffffffffffff90921691821790556040805182815290517f9d3e522e1e47a2f6009739342b9cc7b252a1888154e843ab55ee1c81745795ab9181900360200190a150565b6000806115c76019846140c2565b5473ffffffffffffffffffffffffffffffffffffffff169392505050565b6115ee336140e9565b1580156115fa57503332145b61166557604080517f08c379a000000000000000000000000000000000000000000000000000000000815260206004820152601160248201527f6e6f20636f6e74726163742063616c6c73000000000000000000000000000000604482015290519081900360640190fd5b61166d61378c565b611675611923565b565b600c5481565b611686336140e9565b15801561169257503332145b6116fd57604080517f08c379a000000000000000000000000000000000000000000000000000000000815260206004820152601160248201527f6e6f20636f6e74726163742063616c6c73000000000000000000000000000000604482015290519081900360640190fd5b33600061170982611ebf565b9050801561177857600f5461171e9082613ede565b600f5573ffffffffffffffffffffffffffffffffffffffff8216600090815260046020526040902054611751908261404e565b73ffffffffffffffffffffffffffffffffffffffff83166000908152600460205260409020555b600e5473ffffffffffffffffffffffffffffffffffffffff83166000908152600660209081526040808320939093553380835260039091529190205484111561180c576040517f08c379a000000000000000000000000000000000000000000000000000000000815260040180806020018281038252603381526020018061540c6033913960400191505060405180910390fd5b73ffffffffffffffffffffffffffffffffffffffff811660009081526003602052604090205461183c9085613ede565b73ffffffffffffffffffffffffffffffffffffffff8216600090815260036020526040902055600a5461186f9085613ede565b600a556001546118969073ffffffffffffffffffffffffffffffffffffffff1682866140ef565b6040805173ffffffffffffffffffffffffffffffffffffffff831681526020810186905281517f51c9b122c2b81c914282042bf02d3a8965f5a0b1ad37b6dab1cb77bb343ce556929181900390910190a150505050565b60106020526000908152604090205460ff1681565b60116020526000908152604090205460ff1681565b600f5481565b600a5481565b61192c336140e9565b15801561193857503332145b6119a357604080517f08c379a000000000000000000000000000000000000000000000000000000000815260206004820152601160248201527f6e6f20636f6e74726163742063616c6c73000000000000000000000000000000604482015290519081900360640190fd5b336000818152600560205260409020546119bc57600080fd5b73ffffffffffffffffffffffffffffffffffffffff8116600090815260056020526040812080549190556119ef81614181565b600254611a139073ffffffffffffffffffffffffffffffffffffffff1683836140ef565b6002546040805173ffffffffffffffffffffffffffffffffffffffff80861682529092166020830152818101839052517f4831bdd9dcf3048a28319ce81d3cab7a15366bcf449bc7803a539107440809cc9181900360600190a15050565b60056020526000908152604090205481565b600081565b60145473ffffffffffffffffffffffffffffffffffffffff163314611b0e57604080517f08c379a000000000000000000000000000000000000000000000000000000000815260206004820152601760248201527f5472616e736d757465723a2021676f7665726e616e6365000000000000000000604482015290519081900360640190fd5b73ffffffffffffffffffffffffffffffffffffffff821660008181526010602090815260409182902080547fffffffffffffffffffffffffffffffffffffffffffffffffffffffffffffff001685151590811790915582519384529083015280517f0aa5ec5ffdc7f6f9c4d0dded489d7450297155cb2f71cb771e02427f7dff4f519281900390910190a15050565b60145473ffffffffffffffffffffffffffffffffffffffff1681565b600d5481565b60015473ffffffffffffffffffffffffffffffffffffffff1681565b60145473ffffffffffffffffffffffffffffffffffffffff163314611c6157604080517f08c379a000000000000000000000000000000000000000000000000000000000815260206004820152601760248201527f5472616e736d757465723a2021676f7665726e616e6365000000000000000000604482015290519081900360640190fd5b8260005b81811015611cf657838382818110611c7957fe5b90506020020135151560116000888885818110611c9257fe5b6020908102929092013573ffffffffffffffffffffffffffffffffffffffff1683525081019190915260400160002080547fffffffffffffffffffffffffffffffffffffffffffffffffffffffffffffff0016911515919091179055600101611c65565b507fd1721b10ac5fe95d2627d512aa0f92c34ada0347c874adf414cf51af5760ff56858585856040518080602001806020018381038352878782818152602001925060200280828437600083820152601f017fffffffffffffffffffffffffffffffffffffffffffffffffffffffffffffffe0169091018481038352858152602090810191508690860280828437600083820152604051601f9091017fffffffffffffffffffffffffffffffffffffffffffffffffffffffffffffffe0169092018290039850909650505050505050a15050505050565b60165474010000000000000000000000000000000000000000900460ff168015611e2f575060145473ffffffffffffffffffffffffffffffffffffffff16331480611e2f575060165473ffffffffffffffffffffffffffffffffffffffff1633145b611e84576040517f08c379a00000000000000000000000000000000000000000000000000000000081526004018080602001828103825260358152602001806153236035913960400191505060405180910390fd5b611e8e8282614242565b5050565b60076020526000908152604090205460ff1681565b60066020526000908152604090205481565b60005481565b73ffffffffffffffffffffffffffffffffffffffff8116600090815260066020526040812054600e548291611ef49190613ede565b600d5473ffffffffffffffffffffffffffffffffffffffff8516600090815260036020526040902054919250611f2e91610d3d9084613f5a565b9392505050565b60165474010000000000000000000000000000000000000000900460ff1681565b60145473ffffffffffffffffffffffffffffffffffffffff163314611fdc57604080517f08c379a000000000000000000000000000000000000000000000000000000000815260206004820152601760248201527f5472616e736d757465723a2021676f7665726e616e6365000000000000000000604482015290519081900360640190fd5b60138190556040805182815290517fcf837c6f8ba9f94fb0b21939d04aba4ae1cf50cbeca85513c218dfdc6666f1a99181900360200190a150565b60175473ffffffffffffffffffffffffffffffffffffffff1681565b60086020526000908152604090205473ffffffffffffffffffffffffffffffffffffffff1681565b60145473ffffffffffffffffffffffffffffffffffffffff1633146120e157604080517f08c379a000000000000000000000000000000000000000000000000000000000815260206004820152601760248201527f5472616e736d757465723a2021676f7665726e616e6365000000000000000000604482015290519081900360640190fd5b60008190556040805182815290517fc2965d898897107f6f1d0e43c043ca07b7a51d487acfac1decec2ec8405364409181900360200190a150565b60095481565b61212b336140e9565b15801561213757503332145b6121a257604080517f08c379a000000000000000000000000000000000000000000000000000000000815260206004820152601160248201527f6e6f20636f6e74726163742063616c6c73000000000000000000000000000000604482015290519081900360640190fd5b601c54336000908152601b60205260409020546121c0904390613ede565b101561222d57604080517f08c379a000000000000000000000000000000000000000000000000000000000815260206004820152601460248201527f616374696f6e2064656c6179206e6f74206d6574000000000000000000000000604482015290519081900360640190fd5b336000908152601b602052604081204390819055600c54600b5490929080156122b457600061225c8486613ede565b9050600054811061226f57819250612296565b60005461227c8383613f5a565b11156122965760005461229390610d3d8484613f5a565b92505b82156122b2576122a68284613ede565b600b556122b2836142aa565b505b600c8390553360006122c582611ebf565b9050801561233457600f546122da9082613ede565b600f5573ffffffffffffffffffffffffffffffffffffffff821660009081526004602052604090205461230d908261404e565b73ffffffffffffffffffffffffffffffffffffffff83166000908152600460205260409020555b600e5473ffffffffffffffffffffffffffffffffffffffff831660009081526006602090815260408083209390935533825260079052205460ff166123ee5760098054600090815260086020908152604080832080547fffffffffffffffffffffffff0000000000000000000000000000000000000000163390811790915583526007909152902080547fffffffffffffffffffffffffffffffffffffffffffffffffffffffffffffff0016600190811790915581540190555b60165474010000000000000000000000000000000000000000900460ff161561247857604080517f08c379a000000000000000000000000000000000000000000000000000000000815260206004820152601760248201527f656d657267656e637920706175736520656e61626c6564000000000000000000604482015290519081900360640190fd5b600154339061249f9073ffffffffffffffffffffffffffffffffffffffff1682308b614313565b600a546124ac908961404e565b600a5573ffffffffffffffffffffffffffffffffffffffff81166000908152600360205260409020546124df908961404e565b73ffffffffffffffffffffffffffffffffffffffff82166000818152600360209081526040918290209390935580519182529181018a905281517fd2c11ddc796e75881f492256edb3cb3bf4c7a7761682320c5798a8dbb3662d88929181900390910190a15050505050505050565b601b6020526000908152604090205481565b600061256c60196143ae565b905090565b60008061257f6019846140c2565b600101549392505050565b60046020526000908152604090205481565b60145473ffffffffffffffffffffffffffffffffffffffff163314806125d9575060165473ffffffffffffffffffffffffffffffffffffffff1633145b61264457604080517f08c379a000000000000000000000000000000000000000000000000000000000815260206004820152601260248201527f2128676f76207c7c2073656e74696e656c290000000000000000000000000000604482015290519081900360640190fd5b601680548215157401000000000000000000000000000000000000000081027fffffffffffffffffffffff00ffffffffffffffffffffffffffffffffffffffff9092169190911790915560408051918252517f77860e247ab9186dbe64e5bd0e0b93273cc4273e01818420e788f500078886f59181900360200190a150565b60145473ffffffffffffffffffffffffffffffffffffffff16331461274957604080517f08c379a000000000000000000000000000000000000000000000000000000000815260206004820152601760248201527f5472616e736d757465723a2021676f7665726e616e6365000000000000000000604482015290519081900360640190fd5b73ffffffffffffffffffffffffffffffffffffffff81166127cb57604080517f08c379a000000000000000000000000000000000000000000000000000000000815260206004820152601560248201527f63616e6e6f74206d69677261746520746f203078300000000000000000000000604482015290519081900360640190fd5b60165474010000000000000000000000000000000000000000900460ff1661283e576040517f08c379a000000000000000000000000000000000000000000000000000000000815260040180806020018281038252602181526020018061543f6021913960400191505060405180910390fd5b600254604080517f70a08231000000000000000000000000000000000000000000000000000000008152306004820152905160009273ffffffffffffffffffffffffffffffffffffffff16916370a08231916024808301926020929190829003018186803b1580156128af57600080fd5b505afa1580156128c3573d6000803e3d6000fd5b505050506040513d60208110156128d957600080fd5b5051600a546040805160608101909152602280825292935060009261290a92919061535860208301398491906143b2565b600254604080517f095ea7b300000000000000000000000000000000000000000000000000000000815273ffffffffffffffffffffffffffffffffffffffff878116600483015260248201859052915193945091169163095ea7b3916044808201926020929091908290030181600087803b15801561298857600080fd5b505af115801561299c573d6000803e3d6000fd5b505050506040513d60208110156129b257600080fd5b5050604080517ffb93210800000000000000000000000000000000000000000000000000000000815230600482015260248101839052905173ffffffffffffffffffffffffffffffffffffffff85169163fb93210891604480830192600092919082900301818387803b158015612a2857600080fd5b505af1158015612a3c573d6000803e3d6000fd5b50506040805173ffffffffffffffffffffffffffffffffffffffff871681526020810185905281517f491c0362a655f805cc3d5ab67c471c6b4e517051540c85134456449ce6c1a6799450908190039091019150a1505050565b612a9f336140e9565b158015612aab57503332145b612b1657604080517f08c379a000000000000000000000000000000000000000000000000000000000815260206004820152601160248201527f6e6f20636f6e74726163742063616c6c73000000000000000000000000000000604482015290519081900360640190fd5b601c54336000908152601b6020526040902054612b34904390613ede565b1015612ba157604080517f08c379a000000000000000000000000000000000000000000000000000000000815260206004820152601460248201527f616374696f6e2064656c6179206e6f74206d6574000000000000000000000000604482015290519081900360640190fd5b336000908152601b602052604081204390819055600c54600b549092908015612c28576000612bd08486613ede565b90506000548110612be357819250612c0a565b600054612bf08383613f5a565b1115612c0a57600054612c0790610d3d8484613f5a565b92505b8215612c2657612c1a8284613ede565b600b55612c26836142aa565b505b600c839055336000612c3982611ebf565b90508015612ca857600f54612c4e9082613ede565b600f5573ffffffffffffffffffffffffffffffffffffffff8216600090815260046020526040902054612c81908261404e565b73ffffffffffffffffffffffffffffffffffffffff83166000908152600460205260409020555b600e5473ffffffffffffffffffffffffffffffffffffffff83166000908152600660205260408120919091558790612cdf82611ebf565b90508015612d4e57600f54612cf49082613ede565b600f5573ffffffffffffffffffffffffffffffffffffffff8216600090815260046020526040902054612d27908261404e565b73ffffffffffffffffffffffffffffffffffffffff83166000908152600460205260409020555b600e5473ffffffffffffffffffffffffffffffffffffffff831660009081526006602090815260408083209390935533825260079052205460ff16612e085760098054600090815260086020908152604080832080547fffffffffffffffffffffffff0000000000000000000000000000000000000000163390811790915583526007909152902080547fffffffffffffffffffffffffffffffffffffffffffffffffffffffffffffff0016600190811790915581540190555b73ffffffffffffffffffffffffffffffffffffffff89166000908152600460209081526040808320546003909252909120543391908111612eaa57604080517f08c379a000000000000000000000000000000000000000000000000000000000815260206004820152601560248201527f5472616e736d757465723a20216f766572666c6f770000000000000000000000604482015290519081900360640190fd5b73ffffffffffffffffffffffffffffffffffffffff8b1660009081526004602090815260408083208390556003909152812054612ee8908390613ede565b73ffffffffffffffffffffffffffffffffffffffff808e1660009081526003602052604080822080549083905560015482517f42966c6800000000000000000000000000000000000000000000000000000000815260048101839052925191975094955093909216926342966c6892602480820193929182900301818387803b158015612f7457600080fd5b505af1158015612f88573d6000803e3d6000fd5b5050600a54612f9a9250905083613ede565b600a5573ffffffffffffffffffffffffffffffffffffffff8316600090815260046020526040902054612fcd908261404e565b73ffffffffffffffffffffffffffffffffffffffff808516600090815260046020908152604080832094909455918f16815260059091522054613010908361404e565b73ffffffffffffffffffffffffffffffffffffffff8d16600090815260056020526040902081905561304181614181565b73ffffffffffffffffffffffffffffffffffffffff808e1660009081526005602052604081205560025461307791168e836140ef565b6040805173ffffffffffffffffffffffffffffffffffffffff80871682528f16602082015280820183905290517fb1e35379b2ed6821c33158f59080978024478baafa855571cd84e46b9848b3ce9181900360600190a150505050505050505050505050565b60145473ffffffffffffffffffffffffffffffffffffffff16331461316357604080517f08c379a000000000000000000000000000000000000000000000000000000000815260206004820152601760248201527f5472616e736d757465723a2021676f7665726e616e6365000000000000000000604482015290519081900360640190fd5b601a5460ff16156131d557604080517f08c379a000000000000000000000000000000000000000000000000000000000815260206004820152601f60248201527f5472616e736d757465723a20616c726561647920696e697469616c697a656400604482015290519081900360640190fd5b60175473ffffffffffffffffffffffffffffffffffffffff16613243576040517f08c379a00000000000000000000000000000000000000000000000000000000081526004018080602001828103825260348152602001806154606034913960400191505060405180910390fd5b61324c81614463565b50601a80547fffffffffffffffffffffffffffffffffffffffffffffffffffffffffffffff00166001179055565b60145473ffffffffffffffffffffffffffffffffffffffff16331461330057604080517f08c379a000000000000000000000000000000000000000000000000000000000815260206004820152601760248201527f5472616e736d757465723a2021676f7665726e616e6365000000000000000000604482015290519081900360640190fd5b61330981614463565b50565b60165474010000000000000000000000000000000000000000900460ff16801561336e575060145473ffffffffffffffffffffffffffffffffffffffff1633148061336e575060165473ffffffffffffffffffffffffffffffffffffffff1633145b6133c3576040517f08c379a00000000000000000000000000000000000000000000000000000000081526004018080602001828103825260358152602001806153236035913960400191505060405180910390fd5b61330981614718565b601c5481565b33600090815260116020526040812054819060ff1661345257604080517f08c379a000000000000000000000000000000000000000000000000000000000815260206004820152601360248201527f5472616e736d757465723a20216b656570657200000000000000000000000000604482015290519081900360640190fd5b600061345f6019856140c2565b601754909150600090819061348b90849073ffffffffffffffffffffffffffffffffffffffff1661477e565b604080518381526020810183905281519395509193507f11d2034f4471d11a13f0f1798ceaf0c9db2812d450a0681958ce7d4f2fb97f0992918290030190a1909350915050915091565b6134de336140e9565b1580156134ea57503332145b61355557604080517f08c379a000000000000000000000000000000000000000000000000000000000815260206004820152601160248201527f6e6f20636f6e74726163742063616c6c73000000000000000000000000000000604482015290519081900360640190fd5b61355d61378c565b613565611923565b336000908152600360205260409020546133098161167d565b60186020526000908152604090205460ff1681565b61359c336140e9565b1580156135a857503332145b61361357604080517f08c379a000000000000000000000000000000000000000000000000000000000815260206004820152601160248201527f6e6f20636f6e74726163742063616c6c73000000000000000000000000000000604482015290519081900360640190fd5b61356561378c565b60145473ffffffffffffffffffffffffffffffffffffffff1633146136a157604080517f08c379a000000000000000000000000000000000000000000000000000000000815260206004820152601760248201527f5472616e736d757465723a2021676f7665726e616e6365000000000000000000604482015290519081900360640190fd5b73ffffffffffffffffffffffffffffffffffffffff811661370d576040517f08c379a000000000000000000000000000000000000000000000000000000000815260040180806020018281038252602a8152602001806153a0602a913960400191505060405180910390fd5b6017805473ffffffffffffffffffffffffffffffffffffffff83167fffffffffffffffffffffffff0000000000000000000000000000000000000000909116811790915560408051918252517f05f3326e0527f309d4015dee3bc3f36e650b53fc823bab69c99847814acfafdf9181900360200190a150565b600b5481565b613795336140e9565b1580156137a157503332145b61380c57604080517f08c379a000000000000000000000000000000000000000000000000000000000815260206004820152601160248201527f6e6f20636f6e74726163742063616c6c73000000000000000000000000000000604482015290519081900360640190fd5b601c54336000908152601b602052604090205461382a904390613ede565b101561389757604080517f08c379a000000000000000000000000000000000000000000000000000000000815260206004820152601460248201527f616374696f6e2064656c6179206e6f74206d6574000000000000000000000000604482015290519081900360640190fd5b336000908152601b602052604081204390819055600c54600b54909290801561391e5760006138c68486613ede565b905060005481106138d957819250613900565b6000546138e68383613f5a565b1115613900576000546138fd90610d3d8484613f5a565b92505b821561391c576139108284613ede565b600b5561391c836142aa565b505b600c83905533600061392f82611ebf565b9050801561399e57600f546139449082613ede565b600f5573ffffffffffffffffffffffffffffffffffffffff8216600090815260046020526040902054613977908261404e565b73ffffffffffffffffffffffffffffffffffffffff83166000908152600460205260409020555b600e5473ffffffffffffffffffffffffffffffffffffffff8316600090815260066020908152604080832093909355338083526004909152918120549081613a4757604080517f08c379a000000000000000000000000000000000000000000000000000000000815260206004820152601e60248201527f6e65656420746f20686176652070656e64696e6720696e206275636b65740000604482015290519081900360640190fd5b73ffffffffffffffffffffffffffffffffffffffff831660009081526004602090815260408083208390556003909152902054821115613add5773ffffffffffffffffffffffffffffffffffffffff8316600090815260036020526040902054613ab2908390613ede565b73ffffffffffffffffffffffffffffffffffffffff8416600090815260036020526040902054925090505b73ffffffffffffffffffffffffffffffffffffffff8316600090815260036020526040902054613b0d9083613ede565b73ffffffffffffffffffffffffffffffffffffffff8085166000908152600360205260408082209390935560015483517f42966c680000000000000000000000000000000000000000000000000000000081526004810187905293519216926342966c68926024808301939282900301818387803b158015613b8e57600080fd5b505af1158015613ba2573d6000803e3d6000fd5b5050600a54613bb49250905083613ede565b600a55613bc0816142aa565b73ffffffffffffffffffffffffffffffffffffffff8316600090815260056020526040902054613bf0908361404e565b73ffffffffffffffffffffffffffffffffffffffff841660008181526005602090815260409182902093909355805191825291810184905281517fe6b1330a9c444712d3673f05900d736c42072653e56fb82b5951477832b8d576929181900390910190a1505050505050505050565b60155473ffffffffffffffffffffffffffffffffffffffff1681565b60165473ffffffffffffffffffffffffffffffffffffffff1681565b60036020526000908152604090205481565b3360009081526010602052604090205460ff16613d2857604080517f08c379a000000000000000000000000000000000000000000000000000000000815260206004820152601860248201527f5472616e736d757465723a202177686974656c69737465640000000000000000604482015290519081900360640190fd5b600c54600b5443906000908015613d9d576000613d458486613ede565b90506000548110613d5857819250613d7f565b600054613d658383613f5a565b1115613d7f57600054613d7c90610d3d8484613f5a565b92505b8215613d9b57613d8f8284613ede565b600b55613d9b836142aa565b505b600c83905560165474010000000000000000000000000000000000000000900460ff1615613e2c57604080517f08c379a000000000000000000000000000000000000000000000000000000000815260206004820152601760248201527f656d657267656e637920706175736520656e61626c6564000000000000000000604482015290519081900360640190fd5b600254613e519073ffffffffffffffffffffffffffffffffffffffff16873088614313565b600b54613e5e908661404e565b600b55613e696147d1565b6040805173ffffffffffffffffffffffffffffffffffffffff881681526020810187905281517f33ad5d6b2a46b5457e0d36286a2686a0390b0821dedbbdf8dcdcda64f4782c68929181900390910190a1505050505050565b60025473ffffffffffffffffffffffffffffffffffffffff1681565b600082821115613f4f57604080517f08c379a000000000000000000000000000000000000000000000000000000000815260206004820152601e60248201527f536166654d6174683a207375627472616374696f6e206f766572666c6f770000604482015290519081900360640190fd5b508082035b92915050565b600082613f6957506000613f54565b82820282848281613f7657fe5b0414611f2e576040517f08c379a00000000000000000000000000000000000000000000000000000000081526004018080602001828103825260218152602001806153eb6021913960400191505060405180910390fd5b600080821161403d57604080517f08c379a000000000000000000000000000000000000000000000000000000000815260206004820152601a60248201527f536166654d6174683a206469766973696f6e206279207a65726f000000000000604482015290519081900360640190fd5b81838161404657fe5b049392505050565b600082820183811015611f2e57604080517f08c379a000000000000000000000000000000000000000000000000000000000815260206004820152601b60248201527f536166654d6174683a206164646974696f6e206f766572666c6f770000000000604482015290519081900360640190fd5b60008260000182815481106140d357fe5b9060005260206000209060020201905092915050565b3b151590565b6040805173ffffffffffffffffffffffffffffffffffffffff8416602482015260448082018490528251808303909101815260649091019091526020810180517bffffffffffffffffffffffffffffffffffffffffffffffffffffffff167fa9059cbb0000000000000000000000000000000000000000000000000000000017905261417c9084906148e9565b505050565b600254604080517f70a08231000000000000000000000000000000000000000000000000000000008152306004820152905160009273ffffffffffffffffffffffffffffffffffffffff16916370a08231916024808301926020929190829003018186803b1580156141f257600080fd5b505afa158015614206573d6000803e3d6000fd5b505050506040513d602081101561421c57600080fd5b5051905081811015611e8e576012548183039061417c9061423d908361404e565b6149c1565b600061424f6019846140c2565b905060008061425f8330866149f7565b91509150847fccbd929f935422b28ee209a0db0556280b0a3d9bc4da58f1d3f0ab4f8a4996478383604051808381526020018281526020019250505060405180910390a25050505050565b6000600a541180156142bc5750600081115b15614300576142e86142df600a54610d3d600d5485613f5a90919063ffffffff16565b600e549061404e565b600e55600f546142f8908261404e565b600f55613309565b600b5461430d908261404e565b600b5550565b6040805173ffffffffffffffffffffffffffffffffffffffff80861660248301528416604482015260648082018490528251808303909101815260849091019091526020810180517bffffffffffffffffffffffffffffffffffffffffffffffffffffffff167f23b872dd000000000000000000000000000000000000000000000000000000001790526143a89085906148e9565b50505050565b5490565b6000818484111561445b576040517f08c379a00000000000000000000000000000000000000000000000000000000081526004018080602001828103825283818151815260200191508051906020019080838360005b83811015614420578181015183820152602001614408565b50505050905090810190601f16801561444d5780820380516001836020036101000a031916815260200191505b509250505060405180910390fd5b505050900390565b73ffffffffffffffffffffffffffffffffffffffff81166144cf576040517f08c379a000000000000000000000000000000000000000000000000000000000815260040180806020018281038252602f8152602001806154be602f913960400191505060405180910390fd5b600254604080517ffc0c546a000000000000000000000000000000000000000000000000000000008152905173ffffffffffffffffffffffffffffffffffffffff9283169284169163fc0c546a916004808301926020929190829003018186803b15801561453c57600080fd5b505afa158015614550573d6000803e3d6000fd5b505050506040513d602081101561456657600080fd5b505173ffffffffffffffffffffffffffffffffffffffff16146145d4576040517f08c379a00000000000000000000000000000000000000000000000000000000081526004018080602001828103825260218152602001806153ca6021913960400191505060405180910390fd5b73ffffffffffffffffffffffffffffffffffffffff811660009081526018602052604090205460ff161561466957604080517f08c379a000000000000000000000000000000000000000000000000000000000815260206004820152601660248201527f4164617074657220616c726561647920696e2075736500000000000000000000604482015290519081900360640190fd5b73ffffffffffffffffffffffffffffffffffffffff8116600081815260186020908152604080832080547fffffffffffffffffffffffffffffffffffffffffffffffffffffffffffffff0016600117905580518082019091529283528201526146d490601990614a2d565b60405173ffffffffffffffffffffffffffffffffffffffff8216907f0821015de34e20b0878a40f6f165801417f53b2017016d7321cacee989c8cfa790600090a250565b60006147256019836140c2565b90506000806147348330614a95565b91509150837fccbd929f935422b28ee209a0db0556280b0a3d9bc4da58f1d3f0ab4f8a4996478383604051808381526020018281526020019250505060405180910390a250505050565b600080836001015461478f85614abc565b1161479f57506000905080610ed4565b60006147b885600101546147b287614abc565b90613ede565b90506147c5858583614b58565b92509250509250929050565b600254604080517f70a08231000000000000000000000000000000000000000000000000000000008152306004820152905160009273ffffffffffffffffffffffffffffffffffffffff16916370a08231916024808301926020929190829003018186803b15801561484257600080fd5b505afa158015614856573d6000803e3d6000fd5b505050506040513d602081101561486c57600080fd5b505160135460125491925060009161488a91606491610d3d91613f5a565b60125490915061489a908261404e565b8211156148c657601254820360006148b26019614da7565b90506148be8183614dd2565b505050611e8e565b6012546148d39082613ede565b821015611e8e5760125482900361417c816149c1565b606061494b826040518060400160405280602081526020017f5361666545524332303a206c6f772d6c6576656c2063616c6c206661696c65648152508573ffffffffffffffffffffffffffffffffffffffff16614eaf9092919063ffffffff16565b80519091501561417c5780806020019051602081101561496a57600080fd5b505161417c576040517f08c379a000000000000000000000000000000000000000000000000000000000815260040180806020018281038252602a815260200180615494602a913960400191505060405180910390fd5b60006149cd6019614da7565b905060006149da82614abc565b9050828110156149e8578092505b821561417c5761417c83614ec6565b6000808080614a07878787614ed9565b60018901549193509150614a1b9082613ede565b60018801559092509050935093915050565b8154600180820184556000938452602093849020835160029093020180547fffffffffffffffffffffffff00000000000000000000000000000000000000001673ffffffffffffffffffffffffffffffffffffffff9093169290921782559190920151910155565b600080614ab1838560010154866149f79092919063ffffffff16565b915091509250929050565b8054604080517fd4c3eea0000000000000000000000000000000000000000000000000000000008152905160009273ffffffffffffffffffffffffffffffffffffffff169163d4c3eea0916004808301926020929190829003018186803b158015614b2657600080fd5b505afa158015614b3a573d6000803e3d6000fd5b505050506040513d6020811015614b5057600080fd5b505192915050565b6000806000614b6686615023565b905060008173ffffffffffffffffffffffffffffffffffffffff166370a08231876040518263ffffffff167c0100000000000000000000000000000000000000000000000000000000028152600401808273ffffffffffffffffffffffffffffffffffffffff16815260200191505060206040518083038186803b158015614bed57600080fd5b505afa158015614c01573d6000803e3d6000fd5b505050506040513d6020811015614c1757600080fd5b505190506000614c2688614abc565b8854604080517f594d4e3600000000000000000000000000000000000000000000000000000000815273ffffffffffffffffffffffffffffffffffffffff8b81166004830152602482018b9052915193945091169163594d4e369160448082019260009290919082900301818387803b158015614ca257600080fd5b505af1158015614cb6573d6000803e3d6000fd5b5050505060008373ffffffffffffffffffffffffffffffffffffffff166370a08231896040518263ffffffff167c0100000000000000000000000000000000000000000000000000000000028152600401808273ffffffffffffffffffffffffffffffffffffffff16815260200191505060206040518083038186803b158015614d3f57600080fd5b505afa158015614d53573d6000803e3d6000fd5b505050506040513d6020811015614d6957600080fd5b505190506000614d798285613ede565b90506000614d868b614abc565b90506000614d948583613ede565b929c929b50919950505050505050505050565b600081614db38161508d565b81548110614dbd57fe5b90600052602060002090600202019050919050565b600080614dde84615023565b8454909150614e079073ffffffffffffffffffffffffffffffffffffffff8084169116856140ef565b8354604080517fb6b55f2500000000000000000000000000000000000000000000000000000000815260048101869052905173ffffffffffffffffffffffffffffffffffffffff9092169163b6b55f259160248082019260009290919082900301818387803b158015614e7957600080fd5b505af1158015614e8d573d6000803e3d6000fd5b5050506001850154614ea091508461404e565b60018501555081905092915050565b6060614ebe84846000856150e6565b949350505050565b613309614ed3601961508d565b82614242565b6000806000614ee786615023565b905060008173ffffffffffffffffffffffffffffffffffffffff166370a08231876040518263ffffffff167c0100000000000000000000000000000000000000000000000000000000028152600401808273ffffffffffffffffffffffffffffffffffffffff16815260200191505060206040518083038186803b158015614f6e57600080fd5b505afa158015614f82573d6000803e3d6000fd5b505050506040513d6020811015614f9857600080fd5b505190506000614fa788614abc565b8854604080517ff3fef3a300000000000000000000000000000000000000000000000000000000815273ffffffffffffffffffffffffffffffffffffffff8b81166004830152602482018b9052915193945091169163f3fef3a39160448082019260009290919082900301818387803b158015614ca257600080fd5b8054604080517ffc0c546a000000000000000000000000000000000000000000000000000000008152905160009273ffffffffffffffffffffffffffffffffffffffff169163fc0c546a916004808301926020929190829003018186803b158015614b2657600080fd5b600080615099836143ae565b9050611f2e60016040518060400160405280601181526020017f5661756c742e4c6973743a20656d707479000000000000000000000000000000815250836143b29092919063ffffffff16565b60603031831115615142576040517f08c379a000000000000000000000000000000000000000000000000000000000815260040180806020018281038252602681526020018061537a6026913960400191505060405180910390fd5b61514b856140e9565b6151b657604080517f08c379a000000000000000000000000000000000000000000000000000000000815260206004820152601d60248201527f416464726573733a2063616c6c20746f206e6f6e2d636f6e7472616374000000604482015290519081900360640190fd5b600060608673ffffffffffffffffffffffffffffffffffffffff1685876040518082805190602001908083835b6020831061522057805182527fffffffffffffffffffffffffffffffffffffffffffffffffffffffffffffffe090920191602091820191016151e3565b6001836020036101000a03801982511681845116808217855250505050505090500191505060006040518083038185875af1925050503d8060008114615282576040519150601f19603f3d011682016040523d82523d6000602084013e615287565b606091505b50915091506152978282866152a2565b979650505050505050565b606083156152b1575081611f2e565b8251156152c15782518084602001fd5b6040517f08c379a000000000000000000000000000000000000000000000000000000000815260206004820181815284516024840152845185939192839260440191908501908083836000831561442057818101518382015260200161440856fe5472616e736d757465723a206e6f74207061757365642c206f72206e6f7420676f7665726e616e6365206f722073656e74696e656c6e6f7420656e6f7567682066756e647320746f2073657276696365207374616b6573416464726573733a20696e73756666696369656e742062616c616e636520666f722063616c6c5472616e736d757465723a207265776172647320616464726573732063616e6e6f74206265203078302e5472616e736d757465722e7661756c743a20746f6b656e206d69736d617463682e536166654d6174683a206d756c7469706c69636174696f6e206f766572666c6f775472616e736d757465723a20756e7374616b6520616d6f756e742065786365656473206465706f736974656420616d6f756e746d6967726174653a2073657420656d657267656e637920657869742066697273745472616e736d757465723a2063616e6e6f7420696e697469616c697a652072657761726473206164647265737320746f203078305361666545524332303a204552433230206f7065726174696f6e20646964206e6f7420737563636565645472616e736d757465723a20616374697665207661756c7420616464726573732063616e6e6f74206265203078302e5472616e736d757465723a2073656e74696e656c20616464726573732063616e6e6f74206265203078302ea2646970667358221220bb71f868e1f9bde2bf2061fef6c8c9df863cd5f8c77e20bf94d6478b914a516b64736f6c634300060c0033",
  "immutableReferences": {},
  "source": "pragma solidity 0.6.12;\n\nimport \"@openzeppelin/contracts/GSN/Context.sol\";\nimport \"@openzeppelin/contracts/token/ERC20/SafeERC20.sol\";\nimport \"@openzeppelin/contracts/math/SafeMath.sol\";\nimport \"@openzeppelin/contracts/utils/Address.sol\";\nimport \"./interfaces/IERC20Burnable.sol\";\nimport {YearnVaultAdapterWithIndirection} from \"./adapters/YearnVaultAdapterWithIndirection.sol\";\nimport {VaultWithIndirection} from \"./libraries/alchemist/VaultWithIndirection.sol\";\nimport {ITransmuter} from \"./interfaces/ITransmuter.sol\";\n\n//    ___    __        __                _               ___                              __         _ \n//   / _ |  / / ____  / /  ___   __ _   (_) __ __       / _ \\  ____ ___   ___ ___   ___  / /_  ___  (_)\n//  / __ | / / / __/ / _ \\/ -_) /  ' \\ / /  \\ \\ /      / ___/ / __// -_) (_-</ -_) / _ \\/ __/ (_-< _\n// /_/ |_|/_/  \\__/ /_//_/\\__/ /_/_/_//_/  /_\\_\\      /_/    /_/   \\__/ /___/\\__/ /_//_/\\__/ /___/(_)\n//\n// .___________..______           ___      .__   __.      _______..___  ___.  __    __  .___________. _______ .______\n// |           ||   _  \\         /   \\     |  \\ |  |     /       ||   \\/   | |  |  |  | |           ||   ____||   _  \\\n// `---|  |----`|  |_)  |       /  ^  \\    |   \\|  |    |   (----`|  \\  /  | |  |  |  | `---|  |----`|  |__   |  |_)  |\n//     |  |     |      /       /  /_\\  \\   |  . `  |     \\   \\    |  |\\/|  | |  |  |  |     |  |     |   __|  |      /\n//     |  |     |  |\\  \\----. /  _____  \\  |  |\\   | .----)   |   |  |  |  | |  `--'  |     |  |     |  |____ |  |\\  \\----.\n//     |__|     | _| `._____|/__/     \\__\\ |__| \\__| |_______/    |__|  |__|  \\______/      |__|     |_______|| _| `._____|\n/**\n * @dev Implementation of the {IERC20Burnable} interface.\n *\n * This implementation is agnostic to the way tokens are created. This means\n * that a supply mechanism has to be added in a derived contract using {_mint}.\n * For a generic mechanism see {ERC20PresetMinterPauser}.\n *\n * TIP: For a detailed writeup see our guide\n * https://forum.zeppelin.solutions/t/how-to-implement-erc20-supply-mechanisms/226[How\n * to implement supply mechanisms].\n *\n * We have followed general OpenZeppelin guidelines: functions revert instead\n * of returning `false` on failure. This behavior is nonetheless conventional\n * and does not conflict with the expectations of ERC20 applications.\n *\n * Additionally, an {Approval} event is emitted on calls to {transferFrom}.\n * This allows applications to reconstruct the allowance for all accounts just\n * by listening to said events. Other implementations of the EIP may not emit\n * these events, as it isn't required by the specification.\n *\n * Finally, the non-standard {decreaseAllowance} and {increaseAllowance}\n * functions have been added to mitigate the well-known issues around setting\n * allowances. See {IERC20Burnable-approve}.\n */\ncontract TransmuterB is Context {\n    using SafeMath for uint256;\n    using SafeERC20 for IERC20Burnable;\n    using Address for address;\n    using VaultWithIndirection for VaultWithIndirection.Data;\n    using VaultWithIndirection for VaultWithIndirection.List;\n\n    address public constant ZERO_ADDRESS = address(0);\n    uint256 public transmutationPeriod;\n\n    address public alToken;\n    address public token;\n\n    mapping(address => uint256) public depositedAlTokens;\n    mapping(address => uint256) public tokensInBucket;\n    mapping(address => uint256) public realisedTokens;\n    mapping(address => uint256) public lastDividendPoints;\n\n    mapping(address => bool) public userIsKnown;\n    mapping(uint256 => address) public userList;\n    uint256 public nextUser;\n\n    uint256 public totalSupplyAltokens;\n    uint256 public buffer;\n    uint256 public lastDepositBlock;\n\n    ///@dev values needed to calculate the distribution of base asset in proportion for alTokens staked\n    uint256 public pointMultiplier = 10e18;\n\n    uint256 public totalDividendPoints;\n    uint256 public unclaimedDividends;\n\n    /// @dev alchemist addresses whitelisted\n    mapping (address => bool) public whiteList;\n\n    /// @dev addresses whitelisted to run keepr jobs (harvest)\n    mapping (address => bool) public keepers;\n\n    /// @dev The threshold above which excess funds will be deployed to yield farming activities\n    uint256 public plantableThreshold = 5000000000000000000000000; // 5mm\n\n    /// @dev The % margin to trigger planting or recalling of funds\n    uint256 public plantableMargin = 5;\n\n    /// @dev The address of the account which currently has administrative capabilities over this contract.\n    address public governance;\n\n    /// @dev The address of the pending governance.\n    address public pendingGovernance;\n\n    /// @dev The address of the account which can perform emergency activities\n    address public sentinel;\n\n    /// @dev A flag indicating if deposits and flushes should be halted and if all parties should be able to recall\n    /// from the active vault.\n    bool public pause;\n\n    /// @dev The address of the contract which will receive fees.\n    address public rewards;\n\n    /// @dev A mapping of adapter addresses to keep track of vault adapters that have already been added\n    mapping(YearnVaultAdapterWithIndirection => bool) public adapters;\n\n    /// @dev A list of all of the vaults. The last element of the list is the vault that is currently being used for\n    /// deposits and withdraws. VaultWithIndirections before the last element are considered inactive and are expected to be cleared.\n    VaultWithIndirection.List private _vaults;\n\n    /// @dev make sure the contract is only initialized once.\n    bool public initialized;\n\n    /// @dev mapping of user account to the last block they acted\n    mapping(address => uint256) public lastUserAction;\n\n    /// @dev number of blocks to delay between allowed user actions\n    uint256 public minUserActionDelay;\n\n    event GovernanceUpdated(\n        address governance\n    );\n\n    event PendingGovernanceUpdated(\n        address pendingGovernance\n    );\n\n    event SentinelUpdated(\n        address sentinel\n    );\n\n    event TransmuterPeriodUpdated(\n        uint256 newTransmutationPeriod\n    );\n\n    event TokenClaimed(\n        address claimant,\n        address token,\n        uint256 amountClaimed\n    );\n\n    event AlUsdStaked(\n        address staker,\n        uint256 amountStaked\n    );\n\n    event AlUsdUnstaked(\n        address staker,\n        uint256 amountUnstaked\n    );\n\n    event Transmutation(\n        address transmutedTo,\n        uint256 amountTransmuted\n    );\n\n    event ForcedTransmutation(\n        address transmutedBy,\n        address transmutedTo,\n        uint256 amountTransmuted\n    );\n\n    event Distribution(\n        address origin,\n        uint256 amount\n    );\n\n    event WhitelistSet(\n        address whitelisted,\n        bool state\n    );\n\n    event KeepersSet(\n        address[] keepers,\n        bool[] states\n    );\n\n    event PlantableThresholdUpdated(\n        uint256 plantableThreshold\n    );\n    \n    event PlantableMarginUpdated(\n        uint256 plantableMargin\n    );\n\n    event MinUserActionDelayUpdated(\n        uint256 minUserActionDelay\n    );\n\n    event ActiveVaultUpdated(\n        YearnVaultAdapterWithIndirection indexed adapter\n    );\n\n    event PauseUpdated(\n        bool status\n    );\n\n    event FundsRecalled(\n        uint256 indexed vaultId,\n        uint256 withdrawnAmount,\n        uint256 decreasedValue\n    );\n\n    event FundsHarvested(\n        uint256 withdrawnAmount,\n        uint256 decreasedValue\n    );\n\n    event RewardsUpdated(\n        address treasury\n    );\n\n    event MigrationComplete(\n        address migrateTo,\n        uint256 fundsMigrated\n    );\n\n    constructor(address _alToken, address _token, address _governance) public {\n        require(_governance != ZERO_ADDRESS, \"Transmuter: 0 gov\");\n        governance = _governance;\n        alToken = _alToken;\n        token = _token;\n        transmutationPeriod = 500000;\n        minUserActionDelay = 1;\n        pause = true;\n    }\n\n    ///@return displays the user's share of the pooled alTokens.\n    function dividendsOwing(address account) public view returns (uint256) {\n        uint256 newDividendPoints = totalDividendPoints.sub(lastDividendPoints[account]);\n        return depositedAlTokens[account].mul(newDividendPoints).div(pointMultiplier);\n    }\n\n    /// @dev Checks that caller is not a eoa.\n    ///\n    /// This is used to prevent contracts from interacting.\n    modifier noContractAllowed() {\n            require(!address(msg.sender).isContract() && msg.sender == tx.origin, \"no contract calls\");\n        _;\n    }\n\n    ///@dev modifier to fill the bucket and keep bookkeeping correct incase of increase/decrease in shares\n    modifier updateAccount(address account) {\n        uint256 owing = dividendsOwing(account);\n        if (owing > 0) {\n            unclaimedDividends = unclaimedDividends.sub(owing);\n            tokensInBucket[account] = tokensInBucket[account].add(owing);\n        }\n        lastDividendPoints[account] = totalDividendPoints;\n        _;\n    }\n    ///@dev modifier add users to userlist. Users are indexed in order to keep track of when a bond has been filled\n    modifier checkIfNewUser() {\n        if (!userIsKnown[msg.sender]) {\n            userList[nextUser] = msg.sender;\n            userIsKnown[msg.sender] = true;\n            nextUser++;\n        }\n        _;\n    }\n\n    ///@dev run the phased distribution of the buffered funds\n    modifier runPhasedDistribution() {\n        uint256 _lastDepositBlock = lastDepositBlock;\n        uint256 _currentBlock = block.number;\n        uint256 _toDistribute = 0;\n        uint256 _buffer = buffer;\n\n        // check if there is something in bufffer\n        if (_buffer > 0) {\n            // NOTE: if last deposit was updated in the same block as the current call\n            // then the below logic gates will fail\n\n            //calculate diffrence in time\n            uint256 deltaTime = _currentBlock.sub(_lastDepositBlock);\n\n            // distribute all if bigger than timeframe\n            if(deltaTime >= transmutationPeriod) {\n                _toDistribute = _buffer;\n            } else {\n\n                //needs to be bigger than 0 cuzz solidity no decimals\n                if(_buffer.mul(deltaTime) > transmutationPeriod)\n                {\n                    _toDistribute = _buffer.mul(deltaTime).div(transmutationPeriod);\n                }\n            }\n\n            // factually allocate if any needs distribution\n            if(_toDistribute > 0){\n\n                // remove from buffer\n                buffer = _buffer.sub(_toDistribute);\n\n                // increase the allocation\n                increaseAllocations(_toDistribute);\n            }\n        }\n\n        // current timeframe is now the last\n        lastDepositBlock = _currentBlock;\n        _;\n    }\n\n    /// @dev A modifier which checks if whitelisted for minting.\n    modifier onlyWhitelisted() {\n        require(whiteList[msg.sender], \"Transmuter: !whitelisted\");\n        _;\n    }\n\n    /// @dev A modifier which checks if caller is a keepr.\n    modifier onlyKeeper() {\n        require(keepers[msg.sender], \"Transmuter: !keeper\");\n        _;\n    }\n\n    /// @dev Checks that the current message sender or caller is the governance address.\n    ///\n    ///\n    modifier onlyGov() {\n        require(msg.sender == governance, \"Transmuter: !governance\");\n        _;\n    }\n\n    /// @dev checks that the block delay since a user's last action is longer than the minium delay\n    ///\n    modifier ensureUserActionDelay() {\n        require(block.number.sub(lastUserAction[msg.sender]) >= minUserActionDelay, \"action delay not met\");\n        lastUserAction[msg.sender] = block.number;\n        _;\n    }\n\n    ///@dev set the transmutationPeriod variable\n    ///\n    /// sets the length (in blocks) of one full distribution phase\n    function setTransmutationPeriod(uint256 newTransmutationPeriod) public onlyGov() {\n        transmutationPeriod = newTransmutationPeriod;\n        emit TransmuterPeriodUpdated(transmutationPeriod);\n    }\n\n    ///@dev claims the base token after it has been transmuted\n    ///\n    ///This function reverts if there is no realisedToken balance\n    function claim() \n        public\n        noContractAllowed()\n    {\n        address sender = msg.sender;\n        require(realisedTokens[sender] > 0);\n        uint256 value = realisedTokens[sender];\n        realisedTokens[sender] = 0;\n        ensureSufficientFundsExistLocally(value);\n        IERC20Burnable(token).safeTransfer(sender, value);\n        emit TokenClaimed(sender, token, value);\n    }\n\n    ///@dev Withdraws staked alTokens from the transmuter\n    ///\n    /// This function reverts if you try to draw more tokens than you deposited\n    ///\n    ///@param amount the amount of alTokens to unstake\n    function unstake(uint256 amount) \n        public\n        noContractAllowed()\n        updateAccount(msg.sender)\n    {\n        // by calling this function before transmuting you forfeit your gained allocation\n        address sender = msg.sender;\n        require(depositedAlTokens[sender] >= amount,\"Transmuter: unstake amount exceeds deposited amount\");\n        depositedAlTokens[sender] = depositedAlTokens[sender].sub(amount);\n        totalSupplyAltokens = totalSupplyAltokens.sub(amount);\n        IERC20Burnable(alToken).safeTransfer(sender, amount);\n        emit AlUsdUnstaked(sender, amount);\n    }\n    ///@dev Deposits alTokens into the transmuter \n    ///\n    ///@param amount the amount of alTokens to stake\n    function stake(uint256 amount)\n        public\n        noContractAllowed()\n        ensureUserActionDelay()\n        runPhasedDistribution()\n        updateAccount(msg.sender)\n        checkIfNewUser()\n    {\n        require(!pause, \"emergency pause enabled\");\n\n        // requires approval of AlToken first\n        address sender = msg.sender;\n        //require tokens transferred in;\n        IERC20Burnable(alToken).safeTransferFrom(sender, address(this), amount);\n        totalSupplyAltokens = totalSupplyAltokens.add(amount);\n        depositedAlTokens[sender] = depositedAlTokens[sender].add(amount);\n        emit AlUsdStaked(sender, amount);\n    }\n    /// @dev Converts the staked alTokens to the base tokens in amount of the sum of pendingdivs and tokensInBucket\n    ///\n    /// once the alToken has been converted, it is burned, and the base token becomes realisedTokens which can be recieved using claim()    \n    ///\n    /// reverts if there are no pendingdivs or tokensInBucket\n    function transmute() \n        public \n        noContractAllowed()\n        ensureUserActionDelay()\n        runPhasedDistribution() \n        updateAccount(msg.sender) {\n        address sender = msg.sender;\n        uint256 pendingz = tokensInBucket[sender];\n        uint256 diff;\n\n        require(pendingz > 0, \"need to have pending in bucket\");\n\n        tokensInBucket[sender] = 0;\n\n        // check bucket overflow\n        if (pendingz > depositedAlTokens[sender]) {\n            diff = pendingz.sub(depositedAlTokens[sender]);\n\n            // remove overflow\n            pendingz = depositedAlTokens[sender];\n        }\n\n        // decrease altokens\n        depositedAlTokens[sender] = depositedAlTokens[sender].sub(pendingz);\n\n        // BURN ALTOKENS\n        IERC20Burnable(alToken).burn(pendingz);\n\n        // adjust total\n        totalSupplyAltokens = totalSupplyAltokens.sub(pendingz);\n\n        // reallocate overflow\n        increaseAllocations(diff);\n\n        // add payout\n        realisedTokens[sender] = realisedTokens[sender].add(pendingz);\n\n        emit Transmutation(sender, pendingz);\n    }\n\n    /// @dev Executes transmute() on another account that has had more base tokens allocated to it than alTokens staked.\n    ///\n    /// The caller of this function will have the surlus base tokens credited to their tokensInBucket balance, rewarding them for performing this action\n    ///\n    /// This function reverts if the address to transmute is not over-filled.\n    ///\n    /// @param toTransmute address of the account you will force transmute.\n    function forceTransmute(address toTransmute)\n        public\n        noContractAllowed()\n        ensureUserActionDelay()\n        runPhasedDistribution()\n        updateAccount(msg.sender)\n        updateAccount(toTransmute)\n        checkIfNewUser()\n    {\n        //load into memory\n        address sender = msg.sender;\n        uint256 pendingz = tokensInBucket[toTransmute];\n        // check restrictions\n        require(\n            pendingz > depositedAlTokens[toTransmute],\n            \"Transmuter: !overflow\"\n        );\n\n        // empty bucket\n        tokensInBucket[toTransmute] = 0;\n\n        // calculaate diffrence\n        uint256 diff = pendingz.sub(depositedAlTokens[toTransmute]);\n\n        // remove overflow\n        pendingz = depositedAlTokens[toTransmute];\n\n        // decrease altokens\n        depositedAlTokens[toTransmute] = 0;\n\n        // BURN ALTOKENS\n        IERC20Burnable(alToken).burn(pendingz);\n        // adjust total\n        totalSupplyAltokens = totalSupplyAltokens.sub(pendingz);\n\n        // reallocate overflow\n        tokensInBucket[sender] = tokensInBucket[sender].add(diff);\n\n        // add payout\n        realisedTokens[toTransmute] = realisedTokens[toTransmute].add(pendingz);\n\n        uint256 value = realisedTokens[toTransmute];\n\n        ensureSufficientFundsExistLocally(value);\n\n        // force payout of realised tokens of the toTransmute address\n        realisedTokens[toTransmute] = 0;\n        IERC20Burnable(token).safeTransfer(toTransmute, value);\n        emit ForcedTransmutation(sender, toTransmute, value);\n    }\n\n    /// @dev Transmutes and unstakes all alTokens\n    ///\n    /// This function combines the transmute and unstake functions for ease of use\n    function exit() public noContractAllowed() {\n        transmute();\n        uint256 toWithdraw = depositedAlTokens[msg.sender];\n        unstake(toWithdraw);\n    }\n\n    /// @dev Transmutes and claims all converted base tokens.\n    ///\n    /// This function combines the transmute and claim functions while leaving your remaining alTokens staked.\n    function transmuteAndClaim() public noContractAllowed() {\n        transmute();\n        claim();\n    }\n\n    /// @dev Transmutes, claims base tokens, and withdraws alTokens.\n    ///\n    /// This function helps users to exit the transmuter contract completely after converting their alTokens to the base pair.\n    function transmuteClaimAndWithdraw() public noContractAllowed() {\n        transmute();\n        claim();\n        uint256 toWithdraw = depositedAlTokens[msg.sender];\n        unstake(toWithdraw);\n    }\n\n    /// @dev Distributes the base token proportionally to all alToken stakers.\n    ///\n    /// This function is meant to be called by the Alchemist contract for when it is sending yield to the transmuter. \n    /// Anyone can call this and add funds, idk why they would do that though...\n    ///\n    /// @param origin the account that is sending the tokens to be distributed.\n    /// @param amount the amount of base tokens to be distributed to the transmuter.\n    function distribute(address origin, uint256 amount) public onlyWhitelisted() runPhasedDistribution() {\n        require(!pause, \"emergency pause enabled\");\n        IERC20Burnable(token).safeTransferFrom(origin, address(this), amount);\n        buffer = buffer.add(amount);\n        _plantOrRecallExcessFunds();\n        emit Distribution(origin, amount);\n    }\n\n    /// @dev Allocates the incoming yield proportionally to all alToken stakers.\n    ///\n    /// @param amount the amount of base tokens to be distributed in the transmuter.\n    function increaseAllocations(uint256 amount) internal {\n        if(totalSupplyAltokens > 0 && amount > 0) {\n            totalDividendPoints = totalDividendPoints.add(\n                amount.mul(pointMultiplier).div(totalSupplyAltokens)\n            );\n            unclaimedDividends = unclaimedDividends.add(amount);\n        } else {\n            buffer = buffer.add(amount);\n        }\n    }\n\n    /// @dev Gets the status of a user's staking position.\n    ///\n    /// The total amount allocated to a user is the sum of pendingdivs and inbucket.\n    ///\n    /// @param user the address of the user you wish to query.\n    ///\n    /// returns user status\n    \n    function userInfo(address user)\n        public\n        view\n        returns (\n            uint256 depositedAl,\n            uint256 pendingdivs,\n            uint256 inbucket,\n            uint256 realised\n        )\n    {\n        uint256 _depositedAl = depositedAlTokens[user];\n        uint256 _toDistribute = buffer.mul(block.number.sub(lastDepositBlock)).div(transmutationPeriod);\n        if(block.number.sub(lastDepositBlock) > transmutationPeriod){\n            _toDistribute = buffer;\n        }\n        uint256 _pendingdivs = _toDistribute.mul(depositedAlTokens[user]).div(totalSupplyAltokens);\n        uint256 _inbucket = tokensInBucket[user].add(dividendsOwing(user));\n        uint256 _realised = realisedTokens[user];\n        return (_depositedAl, _pendingdivs, _inbucket, _realised);\n    }\n\n    /// @dev Gets the status of multiple users in one call\n    ///\n    /// This function is used to query the contract to check for\n    /// accounts that have overfilled positions in order to check \n    /// who can be force transmuted.\n    ///\n    /// @param from the first index of the userList\n    /// @param to the last index of the userList\n    ///\n    /// returns the userList with their staking status in paginated form. \n    function getMultipleUserInfo(uint256 from, uint256 to)\n        public\n        view\n        returns (address[] memory theUserList, uint256[] memory theUserData)\n    {\n        uint256 i = from;\n        uint256 delta = to - from;\n        address[] memory _theUserList = new address[](delta); //user\n        uint256[] memory _theUserData = new uint256[](delta * 2); //deposited-bucket\n        uint256 y = 0;\n        uint256 _toDistribute = buffer.mul(block.number.sub(lastDepositBlock)).div(transmutationPeriod);\n        if(block.number.sub(lastDepositBlock) > transmutationPeriod){\n            _toDistribute = buffer;\n        }\n        for (uint256 x = 0; x < delta; x += 1) {\n            _theUserList[x] = userList[i];\n            _theUserData[y] = depositedAlTokens[userList[i]];\n            _theUserData[y + 1] = dividendsOwing(userList[i]).add(tokensInBucket[userList[i]]).add(_toDistribute.mul(depositedAlTokens[userList[i]]).div(totalSupplyAltokens));\n            y += 2;\n            i += 1;\n        }\n        return (_theUserList, _theUserData);\n    }\n\n    /// @dev Gets info on the buffer\n    ///\n    /// This function is used to query the contract to get the\n    /// latest state of the buffer\n    ///\n    /// @return _toDistribute the amount ready to be distributed\n    /// @return _deltaBlocks the amount of time since the last phased distribution\n    /// @return _buffer the amount in the buffer \n    function bufferInfo() public view returns (uint256 _toDistribute, uint256 _deltaBlocks, uint256 _buffer){\n        _deltaBlocks = block.number.sub(lastDepositBlock);\n        _buffer = buffer; \n        _toDistribute = _buffer.mul(_deltaBlocks).div(transmutationPeriod);\n    }\n\n    /// @dev Sets the pending governance.\n    ///\n    /// This function reverts if the new pending governance is the zero address or the caller is not the current\n    /// governance. This is to prevent the contract governance being set to the zero address which would deadlock\n    /// privileged contract functionality.\n    ///\n    /// @param _pendingGovernance the new pending governance.\n    function setPendingGovernance(address _pendingGovernance) external onlyGov() {\n        require(_pendingGovernance != ZERO_ADDRESS, \"Transmuter: 0 gov\");\n\n        pendingGovernance = _pendingGovernance;\n\n        emit PendingGovernanceUpdated(_pendingGovernance);\n    }\n\n    /// @dev Accepts the role as governance.\n    ///\n    /// This function reverts if the caller is not the new pending governance.\n    function acceptGovernance() external  {\n        require(msg.sender == pendingGovernance,\"!pendingGovernance\");\n        address _pendingGovernance = pendingGovernance;\n        governance = _pendingGovernance;\n\n        emit GovernanceUpdated(_pendingGovernance);\n    }\n\n    /// @dev Sets the whitelist\n    ///\n    /// This function reverts if the caller is not governance\n    ///\n    /// @param _toWhitelist the address to alter whitelist permissions.\n    /// @param _state the whitelist state.\n    function setWhitelist(address _toWhitelist, bool _state) external onlyGov() {\n        whiteList[_toWhitelist] = _state;\n        emit WhitelistSet(_toWhitelist, _state);\n    }\n\n    /// @dev Sets the keeper list\n    ///\n    /// This function reverts if the caller is not governance\n    ///\n    /// @param _keepers the accounts to set states for.\n    /// @param _states the accounts states.\n    function setKeepers(address[] calldata _keepers, bool[] calldata _states) external onlyGov() {\n        uint256 n = _keepers.length;\n        for(uint256 i = 0; i < n; i++) {\n            keepers[_keepers[i]] = _states[i];\n        }\n        emit KeepersSet(_keepers, _states);\n    }\n\n    /// @dev Initializes the contract.\n    ///\n    /// This function checks that the transmuter and rewards have been set and sets up the active vault.\n    ///\n    /// @param _adapter the vault adapter of the active vault.\n    function initialize(YearnVaultAdapterWithIndirection _adapter) external onlyGov {\n        require(!initialized, \"Transmuter: already initialized\");\n        require(rewards != ZERO_ADDRESS, \"Transmuter: cannot initialize rewards address to 0x0\");\n\n        _updateActiveVault(_adapter);\n\n        initialized = true;\n    }\n\n    function migrate(YearnVaultAdapterWithIndirection _adapter) external onlyGov() {\n        _updateActiveVault(_adapter);\n    }\n\n    /// @dev Updates the active vault.\n    ///\n    /// This function reverts if the vault adapter is the zero address, if the token that the vault adapter accepts\n    /// is not the token that this contract defines as the parent asset, or if the contract has not yet been initialized.\n    ///\n    /// @param _adapter the adapter for the new active vault.\n    function _updateActiveVault(YearnVaultAdapterWithIndirection _adapter) internal {\n        require(_adapter != YearnVaultAdapterWithIndirection(ZERO_ADDRESS), \"Transmuter: active vault address cannot be 0x0.\");\n        require(address(_adapter.token()) == token, \"Transmuter.vault: token mismatch.\");\n        require(!adapters[_adapter], \"Adapter already in use\");\n        adapters[_adapter] = true;\n        _vaults.push(VaultWithIndirection.Data({\n            adapter: _adapter,\n            totalDeposited: 0\n        }));\n\n        emit ActiveVaultUpdated(_adapter);\n    }\n\n    /// @dev Gets the number of vaults in the vault list.\n    ///\n    /// @return the vault count.\n    function vaultCount() external view returns (uint256) {\n        return _vaults.length();\n    }\n\n    /// @dev Get the adapter of a vault.\n    ///\n    /// @param _vaultId the identifier of the vault.\n    ///\n    /// @return the vault adapter.\n    function getVaultAdapter(uint256 _vaultId) external view returns (address) {\n        VaultWithIndirection.Data storage _vault = _vaults.get(_vaultId);\n        return address(_vault.adapter);\n    }\n\n    /// @dev Get the total amount of the parent asset that has been deposited into a vault.\n    ///\n    /// @param _vaultId the identifier of the vault.\n    ///\n    /// @return the total amount of deposited tokens.\n    function getVaultTotalDeposited(uint256 _vaultId) external view returns (uint256) {\n        VaultWithIndirection.Data storage _vault = _vaults.get(_vaultId);\n        return _vault.totalDeposited;\n    }\n\n\n    /// @dev Recalls funds from active vault if less than amt exist locally\n    ///\n    /// @param amt amount of funds that need to exist locally to fulfill pending request\n    function ensureSufficientFundsExistLocally(uint256 amt) internal {\n        uint256 currentBal = IERC20Burnable(token).balanceOf(address(this));\n        if (currentBal < amt) {\n            uint256 diff = amt - currentBal;\n            // get enough funds from active vault to replenish local holdings & fulfill claim request\n            _recallExcessFundsFromActiveVault(plantableThreshold.add(diff));\n        }\n    }\n\n    /// @dev Recalls all planted funds from a target vault\n    ///\n    /// @param _vaultId the id of the vault from which to recall funds\n    function recallAllFundsFromVault(uint256 _vaultId) external {\n        require(pause && (msg.sender == governance || msg.sender == sentinel), \"Transmuter: not paused, or not governance or sentinel\");\n        _recallAllFundsFromVault(_vaultId);\n    }\n\n    /// @dev Recalls all planted funds from a target vault\n    ///\n    /// @param _vaultId the id of the vault from which to recall funds\n    function _recallAllFundsFromVault(uint256 _vaultId) internal {\n        VaultWithIndirection.Data storage _vault = _vaults.get(_vaultId);\n        (uint256 _withdrawnAmount, uint256 _decreasedValue) = _vault.withdrawAll(address(this));\n        emit FundsRecalled(_vaultId, _withdrawnAmount, _decreasedValue);\n    }\n\n    /// @dev Recalls planted funds from a target vault\n    ///\n    /// @param _vaultId the id of the vault from which to recall funds\n    /// @param _amount the amount of funds to recall\n    function recallFundsFromVault(uint256 _vaultId, uint256 _amount) external {\n        require(pause && (msg.sender == governance || msg.sender == sentinel), \"Transmuter: not paused, or not governance or sentinel\");\n        _recallFundsFromVault(_vaultId, _amount);\n    }\n\n    /// @dev Recalls planted funds from a target vault\n    ///\n    /// @param _vaultId the id of the vault from which to recall funds\n    /// @param _amount the amount of funds to recall\n    function _recallFundsFromVault(uint256 _vaultId, uint256 _amount) internal {\n        VaultWithIndirection.Data storage _vault = _vaults.get(_vaultId);\n        (uint256 _withdrawnAmount, uint256 _decreasedValue) = _vault.withdraw(address(this), _amount);\n        emit FundsRecalled(_vaultId, _withdrawnAmount, _decreasedValue);\n    }\n\n    /// @dev Recalls planted funds from the active vault\n    ///\n    /// @param _amount the amount of funds to recall\n    function _recallFundsFromActiveVault(uint256 _amount) internal {\n        _recallFundsFromVault(_vaults.lastIndex(), _amount);\n    }\n\n    /// @dev Plants or recalls funds from the active vault\n    ///\n    /// This function plants excess funds in an external vault, or recalls them from the external vault\n    /// Should only be called as part of distribute()\n    function _plantOrRecallExcessFunds() internal {\n        // check if the transmuter holds more funds than plantableThreshold\n        uint256 bal = IERC20Burnable(token).balanceOf(address(this));\n        uint256 marginVal = plantableThreshold.mul(plantableMargin).div(100);\n        if (bal > plantableThreshold.add(marginVal)) {\n            uint256 plantAmt = bal - plantableThreshold;\n            // if total funds above threshold, send funds to vault\n            VaultWithIndirection.Data storage _activeVault = _vaults.last();\n            _activeVault.deposit(plantAmt);\n        } else if (bal < plantableThreshold.sub(marginVal)) {\n            // if total funds below threshold, recall funds from vault\n            // first check that there are enough funds in vault\n            uint256 harvestAmt = plantableThreshold - bal;\n            _recallExcessFundsFromActiveVault(harvestAmt);\n        }\n    }\n\n    /// @dev Recalls up to the harvestAmt from the active vault\n    ///\n    /// This function will recall less than harvestAmt if only less is available\n    ///\n    /// @param _recallAmt the amount to harvest from the active vault\n    function _recallExcessFundsFromActiveVault(uint256 _recallAmt) internal {\n        VaultWithIndirection.Data storage _activeVault = _vaults.last();\n        uint256 activeVaultVal = _activeVault.totalValue();\n        if (activeVaultVal < _recallAmt) {\n            _recallAmt = activeVaultVal;\n        }\n        if (_recallAmt > 0) {\n            _recallFundsFromActiveVault(_recallAmt);\n        }\n    }\n\n    /// @dev Sets the address of the sentinel\n    ///\n    /// @param _sentinel address of the new sentinel\n    function setSentinel(address _sentinel) external onlyGov() {\n        require(_sentinel != ZERO_ADDRESS, \"Transmuter: sentinel address cannot be 0x0.\");\n        sentinel = _sentinel;\n        emit SentinelUpdated(_sentinel);\n    }\n\n    /// @dev Sets the threshold of total held funds above which excess funds will be planted in yield farms.\n    ///\n    /// This function reverts if the caller is not the current governance.\n    ///\n    /// @param _plantableThreshold the new plantable threshold.\n    function setPlantableThreshold(uint256 _plantableThreshold) external onlyGov() {\n        plantableThreshold = _plantableThreshold;\n        emit PlantableThresholdUpdated(_plantableThreshold);\n    }\n\n    /// @dev Sets the plantableThreshold margin for triggering the planting or recalling of funds on harvest\n    ///\n    /// This function reverts if the caller is not the current governance.\n    ///\n    /// @param _plantableMargin the new plantable margin.\n    function setPlantableMargin(uint256 _plantableMargin) external onlyGov() {\n        plantableMargin = _plantableMargin;\n        emit PlantableMarginUpdated(_plantableMargin);\n    }\n\n    /// @dev Sets the minUserActionDelay \n    ///\n    /// This function reverts if the caller is not the current governance.\n    ///\n    /// @param _minUserActionDelay the new min user action delay.\n    function setMinUserActionDelay(uint256 _minUserActionDelay) external onlyGov() {\n        minUserActionDelay = _minUserActionDelay;\n        emit MinUserActionDelayUpdated(_minUserActionDelay);\n    }\n\n    /// @dev Sets if the contract should enter emergency exit mode.\n    ///\n    /// There are 2 main reasons to pause:\n    ///     1. Need to shut down deposits in case of an emergency in one of the vaults\n    ///     2. Need to migrate to a new transmuter\n    ///\n    /// While the transmuter is paused, deposit() and distribute() are disabled\n    ///\n    /// @param _pause if the contract should enter emergency exit mode.\n    function setPause(bool _pause) external {\n        require(msg.sender == governance || msg.sender == sentinel, \"!(gov || sentinel)\");\n        pause = _pause;\n        emit PauseUpdated(_pause);\n    }\n\n    /// @dev Harvests yield from a vault.\n    ///\n    /// @param _vaultId the identifier of the vault to harvest from.\n    ///\n    /// @return the amount of funds that were harvested from the vault.\n    function harvest(uint256 _vaultId) external onlyKeeper() returns (uint256, uint256) {\n\n        VaultWithIndirection.Data storage _vault = _vaults.get(_vaultId);\n\n        (uint256 _harvestedAmount, uint256 _decreasedValue) = _vault.harvest(rewards);\n\n        emit FundsHarvested(_harvestedAmount, _decreasedValue);\n\n        return (_harvestedAmount, _decreasedValue);\n    }\n\n    /// @dev Sets the rewards contract.\n    ///\n    /// This function reverts if the new rewards contract is the zero address or the caller is not the current governance.\n    ///\n    /// @param _rewards the new rewards contract.\n    function setRewards(address _rewards) external onlyGov() {\n        // Check that the rewards address is not the zero address. Setting the rewards to the zero address would break\n        // transfers to the address because of `safeTransfer` checks.\n        require(_rewards != ZERO_ADDRESS, \"Transmuter: rewards address cannot be 0x0.\");\n\n        rewards = _rewards;\n\n        emit RewardsUpdated(_rewards);\n    }\n\n    /// @dev Migrates transmuter funds to a new transmuter\n    ///\n    /// @param migrateTo address of the new transmuter\n    function migrateFunds(address migrateTo) external onlyGov() {\n        require(migrateTo != address(0), \"cannot migrate to 0x0\");\n        require(pause, \"migrate: set emergency exit first\");\n\n        // leave enough funds to service any pending transmutations\n        uint256 totalFunds = IERC20Burnable(token).balanceOf(address(this));\n        uint256 migratableFunds = totalFunds.sub(totalSupplyAltokens, \"not enough funds to service stakes\");\n        IERC20Burnable(token).approve(migrateTo, migratableFunds);\n        ITransmuter(migrateTo).distribute(address(this), migratableFunds);\n        emit MigrationComplete(migrateTo, migratableFunds);\n    }\n\n}\n",
  "sourcePath": "/Users/shr1ftyy/Personal/Computing/bounties/alcx/alchemix-protocol/contracts/TransmuterB.sol",
  "compiler": {
    "name": "solc",
    "version": "0.6.12+commit.27d51765.Emscripten.clang"
  },
  "schemaVersion": "3.4.4",
  "updatedAt": "2022-01-12T10:52:43.321Z",
  "networkType": "ethereum",
  "devdoc": {
    "details": "Implementation of the {IERC20Burnable} interface. This implementation is agnostic to the way tokens are created. This means that a supply mechanism has to be added in a derived contract using {_mint}. For a generic mechanism see {ERC20PresetMinterPauser}. TIP: For a detailed writeup see our guide https://forum.zeppelin.solutions/t/how-to-implement-erc20-supply-mechanisms/226[How to implement supply mechanisms]. We have followed general OpenZeppelin guidelines: functions revert instead of returning `false` on failure. This behavior is nonetheless conventional and does not conflict with the expectations of ERC20 applications. Additionally, an {Approval} event is emitted on calls to {transferFrom}. This allows applications to reconstruct the allowance for all accounts just by listening to said events. Other implementations of the EIP may not emit these events, as it isn't required by the specification. Finally, the non-standard {decreaseAllowance} and {increaseAllowance} functions have been added to mitigate the well-known issues around setting allowances. See {IERC20Burnable-approve}.",
    "kind": "dev",
    "methods": {
      "acceptGovernance()": {
        "details": "Accepts the role as governance. This function reverts if the caller is not the new pending governance."
      },
      "bufferInfo()": {
        "details": "Gets info on the buffer This function is used to query the contract to get the latest state of the buffer",
        "returns": {
          "_buffer": "the amount in the buffer ",
          "_deltaBlocks": "the amount of time since the last phased distribution",
          "_toDistribute": "the amount ready to be distributed"
        }
      },
      "claim()": {
        "details": "claims the base token after it has been transmuted This function reverts if there is no realisedToken balance"
      },
      "distribute(address,uint256)": {
        "details": "Distributes the base token proportionally to all alToken stakers. This function is meant to be called by the Alchemist contract for when it is sending yield to the transmuter.  Anyone can call this and add funds, idk why they would do that though...",
        "params": {
          "amount": "the amount of base tokens to be distributed to the transmuter.",
          "origin": "the account that is sending the tokens to be distributed."
        }
      },
      "dividendsOwing(address)": {
        "returns": {
          "_0": "displays the user's share of the pooled alTokens."
        }
      },
      "exit()": {
        "details": "Transmutes and unstakes all alTokens This function combines the transmute and unstake functions for ease of use"
      },
      "forceTransmute(address)": {
        "details": "Executes transmute() on another account that has had more base tokens allocated to it than alTokens staked. The caller of this function will have the surlus base tokens credited to their tokensInBucket balance, rewarding them for performing this action This function reverts if the address to transmute is not over-filled.",
        "params": {
          "toTransmute": "address of the account you will force transmute."
        }
      },
      "getMultipleUserInfo(uint256,uint256)": {
        "details": "Gets the status of multiple users in one call This function is used to query the contract to check for accounts that have overfilled positions in order to check  who can be force transmuted.",
        "params": {
          "from": "the first index of the userList",
          "to": "the last index of the userList returns the userList with their staking status in paginated form. "
        }
      },
      "getVaultAdapter(uint256)": {
        "details": "Get the adapter of a vault.",
        "params": {
          "_vaultId": "the identifier of the vault."
        },
        "returns": {
          "_0": "the vault adapter."
        }
      },
      "getVaultTotalDeposited(uint256)": {
        "details": "Get the total amount of the parent asset that has been deposited into a vault.",
        "params": {
          "_vaultId": "the identifier of the vault."
        },
        "returns": {
          "_0": "the total amount of deposited tokens."
        }
      },
      "harvest(uint256)": {
        "details": "Harvests yield from a vault.",
        "params": {
          "_vaultId": "the identifier of the vault to harvest from."
        },
        "returns": {
          "_0": "the amount of funds that were harvested from the vault."
        }
      },
      "initialize(address)": {
        "details": "Initializes the contract. This function checks that the transmuter and rewards have been set and sets up the active vault.",
        "params": {
          "_adapter": "the vault adapter of the active vault."
        }
      },
      "migrateFunds(address)": {
        "details": "Migrates transmuter funds to a new transmuter",
        "params": {
          "migrateTo": "address of the new transmuter"
        }
      },
      "recallAllFundsFromVault(uint256)": {
        "details": "Recalls all planted funds from a target vault",
        "params": {
          "_vaultId": "the id of the vault from which to recall funds"
        }
      },
      "recallFundsFromVault(uint256,uint256)": {
        "details": "Recalls planted funds from a target vault",
        "params": {
          "_amount": "the amount of funds to recall",
          "_vaultId": "the id of the vault from which to recall funds"
        }
      },
      "setKeepers(address[],bool[])": {
        "details": "Sets the keeper list This function reverts if the caller is not governance",
        "params": {
          "_keepers": "the accounts to set states for.",
          "_states": "the accounts states."
        }
      },
      "setMinUserActionDelay(uint256)": {
        "details": "Sets the minUserActionDelay  This function reverts if the caller is not the current governance.",
        "params": {
          "_minUserActionDelay": "the new min user action delay."
        }
      },
      "setPause(bool)": {
        "details": "Sets if the contract should enter emergency exit mode. There are 2 main reasons to pause:     1. Need to shut down deposits in case of an emergency in one of the vaults     2. Need to migrate to a new transmuter While the transmuter is paused, deposit() and distribute() are disabled",
        "params": {
          "_pause": "if the contract should enter emergency exit mode."
        }
      },
      "setPendingGovernance(address)": {
        "details": "Sets the pending governance. This function reverts if the new pending governance is the zero address or the caller is not the current governance. This is to prevent the contract governance being set to the zero address which would deadlock privileged contract functionality.",
        "params": {
          "_pendingGovernance": "the new pending governance."
        }
      },
      "setPlantableMargin(uint256)": {
        "details": "Sets the plantableThreshold margin for triggering the planting or recalling of funds on harvest This function reverts if the caller is not the current governance.",
        "params": {
          "_plantableMargin": "the new plantable margin."
        }
      },
      "setPlantableThreshold(uint256)": {
        "details": "Sets the threshold of total held funds above which excess funds will be planted in yield farms. This function reverts if the caller is not the current governance.",
        "params": {
          "_plantableThreshold": "the new plantable threshold."
        }
      },
      "setRewards(address)": {
        "details": "Sets the rewards contract. This function reverts if the new rewards contract is the zero address or the caller is not the current governance.",
        "params": {
          "_rewards": "the new rewards contract."
        }
      },
      "setSentinel(address)": {
        "details": "Sets the address of the sentinel",
        "params": {
          "_sentinel": "address of the new sentinel"
        }
      },
      "setTransmutationPeriod(uint256)": {
        "details": "set the transmutationPeriod variable sets the length (in blocks) of one full distribution phase"
      },
      "setWhitelist(address,bool)": {
        "details": "Sets the whitelist This function reverts if the caller is not governance",
        "params": {
          "_state": "the whitelist state.",
          "_toWhitelist": "the address to alter whitelist permissions."
        }
      },
      "stake(uint256)": {
        "details": "Deposits alTokens into the transmuter ",
        "params": {
          "amount": "the amount of alTokens to stake"
        }
      },
      "transmute()": {
        "details": "Converts the staked alTokens to the base tokens in amount of the sum of pendingdivs and tokensInBucket once the alToken has been converted, it is burned, and the base token becomes realisedTokens which can be recieved using claim()     reverts if there are no pendingdivs or tokensInBucket"
      },
      "transmuteAndClaim()": {
        "details": "Transmutes and claims all converted base tokens. This function combines the transmute and claim functions while leaving your remaining alTokens staked."
      },
      "transmuteClaimAndWithdraw()": {
        "details": "Transmutes, claims base tokens, and withdraws alTokens. This function helps users to exit the transmuter contract completely after converting their alTokens to the base pair."
      },
      "unstake(uint256)": {
        "details": "Withdraws staked alTokens from the transmuter This function reverts if you try to draw more tokens than you deposited",
        "params": {
          "amount": "the amount of alTokens to unstake"
        }
      },
      "userInfo(address)": {
        "details": "Gets the status of a user's staking position. The total amount allocated to a user is the sum of pendingdivs and inbucket.",
        "params": {
          "user": "the address of the user you wish to query. returns user status"
        }
      },
      "vaultCount()": {
        "details": "Gets the number of vaults in the vault list.",
        "returns": {
          "_0": "the vault count."
        }
      }
    },
    "stateVariables": {
      "_vaults": {
        "details": "A list of all of the vaults. The last element of the list is the vault that is currently being used for deposits and withdraws. VaultWithIndirections before the last element are considered inactive and are expected to be cleared."
      },
      "adapters": {
        "details": "A mapping of adapter addresses to keep track of vault adapters that have already been added"
      },
      "governance": {
        "details": "The address of the account which currently has administrative capabilities over this contract."
      },
      "initialized": {
        "details": "make sure the contract is only initialized once."
      },
      "keepers": {
        "details": "addresses whitelisted to run keepr jobs (harvest)"
      },
      "lastUserAction": {
        "details": "mapping of user account to the last block they acted"
      },
      "minUserActionDelay": {
        "details": "number of blocks to delay between allowed user actions"
      },
      "pause": {
        "details": "A flag indicating if deposits and flushes should be halted and if all parties should be able to recall from the active vault."
      },
      "pendingGovernance": {
        "details": "The address of the pending governance."
      },
      "plantableMargin": {
        "details": "The % margin to trigger planting or recalling of funds"
      },
      "plantableThreshold": {
        "details": "The threshold above which excess funds will be deployed to yield farming activities"
      },
      "pointMultiplier": {
        "details": "values needed to calculate the distribution of base asset in proportion for alTokens staked"
      },
      "rewards": {
        "details": "The address of the contract which will receive fees."
      },
      "sentinel": {
        "details": "The address of the account which can perform emergency activities"
      },
      "whiteList": {
        "details": "alchemist addresses whitelisted"
      }
    },
    "version": 1
  },
  "userdoc": {
    "kind": "user",
    "methods": {},
    "version": 1
  }
}