{
  "contractName": "VaultAdapterMockWithIndirection",
  "abi": [
    {
      "inputs": [
        {
          "internalType": "contract IDetailedERC20",
          "name": "token_",
          "type": "address"
        }
      ],
      "stateMutability": "nonpayable",
      "type": "constructor"
    },
    {
      "inputs": [],
      "name": "token",
      "outputs": [
        {
          "internalType": "contract IDetailedERC20",
          "name": "",
          "type": "address"
        }
      ],
      "stateMutability": "view",
      "type": "function"
    },
    {
      "inputs": [],
      "name": "totalValue",
      "outputs": [
        {
          "internalType": "uint256",
          "name": "",
          "type": "uint256"
        }
      ],
      "stateMutability": "view",
      "type": "function"
    },
    {
      "inputs": [
        {
          "internalType": "uint256",
          "name": "_amount",
          "type": "uint256"
        }
      ],
      "name": "deposit",
      "outputs": [],
      "stateMutability": "nonpayable",
      "type": "function"
    },
    {
      "inputs": [
        {
          "internalType": "address",
          "name": "_recipient",
          "type": "address"
        },
        {
          "internalType": "uint256",
          "name": "_amount",
          "type": "uint256"
        }
      ],
      "name": "withdraw",
      "outputs": [],
      "stateMutability": "nonpayable",
      "type": "function"
    },
    {
      "inputs": [
        {
          "internalType": "address",
          "name": "_recipient",
          "type": "address"
        },
        {
          "internalType": "uint256",
          "name": "_amount",
          "type": "uint256"
        }
      ],
      "name": "indirectWithdraw",
      "outputs": [],
      "stateMutability": "nonpayable",
      "type": "function"
    }
  ],
  "bytecode": "0x608060405234801561001057600080fd5b506040516107043803806107048339818101604052602081101561003357600080fd5b505160008054600160a060020a03909216600160a060020a031990921691909117905561069f806100656000396000f3fe608060405234801561001057600080fd5b5060043610610084576000357c010000000000000000000000000000000000000000000000000000000090048063d4c3eea01161006d578063d4c3eea0146100e1578063f3fef3a314610089578063fc0c546a146100fb57610084565b8063594d4e3614610089578063b6b55f25146100c4575b600080fd5b6100c26004803603604081101561009f57600080fd5b5073ffffffffffffffffffffffffffffffffffffffff813516906020013561012c565b005b6100c2600480360360208110156100da57600080fd5b5035610154565b6100e9610157565b60408051918252519081900360200190f35b6101036101fa565b6040805173ffffffffffffffffffffffffffffffffffffffff9092168252519081900360200190f35b6000546101509073ffffffffffffffffffffffffffffffffffffffff168383610216565b5050565b50565b60008054604080517f70a08231000000000000000000000000000000000000000000000000000000008152306004820152905173ffffffffffffffffffffffffffffffffffffffff909216916370a0823191602480820192602092909190829003018186803b1580156101c957600080fd5b505afa1580156101dd573d6000803e3d6000fd5b505050506040513d60208110156101f357600080fd5b5051905090565b60005473ffffffffffffffffffffffffffffffffffffffff1690565b6040805173ffffffffffffffffffffffffffffffffffffffff8416602482015260448082018490528251808303909101815260649091019091526020810180517bffffffffffffffffffffffffffffffffffffffffffffffffffffffff167fa9059cbb000000000000000000000000000000000000000000000000000000001790526102a39084906102a8565b505050565b606061030a826040518060400160405280602081526020017f5361666545524332303a206c6f772d6c6576656c2063616c6c206661696c65648152508573ffffffffffffffffffffffffffffffffffffffff166103809092919063ffffffff16565b8051909150156102a35780806020019051602081101561032957600080fd5b50516102a3576040517f08c379a000000000000000000000000000000000000000000000000000000000815260040180806020018281038252602a815260200180610640602a913960400191505060405180910390fd5b606061038f8484600085610399565b90505b9392505050565b606030318311156103f5576040517f08c379a000000000000000000000000000000000000000000000000000000000815260040180806020018281038252602681526020018061061a6026913960400191505060405180910390fd5b6103fe85610555565b61046957604080517f08c379a000000000000000000000000000000000000000000000000000000000815260206004820152601d60248201527f416464726573733a2063616c6c20746f206e6f6e2d636f6e7472616374000000604482015290519081900360640190fd5b600060608673ffffffffffffffffffffffffffffffffffffffff1685876040518082805190602001908083835b602083106104d357805182527fffffffffffffffffffffffffffffffffffffffffffffffffffffffffffffffe09092019160209182019101610496565b6001836020036101000a03801982511681845116808217855250505050505090500191505060006040518083038185875af1925050503d8060008114610535576040519150601f19603f3d011682016040523d82523d6000602084013e61053a565b606091505b509150915061054a82828661055b565b979650505050505050565b3b151590565b6060831561056a575081610392565b82511561057a5782518084602001fd5b816040517f08c379a00000000000000000000000000000000000000000000000000000000081526004018080602001828103825283818151815260200191508051906020019080838360005b838110156105de5781810151838201526020016105c6565b50505050905090810190601f16801561060b5780820380516001836020036101000a031916815260200191505b509250505060405180910390fdfe416464726573733a20696e73756666696369656e742062616c616e636520666f722063616c6c5361666545524332303a204552433230206f7065726174696f6e20646964206e6f742073756363656564a2646970667358221220f19786df6c4e01db752cfa4e289947afbc1b1ba78d4bb72e6578e91fbaaef1b564736f6c634300060c0033",
  "immutableReferences": {},
  "source": "// SPDX-License-Identifier: GPL-3.0\npragma solidity ^0.6.12;\n\nimport {SafeERC20} from \"@openzeppelin/contracts/token/ERC20/SafeERC20.sol\";\n\nimport \"../interfaces/IVaultAdapter.sol\";\n\ncontract VaultAdapterMockWithIndirection is IVaultAdapter {\n  using SafeERC20 for IDetailedERC20;\n\n  IDetailedERC20 private _token;\n\n  constructor(IDetailedERC20 token_) public {\n    _token = token_;\n  }\n\n  function token() external view override returns (IDetailedERC20) {\n    return _token;\n  }\n\n  function totalValue() external view override returns (uint256) {\n    return _token.balanceOf(address(this));\n  }\n\n  function deposit(uint256 _amount) external override { }\n\n  function withdraw(address _recipient, uint256 _amount) external override {\n    _token.safeTransfer(_recipient, _amount);\n  }\n\n  function indirectWithdraw(address _recipient, uint256 _amount) external {\n    _token.safeTransfer(_recipient, _amount);\n  }\n}\n",
  "sourcePath": "/Users/shr1ftyy/Personal/Computing/bounties/alcx/alchemix-protocol/contracts/mocks/VaultAdapterMockWithIndirection.sol",
  "compiler": {
    "name": "solc",
    "version": "0.6.12+commit.27d51765.Emscripten.clang"
  },
  "schemaVersion": "3.4.4",
  "updatedAt": "2022-01-11T09:34:07.520Z",
  "devdoc": {
    "kind": "dev",
    "methods": {
      "deposit(uint256)": {
        "details": "Deposits funds into the vault.",
        "params": {
          "_amount": "the amount of funds to deposit."
        }
      },
      "token()": {
        "details": "Gets the token that the adapter accepts."
      },
      "totalValue()": {
        "details": "The total value of the assets deposited into the vault."
      },
      "withdraw(address,uint256)": {
        "details": "Attempts to withdraw funds from the wrapped vault. The amount withdrawn to the recipient may be less than the amount requested.",
        "params": {
          "_amount": "the amount of funds to withdraw.",
          "_recipient": "the recipient of the funds."
        }
      }
    },
    "version": 1
  },
  "userdoc": {
    "kind": "user",
    "methods": {},
    "version": 1
  }
}