{
  "contractName": "VaultAdapterMock",
  "abi": [
    {
      "inputs": [
        {
          "internalType": "contract IDetailedERC20",
          "name": "token_",
          "type": "address"
        }
      ],
      "stateMutability": "nonpayable",
      "type": "constructor"
    },
    {
      "inputs": [],
      "name": "token",
      "outputs": [
        {
          "internalType": "contract IDetailedERC20",
          "name": "",
          "type": "address"
        }
      ],
      "stateMutability": "view",
      "type": "function"
    },
    {
      "inputs": [],
      "name": "totalValue",
      "outputs": [
        {
          "internalType": "uint256",
          "name": "",
          "type": "uint256"
        }
      ],
      "stateMutability": "view",
      "type": "function"
    },
    {
      "inputs": [
        {
          "internalType": "uint256",
          "name": "_amount",
          "type": "uint256"
        }
      ],
      "name": "deposit",
      "outputs": [],
      "stateMutability": "nonpayable",
      "type": "function"
    },
    {
      "inputs": [
        {
          "internalType": "address",
          "name": "_recipient",
          "type": "address"
        },
        {
          "internalType": "uint256",
          "name": "_amount",
          "type": "uint256"
        }
      ],
      "name": "withdraw",
      "outputs": [],
      "stateMutability": "nonpayable",
      "type": "function"
    }
  ],
  "bytecode": "0x608060405234801561001057600080fd5b506040516106e83803806106e88339818101604052602081101561003357600080fd5b505160008054600160a060020a03909216600160a060020a0319909216919091179055610683806100656000396000f3fe608060405234801561001057600080fd5b5060043610610068577c01000000000000000000000000000000000000000000000000000000006000350463b6b55f25811461006d578063d4c3eea01461008c578063f3fef3a3146100a6578063fc0c546a146100df575b600080fd5b61008a6004803603602081101561008357600080fd5b5035610110565b005b610094610113565b60408051918252519081900360200190f35b61008a600480360360408110156100bc57600080fd5b5073ffffffffffffffffffffffffffffffffffffffff81351690602001356101b6565b6100e76101de565b6040805173ffffffffffffffffffffffffffffffffffffffff9092168252519081900360200190f35b50565b60008054604080517f70a08231000000000000000000000000000000000000000000000000000000008152306004820152905173ffffffffffffffffffffffffffffffffffffffff909216916370a0823191602480820192602092909190829003018186803b15801561018557600080fd5b505afa158015610199573d6000803e3d6000fd5b505050506040513d60208110156101af57600080fd5b5051905090565b6000546101da9073ffffffffffffffffffffffffffffffffffffffff1683836101fa565b5050565b60005473ffffffffffffffffffffffffffffffffffffffff1690565b6040805173ffffffffffffffffffffffffffffffffffffffff8416602482015260448082018490528251808303909101815260649091019091526020810180517bffffffffffffffffffffffffffffffffffffffffffffffffffffffff167fa9059cbb0000000000000000000000000000000000000000000000000000000017905261028790849061028c565b505050565b60606102ee826040518060400160405280602081526020017f5361666545524332303a206c6f772d6c6576656c2063616c6c206661696c65648152508573ffffffffffffffffffffffffffffffffffffffff166103649092919063ffffffff16565b8051909150156102875780806020019051602081101561030d57600080fd5b5051610287576040517f08c379a000000000000000000000000000000000000000000000000000000000815260040180806020018281038252602a815260200180610624602a913960400191505060405180910390fd5b6060610373848460008561037d565b90505b9392505050565b606030318311156103d9576040517f08c379a00000000000000000000000000000000000000000000000000000000081526004018080602001828103825260268152602001806105fe6026913960400191505060405180910390fd5b6103e285610539565b61044d57604080517f08c379a000000000000000000000000000000000000000000000000000000000815260206004820152601d60248201527f416464726573733a2063616c6c20746f206e6f6e2d636f6e7472616374000000604482015290519081900360640190fd5b600060608673ffffffffffffffffffffffffffffffffffffffff1685876040518082805190602001908083835b602083106104b757805182527fffffffffffffffffffffffffffffffffffffffffffffffffffffffffffffffe0909201916020918201910161047a565b6001836020036101000a03801982511681845116808217855250505050505090500191505060006040518083038185875af1925050503d8060008114610519576040519150601f19603f3d011682016040523d82523d6000602084013e61051e565b606091505b509150915061052e82828661053f565b979650505050505050565b3b151590565b6060831561054e575081610376565b82511561055e5782518084602001fd5b816040517f08c379a00000000000000000000000000000000000000000000000000000000081526004018080602001828103825283818151815260200191508051906020019080838360005b838110156105c25781810151838201526020016105aa565b50505050905090810190601f1680156105ef5780820380516001836020036101000a031916815260200191505b509250505060405180910390fdfe416464726573733a20696e73756666696369656e742062616c616e636520666f722063616c6c5361666545524332303a204552433230206f7065726174696f6e20646964206e6f742073756363656564a2646970667358221220586c342b75a9c4db9dbc2dfc500f963188da8ef5e35b1c7015bd42eddb40fd0a64736f6c634300060c0033",
  "immutableReferences": {},
  "source": "// SPDX-License-Identifier: GPL-3.0\npragma solidity ^0.6.12;\n\nimport {SafeERC20} from \"@openzeppelin/contracts/token/ERC20/SafeERC20.sol\";\n\nimport \"../interfaces/IVaultAdapter.sol\";\n\ncontract VaultAdapterMock is IVaultAdapter {\n  using SafeERC20 for IDetailedERC20;\n\n  IDetailedERC20 private _token;\n\n  constructor(IDetailedERC20 token_) public {\n    _token = token_;\n  }\n\n  function token() external view override returns (IDetailedERC20) {\n    return _token;\n  }\n\n  function totalValue() external view override returns (uint256) {\n    return _token.balanceOf(address(this));\n  }\n\n  function deposit(uint256 _amount) external override { }\n\n  function withdraw(address _recipient, uint256 _amount) external override {\n    _token.safeTransfer(_recipient, _amount);\n  }\n}\n",
  "sourcePath": "/Users/shr1ftyy/Personal/Computing/bounties/alcx/alchemix-protocol/contracts/mocks/VaultAdapterMock.sol",
  "compiler": {
    "name": "solc",
    "version": "0.6.12+commit.27d51765.Emscripten.clang"
  },
  "schemaVersion": "3.4.4",
  "updatedAt": "2022-01-12T10:48:15.764Z",
  "devdoc": {
    "kind": "dev",
    "methods": {
      "deposit(uint256)": {
        "details": "Deposits funds into the vault.",
        "params": {
          "_amount": "the amount of funds to deposit."
        }
      },
      "token()": {
        "details": "Gets the token that the adapter accepts."
      },
      "totalValue()": {
        "details": "The total value of the assets deposited into the vault."
      },
      "withdraw(address,uint256)": {
        "details": "Attempts to withdraw funds from the wrapped vault. The amount withdrawn to the recipient may be less than the amount requested.",
        "params": {
          "_amount": "the amount of funds to withdraw.",
          "_recipient": "the recipient of the funds."
        }
      }
    },
    "version": 1
  },
  "userdoc": {
    "kind": "user",
    "methods": {},
    "version": 1
  }
}