{
  "contractName": "YearnVaultAdapterWithIndirectionEth",
  "abi": [
    {
      "inputs": [
        {
          "internalType": "contract IyVaultV2",
          "name": "_vault",
          "type": "address"
        },
        {
          "internalType": "address",
          "name": "_admin",
          "type": "address"
        }
      ],
      "stateMutability": "nonpayable",
      "type": "constructor"
    },
    {
      "inputs": [],
      "name": "admin",
      "outputs": [
        {
          "internalType": "address",
          "name": "",
          "type": "address"
        }
      ],
      "stateMutability": "view",
      "type": "function",
      "constant": true
    },
    {
      "inputs": [],
      "name": "decimals",
      "outputs": [
        {
          "internalType": "uint256",
          "name": "",
          "type": "uint256"
        }
      ],
      "stateMutability": "view",
      "type": "function",
      "constant": true
    },
    {
      "inputs": [
        {
          "internalType": "uint256",
          "name": "_amount",
          "type": "uint256"
        }
      ],
      "name": "deposit",
      "outputs": [],
      "stateMutability": "nonpayable",
      "type": "function"
    },
    {
      "inputs": [],
      "name": "token",
      "outputs": [
        {
          "internalType": "contract IDetailedERC20",
          "name": "",
          "type": "address"
        }
      ],
      "stateMutability": "view",
      "type": "function",
      "constant": true
    },
    {
      "inputs": [],
      "name": "totalValue",
      "outputs": [
        {
          "internalType": "uint256",
          "name": "",
          "type": "uint256"
        }
      ],
      "stateMutability": "view",
      "type": "function",
      "constant": true
    },
    {
      "inputs": [],
      "name": "updateApproval",
      "outputs": [],
      "stateMutability": "nonpayable",
      "type": "function"
    },
    {
      "inputs": [],
      "name": "vault",
      "outputs": [
        {
          "internalType": "contract IyVaultV2",
          "name": "",
          "type": "address"
        }
      ],
      "stateMutability": "view",
      "type": "function",
      "constant": true
    },
    {
      "inputs": [
        {
          "internalType": "address",
          "name": "_recipient",
          "type": "address"
        },
        {
          "internalType": "uint256",
          "name": "_amount",
          "type": "uint256"
        }
      ],
      "name": "withdraw",
      "outputs": [],
      "stateMutability": "nonpayable",
      "type": "function"
    },
    {
      "inputs": [
        {
          "internalType": "address",
          "name": "_recipient",
          "type": "address"
        },
        {
          "internalType": "uint256",
          "name": "_amount",
          "type": "uint256"
        }
      ],
      "name": "indirectWithdraw",
      "outputs": [],
      "stateMutability": "nonpayable",
      "type": "function"
    }
  ],
  "bytecode": "0x60806040523480156200001157600080fd5b506040516200195738038062001957833981016040819052620000349162000615565b60008054600160a060020a03808516600160a060020a031992831617909255600180549284169290911691909117905581816200007964010000000062000118810204565b81600160a060020a031663313ce5676040518163ffffffff167c010000000000000000000000000000000000000000000000000000000002815260040160206040518083038186803b158015620000cf57600080fd5b505afa158015620000e4573d6000803e3d6000fd5b505050506040513d601f19601f820116820180604052508101906200010a919062000653565b600255506200088992505050565b60008060009054906101000a9004600160a060020a0316600160a060020a031663fc0c546a6040518163ffffffff167c010000000000000000000000000000000000000000000000000000000002815260040160206040518083038186803b1580156200018457600080fd5b505afa15801562000199573d6000803e3d6000fd5b505050506040513d601f19601f82011682018060405250810190620001bf9190620005d4565b600054909150620001ee90600160a060020a03808416911660001964010000000062000646620001f182021704565b50565b8015806200029957506040517fdd62ed3e000000000000000000000000000000000000000000000000000000008152600160a060020a0384169063dd62ed3e906200024390309086906004016200068a565b60206040518083038186803b1580156200025c57600080fd5b505afa15801562000271573d6000803e3d6000fd5b505050506040513d601f19601f8201168201806040525081019062000297919062000653565b155b620002db576040517f08c379a0000000000000000000000000000000000000000000000000000000008152600401620002d290620007e3565b60405180910390fd5b620003728363095ea7b37c010000000000000000000000000000000000000000000000000000000002848460405160240162000319929190620006a4565b60408051601f19818403018152919052602081018051600160e060020a03167fffffffff000000000000000000000000000000000000000000000000000000009093169290921790915264010000000062000377810204565b505050565b6060620003dc826040518060400160405280602081526020017f5361666545524332303a206c6f772d6c6576656c2063616c6c206661696c656481525085600160a060020a03166200043664010000000002620007e717909291906401000000009004565b805190915015620003725780806020019051810190620003fd9190620005f3565b62000372576040517f08c379a0000000000000000000000000000000000000000000000000000000008152600401620002d29062000786565b60606200045084846000856401000000006200045a810204565b90505b9392505050565b606030318311156200049a576040517f08c379a0000000000000000000000000000000000000000000000000000000008152600401620002d290620006f2565b620004ae8564010000000062000576810204565b620004e7576040517f08c379a0000000000000000000000000000000000000000000000000000000008152600401620002d2906200074f565b6000606086600160a060020a031685876040516200050691906200066c565b60006040518083038185875af1925050503d806000811462000545576040519150601f19603f3d011682016040523d82523d6000602084013e6200054a565b606091505b50915091506200056b8282866200057c640100000000026401000000009004565b979650505050505050565b3b151590565b606083156200058d57508162000453565b8251156200059e5782518084602001fd5b816040517f08c379a0000000000000000000000000000000000000000000000000000000008152600401620002d29190620006bd565b600060208284031215620005e6578081fd5b8151620004538162000873565b60006020828403121562000605578081fd5b8151801515811462000453578182fd5b6000806040838503121562000628578081fd5b8251620006358162000873565b6020840151909250620006488162000873565b809150509250929050565b60006020828403121562000665578081fd5b5051919050565b600082516200068081846020870162000840565b9190910192915050565b600160a060020a0392831681529116602082015260400190565b600160a060020a03929092168252602082015260400190565b6000602082528251806020840152620006de81604085016020870162000840565b601f01601f19169190910160400192915050565b60208082526026908201527f416464726573733a20696e73756666696369656e742062616c616e636520666f60408201527f722063616c6c0000000000000000000000000000000000000000000000000000606082015260800190565b6020808252601d908201527f416464726573733a2063616c6c20746f206e6f6e2d636f6e7472616374000000604082015260600190565b6020808252602a908201527f5361666545524332303a204552433230206f7065726174696f6e20646964206e60408201527f6f74207375636365656400000000000000000000000000000000000000000000606082015260800190565b60208082526036908201527f5361666545524332303a20617070726f76652066726f6d206e6f6e2d7a65726f60408201527f20746f206e6f6e2d7a65726f20616c6c6f77616e636500000000000000000000606082015260800190565b60005b838110156200085d57818101518382015260200162000843565b838111156200086d576000848401525b50505050565b600160a060020a0381168114620001ee57600080fd5b6110be80620008996000396000f3fe608060405234801561001057600080fd5b50600436106100c0576000357c010000000000000000000000000000000000000000000000000000000090048063f3fef3a311610093578063f926197e11610078578063f926197e1461013b578063fbfa77cf14610143578063fc0c546a1461014b576100c0565b8063f3fef3a314610113578063f851a44014610126576100c0565b8063313ce567146100c5578063594d4e36146100e3578063b6b55f25146100f8578063d4c3eea01461010b575b600080fd5b6100cd610153565b6040516100da9190611009565b60405180910390f35b6100f66100f1366004610c9a565b610159565b005b6100f6610106366004610ce5565b6101e4565b6100cd61028c565b6100f6610121366004610c9a565b61033f565b61012e610447565b6040516100da9190610d31565b6100f6610463565b61012e61056d565b61012e610589565b60025481565b60015473ffffffffffffffffffffffffffffffffffffffff1633146101b3576040517f08c379a00000000000000000000000000000000000000000000000000000000081526004016101aa90610e84565b60405180910390fd5b6101e0826101c083610800565b60005473ffffffffffffffffffffffffffffffffffffffff1691906108c2565b5050565b6000546040517fb6b55f2500000000000000000000000000000000000000000000000000000000815273ffffffffffffffffffffffffffffffffffffffff9091169063b6b55f259061023a908490600401611009565b602060405180830381600087803b15801561025457600080fd5b505af1158015610268573d6000803e3d6000fd5b505050506040513d601f19601f820116820180604052508101906101e09190610cfd565b600080546040517f70a0823100000000000000000000000000000000000000000000000000000000815261033a9173ffffffffffffffffffffffffffffffffffffffff16906370a08231906102e5903090600401610d31565b60206040518083038186803b1580156102fd57600080fd5b505afa158015610311573d6000803e3d6000fd5b505050506040513d601f19601f820116820180604052508101906103359190610cfd565b6108fd565b905090565b60015473ffffffffffffffffffffffffffffffffffffffff163314610390576040517f08c379a00000000000000000000000000000000000000000000000000000000081526004016101aa90610e84565b60005473ffffffffffffffffffffffffffffffffffffffff1662f714ce6103b683610800565b846040518363ffffffff167c01000000000000000000000000000000000000000000000000000000000281526004016103f0929190611012565b602060405180830381600087803b15801561040a57600080fd5b505af115801561041e573d6000803e3d6000fd5b505050506040513d601f19601f820116820180604052508101906104429190610cfd565b505050565b60015473ffffffffffffffffffffffffffffffffffffffff1681565b60008060009054906101000a900473ffffffffffffffffffffffffffffffffffffffff1673ffffffffffffffffffffffffffffffffffffffff1663fc0c546a6040518163ffffffff167c010000000000000000000000000000000000000000000000000000000002815260040160206040518083038186803b1580156104e857600080fd5b505afa1580156104fc573d6000803e3d6000fd5b505050506040513d601f19601f820116820180604052508101906105209190610c7e565b60005490915061056a9073ffffffffffffffffffffffffffffffffffffffff80841691167fffffffffffffffffffffffffffffffffffffffffffffffffffffffffffffffff610646565b50565b60005473ffffffffffffffffffffffffffffffffffffffff1681565b60008060009054906101000a900473ffffffffffffffffffffffffffffffffffffffff1673ffffffffffffffffffffffffffffffffffffffff1663fc0c546a6040518163ffffffff167c010000000000000000000000000000000000000000000000000000000002815260040160206040518083038186803b15801561060e57600080fd5b505afa158015610622573d6000803e3d6000fd5b505050506040513d601f19601f8201168201806040525081019061033a9190610c7e565b8015806106f457506040517fdd62ed3e00000000000000000000000000000000000000000000000000000000815273ffffffffffffffffffffffffffffffffffffffff84169063dd62ed3e906106a29030908690600401610d52565b60206040518083038186803b1580156106ba57600080fd5b505afa1580156106ce573d6000803e3d6000fd5b505050506040513d601f19601f820116820180604052508101906106f29190610cfd565b155b61072a576040517f08c379a00000000000000000000000000000000000000000000000000000000081526004016101aa90610fac565b6104428363095ea7b37c0100000000000000000000000000000000000000000000000000000000028484604051602401610765929190610d79565b604080517fffffffffffffffffffffffffffffffffffffffffffffffffffffffffffffffe08184030181529190526020810180517bffffffffffffffffffffffffffffffffffffffffffffffffffffffff167fffffffff00000000000000000000000000000000000000000000000000000000909316929092179091526109cc565b60606107f68484600085610a82565b90505b9392505050565b60008054604080517f99530b0600000000000000000000000000000000000000000000000000000000815290516108bc9273ffffffffffffffffffffffffffffffffffffffff16916399530b06916004808301926020929190829003018186803b15801561086d57600080fd5b505afa158015610881573d6000803e3d6000fd5b505050506040513d601f19601f820116820180604052508101906108a59190610cfd565b6002546108b6908590600a0a610b85565b90610bd9565b92915050565b6104428363a9059cbb7c0100000000000000000000000000000000000000000000000000000000028484604051602401610765929190610d79565b60006108bc600254600a0a6108b660008054906101000a900473ffffffffffffffffffffffffffffffffffffffff1673ffffffffffffffffffffffffffffffffffffffff166399530b066040518163ffffffff167c010000000000000000000000000000000000000000000000000000000002815260040160206040518083038186803b15801561098d57600080fd5b505afa1580156109a1573d6000803e3d6000fd5b505050506040513d601f19601f820116820180604052508101906109c59190610cfd565b8590610b85565b6060610a2e826040518060400160405280602081526020017f5361666545524332303a206c6f772d6c6576656c2063616c6c206661696c65648152508573ffffffffffffffffffffffffffffffffffffffff166107e79092919063ffffffff16565b8051909150156104425780806020019051810190610a4c9190610cc5565b610442576040517f08c379a00000000000000000000000000000000000000000000000000000000081526004016101aa90610f4f565b60603031831115610abf576040517f08c379a00000000000000000000000000000000000000000000000000000000081526004016101aa90610df0565b610ac885610c25565b610afe576040517f08c379a00000000000000000000000000000000000000000000000000000000081526004016101aa90610f18565b600060608673ffffffffffffffffffffffffffffffffffffffff168587604051610b289190610d15565b60006040518083038185875af1925050503d8060008114610b65576040519150601f19603f3d011682016040523d82523d6000602084013e610b6a565b606091505b5091509150610b7a828286610c2b565b979650505050505050565b600082610b94575060006108bc565b82820282848281610ba157fe5b04146107f9576040517f08c379a00000000000000000000000000000000000000000000000000000000081526004016101aa90610ebb565b6000808211610c14576040517f08c379a00000000000000000000000000000000000000000000000000000000081526004016101aa90610e4d565b818381610c1d57fe5b049392505050565b3b151590565b60608315610c3a5750816107f9565b825115610c4a5782518084602001fd5b816040517f08c379a00000000000000000000000000000000000000000000000000000000081526004016101aa9190610d9f565b600060208284031215610c8f578081fd5b81516107f981611066565b60008060408385031215610cac578081fd5b8235610cb781611066565b946020939093013593505050565b600060208284031215610cd6578081fd5b815180151581146107f9578182fd5b600060208284031215610cf6578081fd5b5035919050565b600060208284031215610d0e578081fd5b5051919050565b60008251610d27818460208701611036565b9190910192915050565b73ffffffffffffffffffffffffffffffffffffffff91909116815260200190565b73ffffffffffffffffffffffffffffffffffffffff92831681529116602082015260400190565b73ffffffffffffffffffffffffffffffffffffffff929092168252602082015260400190565b6000602082528251806020840152610dbe816040850160208701611036565b601f017fffffffffffffffffffffffffffffffffffffffffffffffffffffffffffffffe0169190910160400192915050565b60208082526026908201527f416464726573733a20696e73756666696369656e742062616c616e636520666f60408201527f722063616c6c0000000000000000000000000000000000000000000000000000606082015260800190565b6020808252601a908201527f536166654d6174683a206469766973696f6e206279207a65726f000000000000604082015260600190565b6020808252601d908201527f596561726e5661756c74416461707465723a206f6e6c792061646d696e000000604082015260600190565b60208082526021908201527f536166654d6174683a206d756c7469706c69636174696f6e206f766572666c6f60408201527f7700000000000000000000000000000000000000000000000000000000000000606082015260800190565b6020808252601d908201527f416464726573733a2063616c6c20746f206e6f6e2d636f6e7472616374000000604082015260600190565b6020808252602a908201527f5361666545524332303a204552433230206f7065726174696f6e20646964206e60408201527f6f74207375636365656400000000000000000000000000000000000000000000606082015260800190565b60208082526036908201527f5361666545524332303a20617070726f76652066726f6d206e6f6e2d7a65726f60408201527f20746f206e6f6e2d7a65726f20616c6c6f77616e636500000000000000000000606082015260800190565b90815260200190565b91825273ffffffffffffffffffffffffffffffffffffffff16602082015260400190565b60005b83811015611051578181015183820152602001611039565b83811115611060576000848401525b50505050565b73ffffffffffffffffffffffffffffffffffffffff8116811461056a57600080fdfea2646970667358221220e00b6d28816c617b2b072683d28aa2535457e9714ebaefc58a333889f8da807f64736f6c634300060c0033",
  "immutableReferences": {},
  "source": "// SPDX-License-Identifier: GPL-3.0\npragma solidity ^0.6.12;\npragma experimental ABIEncoderV2;\n\nimport \"hardhat/console.sol\";\n\nimport {SafeERC20} from \"@openzeppelin/contracts/token/ERC20/SafeERC20.sol\";\nimport {SafeMath} from \"@openzeppelin/contracts/math/SafeMath.sol\";\n\nimport {FixedPointMath} from \"../libraries/FixedPointMath.sol\";\nimport {IDetailedERC20} from \"../interfaces/IDetailedERC20.sol\";\nimport {IVaultAdapter} from \"../interfaces/IVaultAdapter.sol\";\nimport {IyVaultV2} from \"../interfaces/IyVaultV2.sol\";\nimport {YearnVaultAdapter} from \"./YearnVaultAdapter.sol\";\n\n/// @title YearnVaultAdapter\n///\n/// @dev A vault adapter implementation which wraps a yEarn vault.\ncontract YearnVaultAdapterWithIndirectionEth is YearnVaultAdapter {\n    using FixedPointMath for FixedPointMath.FixedDecimal;\n    using SafeERC20 for IDetailedERC20;\n    using SafeERC20 for IyVaultV2;\n    using SafeMath for uint256;\n\n    constructor(IyVaultV2 _vault, address _admin) YearnVaultAdapter(_vault, _admin) public {\n    }\n\n    /// @dev Sends vault tokens to the recipient\n    ///\n    /// This function reverts if the caller is not the admin.\n    ///\n    /// @param _recipient the account to send the tokens to.\n    /// @param _amount    the amount of tokens to send.\n    function indirectWithdraw(address _recipient, uint256 _amount) external onlyAdmin {\n        vault.safeTransfer(_recipient, _tokensToShares(_amount));\n    }\n}",
  "sourcePath": "/Users/shr1ftyy/Personal/Computing/bounties/alcx/alchemix-protocol/contracts/adapters/YearnVaultAdapterWithIndirectionEth.sol",
  "compiler": {
    "name": "solc",
    "version": "0.6.12+commit.27d51765.Emscripten.clang"
  },
  "schemaVersion": "3.4.4",
  "updatedAt": "2022-01-12T10:52:43.391Z",
  "networkType": "ethereum",
  "devdoc": {
    "details": "A vault adapter implementation which wraps a yEarn vault.",
    "kind": "dev",
    "methods": {
      "deposit(uint256)": {
        "details": "Deposits tokens into the vault.",
        "params": {
          "_amount": "the amount of tokens to deposit into the vault."
        }
      },
      "indirectWithdraw(address,uint256)": {
        "details": "Sends vault tokens to the recipient This function reverts if the caller is not the admin.",
        "params": {
          "_amount": "the amount of tokens to send.",
          "_recipient": "the account to send the tokens to."
        }
      },
      "token()": {
        "details": "Gets the token that the vault accepts.",
        "returns": {
          "_0": "the accepted token."
        }
      },
      "totalValue()": {
        "details": "Gets the total value of the assets that the adapter holds in the vault.",
        "returns": {
          "_0": "the total assets."
        }
      },
      "updateApproval()": {
        "details": "Updates the vaults approval of the token to be the maximum value."
      },
      "withdraw(address,uint256)": {
        "details": "Withdraws tokens from the vault to the recipient. This function reverts if the caller is not the admin.",
        "params": {
          "_amount": "the amount of tokens to withdraw.",
          "_recipient": "the account to withdraw the tokes to."
        }
      }
    },
    "title": "YearnVaultAdapter",
    "version": 1
  },
  "userdoc": {
    "kind": "user",
    "methods": {},
    "version": 1
  }
}