{
  "contractName": "YearnVaultAdapter",
  "abi": [
    {
      "inputs": [
        {
          "internalType": "contract IyVaultV2",
          "name": "_vault",
          "type": "address"
        },
        {
          "internalType": "address",
          "name": "_admin",
          "type": "address"
        }
      ],
      "stateMutability": "nonpayable",
      "type": "constructor"
    },
    {
      "inputs": [],
      "name": "admin",
      "outputs": [
        {
          "internalType": "address",
          "name": "",
          "type": "address"
        }
      ],
      "stateMutability": "view",
      "type": "function",
      "constant": true
    },
    {
      "inputs": [],
      "name": "decimals",
      "outputs": [
        {
          "internalType": "uint256",
          "name": "",
          "type": "uint256"
        }
      ],
      "stateMutability": "view",
      "type": "function",
      "constant": true
    },
    {
      "inputs": [],
      "name": "vault",
      "outputs": [
        {
          "internalType": "contract IyVaultV2",
          "name": "",
          "type": "address"
        }
      ],
      "stateMutability": "view",
      "type": "function",
      "constant": true
    },
    {
      "inputs": [],
      "name": "token",
      "outputs": [
        {
          "internalType": "contract IDetailedERC20",
          "name": "",
          "type": "address"
        }
      ],
      "stateMutability": "view",
      "type": "function",
      "constant": true
    },
    {
      "inputs": [],
      "name": "totalValue",
      "outputs": [
        {
          "internalType": "uint256",
          "name": "",
          "type": "uint256"
        }
      ],
      "stateMutability": "view",
      "type": "function",
      "constant": true
    },
    {
      "inputs": [
        {
          "internalType": "uint256",
          "name": "_amount",
          "type": "uint256"
        }
      ],
      "name": "deposit",
      "outputs": [],
      "stateMutability": "nonpayable",
      "type": "function"
    },
    {
      "inputs": [
        {
          "internalType": "address",
          "name": "_recipient",
          "type": "address"
        },
        {
          "internalType": "uint256",
          "name": "_amount",
          "type": "uint256"
        }
      ],
      "name": "withdraw",
      "outputs": [],
      "stateMutability": "nonpayable",
      "type": "function"
    },
    {
      "inputs": [],
      "name": "updateApproval",
      "outputs": [],
      "stateMutability": "nonpayable",
      "type": "function"
    }
  ],
  "bytecode": "0x60806040523480156200001157600080fd5b506040516200186c3803806200186c833981016040819052620000349162000611565b60008054600160a060020a03808516600160a060020a03199283161790925560018054928416929091169190911790556200007764010000000062000114810204565b81600160a060020a031663313ce5676040518163ffffffff167c010000000000000000000000000000000000000000000000000000000002815260040160206040518083038186803b158015620000cd57600080fd5b505afa158015620000e2573d6000803e3d6000fd5b505050506040513d601f19601f820116820180604052508101906200010891906200064f565b60025550620008859050565b60008060009054906101000a9004600160a060020a0316600160a060020a031663fc0c546a6040518163ffffffff167c010000000000000000000000000000000000000000000000000000000002815260040160206040518083038186803b1580156200018057600080fd5b505afa15801562000195573d6000803e3d6000fd5b505050506040513d601f19601f82011682018060405250810190620001bb9190620005d0565b600054909150620001ea90600160a060020a0380841691166000196401000000006200059a620001ed82021704565b50565b8015806200029557506040517fdd62ed3e000000000000000000000000000000000000000000000000000000008152600160a060020a0384169063dd62ed3e906200023f903090869060040162000686565b60206040518083038186803b1580156200025857600080fd5b505afa1580156200026d573d6000803e3d6000fd5b505050506040513d601f19601f820116820180604052508101906200029391906200064f565b155b620002d7576040517f08c379a0000000000000000000000000000000000000000000000000000000008152600401620002ce90620007df565b60405180910390fd5b6200036e8363095ea7b37c010000000000000000000000000000000000000000000000000000000002848460405160240162000315929190620006a0565b60408051601f19818403018152919052602081018051600160e060020a03167fffffffff000000000000000000000000000000000000000000000000000000009093169290921790915264010000000062000373810204565b505050565b6060620003d8826040518060400160405280602081526020017f5361666545524332303a206c6f772d6c6576656c2063616c6c206661696c656481525085600160a060020a031662000432640100000000026200073b17909291906401000000009004565b8051909150156200036e5780806020019051810190620003f99190620005ef565b6200036e576040517f08c379a0000000000000000000000000000000000000000000000000000000008152600401620002ce9062000782565b60606200044c848460008564010000000062000456810204565b90505b9392505050565b6060303183111562000496576040517f08c379a0000000000000000000000000000000000000000000000000000000008152600401620002ce90620006ee565b620004aa8564010000000062000572810204565b620004e3576040517f08c379a0000000000000000000000000000000000000000000000000000000008152600401620002ce906200074b565b6000606086600160a060020a0316858760405162000502919062000668565b60006040518083038185875af1925050503d806000811462000541576040519150601f19603f3d011682016040523d82523d6000602084013e62000546565b606091505b50915091506200056782828662000578640100000000026401000000009004565b979650505050505050565b3b151590565b60608315620005895750816200044f565b8251156200059a5782518084602001fd5b816040517f08c379a0000000000000000000000000000000000000000000000000000000008152600401620002ce9190620006b9565b600060208284031215620005e2578081fd5b81516200044f816200086f565b60006020828403121562000601578081fd5b815180151581146200044f578182fd5b6000806040838503121562000624578081fd5b825162000631816200086f565b602084015190925062000644816200086f565b809150509250929050565b60006020828403121562000661578081fd5b5051919050565b600082516200067c8184602087016200083c565b9190910192915050565b600160a060020a0392831681529116602082015260400190565b600160a060020a03929092168252602082015260400190565b6000602082528251806020840152620006da8160408501602087016200083c565b601f01601f19169190910160400192915050565b60208082526026908201527f416464726573733a20696e73756666696369656e742062616c616e636520666f60408201527f722063616c6c0000000000000000000000000000000000000000000000000000606082015260800190565b6020808252601d908201527f416464726573733a2063616c6c20746f206e6f6e2d636f6e7472616374000000604082015260600190565b6020808252602a908201527f5361666545524332303a204552433230206f7065726174696f6e20646964206e60408201527f6f74207375636365656400000000000000000000000000000000000000000000606082015260800190565b60208082526036908201527f5361666545524332303a20617070726f76652066726f6d206e6f6e2d7a65726f60408201527f20746f206e6f6e2d7a65726f20616c6c6f77616e636500000000000000000000606082015260800190565b60005b83811015620008595781810151838201526020016200083f565b8381111562000869576000848401525b50505050565b600160a060020a0381168114620001ea57600080fd5b610fd780620008956000396000f3fe608060405234801561001057600080fd5b50600436106100a5576000357c010000000000000000000000000000000000000000000000000000000090048063f851a44011610078578063f851a440146100f8578063f926197e1461010d578063fbfa77cf14610115578063fc0c546a1461011d576100a5565b8063313ce567146100aa578063b6b55f25146100c8578063d4c3eea0146100dd578063f3fef3a3146100e5575b600080fd5b6100b2610125565b6040516100bf9190610f22565b60405180910390f35b6100db6100d6366004610bfe565b61012b565b005b6100b26101d7565b6100db6100f3366004610bb3565b61028a565b61010061039b565b6040516100bf9190610c4a565b6100db6103b7565b6101006104c1565b6101006104dd565b60025481565b6000546040517fb6b55f2500000000000000000000000000000000000000000000000000000000815273ffffffffffffffffffffffffffffffffffffffff9091169063b6b55f2590610181908490600401610f22565b602060405180830381600087803b15801561019b57600080fd5b505af11580156101af573d6000803e3d6000fd5b505050506040513d601f19601f820116820180604052508101906101d39190610c16565b5050565b600080546040517f70a082310000000000000000000000000000000000000000000000000000000081526102859173ffffffffffffffffffffffffffffffffffffffff16906370a0823190610230903090600401610c4a565b60206040518083038186803b15801561024857600080fd5b505afa15801561025c573d6000803e3d6000fd5b505050506040513d601f19601f820116820180604052508101906102809190610c16565b610754565b905090565b60015473ffffffffffffffffffffffffffffffffffffffff1633146102e4576040517f08c379a00000000000000000000000000000000000000000000000000000000081526004016102db90610d9d565b60405180910390fd5b60005473ffffffffffffffffffffffffffffffffffffffff1662f714ce61030a8361082f565b846040518363ffffffff167c0100000000000000000000000000000000000000000000000000000000028152600401610344929190610f2b565b602060405180830381600087803b15801561035e57600080fd5b505af1158015610372573d6000803e3d6000fd5b505050506040513d601f19601f820116820180604052508101906103969190610c16565b505050565b60015473ffffffffffffffffffffffffffffffffffffffff1681565b60008060009054906101000a900473ffffffffffffffffffffffffffffffffffffffff1673ffffffffffffffffffffffffffffffffffffffff1663fc0c546a6040518163ffffffff167c010000000000000000000000000000000000000000000000000000000002815260040160206040518083038186803b15801561043c57600080fd5b505afa158015610450573d6000803e3d6000fd5b505050506040513d601f19601f820116820180604052508101906104749190610b97565b6000549091506104be9073ffffffffffffffffffffffffffffffffffffffff80841691167fffffffffffffffffffffffffffffffffffffffffffffffffffffffffffffffff61059a565b50565b60005473ffffffffffffffffffffffffffffffffffffffff1681565b60008060009054906101000a900473ffffffffffffffffffffffffffffffffffffffff1673ffffffffffffffffffffffffffffffffffffffff1663fc0c546a6040518163ffffffff167c010000000000000000000000000000000000000000000000000000000002815260040160206040518083038186803b15801561056257600080fd5b505afa158015610576573d6000803e3d6000fd5b505050506040513d601f19601f820116820180604052508101906102859190610b97565b80158061064857506040517fdd62ed3e00000000000000000000000000000000000000000000000000000000815273ffffffffffffffffffffffffffffffffffffffff84169063dd62ed3e906105f69030908690600401610c6b565b60206040518083038186803b15801561060e57600080fd5b505afa158015610622573d6000803e3d6000fd5b505050506040513d601f19601f820116820180604052508101906106469190610c16565b155b61067e576040517f08c379a00000000000000000000000000000000000000000000000000000000081526004016102db90610ec5565b6103968363095ea7b37c01000000000000000000000000000000000000000000000000000000000284846040516024016106b9929190610c92565b604080517fffffffffffffffffffffffffffffffffffffffffffffffffffffffffffffffe08184030181529190526020810180517bffffffffffffffffffffffffffffffffffffffffffffffffffffffff167fffffffff00000000000000000000000000000000000000000000000000000000909316929092179091526108e5565b606061074a848460008561099b565b90505b9392505050565b6000610829600254600a0a61082360008054906101000a900473ffffffffffffffffffffffffffffffffffffffff1673ffffffffffffffffffffffffffffffffffffffff166399530b066040518163ffffffff167c010000000000000000000000000000000000000000000000000000000002815260040160206040518083038186803b1580156107e457600080fd5b505afa1580156107f8573d6000803e3d6000fd5b505050506040513d601f19601f8201168201806040525081019061081c9190610c16565b8590610a9e565b90610af2565b92915050565b60008054604080517f99530b0600000000000000000000000000000000000000000000000000000000815290516108299273ffffffffffffffffffffffffffffffffffffffff16916399530b06916004808301926020929190829003018186803b15801561089c57600080fd5b505afa1580156108b0573d6000803e3d6000fd5b505050506040513d601f19601f820116820180604052508101906108d49190610c16565b600254610823908590600a0a610a9e565b6060610947826040518060400160405280602081526020017f5361666545524332303a206c6f772d6c6576656c2063616c6c206661696c65648152508573ffffffffffffffffffffffffffffffffffffffff1661073b9092919063ffffffff16565b80519091501561039657808060200190518101906109659190610bde565b610396576040517f08c379a00000000000000000000000000000000000000000000000000000000081526004016102db90610e68565b606030318311156109d8576040517f08c379a00000000000000000000000000000000000000000000000000000000081526004016102db90610d09565b6109e185610b3e565b610a17576040517f08c379a00000000000000000000000000000000000000000000000000000000081526004016102db90610e31565b600060608673ffffffffffffffffffffffffffffffffffffffff168587604051610a419190610c2e565b60006040518083038185875af1925050503d8060008114610a7e576040519150601f19603f3d011682016040523d82523d6000602084013e610a83565b606091505b5091509150610a93828286610b44565b979650505050505050565b600082610aad57506000610829565b82820282848281610aba57fe5b041461074d576040517f08c379a00000000000000000000000000000000000000000000000000000000081526004016102db90610dd4565b6000808211610b2d576040517f08c379a00000000000000000000000000000000000000000000000000000000081526004016102db90610d66565b818381610b3657fe5b049392505050565b3b151590565b60608315610b5357508161074d565b825115610b635782518084602001fd5b816040517f08c379a00000000000000000000000000000000000000000000000000000000081526004016102db9190610cb8565b600060208284031215610ba8578081fd5b815161074d81610f7f565b60008060408385031215610bc5578081fd5b8235610bd081610f7f565b946020939093013593505050565b600060208284031215610bef578081fd5b8151801515811461074d578182fd5b600060208284031215610c0f578081fd5b5035919050565b600060208284031215610c27578081fd5b5051919050565b60008251610c40818460208701610f4f565b9190910192915050565b73ffffffffffffffffffffffffffffffffffffffff91909116815260200190565b73ffffffffffffffffffffffffffffffffffffffff92831681529116602082015260400190565b73ffffffffffffffffffffffffffffffffffffffff929092168252602082015260400190565b6000602082528251806020840152610cd7816040850160208701610f4f565b601f017fffffffffffffffffffffffffffffffffffffffffffffffffffffffffffffffe0169190910160400192915050565b60208082526026908201527f416464726573733a20696e73756666696369656e742062616c616e636520666f60408201527f722063616c6c0000000000000000000000000000000000000000000000000000606082015260800190565b6020808252601a908201527f536166654d6174683a206469766973696f6e206279207a65726f000000000000604082015260600190565b6020808252601d908201527f596561726e5661756c74416461707465723a206f6e6c792061646d696e000000604082015260600190565b60208082526021908201527f536166654d6174683a206d756c7469706c69636174696f6e206f766572666c6f60408201527f7700000000000000000000000000000000000000000000000000000000000000606082015260800190565b6020808252601d908201527f416464726573733a2063616c6c20746f206e6f6e2d636f6e7472616374000000604082015260600190565b6020808252602a908201527f5361666545524332303a204552433230206f7065726174696f6e20646964206e60408201527f6f74207375636365656400000000000000000000000000000000000000000000606082015260800190565b60208082526036908201527f5361666545524332303a20617070726f76652066726f6d206e6f6e2d7a65726f60408201527f20746f206e6f6e2d7a65726f20616c6c6f77616e636500000000000000000000606082015260800190565b90815260200190565b91825273ffffffffffffffffffffffffffffffffffffffff16602082015260400190565b60005b83811015610f6a578181015183820152602001610f52565b83811115610f79576000848401525b50505050565b73ffffffffffffffffffffffffffffffffffffffff811681146104be57600080fdfea2646970667358221220c678b847e08a8421e6f49a0c6cd10b36c9671398b93400628c1198a3a3a8a62464736f6c634300060c0033",
  "immutableReferences": {},
  "source": "// SPDX-License-Identifier: GPL-3.0\npragma solidity ^0.6.12;\npragma experimental ABIEncoderV2;\n\nimport \"hardhat/console.sol\";\n\nimport {SafeERC20} from \"@openzeppelin/contracts/token/ERC20/SafeERC20.sol\";\nimport {SafeMath} from \"@openzeppelin/contracts/math/SafeMath.sol\";\n\nimport {FixedPointMath} from \"../libraries/FixedPointMath.sol\";\nimport {IDetailedERC20} from \"../interfaces/IDetailedERC20.sol\";\nimport {IVaultAdapter} from \"../interfaces/IVaultAdapter.sol\";\nimport {IyVaultV2} from \"../interfaces/IyVaultV2.sol\";\n\n/// @title YearnVaultAdapter\n///\n/// @dev A vault adapter implementation which wraps a yEarn vault.\ncontract YearnVaultAdapter is IVaultAdapter {\n  using FixedPointMath for FixedPointMath.FixedDecimal;\n  using SafeERC20 for IDetailedERC20;\n  using SafeMath for uint256;\n\n  /// @dev The vault that the adapter is wrapping.\n  IyVaultV2 public vault;\n\n  /// @dev The address which has admin control over this contract.\n  address public admin;\n\n  /// @dev The decimals of the token.\n  uint256 public decimals;\n\n  constructor(IyVaultV2 _vault, address _admin) public {\n    vault = _vault;\n    admin = _admin;\n    updateApproval();\n    decimals = _vault.decimals();\n  }\n\n  /// @dev A modifier which reverts if the caller is not the admin.\n  modifier onlyAdmin() {\n    require(admin == msg.sender, \"YearnVaultAdapter: only admin\");\n    _;\n  }\n\n  /// @dev Gets the token that the vault accepts.\n  ///\n  /// @return the accepted token.\n  function token() external view override returns (IDetailedERC20) {\n    return IDetailedERC20(vault.token());\n  }\n\n  /// @dev Gets the total value of the assets that the adapter holds in the vault.\n  ///\n  /// @return the total assets.\n  function totalValue() external view override returns (uint256) {\n    return _sharesToTokens(vault.balanceOf(address(this)));\n  }\n\n  /// @dev Deposits tokens into the vault.\n  ///\n  /// @param _amount the amount of tokens to deposit into the vault.\n  function deposit(uint256 _amount) external override {\n    vault.deposit(_amount);\n  }\n\n  /// @dev Withdraws tokens from the vault to the recipient.\n  ///\n  /// This function reverts if the caller is not the admin.\n  ///\n  /// @param _recipient the account to withdraw the tokes to.\n  /// @param _amount    the amount of tokens to withdraw.\n  function withdraw(address _recipient, uint256 _amount) external override onlyAdmin {\n    vault.withdraw(_tokensToShares(_amount),_recipient);\n  }\n\n  /// @dev Updates the vaults approval of the token to be the maximum value.\n  function updateApproval() public {\n    address _token = vault.token();\n    IDetailedERC20(_token).safeApprove(address(vault), uint256(-1));\n  }\n\n  /// @dev Computes the number of tokens an amount of shares is worth.\n  ///\n  /// @param _sharesAmount the amount of shares.\n  ///\n  /// @return the number of tokens the shares are worth.\n  \n  function _sharesToTokens(uint256 _sharesAmount) internal view returns (uint256) {\n    return _sharesAmount.mul(vault.pricePerShare()).div(10**decimals);\n  }\n\n  /// @dev Computes the number of shares an amount of tokens is worth.\n  ///\n  /// @param _tokensAmount the amount of shares.\n  ///\n  /// @return the number of shares the tokens are worth.\n  function _tokensToShares(uint256 _tokensAmount) internal view returns (uint256) {\n    return _tokensAmount.mul(10**decimals).div(vault.pricePerShare());\n  }\n}",
  "sourcePath": "/Users/shr1ftyy/Personal/Computing/bounties/alcx/alchemix-protocol/contracts/adapters/YearnVaultAdapter.sol",
  "compiler": {
    "name": "solc",
    "version": "0.6.12+commit.27d51765.Emscripten.clang"
  },
  "schemaVersion": "3.4.4",
  "updatedAt": "2022-01-11T15:05:28.465Z",
  "networkType": "ethereum",
  "devdoc": {
    "details": "A vault adapter implementation which wraps a yEarn vault.",
    "kind": "dev",
    "methods": {
      "deposit(uint256)": {
        "details": "Deposits tokens into the vault.",
        "params": {
          "_amount": "the amount of tokens to deposit into the vault."
        }
      },
      "token()": {
        "details": "Gets the token that the vault accepts.",
        "returns": {
          "_0": "the accepted token."
        }
      },
      "totalValue()": {
        "details": "Gets the total value of the assets that the adapter holds in the vault.",
        "returns": {
          "_0": "the total assets."
        }
      },
      "updateApproval()": {
        "details": "Updates the vaults approval of the token to be the maximum value."
      },
      "withdraw(address,uint256)": {
        "details": "Withdraws tokens from the vault to the recipient. This function reverts if the caller is not the admin.",
        "params": {
          "_amount": "the amount of tokens to withdraw.",
          "_recipient": "the account to withdraw the tokes to."
        }
      }
    },
    "stateVariables": {
      "admin": {
        "details": "The address which has admin control over this contract."
      },
      "decimals": {
        "details": "The decimals of the token."
      },
      "vault": {
        "details": "The vault that the adapter is wrapping."
      }
    },
    "title": "YearnVaultAdapter",
    "version": 1
  },
  "userdoc": {
    "kind": "user",
    "methods": {},
    "version": 1
  }
}