{
  "contractName": "YearnVaultMock",
  "abi": [
    {
      "inputs": [
        {
          "internalType": "contract IDetailedERC20",
          "name": "_token",
          "type": "address"
        },
        {
          "internalType": "contract IYearnController",
          "name": "_controller",
          "type": "address"
        }
      ],
      "stateMutability": "nonpayable",
      "type": "constructor"
    },
    {
      "anonymous": false,
      "inputs": [
        {
          "indexed": true,
          "internalType": "address",
          "name": "owner",
          "type": "address"
        },
        {
          "indexed": true,
          "internalType": "address",
          "name": "spender",
          "type": "address"
        },
        {
          "indexed": false,
          "internalType": "uint256",
          "name": "value",
          "type": "uint256"
        }
      ],
      "name": "Approval",
      "type": "event"
    },
    {
      "anonymous": false,
      "inputs": [
        {
          "indexed": true,
          "internalType": "address",
          "name": "from",
          "type": "address"
        },
        {
          "indexed": true,
          "internalType": "address",
          "name": "to",
          "type": "address"
        },
        {
          "indexed": false,
          "internalType": "uint256",
          "name": "value",
          "type": "uint256"
        }
      ],
      "name": "Transfer",
      "type": "event"
    },
    {
      "inputs": [
        {
          "internalType": "address",
          "name": "owner",
          "type": "address"
        },
        {
          "internalType": "address",
          "name": "spender",
          "type": "address"
        }
      ],
      "name": "allowance",
      "outputs": [
        {
          "internalType": "uint256",
          "name": "",
          "type": "uint256"
        }
      ],
      "stateMutability": "view",
      "type": "function"
    },
    {
      "inputs": [
        {
          "internalType": "address",
          "name": "spender",
          "type": "address"
        },
        {
          "internalType": "uint256",
          "name": "amount",
          "type": "uint256"
        }
      ],
      "name": "approve",
      "outputs": [
        {
          "internalType": "bool",
          "name": "",
          "type": "bool"
        }
      ],
      "stateMutability": "nonpayable",
      "type": "function"
    },
    {
      "inputs": [
        {
          "internalType": "address",
          "name": "account",
          "type": "address"
        }
      ],
      "name": "balanceOf",
      "outputs": [
        {
          "internalType": "uint256",
          "name": "",
          "type": "uint256"
        }
      ],
      "stateMutability": "view",
      "type": "function"
    },
    {
      "inputs": [],
      "name": "controller",
      "outputs": [
        {
          "internalType": "contract IYearnController",
          "name": "",
          "type": "address"
        }
      ],
      "stateMutability": "view",
      "type": "function"
    },
    {
      "inputs": [],
      "name": "decimals",
      "outputs": [
        {
          "internalType": "uint8",
          "name": "",
          "type": "uint8"
        }
      ],
      "stateMutability": "view",
      "type": "function"
    },
    {
      "inputs": [
        {
          "internalType": "address",
          "name": "spender",
          "type": "address"
        },
        {
          "internalType": "uint256",
          "name": "subtractedValue",
          "type": "uint256"
        }
      ],
      "name": "decreaseAllowance",
      "outputs": [
        {
          "internalType": "bool",
          "name": "",
          "type": "bool"
        }
      ],
      "stateMutability": "nonpayable",
      "type": "function"
    },
    {
      "inputs": [
        {
          "internalType": "address",
          "name": "spender",
          "type": "address"
        },
        {
          "internalType": "uint256",
          "name": "addedValue",
          "type": "uint256"
        }
      ],
      "name": "increaseAllowance",
      "outputs": [
        {
          "internalType": "bool",
          "name": "",
          "type": "bool"
        }
      ],
      "stateMutability": "nonpayable",
      "type": "function"
    },
    {
      "inputs": [],
      "name": "max",
      "outputs": [
        {
          "internalType": "uint256",
          "name": "",
          "type": "uint256"
        }
      ],
      "stateMutability": "view",
      "type": "function"
    },
    {
      "inputs": [],
      "name": "min",
      "outputs": [
        {
          "internalType": "uint256",
          "name": "",
          "type": "uint256"
        }
      ],
      "stateMutability": "view",
      "type": "function"
    },
    {
      "inputs": [],
      "name": "name",
      "outputs": [
        {
          "internalType": "string",
          "name": "",
          "type": "string"
        }
      ],
      "stateMutability": "view",
      "type": "function"
    },
    {
      "inputs": [],
      "name": "symbol",
      "outputs": [
        {
          "internalType": "string",
          "name": "",
          "type": "string"
        }
      ],
      "stateMutability": "view",
      "type": "function"
    },
    {
      "inputs": [],
      "name": "token",
      "outputs": [
        {
          "internalType": "contract IDetailedERC20",
          "name": "",
          "type": "address"
        }
      ],
      "stateMutability": "view",
      "type": "function"
    },
    {
      "inputs": [],
      "name": "totalSupply",
      "outputs": [
        {
          "internalType": "uint256",
          "name": "",
          "type": "uint256"
        }
      ],
      "stateMutability": "view",
      "type": "function"
    },
    {
      "inputs": [
        {
          "internalType": "address",
          "name": "recipient",
          "type": "address"
        },
        {
          "internalType": "uint256",
          "name": "amount",
          "type": "uint256"
        }
      ],
      "name": "transfer",
      "outputs": [
        {
          "internalType": "bool",
          "name": "",
          "type": "bool"
        }
      ],
      "stateMutability": "nonpayable",
      "type": "function"
    },
    {
      "inputs": [
        {
          "internalType": "address",
          "name": "sender",
          "type": "address"
        },
        {
          "internalType": "address",
          "name": "recipient",
          "type": "address"
        },
        {
          "internalType": "uint256",
          "name": "amount",
          "type": "uint256"
        }
      ],
      "name": "transferFrom",
      "outputs": [
        {
          "internalType": "bool",
          "name": "",
          "type": "bool"
        }
      ],
      "stateMutability": "nonpayable",
      "type": "function"
    },
    {
      "inputs": [],
      "name": "vdecimals",
      "outputs": [
        {
          "internalType": "uint8",
          "name": "",
          "type": "uint8"
        }
      ],
      "stateMutability": "view",
      "type": "function"
    },
    {
      "inputs": [],
      "name": "balance",
      "outputs": [
        {
          "internalType": "uint256",
          "name": "",
          "type": "uint256"
        }
      ],
      "stateMutability": "view",
      "type": "function"
    },
    {
      "inputs": [],
      "name": "available",
      "outputs": [
        {
          "internalType": "uint256",
          "name": "",
          "type": "uint256"
        }
      ],
      "stateMutability": "view",
      "type": "function"
    },
    {
      "inputs": [],
      "name": "earn",
      "outputs": [],
      "stateMutability": "nonpayable",
      "type": "function"
    },
    {
      "inputs": [
        {
          "internalType": "uint256",
          "name": "_amount",
          "type": "uint256"
        }
      ],
      "name": "deposit",
      "outputs": [
        {
          "internalType": "uint256",
          "name": "",
          "type": "uint256"
        }
      ],
      "stateMutability": "nonpayable",
      "type": "function"
    },
    {
      "inputs": [
        {
          "internalType": "uint256",
          "name": "_shares",
          "type": "uint256"
        },
        {
          "internalType": "address",
          "name": "_recipient",
          "type": "address"
        }
      ],
      "name": "withdraw",
      "outputs": [
        {
          "internalType": "uint256",
          "name": "",
          "type": "uint256"
        }
      ],
      "stateMutability": "nonpayable",
      "type": "function"
    },
    {
      "inputs": [],
      "name": "pricePerShare",
      "outputs": [
        {
          "internalType": "uint256",
          "name": "",
          "type": "uint256"
        }
      ],
      "stateMutability": "view",
      "type": "function"
    },
    {
      "inputs": [],
      "name": "clear",
      "outputs": [],
      "stateMutability": "nonpayable",
      "type": "function"
    }
  ],
  "bytecode": "0x608060405261251c6006553480156200001757600080fd5b50604051620022c2380380620022c28339810160408190526200003a91620001a8565b604080518082018252600a81527f794561726e204d6f636b0000000000000000000000000000000000000000000060208083019182528351808501909452600584527f794d4f434b000000000000000000000000000000000000000000000000000000908401528151919291620000b4916003916200010c565b508051620000ca9060049060208401906200010c565b50506005805460ff191660121790555060088054600160a060020a03938416600160a060020a03199182161790915560078054929093169116179055620001ff565b828054600181600116156101000203166002900490600052602060002090601f016020900481019282601f106200014f57805160ff19168380011785556200017f565b828001600101855582156200017f579182015b828111156200017f57825182559160200191906001019062000162565b506200018d92915062000191565b5090565b5b808211156200018d576000815560010162000192565b60008060408385031215620001bb578182fd5b8251620001c881620001e6565b6020840151909250620001db81620001e6565b809150509250929050565b600160a060020a0381168114620001fc57600080fd5b50565b6120b3806200020f6000396000f3fe608060405234801561001057600080fd5b50600436106101a9576000357c01000000000000000000000000000000000000000000000000000000009004806370a0823111610100578063b6b55f25116100a9578063f77c479111610083578063f77c4791146102f0578063f889794514610305578063fc0c546a1461030d576101a9565b8063b6b55f25146102c2578063d389800f146102d5578063dd62ed3e146102dd576101a9565b8063a457c2d7116100da578063a457c2d714610294578063a9059cbb146102a7578063b69ef8a8146102ba576101a9565b806370a082311461027157806395d89b411461028457806399530b061461028c576101a9565b80632fea88d41161016257806348a0d7541161013c57806348a0d7541461025757806352efea6e1461025f5780636ac5db1914610269576101a9565b80632fea88d414610227578063313ce5671461023c5780633950935114610244576101a9565b8063095ea7b311610193578063095ea7b3146101ec57806318160ddd1461020c57806323b872dd14610214576101a9565b8062f714ce146101ae57806306fdde03146101d7575b600080fd5b6101c16101bc366004611a72565b610315565b6040516101ce9190611f80565b60405180910390f35b6101df610592565b6040516101ce9190611b34565b6101ff6101fa3660046119f8565b610646565b6040516101ce9190611b29565b6101c1610664565b6101ff6102223660046119b8565b61066a565b61022f61070c565b6040516101ce9190611f89565b61022f61071b565b6101ff6102523660046119f8565b610724565b6101c161077f565b610267610836565b005b6101c1610a25565b6101c161027f366004611969565b610a2b565b6101df610a53565b6101c1610ad2565b6101ff6102a23660046119f8565b610af3565b6101ff6102b53660046119f8565b610b68565b6101c1610b7c565b6101c16102d0366004611a42565b610cd8565b610267610ead565b6101c16102eb366004611984565b610f75565b6102f8610fad565b6040516101ce9190611ab1565b6101c1610fc9565b6102f8610fcf565b60008061033b610323610664565b6103358661032f610b7c565b90610feb565b90611048565b90506103473385611094565b6008546040517f70a0823100000000000000000000000000000000000000000000000000000000815260009173ffffffffffffffffffffffffffffffffffffffff16906370a082319061039e903090600401611ab1565b60206040518083038186803b1580156103b657600080fd5b505afa1580156103ca573d6000803e3d6000fd5b505050506040513d601f19601f820116820180604052508101906103ee9190611a5a565b90508181101561056657600061040483836111c4565b6007546008546040517ff3fef3a300000000000000000000000000000000000000000000000000000000815292935073ffffffffffffffffffffffffffffffffffffffff9182169263f3fef3a3926104629216908590600401611b03565b600060405180830381600087803b15801561047c57600080fd5b505af1158015610490573d6000803e3d6000fd5b50506008546040517f70a082310000000000000000000000000000000000000000000000000000000081526000935073ffffffffffffffffffffffffffffffffffffffff90911691506370a08231906104ed903090600401611ab1565b60206040518083038186803b15801561050557600080fd5b505afa158015610519573d6000803e3d6000fd5b505050506040513d601f19601f8201168201806040525081019061053d9190611a5a565b9050600061054b82856111c4565b9050828110156105625761055f8482611206565b94505b5050505b60085461058a9073ffffffffffffffffffffffffffffffffffffffff168584611245565b505092915050565b60038054604080516020601f60027fffffffffffffffffffffffffffffffffffffffffffffffffffffffffffffffff61010060018816150201909516949094049384018190048102820181019092528281526060939092909183018282801561063c5780601f106106115761010080835404028352916020019161063c565b820191906000526020600020905b81548152906001019060200180831161061f57829003601f168201915b5050505050905090565b600061065a610653611307565b848461130b565b5060015b92915050565b60025490565b600061067784848461141a565b61070184610683611307565b6106fc856040518060600160405280602881526020016120316028913973ffffffffffffffffffffffffffffffffffffffff8a166000908152600160205260408120906106ce611307565b73ffffffffffffffffffffffffffffffffffffffff16815260208101919091526040016000205491906115a4565b61130b565b5060015b9392505050565b600061071661071b565b905090565b60055460ff1690565b600061065a610731611307565b846106fc8560016000610742611307565b73ffffffffffffffffffffffffffffffffffffffff908116825260208083019390935260409182016000908120918c168152925290205490611206565b6006546008546040517f70a082310000000000000000000000000000000000000000000000000000000081526000926107169261271092610335929173ffffffffffffffffffffffffffffffffffffffff16906370a08231906107e6903090600401611ab1565b60206040518083038186803b1580156107fe57600080fd5b505afa158015610812573d6000803e3d6000fd5b505050506040513d601f19601f8201168201806040525081019061032f9190611a5a565b6007546008546040517f70a082310000000000000000000000000000000000000000000000000000000081526109059273ffffffffffffffffffffffffffffffffffffffff9081169216906370a0823190610895903090600401611ab1565b60206040518083038186803b1580156108ad57600080fd5b505afa1580156108c1573d6000803e3d6000fd5b505050506040513d601f19601f820116820180604052508101906108e59190611a5a565b60085473ffffffffffffffffffffffffffffffffffffffff169190611245565b6007546008546040517f70a0823100000000000000000000000000000000000000000000000000000000815273ffffffffffffffffffffffffffffffffffffffff9283169263b02bf4b992169081906370a0823190610968903090600401611ab1565b60206040518083038186803b15801561098057600080fd5b505afa158015610994573d6000803e3d6000fd5b505050506040513d601f19601f820116820180604052508101906109b89190611a5a565b6040518363ffffffff167c01000000000000000000000000000000000000000000000000000000000281526004016109f1929190611b03565b600060405180830381600087803b158015610a0b57600080fd5b505af1158015610a1f573d6000803e3d6000fd5b50505050565b61271081565b73ffffffffffffffffffffffffffffffffffffffff1660009081526020819052604090205490565b60048054604080516020601f60027fffffffffffffffffffffffffffffffffffffffffffffffffffffffffffffffff61010060018816150201909516949094049384018190048102820181019092528281526060939092909183018282801561063c5780601f106106115761010080835404028352916020019161063c565b6000610716610adf610664565b610335670de0b6b3a764000061032f610b7c565b600061065a610b00611307565b846106fc856040518060600160405280602581526020016120596025913960016000610b2a611307565b73ffffffffffffffffffffffffffffffffffffffff908116825260208083019390935260409182016000908120918d168152925290205491906115a4565b600061065a610b75611307565b848461141a565b6007546008546040517f70a082310000000000000000000000000000000000000000000000000000000081526000926107169273ffffffffffffffffffffffffffffffffffffffff918216926370a0823192610bdc921690600401611ab1565b60206040518083038186803b158015610bf457600080fd5b505afa158015610c08573d6000803e3d6000fd5b505050506040513d601f19601f82011682018060405250810190610c2c9190611a5a565b6008546040517f70a0823100000000000000000000000000000000000000000000000000000000815273ffffffffffffffffffffffffffffffffffffffff909116906370a0823190610c82903090600401611ab1565b60206040518083038186803b158015610c9a57600080fd5b505afa158015610cae573d6000803e3d6000fd5b505050506040513d601f19601f82011682018060405250810190610cd29190611a5a565b90611206565b600080610ce3610b7c565b6008546040517f70a0823100000000000000000000000000000000000000000000000000000000815291925060009173ffffffffffffffffffffffffffffffffffffffff909116906370a0823190610d3f903090600401611ab1565b60206040518083038186803b158015610d5757600080fd5b505afa158015610d6b573d6000803e3d6000fd5b505050506040513d601f19601f82011682018060405250810190610d8f9190611a5a565b600854909150610db79073ffffffffffffffffffffffffffffffffffffffff163330876115ea565b6008546040517f70a0823100000000000000000000000000000000000000000000000000000000815260009173ffffffffffffffffffffffffffffffffffffffff16906370a0823190610e0e903090600401611ab1565b60206040518083038186803b158015610e2657600080fd5b505afa158015610e3a573d6000803e3d6000fd5b505050506040513d601f19601f82011682018060405250810190610e5e9190611a5a565b9050610e6a81836111c4565b94506000610e76610664565b610e81575084610e9a565b610e9784610335610e90610664565b8990610feb565b90505b610ea43382611627565b50505050919050565b6000610eb761077f565b600754600854919250610ee49173ffffffffffffffffffffffffffffffffffffffff908116911683611245565b6007546008546040517fb02bf4b900000000000000000000000000000000000000000000000000000000815273ffffffffffffffffffffffffffffffffffffffff9283169263b02bf4b992610f40929116908590600401611b03565b600060405180830381600087803b158015610f5a57600080fd5b505af1158015610f6e573d6000803e3d6000fd5b5050505050565b73ffffffffffffffffffffffffffffffffffffffff918216600090815260016020908152604080832093909416825291909152205490565b60075473ffffffffffffffffffffffffffffffffffffffff1681565b60065481565b60085473ffffffffffffffffffffffffffffffffffffffff1681565b600082610ffa5750600061065e565b8282028284828161100757fe5b0414610705576040517f08c379a000000000000000000000000000000000000000000000000000000000815260040161103f90611d41565b60405180910390fd5b6000808211611083576040517f08c379a000000000000000000000000000000000000000000000000000000000815260040161103f90611d0a565b81838161108c57fe5b049392505050565b73ffffffffffffffffffffffffffffffffffffffff82166110e1576040517f08c379a000000000000000000000000000000000000000000000000000000000815260040161103f90611d9e565b6110ed82600083611302565b61113781604051806060016040528060228152602001611fe96022913973ffffffffffffffffffffffffffffffffffffffff851660009081526020819052604090205491906115a4565b73ffffffffffffffffffffffffffffffffffffffff831660009081526020819052604090205560025461116a90826111c4565b60025560405160009073ffffffffffffffffffffffffffffffffffffffff8416907fddf252ad1be2c89b69c2b068fc378daa952ba7f163c4a11628f55a4df523b3ef906111b8908590611f80565b60405180910390a35050565b600082821115611200576040517f08c379a000000000000000000000000000000000000000000000000000000000815260040161103f90611c76565b50900390565b600082820183811015610705576040517f08c379a000000000000000000000000000000000000000000000000000000000815260040161103f90611c3f565b6113028363a9059cbb7c0100000000000000000000000000000000000000000000000000000000028484604051602401611280929190611b03565b604080517fffffffffffffffffffffffffffffffffffffffffffffffffffffffffffffffe08184030181529190526020810180517bffffffffffffffffffffffffffffffffffffffffffffffffffffffff167fffffffff000000000000000000000000000000000000000000000000000000009093169290921790915261171c565b505050565b3390565b73ffffffffffffffffffffffffffffffffffffffff8316611358576040517f08c379a000000000000000000000000000000000000000000000000000000000815260040161103f90611e58565b73ffffffffffffffffffffffffffffffffffffffff82166113a5576040517f08c379a000000000000000000000000000000000000000000000000000000000815260040161103f90611be2565b73ffffffffffffffffffffffffffffffffffffffff80841660008181526001602090815260408083209487168084529490915290819020849055517f8c5be1e5ebec7d5bd14f71427d1e84f3dd0314c0f7b2291e5b200ac8c7c3b9259061140d908590611f80565b60405180910390a3505050565b73ffffffffffffffffffffffffffffffffffffffff8316611467576040517f08c379a000000000000000000000000000000000000000000000000000000000815260040161103f90611dfb565b73ffffffffffffffffffffffffffffffffffffffff82166114b4576040517f08c379a000000000000000000000000000000000000000000000000000000000815260040161103f90611b85565b6114bf838383611302565b6115098160405180606001604052806026815260200161200b6026913973ffffffffffffffffffffffffffffffffffffffff861660009081526020819052604090205491906115a4565b73ffffffffffffffffffffffffffffffffffffffff80851660009081526020819052604080822093909355908416815220546115459082611206565b73ffffffffffffffffffffffffffffffffffffffff80841660008181526020819052604090819020939093559151908516907fddf252ad1be2c89b69c2b068fc378daa952ba7f163c4a11628f55a4df523b3ef9061140d908590611f80565b600081848411156115e2576040517f08c379a000000000000000000000000000000000000000000000000000000000815260040161103f9190611b34565b505050900390565b610a1f846323b872dd7c01000000000000000000000000000000000000000000000000000000000285858560405160240161128093929190611ad2565b73ffffffffffffffffffffffffffffffffffffffff8216611674576040517f08c379a000000000000000000000000000000000000000000000000000000000815260040161103f90611f49565b61168060008383611302565b60025461168d9082611206565b60025573ffffffffffffffffffffffffffffffffffffffff82166000908152602081905260409020546116c09082611206565b73ffffffffffffffffffffffffffffffffffffffff83166000818152602081905260408082209390935591519091907fddf252ad1be2c89b69c2b068fc378daa952ba7f163c4a11628f55a4df523b3ef906111b8908590611f80565b606061177e826040518060400160405280602081526020017f5361666545524332303a206c6f772d6c6576656c2063616c6c206661696c65648152508573ffffffffffffffffffffffffffffffffffffffff166117d29092919063ffffffff16565b805190915015611302578080602001905181019061179c9190611a22565b611302576040517f08c379a000000000000000000000000000000000000000000000000000000000815260040161103f90611eec565b60606117e184846000856117e9565b949350505050565b60603031831115611826576040517f08c379a000000000000000000000000000000000000000000000000000000000815260040161103f90611cad565b61182f856118ec565b611865576040517f08c379a000000000000000000000000000000000000000000000000000000000815260040161103f90611eb5565b600060608673ffffffffffffffffffffffffffffffffffffffff16858760405161188f9190611a95565b60006040518083038185875af1925050503d80600081146118cc576040519150601f19603f3d011682016040523d82523d6000602084013e6118d1565b606091505b50915091506118e18282866118f2565b979650505050505050565b3b151590565b60608315611901575081610705565b8251156119115782518084602001fd5b816040517f08c379a000000000000000000000000000000000000000000000000000000000815260040161103f9190611b34565b803573ffffffffffffffffffffffffffffffffffffffff8116811461065e57600080fd5b60006020828403121561197a578081fd5b6107058383611945565b60008060408385031215611996578081fd5b6119a08484611945565b91506119af8460208501611945565b90509250929050565b6000806000606084860312156119cc578081fd5b83356119d781611fc3565b925060208401356119e781611fc3565b929592945050506040919091013590565b60008060408385031215611a0a578182fd5b611a148484611945565b946020939093013593505050565b600060208284031215611a33578081fd5b81518015158114610705578182fd5b600060208284031215611a53578081fd5b5035919050565b600060208284031215611a6b578081fd5b5051919050565b60008060408385031215611a84578182fd5b823591506119af8460208501611945565b60008251611aa7818460208701611f97565b9190910192915050565b73ffffffffffffffffffffffffffffffffffffffff91909116815260200190565b73ffffffffffffffffffffffffffffffffffffffff9384168152919092166020820152604081019190915260600190565b73ffffffffffffffffffffffffffffffffffffffff929092168252602082015260400190565b901515815260200190565b6000602082528251806020840152611b53816040850160208701611f97565b601f017fffffffffffffffffffffffffffffffffffffffffffffffffffffffffffffffe0169190910160400192915050565b60208082526023908201527f45524332303a207472616e7366657220746f20746865207a65726f206164647260408201527f6573730000000000000000000000000000000000000000000000000000000000606082015260800190565b60208082526022908201527f45524332303a20617070726f766520746f20746865207a65726f20616464726560408201527f7373000000000000000000000000000000000000000000000000000000000000606082015260800190565b6020808252601b908201527f536166654d6174683a206164646974696f6e206f766572666c6f770000000000604082015260600190565b6020808252601e908201527f536166654d6174683a207375627472616374696f6e206f766572666c6f770000604082015260600190565b60208082526026908201527f416464726573733a20696e73756666696369656e742062616c616e636520666f60408201527f722063616c6c0000000000000000000000000000000000000000000000000000606082015260800190565b6020808252601a908201527f536166654d6174683a206469766973696f6e206279207a65726f000000000000604082015260600190565b60208082526021908201527f536166654d6174683a206d756c7469706c69636174696f6e206f766572666c6f60408201527f7700000000000000000000000000000000000000000000000000000000000000606082015260800190565b60208082526021908201527f45524332303a206275726e2066726f6d20746865207a65726f2061646472657360408201527f7300000000000000000000000000000000000000000000000000000000000000606082015260800190565b60208082526025908201527f45524332303a207472616e736665722066726f6d20746865207a65726f20616460408201527f6472657373000000000000000000000000000000000000000000000000000000606082015260800190565b60208082526024908201527f45524332303a20617070726f76652066726f6d20746865207a65726f2061646460408201527f7265737300000000000000000000000000000000000000000000000000000000606082015260800190565b6020808252601d908201527f416464726573733a2063616c6c20746f206e6f6e2d636f6e7472616374000000604082015260600190565b6020808252602a908201527f5361666545524332303a204552433230206f7065726174696f6e20646964206e60408201527f6f74207375636365656400000000000000000000000000000000000000000000606082015260800190565b6020808252601f908201527f45524332303a206d696e7420746f20746865207a65726f206164647265737300604082015260600190565b90815260200190565b60ff91909116815260200190565b60005b83811015611fb2578181015183820152602001611f9a565b83811115610a1f5750506000910152565b73ffffffffffffffffffffffffffffffffffffffff81168114611fe557600080fd5b5056fe45524332303a206275726e20616d6f756e7420657863656564732062616c616e636545524332303a207472616e7366657220616d6f756e7420657863656564732062616c616e636545524332303a207472616e7366657220616d6f756e74206578636565647320616c6c6f77616e636545524332303a2064656372656173656420616c6c6f77616e63652062656c6f77207a65726fa2646970667358221220bb1cf99c743adf2d768d387064af278a7fbf0970087a4bee1a0cae2a2032446064736f6c634300060c0033",
  "immutableReferences": {},
  "source": "// SPDX-License-Identifier: GPL-3.0\npragma solidity ^0.6.12;\npragma experimental ABIEncoderV2;\n\nimport \"hardhat/console.sol\";\n\nimport \"@openzeppelin/contracts/math/SafeMath.sol\";\nimport \"@openzeppelin/contracts/token/ERC20/ERC20.sol\";\nimport \"@openzeppelin/contracts/token/ERC20/IERC20.sol\";\nimport \"@openzeppelin/contracts/token/ERC20/SafeERC20.sol\";\n\nimport \"../interfaces/IYearnController.sol\";\nimport \"../interfaces/IYearnVault.sol\";\n\ncontract YearnVaultMock is  ERC20 {\n  using SafeERC20 for IDetailedERC20;\n  using SafeMath for uint256;\n\n  uint256 public min = 9500;\n  uint256 public constant max = 10000;\n\n  IYearnController public controller;\n  IDetailedERC20 public token;\n\n  constructor(IDetailedERC20 _token, IYearnController _controller) public ERC20(\"yEarn Mock\", \"yMOCK\") {\n    token = _token;\n    controller = _controller;\n  }\n\n  function vdecimals() external view returns (uint8) {\n    return decimals();\n  }\n\n  function balance() public view  returns (uint256) {\n    return token.balanceOf(address(this)).add(controller.balanceOf(address(token)));\n  }\n\n  function available() public view  returns (uint256) {\n    return token.balanceOf(address(this)).mul(min).div(max);\n  }\n\n  function earn() external  {\n    uint _bal = available();\n    token.safeTransfer(address(controller), _bal);\n    controller.earn(address(token), _bal);\n  }\n\n  function deposit(uint256 _amount) external returns (uint){\n    uint _pool = balance();\n    uint _before = token.balanceOf(address(this));\n    token.safeTransferFrom(msg.sender, address(this), _amount);\n    uint _after = token.balanceOf(address(this));\n    _amount = _after.sub(_before); // Additional check for deflationary tokens\n    uint _shares = 0;\n    if (totalSupply() == 0) {\n      _shares = _amount;\n    } else {\n      _shares = (_amount.mul(totalSupply())).div(_pool);\n    }\n    _mint(msg.sender, _shares);\n  }\n\n  function withdraw(uint _shares, address _recipient) external returns (uint) {\n    uint _r = (balance().mul(_shares)).div(totalSupply());\n    _burn(msg.sender, _shares);\n\n    // Check balance\n    uint _b = token.balanceOf(address(this));\n    if (_b < _r) {\n      uint _withdraw = _r.sub(_b);\n      controller.withdraw(address(token), _withdraw);\n      uint _after = token.balanceOf(address(this));\n      uint _diff = _after.sub(_b);\n      if (_diff < _withdraw) {\n        _r = _b.add(_diff);\n      }\n    }\n\n    token.safeTransfer(_recipient, _r);\n  }\n\n  function pricePerShare() external view returns (uint256) {\n    return balance().mul(1e18).div(totalSupply());\n  }// changed to v2\n\n  /// @dev This is not part of the vault contract and is meant for quick debugging contracts to have control over\n  /// completely clearing the vault buffer to test certain behaviors better.\n  function clear() external {\n    token.safeTransfer(address(controller), token.balanceOf(address(this)));\n    controller.earn(address(token), token.balanceOf(address(this)));\n  }\n}",
  "sourcePath": "/Users/shr1ftyy/Personal/Computing/bounties/alcx/alchemix-protocol/contracts/mocks/YearnVaultMock.sol",
  "compiler": {
    "name": "solc",
    "version": "0.6.12+commit.27d51765.Emscripten.clang"
  },
  "schemaVersion": "3.4.4",
  "updatedAt": "2022-01-12T10:48:15.768Z",
  "devdoc": {
    "kind": "dev",
    "methods": {
      "allowance(address,address)": {
        "details": "See {IERC20-allowance}."
      },
      "approve(address,uint256)": {
        "details": "See {IERC20-approve}. Requirements: - `spender` cannot be the zero address."
      },
      "balanceOf(address)": {
        "details": "See {IERC20-balanceOf}."
      },
      "clear()": {
        "details": "This is not part of the vault contract and is meant for quick debugging contracts to have control over completely clearing the vault buffer to test certain behaviors better."
      },
      "decimals()": {
        "details": "Returns the number of decimals used to get its user representation. For example, if `decimals` equals `2`, a balance of `505` tokens should be displayed to a user as `5,05` (`505 / 10 ** 2`). Tokens usually opt for a value of 18, imitating the relationship between Ether and Wei. This is the value {ERC20} uses, unless {_setupDecimals} is called. NOTE: This information is only used for _display_ purposes: it in no way affects any of the arithmetic of the contract, including {IERC20-balanceOf} and {IERC20-transfer}."
      },
      "decreaseAllowance(address,uint256)": {
        "details": "Atomically decreases the allowance granted to `spender` by the caller. This is an alternative to {approve} that can be used as a mitigation for problems described in {IERC20-approve}. Emits an {Approval} event indicating the updated allowance. Requirements: - `spender` cannot be the zero address. - `spender` must have allowance for the caller of at least `subtractedValue`."
      },
      "increaseAllowance(address,uint256)": {
        "details": "Atomically increases the allowance granted to `spender` by the caller. This is an alternative to {approve} that can be used as a mitigation for problems described in {IERC20-approve}. Emits an {Approval} event indicating the updated allowance. Requirements: - `spender` cannot be the zero address."
      },
      "name()": {
        "details": "Returns the name of the token."
      },
      "symbol()": {
        "details": "Returns the symbol of the token, usually a shorter version of the name."
      },
      "totalSupply()": {
        "details": "See {IERC20-totalSupply}."
      },
      "transfer(address,uint256)": {
        "details": "See {IERC20-transfer}. Requirements: - `recipient` cannot be the zero address. - the caller must have a balance of at least `amount`."
      },
      "transferFrom(address,address,uint256)": {
        "details": "See {IERC20-transferFrom}. Emits an {Approval} event indicating the updated allowance. This is not required by the EIP. See the note at the beginning of {ERC20}. Requirements: - `sender` and `recipient` cannot be the zero address. - `sender` must have a balance of at least `amount`. - the caller must have allowance for ``sender``'s tokens of at least `amount`."
      }
    },
    "version": 1
  },
  "userdoc": {
    "kind": "user",
    "methods": {},
    "version": 1
  }
}