{
  "contractName": "YearnControllerMock",
  "abi": [
    {
      "inputs": [],
      "name": "blackhole",
      "outputs": [
        {
          "internalType": "address",
          "name": "",
          "type": "address"
        }
      ],
      "stateMutability": "view",
      "type": "function"
    },
    {
      "inputs": [],
      "name": "withdrawalFee",
      "outputs": [
        {
          "internalType": "uint256",
          "name": "",
          "type": "uint256"
        }
      ],
      "stateMutability": "view",
      "type": "function"
    },
    {
      "inputs": [],
      "name": "withdrawalMax",
      "outputs": [
        {
          "internalType": "uint256",
          "name": "",
          "type": "uint256"
        }
      ],
      "stateMutability": "view",
      "type": "function"
    },
    {
      "inputs": [
        {
          "internalType": "uint256",
          "name": "_withdrawalFee",
          "type": "uint256"
        }
      ],
      "name": "setWithdrawalFee",
      "outputs": [],
      "stateMutability": "nonpayable",
      "type": "function"
    },
    {
      "inputs": [
        {
          "internalType": "address",
          "name": "_token",
          "type": "address"
        }
      ],
      "name": "balanceOf",
      "outputs": [
        {
          "internalType": "uint256",
          "name": "",
          "type": "uint256"
        }
      ],
      "stateMutability": "view",
      "type": "function"
    },
    {
      "inputs": [
        {
          "internalType": "address",
          "name": "_token",
          "type": "address"
        },
        {
          "internalType": "uint256",
          "name": "_amount",
          "type": "uint256"
        }
      ],
      "name": "earn",
      "outputs": [],
      "stateMutability": "nonpayable",
      "type": "function"
    },
    {
      "inputs": [
        {
          "internalType": "address",
          "name": "_token",
          "type": "address"
        },
        {
          "internalType": "uint256",
          "name": "_amount",
          "type": "uint256"
        }
      ],
      "name": "withdraw",
      "outputs": [],
      "stateMutability": "nonpayable",
      "type": "function"
    }
  ],
  "bytecode": "0x6080604052603260005534801561001557600080fd5b50610874806100256000396000f3fe608060405234801561001057600080fd5b506004361061009a576000357c010000000000000000000000000000000000000000000000000000000090048063b02bf4b911610078578063b02bf4b9146100e5578063d5c1ff73146100f8578063f34447f714610100578063f3fef3a3146101155761009a565b806370a082311461009f5780638bc7e8c4146100c8578063ac1e5025146100d0575b600080fd5b6100b26100ad3660046105cb565b610128565b6040516100bf9190610805565b60405180910390f35b6100b26101d3565b6100e36100de366004610630565b6101d9565b005b6100e36100f33660046105e6565b6101de565b6100b26101e2565b6101086101e8565b6040516100bf919061067c565b6100e36101233660046105e6565b6101ee565b6040517f70a0823100000000000000000000000000000000000000000000000000000000815260009073ffffffffffffffffffffffffffffffffffffffff8316906370a082319061017d90309060040161067c565b60206040518083038186803b15801561019557600080fd5b505afa1580156101a9573d6000803e3d6000fd5b505050506040513d601f19601f820116820180604052508101906101cd9190610648565b92915050565b60005481565b600055565b5050565b61271081565b61dead81565b6040517f70a0823100000000000000000000000000000000000000000000000000000000815260009073ffffffffffffffffffffffffffffffffffffffff8416906370a082319061024390309060040161067c565b60206040518083038186803b15801561025b57600080fd5b505afa15801561026f573d6000803e3d6000fd5b505050506040513d601f19601f820116820180604052508101906102939190610648565b90506102b673ffffffffffffffffffffffffffffffffffffffff841633846102bb565b505050565b6102b68363a9059cbb7c01000000000000000000000000000000000000000000000000000000000284846040516024016102f692919061069d565b604080517fffffffffffffffffffffffffffffffffffffffffffffffffffffffffffffffe08184030181529190526020810180517bffffffffffffffffffffffffffffffffffffffffffffffffffffffff167fffffffff000000000000000000000000000000000000000000000000000000009093169290921790915260606103d5826040518060400160405280602081526020017f5361666545524332303a206c6f772d6c6576656c2063616c6c206661696c65648152508573ffffffffffffffffffffffffffffffffffffffff166104329092919063ffffffff16565b8051909150156102b657808060200190518101906103f39190610610565b6102b6576040517f08c379a0000000000000000000000000000000000000000000000000000000008152600401610429906107a8565b60405180910390fd5b6060610441848460008561044b565b90505b9392505050565b60603031831115610488576040517f08c379a000000000000000000000000000000000000000000000000000000000815260040161042990610714565b6104918561054e565b6104c7576040517f08c379a000000000000000000000000000000000000000000000000000000000815260040161042990610771565b600060608673ffffffffffffffffffffffffffffffffffffffff1685876040516104f19190610660565b60006040518083038185875af1925050503d806000811461052e576040519150601f19603f3d011682016040523d82523d6000602084013e610533565b606091505b5091509150610543828286610554565b979650505050505050565b3b151590565b60608315610563575081610444565b8251156105735782518084602001fd5b816040517f08c379a000000000000000000000000000000000000000000000000000000000815260040161042991906106c3565b803573ffffffffffffffffffffffffffffffffffffffff811681146101cd57600080fd5b6000602082840312156105dc578081fd5b61044483836105a7565b600080604083850312156105f8578081fd5b61060284846105a7565b946020939093013593505050565b600060208284031215610621578081fd5b81518015158114610444578182fd5b600060208284031215610641578081fd5b5035919050565b600060208284031215610659578081fd5b5051919050565b6000825161067281846020870161080e565b9190910192915050565b73ffffffffffffffffffffffffffffffffffffffff91909116815260200190565b73ffffffffffffffffffffffffffffffffffffffff929092168252602082015260400190565b60006020825282518060208401526106e281604085016020870161080e565b601f017fffffffffffffffffffffffffffffffffffffffffffffffffffffffffffffffe0169190910160400192915050565b60208082526026908201527f416464726573733a20696e73756666696369656e742062616c616e636520666f60408201527f722063616c6c0000000000000000000000000000000000000000000000000000606082015260800190565b6020808252601d908201527f416464726573733a2063616c6c20746f206e6f6e2d636f6e7472616374000000604082015260600190565b6020808252602a908201527f5361666545524332303a204552433230206f7065726174696f6e20646964206e60408201527f6f74207375636365656400000000000000000000000000000000000000000000606082015260800190565b90815260200190565b60005b83811015610829578181015183820152602001610811565b83811115610838576000848401525b5050505056fea2646970667358221220369dfce383f44740cb546816ce91d78e1f4f130db12dce52ae02287ed8a9f55f64736f6c634300060c0033",
  "immutableReferences": {},
  "source": "// SPDX-License-Identifier: GPL-3.0\npragma solidity ^0.6.12;\npragma experimental ABIEncoderV2;\n\nimport \"hardhat/console.sol\";\n\nimport {IERC20} from \"@openzeppelin/contracts/token/ERC20/IERC20.sol\";\nimport {SafeERC20} from \"@openzeppelin/contracts/token/ERC20/SafeERC20.sol\";\nimport {SafeMath} from \"@openzeppelin/contracts/math/SafeMath.sol\";\n\nimport \"../interfaces/IYearnController.sol\";\n\ncontract YearnControllerMock is IYearnController {\n  using SafeERC20 for IERC20;\n  using SafeMath for uint256;\n\n  address constant public blackhole = 0x000000000000000000000000000000000000dEaD;\n\n  uint256 public withdrawalFee = 50;\n  uint256 constant public withdrawalMax = 10000;\n\n  function setWithdrawalFee(uint256 _withdrawalFee) external {\n    withdrawalFee = _withdrawalFee;\n  }\n\n  function balanceOf(address _token) external view override returns (uint256) {\n    return IERC20(_token).balanceOf(address(this));\n  }\n\n  function earn(address _token, uint256 _amount) external override { }\n\n  function withdraw(address _token, uint256 _amount) external override {\n    uint _balance = IERC20(_token).balanceOf(address(this));\n    // uint _fee = _amount.mul(withdrawalFee).div(withdrawalMax);\n\n    // IERC20(_token).safeTransfer(blackhole, _fee);\n    IERC20(_token).safeTransfer(msg.sender, _amount);\n  }\n}",
  "sourcePath": "/Users/shr1ftyy/Personal/Computing/bounties/alcx/alchemix-protocol/contracts/mocks/YearnControllerMock.sol",
  "compiler": {
    "name": "solc",
    "version": "0.6.12+commit.27d51765.Emscripten.clang"
  },
  "schemaVersion": "3.4.4",
  "updatedAt": "2022-01-12T10:48:15.767Z",
  "devdoc": {
    "kind": "dev",
    "methods": {},
    "version": 1
  },
  "userdoc": {
    "kind": "user",
    "methods": {},
    "version": 1
  }
}